:0200000480007A
:100000006F00C0006F0000006F00800297020000C8
:1000100093824202739052307350003073504030DC
:1000200093810100172104001301C1EF6F00401AF2
:100030001301C1F7232011002322210023243100C2
:100040002326410023285100232A6100232C71001C
:10005000232E8100232091022322A1022324B10216
:100060002326C1022328D102232AE102232CF102F4
:10007000232E0103232011052322210523243105EA
:100080002326410523285105232A6105232C7105C8
:10009000232E8105232091072322A1072324B107C2
:1000A0002326C1072328D107232AE107232CF107A0
:1000B000F3221034232E510693028000F3B2023053
:1000C0002320510873252034F32510341306010032
:1000D000EF00406D73101534B72200009382028048
:1000E00073A00230832201089392420073A0023071
:1000F0008320010003214100832181000322C100EC
:100100008322010103234101832381010324C101CF
:100110008324010203254102832581020326C102B3
:100120008326010303274103832781030328C10397
:10013000832801040329410483298104032AC1047B
:10014000832A0105032B4105832B8105032CC1055F
:10015000832C0106032D4106832D8106032EC10643
:10016000832E0107032F4107832F810713014108C5
:1001700073002030000000000000000000000000BC
:10018000130101FD2326810213040103232EA4FC85
:10019000232CB4FC8327C4FD2326F4FE6F008001CA
:1001A0008327C4FE23A007008327C4FE938747004C
:1001B0002326F4FE0327C4FE832784FDE3F2E7FE33
:1001C000130000000324C102130101036780000033
:1001D000130101FE232E1100232C810013040102C0
:1001E000B7770080938707EA2326F4FE8327C4FEAF
:1001F0002320F4FE232204FE232404FE938501978A
:1002000013850190EFF0DFF7B7270280938507F29F
:1002100013850197EFF0DFF6930704FE938507003F
:1002200013051000EF609022130000008320C1012D
:10023000032481011301010267800000130101FF03
:100240002326810013040101130000000324C100D0
:100250001301010167800000130101FD23268102C3
:1002600013040103232EA4FCF32740F12326F4FEFC
:100270008327C4FE2324F4FE370700408327C4FDF0
:1002800093D75700832684FE93965600B386F600D4
:10029000B717000093870780B387F600939727006E
:1002A000B307F70083A707002322F4FE8327C4FDCA
:1002B00093F7F70113071000B317F70093C7F7FF81
:1002C000032744FEB377F7002322F4FE37070040EC
:1002D0008327C4FD93D75700832684FE9396560048
:1002E000B386F600B717000093870780B387F60040
:1002F00093972700B307F700032744FE23A0E700E6
:10030000130000000324C1021301010367800000F1
:10031000130101FE232E810013040102F32740F193
:100320002326F4FE8327C4FE2324F4FE370700406F
:10033000832784FE938707209397C700B307F700AE
:1003400083A74700138507000324C101130101029D
:1003500067800000130101FD2326810213040103BD
:10036000232EA4FCF32740F12326F4FE8327C4FEAA
:100370002324F4FE37070040832784FE9387072059
:100380009397C700B307F7000327C4FD23A2E70034
:10039000130000000324C102130101036780000061
:1003A000130101FE232E810013040102F3670430C0
:1003B0002326F4FE130000000324C10113010102EF
:1003C00067800000130101FE232E1100232C810001
:1003D0001304010293070008F3B747302326F4FE05
:1003E000EF10805137070044B7C70000B307F7008C
:1003F00003A8C7FF83A787FF83A5019003A64190A9
:1004000037050044732740F12324E4FE832884FE4B
:10041000B386B700138306003333F3003307C800F5
:10042000B307E3001387070093870600130807004C
:1004300037170000130707803387E80013173700CA
:100440003307E5002320F700232207019307000864
:10045000F3A747302322F4FE130000008320C101DC
:10046000032481011301010267800000130101FED2
:10047000232E1100232C810013040102EFF05FE909
:100480002326A4FEA30504FEB77700800327C4FE3D
:100490001317270093870775B307F70083A7070093
:1004A000E780070093070500A305F4FE0325C4FEBB
:1004B000EFF05FEA0347B4FE930710006318F700FC
:1004C0000325C4FEEFF05FD9130000001300000005
:1004D0008320C10103248101130101026780000010
:1004E000130101FF232611002324810013040101BD
:1004F000EF100053B707004423A0070013000000CB
:100500008320C100032481001301010167800000E2
:10051000130101FD23261102232481021304010388
:10052000930200009302010093870200938747071C
:100530002326F4FE8327C4FE83A707002324F4FEAA
:1005400093870200938787072326F4FE8327C4FE40
:1005500083A707002322F4FE938702009387C7072F
:100560002326F4FE8327C4FE83A707002320F4FE7E
:1005700093870200938707082326F4FE8327C4FE8F
:1005800083A70700232EF4FC938702009387470874
:100590002326F4FE8327C4FE83A70700232CF4FC44
:1005A00093870200938787082326F4FE8327C4FEDF
:1005B00083A70700232CF4FC938702009387070985
:1005C0002326F4FE8327C4FE83A70700232AF4FC16
:1005D000832744FD938767FF130780036366F71241
:1005E00013972700B77700809387C7F3B307F70007
:1005F00083A7070067800700B7770080138587EA25
:10060000EF201004832784FE93850700B7770080CE
:10061000138507EDEF20900D832744FE9385070097
:10062000B7770080138587EDEF20500C832704FEF9
:1006300093850700B7770080138507EEEF20100B36
:100640008327C4FD93850700B7770080138587EE65
:10065000EF20D009832784FD93850700B7770080BA
:10066000138507EFEF209008832744FD938507004B
:10067000B7770080138587EFEF2050076F00401198
:10068000832784FE13850700EF20807B832784FE69
:1006900093850700B7270280138507F1EF00903795
:1006A0006F00000F832784FE13850700EF205000A2
:1006B000032784FE1306A000B7170280938587AB3B
:1006C00013050700EF20D031B7170280938587AB61
:1006D000B7270280138507F1EF00D0336F00400B7E
:1006E000832544FE032584FEEF3080096F00400A15
:1006F000832544FE032584FEEF3000516F0040093E
:10070000EF50505E6F00C008B7770080138507F088
:10071000EF200073832784FE93850700B77700805E
:10072000138507EDEF20807C832744FE9385070027
:10073000B7770080138587EDEF20407B832704FE89
:1007400093850700B7770080138507EEEF20007AC6
:100750008327C4FD93850700B7770080138587EE54
:10076000EF20C078832784FD93850700B77700804A
:10077000138507EFEF208077832744FD93850700DB
:10078000B7770080138587EFEF20407613000000D5
:10079000130000008320C10203248102130101031E
:1007A00067800000130101FE232E1100232C81001D
:1007B000130401022326A4FE2324B4FE8327C4FECF
:1007C00063CC07060327C4FEB707008093C7F7FF73
:1007D0003377F7009307B0006306F7040327C4FEDE
:1007E000B707008093C7F7FF3377F7009307A000A0
:1007F000630AF7020327C4FEB707008093C7F7FF19
:100800003377F70093079000630EF7000327C4FEC9
:10081000B707008093C7F7FF3377F700930780008F
:10082000631CF700EFF0DFCE832784FE9387470039
:100830002324F4FE6F00400C8327C4FE63D207021A
:100840000327C4FEB707008093C7F7FF3377F7008D
:100850009307B0006316F700EFF05FC16F00C009A7
:100860008327C4FE63D207020327C4FEB7070080B4
:1008700093C7F7FF3377F700930770006316F7000D
:10088000EFF05FB46F0040078327C4FE63D2070216
:100890000327C4FEB707008093C7F7FF3377F7003D
:1008A000930730006316F700EFF09FC36F00C0049A
:1008B00013065000B7770080938507F213051000E8
:1008C000EF604057832784FE93850700B777008049
:1008D000138587F2EF2080618327C4FE938507008C
:1008E000B7770080138507F3EF2040608327C4FEAD
:1008F00013850700EF00404C832784FE1385070013
:100900008320C101032481011301010267800000DB
:10091000130101FF23268100130401019307000046
:10092000138507000324C100130101016780000043
:10093000130101FF23268100130401019307000026
:10094000138507000324C100130101016780000023
:10095000130101FF23268100130401019307000006
:10096000138507000324C100130101016780000003
:10097000130101FF232681001304010193070000E6
:10098000138507000324C1001301010167800000E3
:10099000130101FF232681001304010193070000C6
:1009A000138507000324C1001301010167800000C3
:1009B000130101FF232681001304010193070000A6
:1009C000138507000324C1001301010167800000A3
:1009D000130101FF23268100130401019307000086
:1009E000138507000324C100130101016780000083
:1009F000130101FF23268100130401019307000066
:100A0000138507000324C100130101016780000062
:100A1000130101FF23268100130401019307000045
:100A2000138507000324C100130101016780000042
:100A3000130101FF23268100130401019307000025
:100A4000138507000324C100130101016780000022
:100A5000130101FF23268100130401019307000005
:100A6000138507000324C100130101016780000002
:100A7000130101FF232681001304010193070000E5
:100A8000138507000324C1001301010167800000E2
:100A9000130101FF232681001304010193070000C5
:100AA000138507000324C1001301010167800000C2
:100AB000130101FF232681001304010193070000A5
:100AC000138507000324C1001301010167800000A2
:100AD000130101FF23268100130401019307000085
:100AE000138507000324C100130101016780000082
:100AF000130101FF23268100130401019307000065
:100B0000138507000324C100130101016780000061
:100B1000130101FF23268100130401019307000044
:100B2000138507000324C100130101016780000041
:100B3000130101FF23268100130401019307000024
:100B4000138507000324C100130101016780000021
:100B5000130101FF23268100130401019307000004
:100B6000138507000324C100130101016780000001
:100B7000130101FF232681001304010193070000E4
:100B8000138507000324C1001301010167800000E1
:100B9000130101FF232681001304010193070000C4
:100BA000138507000324C1001301010167800000C1
:100BB000130101FF232681001304010193070000A4
:100BC000138507000324C1001301010167800000A1
:100BD000130101FF23268100130401019307000084
:100BE000138507000324C100130101016780000081
:100BF000130101FF23268100130401019307000064
:100C0000138507000324C100130101016780000060
:100C1000130101FF23268100130401019307000043
:100C2000138507000324C100130101016780000040
:100C3000130101FF23268100130401019307000023
:100C4000138507000324C100130101016780000020
:100C5000130101FF23268100130401019307000003
:100C6000138507000324C100130101016780000000
:100C7000130101FF232681001304010193070000E3
:100C8000138507000324C1001301010167800000E0
:100C9000130101FF232681001304010193070000C3
:100CA000138507000324C1001301010167800000C0
:100CB000130101FF232681001304010193070000A3
:100CC000138507000324C1001301010167800000A0
:100CD000130101FD232611022324810213040103C1
:100CE000232EA4FC232CB4FC13062000B77700802D
:100CF000938507020325C4FDEF60C01393078000AE
:100D0000A307F4FE6F0080098347F4FE9387F7FF83
:100D10002307F4FE8347E4FE939727001307F000B0
:100D2000B317F70013870700832784FD3377F70095
:100D30008347E4FE93972700B357F700A306F4FE1A
:100D40000347D4FE9307900063EEE7008347D4FE89
:100D50009387070393F7F70F9397870193D78741FB
:100D60006F0080018347D4FE9387770393F7F70FD3
:100D70009397870193D787412306F4FE9307C4FE18
:100D800013061000938507000325C4FDEF60800A59
:100D90008347F4FE9387F7FFA307F4FE8347F4FE2F
:100DA000E39407F6130000008320C10203248102AC
:100DB0001301010367800000130101FD23261102C6
:100DC0002324810213040103232EA4FCB77700809F
:100DD000938747022326F4FE0325C4FEEF10800C00
:100DE00093070500138607008325C4FE1305200022
:100DF000EF6040048327C4FD93850700130520009E
:100E0000EFF01FED6F000000130101FE232E8100A3
:100E1000130401022326A4FE0327C4FE9307100037
:100E20006308F7000327C4FE930720006316F7004A
:100E3000930710006F004001B7170280130790005E
:100E400023A0E73E93070000138507000324C10198
:100E50001301010267800000130101FE232E8100AF
:100E6000130401022326A4FEB71702800327C4FE41
:100E700023A0E73E9307F0FF138507000324C10179
:100E80001301010267800000130101FD23261102F6
:100E90002324810213040103232EA4FC232CB4FC7D
:100EA000232AC4FC832784FD2324F4FE0325C4FDE8
:100EB000EFF09FF593070500638C070883A7019166
:100EC00063900702930610001306C002B715007066
:100ED00013858190EF0040171307100023A8E190BD
:100EE000232604FE6F008005032784FE8327C4FEAB
:100EF000B307F70013061000938507001385819050
:100F0000EF000026032784FE8327C4FEB307F70003
:100F100003C707009307A000631CF7001306100027
:100F2000B77700809385470413858190EF004023B5
:100F30008327C4FE938717002326F4FE0327C4FEED
:100F4000832744FDE362F7FA832744FD6F00000125
:100F500013059000EFF05FF093070500138507007D
:100F60008320C10203248102130101036780000072
:100F70002320B5006780000003250500678000007E
:100F8000138E0600331EBE00337ECE000323050001
:100F90009303060093C3F3FF337373003363C301FA
:100FA0002320650067800000032505003375C50018
:100FB0003355B500678000002310B500678000003E
:100FC0000315050067800000138E0600331EBE0067
:100FD000337ECE00031305009303060093C3F3FF93
:100FE000337373003363C30123106500678000000F
:100FF000031505003375C5003355B5006780000043
:101000002300B5006780000003050500678000002D
:10101000138E0600331EBE00337ECE000303050090
:101020009303060093C3F3FF337373003363C30169
:101030002300650067800000030505003375C500C7
:101040003355B50067800000130101FD232611020E
:101050002324810213040103232EA4FC232CB4FCBB
:101060009307060013870600231BF4FC9307070071
:10107000A30AF4FC8327C4FD638A070C034754FDCD
:101080009307700063E4E70C035764FDB727000083
:10109000637EF70A832784FD13878700835764FDE7
:1010A00093F7F70F9385070013050700EFF05FF53F
:1010B000832784FD9386C700034754FD835764FD4F
:1010C00093D7574093F7877FB367F700938507005F
:1010D00013850600EFF0DFF28327C4FD032784FDAC
:1010E00023A0E7008327C4FD83A707009387070198
:1010F00013850700EFF05FF19307050093F72700D2
:10110000A307F4FE6F0080038327C4FD83A70700B5
:101110009387470013850700EFF01FEF8327C4FD77
:1011200083A707009387070113850700EFF0DFED22
:101130009307050093F72700A307F4FE8347F4FE07
:10114000E39407FC8327C4FD2382070013000000FB
:101150008320C10203248102130101036780000080
:10116000130101FD2326110223248102130401032C
:10117000232EA4FC232CB4FC232AC4FC8327C4FD07
:1011800063800708832784FD638C0706832744FD5B
:1011900063880706232604FE6F00C0058327C4FD6D
:1011A00083A707009387070113850700EFF0DFE5AA
:1011B0009307050093F71700A305F4FE8347B4FED9
:1011C000E38E07FC8327C4FD83A60700032784FD65
:1011D0008327C4FEB307F70083C707009385070082
:1011E00013850600EFF0DFE18327C4FE9387170025
:1011F0002326F4FE0327C4FE832744FDE360F7FAA9
:10120000130000008320C1020324810213010103A3
:1012100067800000130101FD2326110223248102AF
:1012200013040103232EA4FC232CB4FC8327C4FD48
:1012300063800708832784FD638C0706232604FE4A
:101240006F00C0058327C4FD83A7070093870701AC
:1012500013850700EFF05FDB9307050093F7170096
:10126000A305F4FE8347B4FEE38E07FC8327C4FD89
:1012700083A60700032784FD8327C4FEB307F70076
:1012800083C707009385070013850600EFF05FD73B
:101290008327C4FE938717002326F4FE032784FDCB
:1012A0008327C4FEB307F70083C70700E39C07F852
:1012B000130000008320C1020324810213010103F3
:1012C00067800000130101FC232E1102232C8102F0
:1012D000130401042326A4FC232204FEEF10400281
:1012E00083A7419263980700EF004028130710007E
:1012F00023A2E1928327C4FC638A0702930780003C
:10130000138707008327C4FCB387E7002326F4FC78
:101310008327C4FC93F73700638A07008327C4FC44
:1013200093F7C7FF938747002326F4FC8327C4FC69
:10133000638407140327C4FCB79701009387B7FFA2
:1013400063ECE712938741912324F4FE83A7419134
:101350002326F4FE6F0080018327C4FE2324F4FEBD
:101360008327C4FE83A707002326F4FE8327C4FE39
:1013700083A747000327C4FC63F8E7008327C4FE64
:1013800083A70700E39A07FC0327C4FE9387C19154
:101390006304F70E832784FE83A7070013078000EA
:1013A000B387E7002322F4FE8327C4FE03A70700C8
:1013B000832784FE23A0E7008327C4FE03A74700FA
:1013C0008327C4FCB307F7401307800013171700E7
:1013D0006376F7080327C4FE8327C4FCB307F7002E
:1013E000232EF4FC8327C4FE03A747008327C4FCF5
:1013F0003307F7408327C4FD23A2E7008327C4FEF9
:101400000327C4FC23A2E7008327C4FD83A747006A
:10141000232CF4FC938741912320F4FE6F000001FC
:10142000832704FE83A707002320F4FE832704FEFE
:1014300083A7070083A74700032784FDE3E2E7FEB5
:10144000832704FE03A707008327C4FD23A0E7002A
:10145000832704FE0327C4FD23A0E700B77700809D
:1014600003A707738327C4FE83A747003307F7400A
:10147000B777008023A8E772EF00106B832744FE44
:1014800063940700EF50D00E832744FE13850700B6
:101490008320C1030324810313010104678000003A
:1014A000130101FD232611022324810213040103E9
:1014B000232EA4FC8327C4FD2324F4FE8327C4FD2C
:1014C000638C070893078000B307F040032784FE6E
:1014D000B307F7002324F4FE832784FE2322F4FEBF
:1014E000EF001062832744FE83A747002320F4FE09
:1014F000938741912326F4FE6F0000018327C4FEE9
:1015000083A707002326F4FE8327C4FE83A70700D2
:1015100083A74700032704FEE3E2E7FE8327C4FE18
:1015200003A70700832744FE23A0E7008327C4FE08
:10153000032744FE23A0E700832744FE03A74700B8
:10154000B777008083A707733307F700B77700806A
:1015500023A8E772EF00505D130000008320C10252
:10156000032481021301010367800000130101FEBF
:10157000232E810013040102B78700809387478AD6
:1015800093F7C7FF2326F4FE0327C4FE23AAE190A6
:101590009387419123A207009387C1913797010058
:1015A0001307C7FF23A2E70023AE01908327C4FEE1
:1015B0002324F4FE832784FE379701001307C7FF17
:1015C00023A2E700832784FE1387C19123A0E700AD
:1015D000130000000324C101130101026780000011
:1015E000130101FE232E810013040102F32740F1B1
:1015F0002326F4FE8327C4FE2324F4FEF36744303D
:101600002322F4FE37070044832784FE93972700A4
:10161000B307F7001307100023A0E7001300000032
:101620000324C1011301010267800000130101FFBF
:10163000232681001304010173700430B777008002
:1016400083A7477313871700B777008023AAE77231
:10165000130000000324C100130101016780000092
:10166000130101FF2326810013040101B7770080D5
:1016700083A747731387F7FFB777008023AAE77222
:10168000B777008083A747736394070073600430C3
:10169000130000000324C100130101016780000052
:1016A000130101FE232E810013040102377600800E
:1016B00003268673032606002324C4FE232604FE85
:1016C00037760080032686730326460093060600BD
:1016D000130700001398060093070000032784FEF9
:1016E0003367F7002324E4FE0327C4FEB367070132
:1016F0002326F4FE832684FE0327C4FEB7450F008D
:101700009385052413060000B387B60013850700F0
:101710003335D5003308C700330705011308070028
:101720002324F4FE232604FFB777008083A7C77322
:10173000032784FE23A0E7008327C4FE13D30700FA
:1017400093030000B777008083A7C77313070300D4
:1017500023A2E7009307000873A04730130000009E
:101760000324C1011301010267800000130101FE7F
:10177000232E81001304010237760080032686732E
:10178000032606002324C4FE232604FE37760080A9
:1017900003268673032646009306060013070000FF
:1017A0001398060093070000032784FE3367F700B1
:1017B0002324E4FE0327C4FEB36707012326F4FEB7
:1017C000832684FE0327C4FEB7450F0093850524B6
:1017D00013060000B387B600138507003335D50024
:1017E0003308C70033070501130807002324F4FE5C
:1017F000232604FFB777008083A7C773032784FEDF
:1018000023A0E7008327C4FE13D30700930300003F
:10181000B777008083A7C7731307030023A2E700ED
:101820009307000873A04730130000000324C10190
:101830001301010267800000130101FF23268100CC
:1018400013040101B777008003A747739307F0FFE4
:101850006306F700737004306F000000737004308B
:101860006F000000130101FE232E8100130401020A
:101870002326A4FE2324B4FE2322C4FE8327C4FE11
:101880009387C7FF2326F4FE032784FE8327C4FE25
:1018900023A0E7008327C4FE938787FA2326F4FE5C
:1018A000032744FE8327C4FE23A0E7008327C4FE4A
:1018B000938787FE2326F4FE938701001387070092
:1018C0008327C4FE23A0E7008327C4FE938747FF36
:1018D0002326F4FEB7270080138787838327C4FE5F
:1018E00023A0E7008327C4FE138507000324C1015A
:1018F0001301010267800000130101FF232611007C
:10190000232481001304010183A2C19223A0C200F9
:10191000EFF01FD9EF00D03A93070500638407006A
:10192000EF00D05803A1C192032101008322C10717
:1019300073901234B72200009382028073A00230A9
:10194000832201089392420073A002308320010099
:101950000322C1008322010103234101832381016A
:101960000324C1018324010203254102832581024E
:101970000326C10283260103032741038327810332
:101980000328C10383280104032941048329810416
:10199000032AC104832A0105032B4105832B8105FA
:1019A000032CC105832C0106032D4106832D8106DE
:1019B000032EC106832E0107032F4107832F8107C2
:1019C0001301410873002030130000008320C10080
:1019D000032481001301010167800000130101FF4E
:1019E000232611002324810013040101EFF01FD8E6
:1019F000B777008023AA07721307100023A4E1928F
:101A0000EFE01F9AEFF0DFBD93070000138507009A
:101A10008320C100032481001301010167800000BD
:101A2000130101FF23261100232481001304010167
:101A300003A78192930710006318F7001307200093
:101A400023A4E1926F00000183A2C19223A0C200EF
:101A5000EF00D045B707004423A0070003A1C192BF
:101A6000032101008322C10773901234B7220000C2
:101A70009382028073A00230832201089392420075
:101A800073A00230832001000322C10083220101E0
:101A900003234101832381010324C1018324010223
:101AA00003254102832581020326C1028326010307
:101AB00003274103832781030328C10383280104EB
:101AC0000329410483298104032AC104832A0105CF
:101AD000032B4105832B8105032CC105832C0106B3
:101AE000032D4106832D8106032EC106832E010797
:101AF000032F4107832F8107130141087300203012
:101B0000130000008320C1000324810013010101A0
:101B100067800000130101FF2326110023248100A8
:101B200013040101EFF0DFAB130000008320C100BC
:101B3000032481001301010167800000130101FEED
:101B4000232E8100130401022326A4FE8327C4FE52
:101B5000138787008327C4FE23A2E7008327C4FEE0
:101B60001307F0FF23A4E7008327C4FE1387870031
:101B70008327C4FE23A6E7008327C4FE13878700BC
:101B80008327C4FE23A8E7008327C4FE23A0070001
:101B9000130000000324C10113010102678000004B
:101BA000130101FE232E8100130401022326A4FE4B
:101BB0008327C4FE23A80700130000000324C101EB
:101BC0001301010267800000130101FD2326810239
:101BD00013040103232EA4FC232CB4FC8327C4FD8F
:101BE00083A747002326F4FE832784FD0327C4FE32
:101BF00023A2E7008327C4FE03A78700832784FD71
:101C000023A4E7008327C4FE83A78700032784FD5E
:101C100023A2E7008327C4FE032784FD23A4E70053
:101C2000832784FD0327C4FD23A8E7008327C4FD81
:101C300083A70700138717008327C4FD23A0E700AD
:101C4000130000000324C102130101036780000098
:101C5000130101FD2326810213040103232EA4FC9A
:101C6000232CB4FC832784FD83A707002324F4FEE0
:101C7000032784FE9307F0FF631AF7008327C4FD50
:101C800083A707012326F4FE6F0040038327C4FDCA
:101C9000938787002326F4FE6F0000018327C4FE8C
:101CA00083A747002326F4FE8327C4FE83A74700AB
:101CB00083A70700032784FEE372F7FE8327C4FE91
:101CC00003A74700832784FD23A2E700832784FD21
:101CD00083A74700032784FD23A4E700832784FD0F
:101CE0000327C4FE23A4E7008327C4FE032784FD43
:101CF00023A2E700832784FD0327C4FD23A8E70070
:101D00008327C4FD83A70700138717008327C4FD1B
:101D100023A0E700130000000324C1021301010304
:101D200067800000130101FD2326810213040103D3
:101D3000232EA4FC8327C4FD83A707012326F4FEDA
:101D40008327C4FD83A747000327C4FD032787001B
:101D500023A4E7008327C4FD83A787000327C4FDCE
:101D60000327470023A2E7008327C4FE83A7470079
:101D70000327C4FD631AF7008327C4FD03A7870068
:101D80008327C4FE23A2E7008327C4FD23A80700FE
:101D90008327C4FE83A707001387F7FF8327C4FEAA
:101DA00023A0E7008327C4FE83A70700138507004D
:101DB0000324C1021301010367800000130101FD28
:101DC0002326810213040103232EA4FC232CB4FC3C
:101DD000232AC4FC0327C4FD832744FDB367F7000F
:101DE00093F7370063980706832784FD93F7F70F6F
:101DF0002322F4FE832744FE93978700032744FEA3
:101E0000B367F7002322F4FE832744FE939707016C
:101E1000032744FEB367F7002322F4FE8327C4FDA3
:101E20002326F4FE6F0080018327C4FE138747003A
:101E30002326E4FE032744FE23A0E7000327C4FD76
:101E4000832744FDB307F7000327C4FEE36EF7FCC6
:101E50006F0000048327C4FD2324F4FE6F000002FA
:101E6000832784FE138717002324E4FE032784FDC1
:101E700013178701135787412380E7000327C4FD09
:101E8000832744FDB307F700032784FEE36AF7FCCA
:101E90008327C4FD138507000324C1021301010336
:101EA00067800000130101FD232681021304010352
:101EB000232EA4FC8327C4FD2326F4FE6F0000011B
:101EC0008327C4FE938717002326F4FE8327C4FECE
:101ED00083870700E39607FE0327C4FE8327C4FD1C
:101EE000B307F740138507000324C1021301010360
:101EF00067800000130101FC232E1102232C8102B4
:101F000013040104232EA4FC232CB4FC2328D4FCAA
:101F10002326E4FC2324F4FC232204FD232014FDC7
:101F200093070600231BF4FC8327C4FD6396070078
:101F3000737004306F0000000327C4FC9307400057
:101F400063F6E700737004306F000000835764FD90
:101F5000832544FC13850700EF0050392324A4FE99
:101F6000832784FE63820716832784FE03A7070363
:101F7000835664FDB70700409387F7FFB387F600E9
:101F800093972700B307F7002322F4FE832744FE2C
:101F900093F7C7FF2322F4FE832744FE93F737000D
:101FA00063860700737004306F000000835764FD80
:101FB00013870700832604FC0326C4FC832584FDC5
:101FC000032584FEEF009000032604FD8325C4FD55
:101FD000032544FEEFF01F8913070500832784FEC5
:101FE00023A0E700832784FC63880700832784FC01
:101FF000032784FE23A0E700EFF04FE383A7C193FC
:102000001387170023AEE19283A7C1926390070262
:10201000032784FE23A6E19203A7C1939307100030
:102020006316F702EF00100E6F00400283A7819441
:10203000639E070083A7C19283A7C7020327C4FC3E
:102040006366F700032784FE23A6E19283A78195A8
:102050001387170023ACE19403A78195832784FE9F
:1020600023A4E704832784FE03A7C70283A7419420
:1020700063F8E700832784FE03A7C70223A2E19445
:10208000832784FE03A7C7029307070093972700BF
:10209000B387E70093972700371702801307078A53
:1020A0003387E700832784FE9387470093850700E3
:1020B00013050700EFF05FB1930710002326F4FE2D
:1020C000EFF00FDA6F00C0009307F0FF2326F4FE55
:1020D0000327C4FE930710006310F70283A78194BF
:1020E000638C070083A7C19283A7C7020327C4FCA0
:1020F00063F4E700EFF01FA28327C4FE13850700F7
:102100008320C103032481031301010467800000BD
:10211000130101FD2326110223248102130401036C
:10212000232EA4FCEFF08FD08327C4FD6396070015
:1021300083A7C1926F0080008327C4FD2326F4FE8D
:102140008327C4FE9387470013850700EFF09FBDE8
:102150008327C4FE83A78702638A07008327C4FE00
:102160009387870113850700EFF0DFBB8327C4FE49
:102170009387470093850700B7170280138507945C
:10218000EFF09FA483A781931387170023ACE192FC
:1021900083A781951387170023ACE194EFF04FCC10
:1021A00083A78194638A070283A7C1920327C4FE91
:1021B000631EF70083A701966386070073700430DF
:1021C0006F000000EFF01F956F000001EFF00FC6E9
:1021D000EF00D021EFF0CFC8130000008320C10230
:1021E000032481021301010367800000130101FD34
:1021F000232611022324810213040103232EA4FCAD
:10220000232604FE8327C4FD6384070483A7019665
:1022100063860700737004306F000000EF00400E0B
:1022200083A701940327C4FDB307F7002324F4FE1A
:1022300083A7C1929387470013850700EFF09FAEF5
:10224000032584FEEF001002EF00000E2326A4FEFB
:102250008327C4FE63940700EFF0DF8B13000000B8
:102260008320C1020324810213010103678000005F
:10227000130101FE232E1100232C810013040102FF
:1022800093080000130800009307000013070000E4
:102290009306000013060040B775008093858504FF
:1022A0003725008013058579EFF0DFC42326A4FECF
:1022B0000327C4FE930710006312F7027370043003
:1022C0001307F0FF23AEE1941307100023A4E19459
:1022D00023A00194EFF08FF06F0040018327C4FE2C
:1022E00063960700737004306F0000001300000055
:1022F0008320C101032481011301010267800000D2
:10230000130101FF232681001304010183A7019615
:102310001387170023A0E196130000000324C100D7
:102320001301010167800000130101FE232E11003B
:10233000232C810013040102232604FE83A70196A7
:1023400063960700737004306F000000EFF00FAE6B
:1023500083A701961387F7FF23A0E19683A7019631
:102360006396071083A7C193638207106F00800AEA
:10237000B71702809387C79283A7C70083A7C700B8
:102380002324F4FE832784FE9387870113850700A7
:10239000EFF05F99832784FE93874700138507003A
:1023A000EFF05F98832784FE03A7C70283A74194B9
:1023B00063F8E700832784FE03A7C70223A2E19402
:1023C000832784FE03A7C70293070700939727007C
:1023D000B387E70093972700371702801307078A10
:1023E0003387E700832784FE9387470093850700A0
:1023F00013050700EFF04FFD832784FE03A7C702F4
:1024000083A7C19283A7C7026366F7001307100072
:1024100023A8E194B717028083A7C792E39A07F431
:1024200083A7C194638807026F004002EF00400950
:1024300093070500638607001307100023A8E194A3
:1024400083A7C1941387F7FF23A6E19483A7C194C0
:10245000E39E07FC03A70195930710006318F7009C
:10246000930710002326F4FEEFF0CFEAEFF04F9F22
:102470008327C4FE138507008320C1010324810143
:102480001301010267800000130101FE232E1100D9
:10249000232C810013040102EFF04F9983A70194CC
:1024A0002326F4FEEFF0CF9B8327C4FE138507009D
:1024B0008320C10103248101130101026780000010
:1024C000130101FD232611022324810213040103B9
:1024D000232604FE83A701966390071A83A701941D
:1024E0001387170023A0E19483A701942324F4FE0B
:1024F000832784FE6390070483A7019383A70700C3
:1025000063860700737004306F00000083A7019397
:102510002322F4FE03A7419323A8E192032744FE5C
:1025200023AAE19283A741951387170023AAE19478
:10253000EF00C06B83A7C195032784FE6360F7108B
:1025400083A7019383A707006396070093071000F2
:102550006F00800093070000638807001307F0FFF7
:1025600023AEE1946F00800D83A7019383A7C7007A
:1025700083A7C7002320F4FE832704FE83A7470018
:10258000232EF4FC032784FE8327C4FD6378F70021
:102590000327C4FD23AEE1946F00400A832704FEA5
:1025A0009387470013850700EFF0CFF7832704FEDA
:1025B00083A78702638A0700832704FE9387870126
:1025C00013850700EFF00FF6832704FE03A7C70269
:1025D00083A7419463F8E700832704FE03A7C7029B
:1025E00023A2E194832704FE03A7C70293070700F1
:1025F00093972700B387E700939727003717028048
:102600001307078A3387E700832704FE9387470071
:102610009385070013050700EFF00FDB832704FE07
:1026200003A7C70283A7C19283A7C702E36AF7F093
:10263000930710002326F4FE6FF09FF083A7C1924A
:1026400003A7C702B71602809307070093972700D6
:10265000B387E700939727001387068AB387E700BD
:1026600003A707009307100063FEE700930710001D
:102670002326F4FE6F00000183A7C194138717007F
:1026800023A6E19483A701956386070093071000B2
:102690002326F4FE8327C4FE138507008320C1028E
:1026A000032481021301010367800000130101FE6E
:1026B000232E81001304010283A70196638807007B
:1026C0001307100023A8E1946F00000C23A80194C5
:1026D0006F00000283A74194639607007370043073
:1026E0006F00000083A741941387F7FF23A2E194B2
:1026F00003A74194B716028093070700939727001A
:10270000B387E700939727001387068AB387E7000C
:1027100083A70700E38007FC03A741949307070002
:1027200093972700B387E700939727003717028016
:102730001307078AB387E7002326F4FE8327C4FE26
:1027400083A7470003A747008327C4FE23A2E7000F
:102750008327C4FE03A747008327C4FE938787000F
:10276000631CF7008327C4FE83A7470003A7470025
:102770008327C4FE23A2E7008327C4FE83A7470064
:1027800003A7C70023A6E192130000000324C101A0
:102790001301010267800000130101FE232E1100C6
:1027A000232C8100130401022326A4FEEF008021C4
:1027B000B717028003A7078A9307100063F4E700A6
:1027C000EFF04FB5EF40005C6FF05FFE130101FCCE
:1027D000232E1102232C810213040104232EA4FCB6
:1027E000232CB4FC232AC4FC2328D4FC9307070021
:1027F0002317F4FC232604FE6F004004032784FD06
:102800008327C4FEB307F700038707008326C4FDB0
:102810008327C4FEB387F600238AE702032784FDDB
:102820008327C4FEB307F70083870700638007028E
:102830008327C4FE938717002326F4FE0327C4FED4
:102840009307F000E3FCE7FA6F008000130000003C
:102850008327C4FDA3810704032744FD9307400099
:1028600063F6E70093074000232AF4FC8327C4FDA6
:10287000032744FD23A6E7028327C4FD032744FD65
:1028800023A8E7048327C4FD23AA07048327C4FDE4
:102890009387470013850700EFF08FB08327C4FDAF
:1028A0009387870113850700EFF08FAF8327C4FD5F
:1028B0000327C4FD23A8E70013075000832744FD26
:1028C0003307F7408327C4FD23ACE7008327C4FD0B
:1028D0000327C4FD23A2E7028327C4FD23A2070424
:1028E0008327C4FD23AC07048327C4FD23AE07045C
:1028F000130000008320C10303248103130101049A
:1029000067800000130101FE232E1100232C81009B
:1029100013040102232604FE6F0080030327C4FE74
:102920009307070093972700B387E7009397270043
:10293000371702801307078AB387E700138507005C
:10294000EFF0CF9F8327C4FE938717002326F4FE62
:102950000327C4FE93074000E3F2E7FCB7170280A9
:1029600013854790EFF08F9DB717028013858791ED
:10297000EFF0CF9CB71702801385C792EFF00F9C42
:10298000B717028013850794EFF04F9BB7170280AB
:1029900013854795EFF08F9A3717028013074790FA
:1029A00023A8E192371702801307879123AAE192A7
:1029B000130000008320C1010324810113010102DF
:1029C00067800000130101FE232E1100232C8100DB
:1029D000130401026F004007EFF09F92B7170280C7
:1029E00083A7079493B7170093F7F70F2326F4FEF6
:1029F000EFF09F938327C4FE63980704EFE01FC3A3
:102A0000B71702809387079483A7C70083A7C700DF
:102A10002324F4FE832784FE938747001385070051
:102A2000EFF04FB083A7C1931387F7FF23AEE19276
:102A300083A781931387F7FF23ACE192EFE05FC296
:102A4000032584FEEF00801683A78193E39607F8A1
:102A5000130000008320C10103248101130101023E
:102A600067800000130101FE232E1100232C81003A
:102A7000130401022326A4FE83A7C1920327C4FEE8
:102A800023A2E70083A701940327C4FE6370F70223
:102A900003A7419383A7C1929387470093850700BB
:102AA00013050700EFF0CF9A6F00000303A701930F
:102AB00083A7C192938747009385070013050700FA
:102AC000EFF00F9983A7C1950327C4FE6376F70043
:102AD0000327C4FE23AEE194130000008320C1014C
:102AE000032481011301010267800000130101FD2D
:102AF00023261102232481021304010393070500F6
:102B0000232CB4FC231FF4FC832784FD639E070061
:102B10008357E4FD9397270013850700EFE08FFAB2
:102B2000930705006F008000832784FD2324F4FEB3
:102B3000832784FE638A070213050006EFE08FF8FF
:102B40002326A4FE8327C4FE638A07008327C4FECE
:102B5000032784FE23A8E7026F004001032584FEBB
:102B6000EFE01F946F008000232604FE8327C4FE3D
:102B7000638207028327C4FE03A707038357E4FD8C
:102B800093972700138607009305500A1305070043
:102B9000EFF0CFA28327C4FE138507008320C10274
:102BA000032481021301010367800000130101FE69
:102BB000232E1100232C8100130401022326A4FEDE
:102BC0008327C4FE83A7070313850700EFE05F8D0B
:102BD0000325C4FEEFE0DF8C130000008320C10159
:102BE000032481011301010267800000130101FE2B
:102BF000232E81001304010283A7019383A70700FA
:102C000063960700930710006F0080009307000091
:102C1000638807001307F0FF23AEE1946F00000202
:102C200083A7019383A7C70083A7C7002326F4FEC9
:102C30008327C4FE03A7470023AEE19413000000DE
:102C40000324C1011301010267800000130101FE8A
:102C5000232E81001304010283A7C1922326F4FED0
:102C60008327C4FE138507000324C1011301010259
:102C700067800000130101FD232681021304010374
:102C8000232EA4FCF32740F12326F4FE8327C4FE61
:102C90002324F4FE370700408327C4FD93D7570051
:102CA000832684FE93965600B386F600B71700007D
:102CB00093870780B387F60093972700B307F70041
:102CC00083A707002322F4FE8327C4FD93F7F701AF
:102CD00013071000B317F700032744FEB367F7008C
:102CE0002322F4FE370700408327C4FD93D7570003
:102CF000832684FE93965600B386F600B71700002D
:102D000093870780B387F60093972700B307F700F0
:102D1000032744FE23A0E700130000000324C102A0
:102D20001301010367800000130101FE232E8100BF
:102D3000130401022326A4FE2324B4FE3707004017
:102D40008327C4FE93972700B307F700032784FE69
:102D500023A0E700130000000324C10113010102B6
:102D600067800000130101FF232611002324810046
:102D700013040101B70700901385C7FFEFE0CF9F51
:102D8000930705009385070037050050EFE04F9E3D
:102D900037050050EFE04F9E13070500B72702806C
:102DA00023ACE7F0B727028083A787F113850700DC
:102DB000EF00401E9307050093850700B7070050FA
:102DC00013850702EFE0CF9AB727028083A787F128
:102DD00013850700EF00C01E9307050093850700C9
:102DE000B707005013850702EFE08F98B777000010
:102DF00013857777EF000024B7170280938707A623
:102E000093850700B707005013854700EFE04F9602
:102E1000EF30C006EF305013B717028023A607AC7F
:102E2000B717028023AA07AAEF30504E1300000004
:102E30008320C10003248100130101016780000089
:102E4000130101FD2326110223248102130401032F
:102E5000232EA4FC232604FE8327C4FE0327C4FDDF
:102E6000B307F7008387070093850700B707005073
:102E700013850702EFE0CF8F8327C4FE93871700E7
:102E80002326F4FE8327C4FE9387F7FF0327C4FDA0
:102E9000B307F70083870700E39007FC13000000E7
:102EA0008320C10203248102130101036780000013
:102EB000130101FE232E1100232C810013040102B3
:102EC0002326A4FE8327C4FE93850700B70700507E
:102ED00013854702EFE0CF89130000008320C10172
:102EE000032481011301010267800000130101FE28
:102EF000232E1100232C8100130401022326A4FE9B
:102F00002324B4FE0325C4FEEFF09FF3032584FEC3
:102F1000EFF01FFAB777008013850705EFF05FF237
:102F2000130000008320C101032481011301010269
:102F300067800000130101FE232E1100232C810065
:102F4000130401022326A4FE2324B4FE2322C4FE7C
:102F50002320D4FE0325C4FEEFF09FEE032584FE5C
:102F6000EFF01FF5032544FEEFF09FED032504FE6F
:102F7000EFF01FF4B777008013850705EFF05FECE3
:102F8000130000008320C101032481011301010209
:102F900067800000130101FE232E8100130401024B
:102FA0002326A4FE8327C4FE93D7870093F7F70F49
:102FB000138507000324C10113010102678000008B
:102FC000130101FE232E8100130401022326A4FE17
:102FD0008327C4FE93F7F70F138507000324C1016D
:102FE0001301010267800000130101FE232E11006E
:102FF000232C8100130401022326A4FE8325C4FE92
:10300000B707005013854700EFD09FF6B7270000A1
:1030100093852722B707005013858700EFD05FF50F
:10302000130000008320C101032481011301010268
:1030300067800000130101FE232E1100232C810064
:10304000130401022326A4FE0327C4FEB7270000B1
:1030500093872722630AF7000327C4FEB77700008F
:1030600093877777631CF70013051000EFF09FC07C
:103070009305100013051000EFF01FCB0327C4FECB
:10308000B737000093873733630AF7000327C4FE7E
:10309000B777000093877777631EF700130520004A
:1030A000EFF05FBD9305200013052000EFF0DFC7B0
:1030B00013000000130000008320C10103248101DC
:1030C0001301010267800000130101FF2326810024
:1030D0001304010193070000138507000324C100B6
:1030E0001301010167800000130101FF2326110075
:1030F0002324810013040101EF005077930700009F
:10310000138507008320C1000324810013010101FE
:1031100067800000130101FD2326810213040103CF
:10312000232EA4FC232CB4FC8327C4FD83C70700F3
:10313000A307F4FE832784FD038707008327C4FDCC
:103140002380E700832784FD0347F4FE2380E70004
:10315000130000000324C102130101036780000073
:10316000130101FE232E1100232C81001304010200
:103170002326A4FE2324B4FE2322C4FE6F000004F1
:10318000832784FE138717002324E4FE1387070098
:103190008327C4FEB386E700832744FE1387F7FF27
:1031A0002322E4FE138707008327C4FEB387E700CA
:1031B0009385070013850600EFF0DFF5032784FEF3
:1031C000832744FEE34EF7FA8327C4FE13850700E6
:1031D0008320C101032481011301010267800000E3
:1031E000130101FD2326110223248102130401038C
:1031F000232EA4FC232CB4FC232AC4FC032744FD67
:103200009307100063D8E700032744FD93070002EB
:1032100063D6E700832784FD6F0040158327C4FD34
:1032200063DA07008327C4FDB307F0402326F4FECA
:103230006F00C0008327C4FD2326F4FE232404FE70
:103240006F00C0090327C4FE832744FDB367F7025C
:103250002322F4FE032744FE9307900063DEE70277
:10326000832744FE93F7F70F9387770393F6F70FBF
:10327000832784FE138717002324E4FE13870700A7
:10328000832784FDB387E70013978601135787418F
:103290002380E7006F008003832744FE93F7F70F36
:1032A0009387070393F6F70F832784FE138717008E
:1032B0002324E4FE13870700832784FDB387E700F8
:1032C00013978601135787412380E7000327C4FE25
:1032D000832744FDB347F7022326F4FE8327C4FE69
:1032E000E39207F6832784FE63920702832784FE16
:1032F000138717002324E4FE13870700832784FD28
:10330000B387E700130700032380E7008327C4FD8A
:1033100063D80702032744FD9307A0006312F70256
:10332000832784FE138717002324E4FE13870700F6
:10333000832784FDB387E7001307D0022380E700CB
:10334000832784FE032784FDB307F700238007004B
:10335000832784FE9387F7FF1386070093050000F9
:10336000032584FDEFF0DFDF9307050013850700D9
:103370008320C1020324810213010103678000003E
:10338000130101FD2326810213040103232EA4FC53
:10339000232CB4FC232604FE8327C4FD1397870047
:1033A0008327C4FE3367F700832784FDB367F700E4
:1033B000138507000324C102130101036780000085
:1033C000130101FE232E1100232C8100130401029E
:1033D0002326A4FE2324B4FEB717028083A6C7AC1D
:1033E0000327C4FE832784FE3367F700B7170280E4
:1033F00093962600938747A9B387F60023A0E7009A
:10340000B717028083A7C7AC93850700B777008002
:103410001385C707EFF09FADB717028003A7C7ACAE
:10342000930770006318F700B717028023A607AC54
:103430006F008001B717028083A7C7AC13871700FE
:10344000B717028023A6E7ACEF00400A1300000084
:103450008320C10103248101130101026780000060
:10346000130101FE232E810013040102B71702800D
:1034700003A7C7ACB717028083A747AB6316F70053
:10348000B70730306F008005B717028003A747AB3E
:10349000B717028013172700938747A9B307F700D0
:1034A00083A707002326F4FEB717028003A747ABC4
:1034B000930770006318F700B717028023AA07AAC2
:1034C0006F008001B717028083A747AB13871700EF
:1034D000B717028023AAE7AA8327C4FE1385070033
:1034E0000324C1011301010267800000130101FEE2
:1034F000232E1100232C810013040102B707005072
:1035000013858700EFD05FA7130705009307F00F1F
:103510006316F70EEFF0DFF42326A4FE0327C4FEA4
:10352000B7073030630AF70AB71702800327C4FED3
:1035300023A4E7960327C4FEB707FFFF3377F700FE
:10354000B70710106310F7040327C4FEB707010084
:103550009387F7FF3377F7009307070093974700A8
:10356000B387E74093972700371702801307C79662
:10357000B387E7009387870013850700EFF0DFA686
:103580006F0080040327C4FEB707FFFF3377F700FF
:10359000B7072020631AF7020327C4FEB70701000C
:1035A0009387F7FF3377F700930740243307F70239
:1035B000B7170280938707ADB307F7009387C7005B
:1035C00013850700EFF05FA2B777008013854709E6
:1035D000EFF01F876F008003B797000093858788FF
:1035E000B707005013858700EFD09F98B77700800A
:1035F0001385C70AEFF0DF846F004001B7770080C2
:103600001385470DEFF0DF83130000008320C10115
:10361000032481011301010267800000130101FDF1
:10362000232611022324810213040103232EA4FC68
:10363000232CB4FCEF3080302326A4FE0327C4FEE5
:10364000B707FEFD9387D7DF6314F700EF00102262
:103650000327C4FEB707FEFD9387D7DFE30CF7FC13
:10366000B71702800327C4FE9386C7969307070007
:1036700093974700B387E74093972700B387F600F7
:103680003707FFFE1307E7EF23A2E70093050000CB
:1036900013050000EFF0DFCE13060500B717028018
:1036A0000327C4FE9386C7969307070093974700A6
:1036B000B387E74093972700B387F60023A4C7009A
:1036C000B71702800327C4FE9386C79693070700A7
:1036D00093974700B387E74093972700B387F60097
:1036E0001307B00023A6E700B71702800327C4FE24
:1036F0009386C7969307070093974700B387E740E1
:1037000093972700B387F6001307500323A8E70019
:10371000B71702800327C4FE9386C7969307070056
:1037200093974700B387E74093972700B387F60046
:103730000327C4FD23AAE700B71702800327C4FEAE
:103740009386C7969307070093974700B387E74090
:1037500093972700B387F600032784FD23A2E7028F
:103760008325C4FE37051010EFF09FC5130000003D
:103770008320C1020324810213010103678000003A
:10378000130101FD232611022324810213040103E6
:10379000232EA4FC232CB4FCEF3080052324A4FEAC
:1037A000032784FEB707FEFD9387D7DF6314F70076
:1037B000EF00D00B032784FEB707FEFD9387D7DF0A
:1037C000E30CF7FC8327C4FD2322F4FEEF200076F0
:1037D0002320A4FE032784FD832784FE938607000D
:1037E000B77700801386C70F93050700B77700806F
:1037F00013850711EFF00FF4B7170280832684FEBC
:10380000138707AD93074024B387F602B307F70089
:10381000032704FE23A2E700B7260280032704FE45
:103820009307070093975700B387E700032784FDAA
:10383000B387E70093874701138786B893972700DC
:10384000B307F70003A7C700B7170280032684FE5B
:10385000938607AD93074024B307F602B387F600BB
:1038600023A6E700832744FE83A707001387C7002A
:10387000B7170280032684FE938607AD9307402482
:10388000B307F602B387F60023A8E700B717028054
:10389000832684FE138707AD93074024B387F6027F
:1038A000B307F7001307000223AAE700B727028037
:1038B000032704FE938687B8930707009397570062
:1038C000B387E70093972700B387F60003A7470164
:1038D000B7170280032684FE938607AD9307402422
:1038E000B307F602B387F60023ACE700B7260280E1
:1038F000032704FE9307070093975700B387E70059
:1039000093972700138786B8B387E70003A70701BB
:10391000B7170280032684FE938607AD93074024E1
:10392000B307F602B387F60023AEE700B7170280AD
:10393000832684FE138707AD93074024B387F602DE
:10394000B307F700032784FD23A0E702832744FE83
:1039500003A70700B7170280032684FE93064024BE
:10396000B306D602938707ADB387F60023A0E7041A
:10397000232604FE6F00C005032744FE8327C4FEF0
:1039800093972700B307F70083A6470037160280F6
:10399000032784FE9307070093973700B387E70058
:1039A00093974700B387E7000327C4FEB387E70078
:1039B00093870701130706AD93972700B307F70016
:1039C00023A2D7008327C4FE938717002326F4FE83
:1039D000832744FE83A707000327C4FEE36EF7F89E
:1039E000B7260280032704FE93070700939757002A
:1039F000B387E700032784FDB387E7009387C700F9
:103A000013972700938786B8B307F70003A707002B
:103A1000930710006318F704B777008013858712A7
:103A2000EFF00FC2832584FE37052020EFF05F9969
:103A3000B7260280032704FE9307070093975700D9
:103A4000B387E700032784FDB387E7009387C700A8
:103A500013972700938786B8B307F70023A00700C2
:103A600013000000130000008320C1020324810220
:103A70001301010367800000130101FD23261102D9
:103A80002324810213040103232EA4FC232CB4FC61
:103A9000EF20D06A2326A4FE0327C4FEB707FEFD4D
:103AA0009387D7DF6314F700EF00405C0327C4FE61
:103AB000B707FEFD9387D7DFE30CF7FCB71702804B
:103AC0000327C4FE9386C796930707009397470082
:103AD000B387E74093972700B387F6003707FFFEC9
:103AE0001307E7EF23A2E70093050000130500008A
:103AF000EFF01F8913060500B71702800327C4FEE5
:103B00009386C7969307070093974700B387E740CC
:103B100093972700B387F60023A4C700B717028046
:103B20000327C4FE9386C796930707009397470021
:103B3000B387E74093972700B387F6001307B000D9
:103B400023A6E700B71702800327C4FE9386C79613
:103B50009307070093974700B387E74093972700A1
:103B6000B387F6001307005023A8E700B7170280B9
:103B70000327C4FE9386C7969307070093974700D1
:103B8000B387E74093972700B387F6000327C4FD68
:103B900023AAE700B71702800327C4FE9386C796BF
:103BA0009307070093974700B387E7409397270051
:103BB000B387F600032784FD23A2E702B72702801C
:103BC00083A687F1B71702800327C4FE1386C79622
:103BD0009307070093974700B387E7409397270021
:103BE000B307F60023ACD7028325C4FE37051010B7
:103BF000EFF00FFD130000008320C10203248102B7
:103C00001301010367800000130101FD2326110247
:103C10002324810213040103232EA4FC232CB4FCCF
:103C2000EF20C0302326A4FEB72702800327C4FE5E
:103C3000938687B89307070093975700B387E700E9
:103C400093972700B387F6001307100023AEE70011
:103C5000B72602800327C4FE9307070093975700F7
:103C6000B387E70093972700138786B8B387E700E9
:103C70000327C4FD23A0E702EF20504C2324A4FE19
:103C8000032784FEB707FEFD9387D7DF6314F70091
:103C9000EF00C03D032784FEB707FEFD9387D7DF03
:103CA000E30CF7FCB7170280032784FE9386C796C0
:103CB0009307070093974700B387E7409397270040
:103CC000B387F6003707FFFE1307E7EF23A2E700ED
:103CD000B72602800327C4FE930707009397570077
:103CE000B387E700032784FDB387E7009387470185
:103CF000138786B893972700B307F70083A6C700FA
:103D0000B7170280032784FE1386C7969307070020
:103D100093974700B387E74093972700B307F600D0
:103D200023A4D700B7170280032784FE9386C79683
:103D30009307070093974700B387E74093972700BF
:103D4000B387F6001307B00023A6E700B717028079
:103D5000032784FE9386C79693070700939747002F
:103D6000B387E74093972700B387F6001307000156
:103D700023A8E700B72602800327C4FE93070700A5
:103D800093975700B387E70093972700138786B868
:103D9000B387E70083A60701B7170280032784FED5
:103DA0001386C7969307070093974700B387E740AA
:103DB00093972700B307F60023AAD700B7270280FE
:103DC0000327C4FE938687B893070700939757008D
:103DD000B387E70093972700B387F60083A64701D0
:103DE000B7170280032784FE1386C7969307070040
:103DF00093974700B387E74093972700B307F600F0
:103E000023A2D702B7170280032784FE9386C796A2
:103E10009307070093974700B387E74093972700DE
:103E2000B387F600032784FD23AEE700832584FED5
:103E300037051010EFF0CFD8B777008013858714BF
:103E4000EFF00F806F00C0020327C4FE930600004E
:103E5000B77700801386071693050700B7770080B1
:103E600013858717EFF00F8D13051000EFE00FB8E3
:103E7000B72702800327C4FE938687B893070700FD
:103E800093975700B387E70093972700B387F6000F
:103E900003A7C70193071000E308F7FAB77700807C
:103EA00013854718EFE0DFF9130000008320C102FB
:103EB000032481021301010367800000130101FD47
:103EC0002326810213040103232EA4FC232CB4FC1B
:103ED0009307F0FF2324F4FEB70700109387F7FF42
:103EE0002322F4FE232604FE6F00800CB717028005
:103EF0008326C4FE130740243387E602938707AD69
:103F0000B307F70003A7070093071000631CF70827
:103F1000B71702808326C4FE138707AD930740249A
:103F2000B387F602B307F70083A78701032784FD51
:103F3000631AF706B71702808326C4FE138707ADFE
:103F400093074024B387F602B307F70083A707025D
:103F50000327C4FD6318F704B71702808326C4FE45
:103F6000138707AD93074024B387F602B307F70022
:103F700083A78700032744FE63F6E702B717028092
:103F80008326C4FE138707AD93074024B387F60248
:103F9000B307F70083A787002322F4FE8327C4FE1C
:103FA0002324F4FE8327C4FE938717002326F4FE00
:103FB0000327C4FE93073000E3FAE7F2032784FEE9
:103FC0009307F0FF6300F702B7170280832684FE91
:103FD000130740243387E602938707ADB307F70042
:103FE00083A70700832784FE138507000324C102EB
:103FF0001301010367800000130101FD2326110254
:104000002324810213040103232EA4FC232CB4FCDB
:10401000232AC4FC832584FD032544FDEF200030C2
:104020002326A4FEB72602800327C4FE93070700B9
:1040300093975700B387E7000327C4FDB387E700D2
:104040009387C70013972700938786B8B307F700B5
:104050001307100023A0E700130000008320C10213
:10406000032481021301010367800000130101FE94
:10407000232E1100232C810013040102232404FEAB
:10408000B707005013858700EFC01FEF1307050027
:10409000B71700009387F7F06312F704B777008033
:1040A00013858719EFE0DFD9B717028083A78796BA
:1040B00013850700EF209012B757000093855755DE
:1040C000B707005013858700EFC09FEAEFF00FC2DB
:1040D000832784FE938717002324F4FEB70700503C
:1040E0001385C700EFC05FE913070500B71700008D
:1040F0009387F7F0630EF700B70700501385C700EA
:10410000EFC09FE71307050093072002631CF760C9
:10411000B77700801385471BEFE09FD2B717028067
:10412000938707A683A787002322F4FEB717028090
:10413000938707A6370701001307F7FF23A4E700BB
:10414000032744FE930750036300F72A032744FE26
:104150009307500363EAE704032744FE9307100222
:104160006308F752032744FE9307100263E0E70257
:10417000032744FE930700016308F73C032744FE2E
:10418000930700026308F7486F008055032744FE39
:10419000930700036304F70A032744FE93073003E1
:1041A000630AF7206F00C053032744FE93071040B3
:1041B0006306F72E032744FE9307104063E0E702EF
:1041C000032744FE93070020630AF702032744FEF7
:1041D000930700406304F7246F008050032744FED8
:1041E00093070050630EF712032744FEB707010040
:1041F0009387F7FF6306F7506F00804EB717028072
:10420000938707A603A7C700B7170280938707A65F
:1042100083A50701B7170280938707A603A6470166
:10422000B7170280938707A683A7870193860700A5
:1042300013050700EF00C0726F00C04CB777008015
:104240001385071DEFE0DFBFB7170280938707A62E
:1042500003A5C700B7170280938707A683A50701A8
:10426000B7170280938707A603A64701B7170280F6
:10427000938707A683A68701B7170280938707A6AF
:1042800083A7C70113870700EF10D05B2326A4FE86
:104290008327C4FE93850700B77700801385871EA8
:1042A000EFE0DFC4B72702800327C4FE938687B8F8
:1042B0009307070093975700B387E700939727006A
:1042C000B387F60083A7870293850700B77700803E
:1042D0001385471FEFE09FC1B72702800327C4FE65
:1042E000938687B89307070093975700B387E70033
:1042F00093972700B387F60083A78702938507006B
:10430000B70700501385C700EFC09FC6B7170280DC
:10431000938707A61307300323A4E7006F00803EAE
:10432000B7170280938707A683A7C70013870700E4
:10433000B7170280938707A683A7C7019386070054
:10434000B77700801386C72093050700B7770080F2
:1043500013850722EFE01FBEB7170280938707A6D9
:1043600003A70703B7170280938707A683A6C70191
:10437000B7170280938707A683A7C7001386070095
:104380009385060013050700EF108033B7170280EE
:10439000938707A603A7C700B7170280938707A6CE
:1043A00083A7C7019385070013050700EF0050524C
:1043B0006F004035B777008013850723EFE05FA8D3
:1043C000B7170280938707A603A7C700B717028015
:1043D000938707A683A7C7019385070013050700E6
:1043E000EFF0CFA36F000032B77700801385C724AA
:1043F000EFE01FA5B7170280938707A603A7C700A2
:10440000B7170280938707A683A7C7019385070084
:1044100013050700EF1040686F00C02EB7770080CB
:1044200013858726EFE0DFA1B7170280938707A6E1
:1044300003A7C700B7170280938707A683A7C70102
:104440009385070013050700EF10506D2326A4FE87
:104450000327C4FE9307070093975700B387E7002D
:104460009397270013870705B7270280938787B89C
:10447000B307F7009387870093850700B7070050BD
:104480001385C700EFC0DFAEB7170280938707A67A
:104490001307104023A4E7006F00C026B777008001
:1044A00013850728EFE0DF99B7170280938707A6E7
:1044B00003A7C700B7170280938707A683A7C70182
:1044C0009385070013050700EF1050652326A4FE0F
:1044D000B72602800327C4FE93070700939757006F
:1044E000B387E70093972700138786B8B387E70061
:1044F0001307300023A0E700B7170280938707A6B1
:1045000083A7C70013870700B7170280938707A602
:1045100083A7C70193860700B77700801386872992
:1045200093050700B77700801385472AEFE09FA027
:104530008327C4FE93850700B77700801385472B38
:10454000EFE0DF9A6F00001CB7170280938707A681
:1045500083A7C70113870700B7170280938707A6B1
:1045600083A7C70093860700B77700801386C72B01
:1045700093050700B77700801385472CEFE09F9BDA
:10458000B7170280938707A603A7C700B717028053
:10459000938707A683A7C701938507001305070024
:1045A000EFF0DF912326A4FE0327C4FE9307F0FF5C
:1045B0006314F704B77700801385872EEFE05F88D8
:1045C000B7170280938707A603A7C700B717028013
:1045D000938707A683A6C701B7170280938707A60C
:1045E00083A747011386070093850600130507007C
:1045F000EFF09FA06F000011B7770080138507329E
:10460000EFE01F848325C4FE37052020EFE05FDB49
:104610006F00400FB777008013850734EFE05F82AB
:10462000B7170280938707A603A74701B717028031
:10463000938707A683A7C700938507001305070084
:10464000EF10D04D2326A4FEB72602800327C4FE18
:104650009307070093975700B387E70093972700C6
:10466000138786B8B387E70083A7070293850700FF
:10467000B70700501385C700EFC09F8FB7170280A0
:10468000938707A61307100223A4E7006F00800793
:10469000B7170280938707A603A74701B7170280C1
:1046A000938707A683A7C700938507001305070014
:1046B000EF10D0462326A4FEB72702800327C4FEAE
:1046C000938687B89307070093975700B387E7004F
:1046D00093972700B387F60023AE07006F00800290
:1046E000B7170280938707A683A7870093850700E3
:1046F000B777008013850736EFE04FFF6F0080002B
:1047000013000000B757000093855755B7070050B6
:104710001385C700EFC0DF85832784FE93871700CA
:104720002324F4FEB70700501385C700EFC0DF84D1
:1047300013070500B71700009387F7F0E302F7941B
:10474000B70700501385C700EFC01F83130705008C
:1047500093072002E306F792B707005013858700FE
:10476000EFC09F8113070500B71700009387F7F08C
:10477000E308F790232604FE6F00000BB7260280A3
:104780000327C4FE9307070093975700B387E700FA
:1047900093972700138786B8B387E70003A707001E
:1047A00093073000631CF706B72602800327C4FE78
:1047B0009307070093975700B387E7009397270065
:1047C000138786B8B387E70083A70701938507009F
:1047D000B72702800327C4FE938687B89307070094
:1047E00093975700B387E70093972700B387F600A6
:1047F00083A7470193860700B777008013860739A0
:10480000B77700801385C739EFE0CFF21305803EFC
:10481000EF20C0330325C4FEEF10903E8327C4FE73
:10482000938717002326F4FE0327C4FE9307500046
:10483000E3F6E7F4832784FE138507008320C10194
:10484000032481011301010267800000130101FEAE
:10485000232E1100232C810013040102EF20000EEF
:104860002326A4FE0327C4FEB707FEFD9387D7DFE8
:104870006314F700EFF08FFF0327C4FEB707FEFDB8
:104880009387D7DFE30CF7FCB71702800327C4FE3A
:104890009386C7969307070093974700B387E7402F
:1048A00093972700B387F6003707FFFE1307E7EF5C
:1048B00023A2E7009305000013050000EFE05FACC2
:1048C00013070500B7070400B366F700B7170280A7
:1048D0000327C4FE1386C7969307070093974700E4
:1048E000B387E74093972700B307F60023A4D700C8
:1048F000B71702800327C4FE9386C7969307070065
:1049000093974700B387E74093972700B387F60054
:104910001307B00023A6E700B71702800327C4FEE1
:104920009386C7969307070093974700B387E7409E
:1049300093972700B387F6001307001023A8E7001A
:104940008325C4FE37051010EFE09FA71300000079
:104950008320C1010324810113010102678000004B
:10496000130101FD232611022324810213040103F4
:10497000232EA4FC232CB4FC232AC4FC2328D4FC1F
:10498000EF00401C930705002326F4FEB7160280B3
:104990000327C4FE9307070093972700B387E70018
:1049A0009397570013878640B387E70013071000DB
:1049B00023A0E700B71702800327C4FE9386874031
:1049C0009307070093972700B387E7009397570053
:1049D000B387F6000327C4FD23A2E700B7170280C0
:1049E0000327C4FE93868740930707009397270009
:1049F000B387E70093975700B387F600032784FD3A
:104A000023A4E700B71702800327C4FE93868740DC
:104A10009307070093972700B387E7009397570002
:104A2000B387F600032744FD23A6E700B7160280EC
:104A30000327C4FE9307070093972700B387E70077
:104A40009397570013878640B387E700032704FD39
:104A500023A8E700EFD05FA313070500832784FD99
:104A6000B306F700B71702800327C4FE13868740FA
:104A70009307070093972700B387E70093975700A2
:104A8000B307F60023A6D708B71602800327C4FE93
:104A90009307070093972700B387E7009397570082
:104AA00013878640B387E70023A80708B71702805B
:104AB0000327C4FE93868740930707009397270038
:104AC000B387E70093975700B387F6001307F0FF0B
:104AD00023AAE708B71702800327C4FE93868740FE
:104AE0009307070093972700B387E7009397570032
:104AF000B387F60023AC0708B71702800327C4FE6C
:104B0000938687409307070093972700B387E700B2
:104B100093975700B387F60023AE07088327C4FD99
:104B200093850700B77700801385C73AEFE00FBC85
:104B3000130000008320C10203248102130101033A
:104B400067800000130101FE232E1100232C810039
:104B500013040102232604FE6F000004B71602802E
:104B60000327C4FE9307070093972700B387E70046
:104B70009397570013878640B387E70083A7070002
:104B8000639607008327C4FE6F00C0028327C4FE1C
:104B9000938717002326F4FE0327C4FE9307B00073
:104BA000E3DEE7FAB77700801385473EEFE04FA9D1
:104BB0009307F0FF138507008320C10103248101BF
:104BC0001301010267800000130101FE232E810002
:104BD00013040102232604FE6F004003B71602806F
:104BE0000327C4FE9307070093972700B387E700C6
:104BF0009397570013878640B387E70023A00700E9
:104C00008327C4FE938717002326F4FE0327C4FEE0
:104C10009307B000E3D4E7FC130000000324C101B4
:104C20001301010267800000130101FE232E8100A1
:104C300013040102232604FE6F00C00F232404FE88
:104C40006F00C00D37260280832784FE8326C4FEB2
:104C500013870700131717003307F7009317270070
:104C6000138707009387060093973700B387D70011
:104C7000939727003307F700930746EAB307F70037
:104C80001307101123A0E70037270280832784FE33
:104C90008326C4FE130647EA13870700131717007D
:104CA0003307F70093172700138707009387060041
:104CB00093973700B387D70093972700B307F70080
:104CC000B307F6001307803E23A2E70037270280D0
:104CD000832784FE8326C4FE130647EA1387070052
:104CE000131717003307F7009317270013870700E0
:104CF0009387060093973700B387D70093972700D1
:104D0000B307F700B307F6001307600023A4E7001A
:104D1000832784FE938717002324F4FE032784FE51
:104D200093072000E3D0E7F28327C4FE93871700A0
:104D30002326F4FE0327C4FE93072000E3D0E7F008
:104D4000130000000324C101130101026780000069
:104D5000130101FE232E810013040102232404FE0B
:104D6000B727028023A007EA232604FE6F0000076E
:104D7000032784FE93073000B347F7021397870099
:104D8000832684FE93073000B3E7F602B367F7008B
:104D900093860700B71702800327C4FE1317270066
:104DA0009387473EB307F70023A0D700032784FE6D
:104DB0009307600063CAE700832784FE9387270078
:104DC0002324F4FE6F00C000930710002324F4FE98
:104DD0008327C4FE938717002326F4FE0327C4FE0F
:104DE00093078000E3D6E7F8130000000324C10115
:104DF0001301010267800000130101FD2326110247
:104E0000232481022322910213040103232EA4FCF4
:104E1000232604FE6F008029B71602800327C4FEF4
:104E20009307070093972700B387E70093975700EE
:104E300013878640B387E70003A707009307100096
:104E40006310F726B71702800327C4FE93868740B6
:104E50009307070093972700B387E70093975700BE
:104E6000B387F60083A7C7080327C4FD636AF72248
:104E7000B71702800327C4FE938687409307070075
:104E800093972700B387E70093975700B387F600FF
:104E900083A6C708B71702800327C4FE138687407E
:104EA0009307070093972700B387E700939757006E
:104EB000B307F60083A747096384F61EB71602807E
:104EC0000327C4FE9307070093972700B387E700E3
:104ED0009397570013878640B387E70083A40701A1
:104EE000EF0010129307050063EC971A232404FEC9
:104EF0006F00C013EF00C053930705002322F4FE98
:104F0000832744FE0327C4FE832684FE13860600FF
:104F10009305070013850700EF00C06493070500A1
:104F20002320F4FE032704FE9307F0FF6314F70029
:104F30006FF05FFC1300000037170280832784FEA8
:104F40008326C4FE13068740138707001317170034
:104F50003307F7009317270013870700938706008E
:104F600093972700B387D70093975700B307F700AD
:104F7000B307F6001307300023AAE700032644FE18
:104F800037170280832784FE8326C4FE930587405B
:104F900013870700131717003307F700931727002D
:104FA000138707009387060093972700B387D700DE
:104FB00093975700B307F700B387F50023ACC700FA
:104FC000032604FE37170280832784FE8326C4FE4F
:104FD0009305874013870700131717003307F7005F
:104FE00093172700138707009387060093972700DE
:104FF000B387D70093975700B307F700B387F5003F
:1050000023AEC7008327C4FE032784FE832644FE05
:10501000138606009305070013850700EF00100DA7
:10502000832784FE938717002324F4FEB71602809B
:105030000327C4FE9307070093972700B387E70071
:105040009397570013878640B387E70003A70701AC
:10505000832784FEE3E0E7EAB71702800327C4FE54
:10506000938687409307070093972700B387E7004D
:1050700093975700B387F60083A6C708B717028037
:105080000327C4FE138687409307070093972700E2
:10509000B387E70093975700B307F60023AAD70812
:1050A0008327C4FE938717002326F4FE0327C4FE3C
:1050B0009307B000E3D2E7D6130000008320C102BB
:1050C000032481028324410213010103678000004D
:1050D000130101FD2326110223248102130401037D
:1050E000232EA4FC232CB4FC371702808327C4FD95
:1050F000832684FD130687401387070013171700C4
:105100003307F700931727001387070093870600DC
:1051100093972700B387D70093975700B307F700FB
:10512000B307F6001307200023AAE7009307100037
:105130002324F4FE232604FE6F00000637170280A6
:105140008327C4FE832684FD130687401387070048
:10515000131717003307F70093172700138707006B
:105160009387060093972700B387D700939757003C
:10517000B307F700B307F60003A747019307200022
:105180006306F700232404FE6F00C0038327C4FED8
:10519000938717002326F4FEB7160280032784FDA9
:1051A0009307070093972700B387E700939757006B
:1051B00013878640B387E70083A707010327C4FE50
:1051C000E36EF7F6832784FE63860724EFD0CFAB28
:1051D0002322A4FEB7160280032784FD930707004D
:1051E00093972700B387E70093975700138786406C
:1051F000B387E70083A70709938617003716028055
:10520000032784FD9307070093972700B387E700E0
:105210009397570013078640B387E70023A8D70862
:10522000832584FDB7170280032784FD938687407A
:105230009307070093972700B387E70093975700DA
:10524000B387F60083A74709032744FEB307F74057
:1052500093860700B77700801386873FB777008073
:105260001385C740EFD01FCDB7170280032784FDF9
:10527000938687409307070093972700B387E7003B
:1052800093975700B387F600032744FE23AEE70841
:10529000B7170280032784FD938687409307070092
:1052A00093972700B387E70093975700B387F600DB
:1052B00083A6C70037160280032784FD93070700E3
:1052C00093972700B387E70093975700130786400B
:1052D000B387E70083A7070963FAD70AB7170280E5
:1052E000032784FD93868740930707009397270041
:1052F000B387E70093975700B387F60083A6C700EC
:1053000037160280032784FD930707009397270031
:10531000B387E7009397570013078640B387E700EA
:1053200083A70709B387F64093850700B777008006
:105330001385C741EFD09FBBB7170280032784FDB9
:10534000938687409307070093972700B387E7006A
:1053500093975700B387F60003A78700832744FE7F
:10536000B306F700B7170280032784FD1386874032
:105370009307070093972700B387E7009397570099
:10538000B307F60023A6D7086F00C008B7770080E0
:1053900013854744EFD0DFAAB7160280032784FDA8
:1053A0009307070093972700B387E7009397570069
:1053B00013878640B387E70023A00700232604FE57
:1053C0006F00C003B71602800327C4FE93070700CF
:1053D00093972700B387E70093975700138786407A
:1053E000B387E70003A70700930710006308F702DD
:1053F0008327C4FE938717002326F4FE0327C4FEE9
:105400009307B000E3F0E7FCB7070100138507E15D
:10541000EFB09F9A130000006F008000130000009F
:105420008320C1020324810213010103678000006D
:10543000130101FE232E1100232C8100232A910049
:10544000130401029305000013050000EFD05FF381
:105450002326A4FEB727028003A707EAB717028016
:10546000131727009387473EB307F70083A407006D
:105470009305000013050000EFD09FF0930705008F
:10548000638EF4060325C4FEEFD0DFB0930405005D
:105490000325C4FEEFD0DFB213060500B727028054
:1054A000938647EA13070600931717001387070030
:1054B0003307C7009317270013870700938704005B
:1054C00093973700B387970093972700B307F700A8
:1054D000B387F60083A7870063820702B72702809D
:1054E00003A707EAB7170280131727009387473EE1
:1054F000B307F70083A707002326F4FEB72702802F
:1055000083A707EA13871700B727028023A0E7EADB
:10551000B727028003A707EA930790006316F700F6
:10552000B727028023A007EA9305000013050000B7
:10553000EFD01FE5130705008327C4FE6394E7003F
:105540006FF05FF1130000008327C4FE138507008E
:105550008320C1010324810183244101130101023D
:1055600067800000130101FE232E1100232C81000F
:10557000232A910023282101130401022326A4FEDB
:105580002324B4FE2322C4FE0325C4FEEFD09FA033
:10559000930405000325C4FEEFD09FA21306050067
:1055A000B7270280938647EA130706009317170070
:1055B000138707003307C7009317270013870700D7
:1055C0009387040093973700B3879700939727003A
:1055D000B307F700B387F60083A78700638C070A39
:1055E0000325C4FEEFD01F9B930405000325C4FED2
:1055F000EFD01F9D13060500B7270280938647EA68
:105600001307060093171700138707003307C70017
:105610009317270013870700938704009397370099
:10562000B387970093972700B307F700B387F60077
:1056300083A487000325C4FEEFD0DF95130905007E
:105640000325C4FEEFD0DF97930505009386F4FF92
:10565000B7270280138647EA1387050093171700C0
:10566000138707003307B700931727001387070036
:105670009307090093973700B38727019397270073
:10568000B307F700B307F60023A4D7009307100071
:105690006F004001B777008013854746EFD04FFA7F
:1056A0009307F0FF138507008320C10103248101C4
:1056B00083244101032901011301010267800000D5
:1056C000130101FE232E1100232C8100232A9100B7
:1056D000130401022326A4FE2324B4FE2322C4FEC5
:1056E0000325C4FEEFD01F8B930405000325C4FEE1
:1056F000EFD01F8D93060500B7270280138647EA77
:105700001387060093171700138707003307D70086
:105710009317270013870700938704009397370098
:10572000B387970093972700B307F700B307F600F6
:1057300083A7870013861700B7270280938547EA5F
:105740001387060093171700138707003307D70046
:105750009317270013870700938704009397370058
:10576000B387970093972700B307F700B387F50037
:1057700023A4C7000325C4FEEFD0DF8193040500F6
:105780000325C4FEEFD0DF8313060500B727028090
:10579000938647EA1307060093171700138707003D
:1057A0003307C70093172700138707009387040068
:1057B00093973700B387970093972700B307F700B5
:1057C000B387F60003A787009307500063FCE70048
:1057D000B777008013858747EFD08FE69307F0FFF8
:1057E0006F00800093071000138507008320C1011C
:1057F0000324810183244101130101026780000019
:10580000130101FE232E1100232C8100232A910075
:1058100013040102232204FE232604FE6F00800AE3
:10582000232404FE6F0080088327C4FE032784FE20
:105830009305070013850700EFD09FB4930405007C
:105840009305000013050000EFD09FB393070500F8
:105850006388F40437270280832784FE8326C4FEEE
:10586000130647EA13870700131717003307F700DB
:105870009317270013870700938706009397370035
:10588000B387D70093972700B307F700B307F60055
:1058900003A78700832744FEB307F7002322F4FE03
:1058A000832784FE938717002324F4FE032784FEB6
:1058B00093072000E3DAE7F68327C4FE93871700F7
:1058C0002326F4FE0327C4FE93072000E3DAE7F45F
:1058D000832744FE138507008320C101032481012F
:1058E000832441011301010267800000130101FDBF
:1058F000232611022324810213040103232EA4FC76
:10590000232CB4FC232AC4FCEF1040032326A4FE5E
:105910000327C4FEB707FEFD9387D7DF6314F700A4
:10592000EFE0CFF40327C4FEB707FEFD9387D7DF70
:10593000E30CF7FC8327C4FE93850700B77700804C
:105940001385C748EFD08FDAB71702800327C4FE4C
:105950009386C7969307070093974700B387E7405E
:1059600093972700B387F6003707FFFE1307E7EF8B
:1059700023A2E7009305000013050000EFD05FA00D
:1059800013070500B7070400B366F700B7170280D6
:105990000327C4FE1386C796930707009397470013
:1059A000B387E74093972700B307F60023A4D700F7
:1059B000B71702800327C4FE9386C7969307070094
:1059C00093974700B387E74093972700B387F60084
:1059D0001307B00023A6E700B71702800327C4FE11
:1059E0009386C7969307070093974700B387E740CE
:1059F00093972700B387F6001307000323A8E70057
:105A0000B71702800327C4FE9386C7969307070043
:105A100093974700B387E74093972700B387F60033
:105A2000032784FD23AAE700B71702800327C4FEDB
:105A30009386C7969307070093974700B387E7407D
:105A400093972700B387F6000327C4FD23A2E7023C
:105A5000B71702800327C4FE9386C79693070700F3
:105A600093974700B387E74093972700B387F600E3
:105A7000032744FD23ACE7028325C4FE370510103D
:105A8000EFD01F94130000008320C1020324810281
:105A90001301010367800000130101FD2326110299
:105AA0002324810213040103232EA4FC232CB4FC21
:105AB000371702808327C4FD832684FD13068740A1
:105AC00013870700131717003307F70093172700F2
:105AD000138707009387060093972700B387D700A3
