:0200000480007A
:100000006F00C0006F0000006F00800297020000C8
:1000100093824202739052307350003073504030DC
:100020009381010017D103001301C1FB6F00401839
:10003000130101F823201100232221002324310081
:100040002326410023285100232A6100232C71001C
:10005000232E8100232091022322A1022324B10216
:100060002326C1022328D102232AE102232CF102F4
:10007000232E0103232011052322210523243105EA
:100080002326410523285105232A6105232C7105C8
:10009000232E8105232091072322A1072324B107C2
:1000A0002326C1072328D107232AE107232CF107A0
:1000B000F3221034232E510673252034F3251034F7
:1000C00013060100EF00804273101534B7220000C0
:1000D0009382028073A0023083200100032141003B
:1000E000832181000322C1008322010103234101F6
:1000F000832381010324C1018324010203254102DA
:10010000832581020326C1028326010303274103BD
:10011000832781030328C1038328010403294104A1
:1001200083298104032AC104832A0105032B410585
:10013000832B8105032CC105832C0106032D410669
:10014000832D8106032EC106832E0107032F41074D
:10015000832F810713010108730020300000000085
:10016000130101FD2326810213040103232EA4FCA5
:10017000232CB4FC8327C4FD2326F4FE6F008001EA
:100180008327C4FE23A007008327C4FE938747006C
:100190002326F4FE0327C4FE832784FDE3F2E7FE53
:1001A000130000000324C102130101036780000053
:1001B000130101FE232E1100232C810013040102E0
:1001C000B7370080938707602326F4FE8327C4FE99
:1001D0002320F4FE232204FE232404FE93850197AA
:1001E00013850190EFF0DFF7B7D70180938507FE05
:1001F00013850197EFF0DFF6930704FE9385070060
:1002000013051000EF300017130000008320C10118
:10021000032481011301010267800000130101FF23
:100220002326810013040101130000000324C100F0
:100230001301010167800000130101FD23268102E3
:1002400013040103232EA4FCF32740F12326F4FE1C
:100250008327C4FE2324F4FE370700408327C4FD10
:1002600093D75700832684FE93965600B386F600F4
:10027000B717000093870780B387F600939727008E
:10028000B307F70083A707002322F4FE8327C4FDEA
:1002900093F7F70113071000B317F70093C7F7FFA1
:1002A000032744FEB377F7002322F4FE370700400C
:1002B0008327C4FD93D75700832684FE9396560068
:1002C000B386F600B717000093870780B387F60060
:1002D00093972700B307F700032744FE23A0E70006
:1002E000130000000324C102130101036780000012
:1002F000130101FE232E810013040102F32740F1B4
:100300002326F4FE8327C4FE2324F4FE370700408F
:10031000832784FE938707209397C700B307F700CE
:1003200083A74700138507000324C10113010102BD
:1003300067800000130101FD2326810213040103DD
:10034000232EA4FCF32740F12326F4FE8327C4FECA
:100350002324F4FE37070040832784FE9387072079
:100360009397C700B307F7000327C4FD23A2E70054
:10037000130000000324C102130101036780000081
:10038000130101FE232E810013040102F3670430E0
:100390002326F4FE130000000324C101130101020F
:1003A00067800000130101FE232E1100232C810021
:1003B0001304010293070008F3B747302326F4FE25
:1003C000EF10803337070044B7C70000B307F700CA
:1003D00003A8C7FF83A787FF83A5019003A64190C9
:1003E00037050044732740F12324E4FE832884FE6C
:1003F000B386B700138306003333F3003307C80016
:10040000B307E3001387070093870600130807006C
:1004100037170000130707803387E80013173700EA
:100420003307E5002320F700232207019307000884
:10043000F3A747302322F4FE130000008320C101FC
:10044000032481011301010267800000130101FEF2
:10045000232E1100232C810013040102EFF05FE929
:100460002326A4FEA30504FEB74700800327C4FE8D
:10047000131727009387078BB307F70083A707009D
:10048000E780070093070500A305F4FE0325C4FEDB
:10049000EFF05FEA0347B4FE930710006316F7001E
:1004A0000325C4FEEFF05FD9130000008320C101D3
:1004B000032481011301010267800000130101FF81
:1004C000232611002324810013040101EF10C033FF
:1004D000B707004423A00700130000008320C100D9
:1004E000032481001301010167800000130101FC56
:1004F000232E1102232C8102130401042326A4FCC1
:100500002324B4FC2322C4FC832744FC83A70700D4
:100510002326F4FE832744FC83A747002324F4FE0C
:10052000832744FC83A787002322F4FE832744FC0F
:1005300083A7C7002320F4FE832744FC83A7070179
:10054000232EF4FC832744FC83A74701232CF4FCCF
:10055000832744FC83A7C701232AF4FC8327C4FE16
:1005600093850700B737008013858760EF20006010
:10057000832784FE93850700B737008013850761C2
:10058000EF20C05E832744FE93850700B7370080C5
:1005900013858761EF20805D832704FE9385070024
:1005A000B737008013850762EF20405C8327C4FDC6
:1005B00093850700B737008013858762EF20005BC3
:1005C000832784FD93850700B73700801385076371
:1005D000EF20C059832744FD93850700B73700807B
:1005E00013858763EF208058B73700801385076431
:1005F000EF20004D0327C4FC832784FC938607006B
:10060000B73700801386876593050700B7370080EA
:1006100013850766EF20005A0327C4FC9307B00038
:100620006304F7020327C4FC9307A000630EF700DE
:100630000327C4FC930790006308F7000327C4FC5A
:1006400093078000631CF700B73700801385876627
:10065000EF200047EF2050416F00000A8327C4FCC1
:1006600063D207020327C4FCB707008093C7F7FFD4
:100670003377F7009307B0006316F700EFF01FDD44
:100680006F0080078327C4FC63D207020327C4FCE2
:10069000B707008093C7F7FF3377F7009307700021
:1006A0006316F700EFF01FD06F0000058327C4FC2E
:1006B00063D207020327C4FCB707008093C7F7FF84
:1006C0003377F700930730006316F700EFF01FDF72
:1006D0006F00800213065000B737008093850769CA
:1006E00013051000EF20106A8327C4FC93871700BE
:1006F00013850700EF00404C832784FC1385070017
:100700008320C103032481031301010467800000D7
:10071000130101FF23268100130401019307000048
:10072000138507000324C100130101016780000045
:10073000130101FF23268100130401019307000028
:10074000138507000324C100130101016780000025
:10075000130101FF23268100130401019307000008
:10076000138507000324C100130101016780000005
:10077000130101FF232681001304010193070000E8
:10078000138507000324C1001301010167800000E5
:10079000130101FF232681001304010193070000C8
:1007A000138507000324C1001301010167800000C5
:1007B000130101FF232681001304010193070000A8
:1007C000138507000324C1001301010167800000A5
:1007D000130101FF23268100130401019307000088
:1007E000138507000324C100130101016780000085
:1007F000130101FF23268100130401019307000068
:10080000138507000324C100130101016780000064
:10081000130101FF23268100130401019307000047
:10082000138507000324C100130101016780000044
:10083000130101FF23268100130401019307000027
:10084000138507000324C100130101016780000024
:10085000130101FF23268100130401019307000007
:10086000138507000324C100130101016780000004
:10087000130101FF232681001304010193070000E7
:10088000138507000324C1001301010167800000E4
:10089000130101FF232681001304010193070000C7
:1008A000138507000324C1001301010167800000C4
:1008B000130101FF232681001304010193070000A7
:1008C000138507000324C1001301010167800000A4
:1008D000130101FF23268100130401019307000087
:1008E000138507000324C100130101016780000084
:1008F000130101FF23268100130401019307000067
:10090000138507000324C100130101016780000063
:10091000130101FF23268100130401019307000046
:10092000138507000324C100130101016780000043
:10093000130101FF23268100130401019307000026
:10094000138507000324C100130101016780000023
:10095000130101FF23268100130401019307000006
:10096000138507000324C100130101016780000003
:10097000130101FF232681001304010193070000E6
:10098000138507000324C1001301010167800000E3
:10099000130101FF232681001304010193070000C6
:1009A000138507000324C1001301010167800000C3
:1009B000130101FF232681001304010193070000A6
:1009C000138507000324C1001301010167800000A3
:1009D000130101FF23268100130401019307000086
:1009E000138507000324C100130101016780000083
:1009F000130101FF23268100130401019307000066
:100A0000138507000324C100130101016780000062
:100A1000130101FF23268100130401019307000045
:100A2000138507000324C100130101016780000042
:100A3000130101FF23268100130401019307000025
:100A4000138507000324C100130101016780000022
:100A5000130101FF23268100130401019307000005
:100A6000138507000324C100130101016780000002
:100A7000130101FF232681001304010193070000E5
:100A8000138507000324C1001301010167800000E2
:100A9000130101FF232681001304010193070000C5
:100AA000138507000324C1001301010167800000C2
:100AB000130101FF232681001304010193070000A5
:100AC000138507000324C1001301010167800000A2
:100AD000130101FD232611022324810213040103C3
:100AE000232EA4FC232CB4FC13062000B73700806F
:100AF000938587690325C4FDEF20D02893078000E4
:100B0000A307F4FE6F0080098347F4FE9387F7FF85
:100B10002307F4FE8347E4FE939727001307F000B2
:100B2000B317F70013870700832784FD3377F70097
:100B30008347E4FE93972700B357F700A306F4FE1C
:100B40000347D4FE9307900063EEE7008347D4FE8B
:100B50009387070393F7F70F9397870193D78741FD
:100B60006F0080018347D4FE9387770393F7F70FD5
:100B70009397870193D787412306F4FE9307C4FE1A
:100B800013061000938507000325C4FDEF20901F76
:100B90008347F4FE9387F7FFA307F4FE8347F4FE31
:100BA000E39407F6130000008320C10203248102AE
:100BB0001301010367800000130101FD23261102C8
:100BC0002324810213040103232EA4FCB7370080E1
:100BD0009387C7692326F4FE0325C4FEEF1080091E
:100BE00093070500138607008325C4FE1305200024
:100BF000EF2050198327C4FD9385070013052000BB
:100C0000EFF01FED6F000000130101FE232E8100A5
:100C1000130401022326A4FE0327C4FE9307100039
:100C20006308F7000327C4FE930720006316F7004C
:100C3000930710006F004001B7D7018013079000A1
:100C400023AEE7EE93070000138507000324C101DC
:100C50001301010267800000130101FE232E8100B1
:100C6000130401022326A4FEB7D701800327C4FE84
:100C700023AEE7EE9307F0FF138507000324C101BD
:100C80001301010267800000130101FD23261102F8
:100C90002324810213040103232EA4FC232CB4FC7F
:100CA000232AC4FC832784FD2324F4FE0325C4FDEA
:100CB000EFF09FF593070500638C070883A7019168
:100CC00063900702930610001306C002B715007068
:100CD00013858190EF0040171307100023A8E190BF
:100CE000232604FE6F008005032784FE8327C4FEAD
:100CF000B307F70013061000938507001385819052
:100D0000EF000026032784FE8327C4FEB307F70005
:100D100003C707009307A000631CF7001306100029
:100D2000B73700809385C76B13858190EF00402310
:100D30008327C4FE938717002326F4FE0327C4FEEF
:100D4000832744FDE362F7FA832744FD6F00000127
:100D500013059000EFF05FF093070500138507007F
:100D60008320C10203248102130101036780000074
:100D70002320B50067800000032505006780000080
:100D8000138E0600331EBE00337ECE000323050003
:100D90009303060093C3F3FF337373003363C301FC
:100DA0002320650067800000032505003375C5001A
:100DB0003355B500678000002310B5006780000040
:100DC0000315050067800000138E0600331EBE0069
:100DD000337ECE00031305009303060093C3F3FF95
:100DE000337373003363C301231065006780000011
:100DF000031505003375C5003355B5006780000045
:100E00002300B5006780000003050500678000002F
:100E1000138E0600331EBE00337ECE000303050092
:100E20009303060093C3F3FF337373003363C3016B
:100E30002300650067800000030505003375C500C9
:100E40003355B50067800000130101FD2326110210
:100E50002324810213040103232EA4FC232CB4FCBD
:100E60009307060013870600231BF4FC9307070073
:100E7000A30AF4FC8327C4FD638A070C034754FDCF
:100E80009307700063E4E70C035764FDB727000085
:100E9000637EF70A832784FD13878700835764FDE9
:100EA00093F7F70F9385070013050700EFF05FF541
:100EB000832784FD9386C700034754FD835764FD51
:100EC00093D7574093F7877FB367F7009385070061
:100ED00013850600EFF0DFF28327C4FD032784FDAE
:100EE00023A0E7008327C4FD83A70700938707019A
:100EF00013850700EFF05FF19307050093F72700D4
:100F0000A307F4FE6F0080038327C4FD83A70700B7
:100F10009387470013850700EFF01FEF8327C4FD79
:100F200083A707009387070113850700EFF0DFED24
:100F30009307050093F72700A307F4FE8347F4FE09
:100F4000E39407FC8327C4FD2382070013000000FD
:100F50008320C10203248102130101036780000082
:100F6000130101FD2326110223248102130401032E
:100F7000232EA4FC232CB4FC232AC4FC8327C4FD09
:100F800063800708832784FD638C0706832744FD5D
:100F900063880706232604FE6F00C0058327C4FD6F
:100FA00083A707009387070113850700EFF0DFE5AC
:100FB0009307050093F71700A305F4FE8347B4FEDB
:100FC000E38E07FC8327C4FD83A60700032784FD67
:100FD0008327C4FEB307F70083C707009385070084
:100FE00013850600EFF0DFE18327C4FE9387170027
:100FF0002326F4FE0327C4FE832744FDE360F7FAAB
:10100000130000008320C1020324810213010103A5
:1010100067800000130101FD2326110223248102B1
:1010200013040103232EA4FC232CB4FC8327C4FD4A
:1010300063800708832784FD638C0706232604FE4C
:101040006F00C0058327C4FD83A7070093870701AE
:1010500013850700EFF05FDB9307050093F7170098
:10106000A305F4FE8347B4FEE38E07FC8327C4FD8B
:1010700083A60700032784FD8327C4FEB307F70078
:1010800083C707009385070013850600EFF05FD73D
:101090008327C4FE938717002326F4FE032784FDCD
:1010A0008327C4FEB307F70083C70700E39C07F854
:1010B000130000008320C1020324810213010103F5
:1010C00067800000130101FC232E1102232C8102F2
:1010D000130401042326A4FC232204FEEF009071D4
:1010E00083A7419263980700EF0040281307100080
:1010F00023A2E1928327C4FC638A0702930780003E
:10110000138707008327C4FCB387E7002326F4FC7A
:101110008327C4FC93F73700638A07008327C4FC46
:1011200093F7C7FF938747002326F4FC8327C4FC6B
:10113000638407140327C4FCB79701009387B7FFA4
:1011400063ECE712938741912324F4FE83A7419136
:101150002326F4FE6F0080018327C4FE2324F4FEBF
:101160008327C4FE83A707002326F4FE8327C4FE3B
:1011700083A747000327C4FC63F8E7008327C4FE66
:1011800083A70700E39A07FC0327C4FE9387C19156
:101190006304F70E832784FE83A7070013078000EC
:1011A000B387E7002322F4FE8327C4FE03A70700CA
:1011B000832784FE23A0E7008327C4FE03A74700FC
:1011C0008327C4FCB307F7401307800013171700E9
:1011D0006376F7080327C4FE8327C4FCB307F70030
:1011E000232EF4FC8327C4FE03A747008327C4FCF7
:1011F0003307F7408327C4FD23A2E7008327C4FEFB
:101200000327C4FC23A2E7008327C4FD83A747006C
:10121000232CF4FC938741912320F4FE6F000001FE
:10122000832704FE83A707002320F4FE832704FE00
:1012300083A7070083A74700032784FDE3E2E7FEB7
:10124000832704FE03A707008327C4FD23A0E7002C
:10125000832704FE0327C4FD23A0E700B7470080CF
:1012600003A707898327C4FE83A747003307F740F6
:10127000B747008023A8E788EF00505A832744FE31
:1012800063940700EF20C023832744FE13850700E3
:101290008320C1030324810313010104678000003C
:1012A000130101FD232611022324810213040103EB
:1012B000232EA4FC8327C4FD2324F4FE8327C4FD2E
:1012C000638C070893078000B307F040032784FE70
:1012D000B307F7002324F4FE832784FE2322F4FEC1
:1012E000EF005051832744FE83A747002320F4FEDC
:1012F000938741912326F4FE6F0000018327C4FEEB
:1013000083A707002326F4FE8327C4FE83A70700D4
:1013100083A74700032704FEE3E2E7FE8327C4FE1A
:1013200003A70700832744FE23A0E7008327C4FE0A
:10133000032744FE23A0E700832744FE03A74700BA
:10134000B747008083A707893307F700B7470080B6
:1013500023A8E788EF00904C130000008320C1020F
:10136000032481021301010367800000130101FEC1
:10137000232E810013040102B7470080938747A002
:1013800093F7C7FF2326F4FE0327C4FE23AAE190A8
:101390009387419123A207009387C191379701005A
:1013A0001307C7FF23A2E70023AE01908327C4FEE3
:1013B0002324F4FE832784FE379701001307C7FF19
:1013C00023A2E700832784FE1387C19123A0E700AF
:1013D000130000000324C101130101026780000013
:1013E000130101FE232E810013040102F32740F1B3
:1013F0002326F4FE8327C4FE2324F4FEF36744303F
:101400002322F4FE37070044832784FE93972700A6
:10141000B307F7001307100023A0E7001300000034
:101420000324C1011301010267800000130101FFC1
:10143000232681001304010173700430B747008034
:1014400083A7478913871700B747008023AAE78837
:10145000130000000324C100130101016780000094
:10146000130101FF2326810013040101B747008007
:1014700083A747891387F7FFB747008023AAE78828
:10148000B747008083A747896394070073600430DF
:10149000130000000324C100130101016780000054
:1014A000130101FE232E8100130401023746008040
:1014B00003268689032606002324C4FE232604FE71
:1014C00037460080032686890326460093060600D9
:1014D000130700001398060093070000032784FEFB
:1014E0003367F7002324E4FE0327C4FEB367070134
:1014F0002326F4FE832684FE0327C4FEB74501009D
:101500009385854313060000B387B6001385070053
:101510003335D5003308C70033070501130807002A
:101520002324F4FE232604FFB747008083A7C7893E
:10153000032784FE23A0E7008327C4FE13D30700FC
:1015400093030000B747008083A7C78913070300F0
:1015500023A2E7009307000873A0473013000000A0
:101560000324C1011301010267800000130101FE81
:10157000232E81001304010237460080032686894A
:10158000032606002324C4FE232604FE37460080DB
:1015900003268689032646009306060013070000EB
:1015A0001398060093070000032784FE3367F700B3
:1015B0002324E4FE0327C4FEB36707012326F4FEB9
:1015C000832684FE0327C4FEB74501009385854327
:1015D00013060000B387B600138507003335D50026
:1015E0003308C70033070501130807002324F4FE5E
:1015F000232604FFB747008083A7C789032784FEFB
:1016000023A0E7008327C4FE13D307009303000041
:10161000B747008083A7C7891307030023A2E70009
:101620009307000873A04730130000000324C10192
:101630001301010267800000130101FF23268100CE
:1016400013040101B747008003A747899307F0FF00
:101650006306F700737004306F000000737004308D
:101660006F000000130101FE232E8100130401020C
:101670002326A4FE2324B4FE2322C4FE8327C4FE13
:101680009387C7FF2326F4FE032784FE8327C4FE27
:1016900023A0E7008327C4FE938787FA2326F4FE5E
:1016A000032744FE8327C4FE23A0E7008327C4FE4C
:1016B000938787FE2326F4FE938701001387070094
:1016C0008327C4FE23A0E7008327C4FE938747FF38
:1016D0002326F4FEB7170080138787638327C4FE91
:1016E00023A0E7008327C4FE138507000324C1015C
:1016F0001301010267800000130101FF232611007E
:10170000232481001304010183A2C19223A0C200FB
:10171000EFF01FD9EF0090269307050063840700C0
:10172000EF00904403A1C192032101008322C1076D
:1017300073901234832001000322C100832201012F
:1017400003234101832381010324C1018324010276
:1017500003254102832581020326C102832601035A
:1017600003274103832781030328C103832801043E
:101770000329410483298104032AC104832A010522
:10178000032B4105832B8105032CC105832C010606
:10179000032D4106832D8106032EC106832E0107EA
:1017A000032F4107832F81071301010873002030A5
:1017B000130000008320C1000324810013010101F4
:1017C00067800000130101FF2326110023248100FC
:1017D00013040101EFF09FD9B747008023AA0788BF
:1017E0001307100023A4E192EFE09FB9EFF05FBF71
:1017F00093070000138507008320C10003248100A4
:101800001301010167800000130101FF232611006D
:10181000232481001304010103A781929307100080
:101820006318F7001307200023A4E1926F00000162
:1018300083A2C19223A0C200EF001033B707004477
:1018400023A0070003A1C192032101008322C10745
:1018500073901234832001000322C100832201010E
:1018600003234101832381010324C1018324010255
:1018700003254102832581020326C1028326010339
:1018800003274103832781030328C103832801041D
:101890000329410483298104032AC104832A010501
:1018A000032B4105832B8105032CC105832C0106E5
:1018B000032D4106832D8106032EC106832E0107C9
:1018C000032F4107832F8107130101087300203084
:1018D000130000008320C1000324810013010101D3
:1018E00067800000130101FF2326110023248100DB
:1018F00013040101EFF0DFAE130000008320C100EC
:10190000032481001301010167800000130101FE1F
:10191000232E8100130401022326A4FE8327C4FE84
:10192000138787008327C4FE23A2E7008327C4FE12
:101930001307F0FF23A4E7008327C4FE1387870063
:101940008327C4FE23A6E7008327C4FE13878700EE
:101950008327C4FE23A8E7008327C4FE23A0070033
:10196000130000000324C10113010102678000007D
:10197000130101FE232E8100130401022326A4FE7D
:101980008327C4FE23A80700130000000324C1011D
:101990001301010267800000130101FD232681026B
:1019A00013040103232EA4FC232CB4FC8327C4FDC1
:1019B00083A747002326F4FE832784FD0327C4FE64
:1019C00023A2E7008327C4FE03A78700832784FDA3
:1019D00023A4E7008327C4FE83A78700032784FD91
:1019E00023A2E7008327C4FE032784FD23A4E70086
:1019F000832784FD0327C4FD23A8E7008327C4FDB4
:101A000083A70700138717008327C4FD23A0E700DF
:101A1000130000000324C1021301010367800000CA
:101A2000130101FD2326810213040103232EA4FCCC
:101A3000232CB4FC832784FD83A707002324F4FE12
:101A4000032784FE9307F0FF631AF7008327C4FD82
:101A500083A707012326F4FE6F0040038327C4FDFC
:101A6000938787002326F4FE6F0000018327C4FEBE
:101A700083A747002326F4FE8327C4FE83A74700DD
:101A800083A70700032784FEE372F7FE8327C4FEC3
:101A900003A74700832784FD23A2E700832784FD53
:101AA00083A74700032784FD23A4E700832784FD41
:101AB0000327C4FE23A4E7008327C4FE032784FD75
:101AC00023A2E700832784FD0327C4FD23A8E700A2
:101AD0008327C4FD83A70700138717008327C4FD4E
:101AE00023A0E700130000000324C1021301010337
:101AF00067800000130101FD232681021304010306
:101B0000232EA4FC8327C4FD83A707012326F4FE0C
:101B10008327C4FD83A747000327C4FD032787004D
:101B200023A4E7008327C4FD83A787000327C4FD00
:101B30000327470023A2E7008327C4FE83A74700AB
:101B40000327C4FD631AF7008327C4FD03A787009A
:101B50008327C4FE23A2E7008327C4FD23A8070030
:101B60008327C4FE83A707001387F7FF8327C4FEDC
:101B700023A0E7008327C4FE83A70700138507007F
:101B80000324C1021301010367800000130101FD5A
:101B90002326810213040103232EA4FC232CB4FC6E
:101BA000232AC4FC0327C4FD832744FDB367F70041
:101BB00093F7370063980706832784FD93F7F70FA1
:101BC0002322F4FE832744FE93978700032744FED5
:101BD000B367F7002322F4FE832744FE939707019F
:101BE000032744FEB367F7002322F4FE8327C4FDD6
:101BF0002326F4FE6F0080018327C4FE138747006D
:101C00002326E4FE032744FE23A0E7000327C4FDA8
:101C1000832744FDB307F7000327C4FEE36EF7FCF8
:101C20006F0000048327C4FD2324F4FE6F0000022C
:101C3000832784FE138717002324E4FE032784FDF3
:101C400013178701135787412380E7000327C4FD3B
:101C5000832744FDB307F700032784FEE36AF7FCFC
:101C60008327C4FD138507000324C1021301010368
:101C700067800000130101FD232681021304010384
:101C8000232EA4FC8327C4FD2326F4FE6F0000014D
:101C90008327C4FE938717002326F4FE8327C4FE00
:101CA00083870700E39607FE0327C4FE8327C4FD4E
:101CB000B307F740138507000324C1021301010392
:101CC00067800000130101FC232E1102232C8102E6
:101CD00013040104232EA4FC232CB4FC2328D4FCDD
:101CE0002326E4FC2324F4FC232204FD232014FDFA
:101CF00093070600231BF4FC8327C4FD63960700AB
:101D0000737004306F0000000327C4FC9307400089
:101D100063F6E700737004306F000000835764FDC2
:101D2000832544FC13850700EF0010282324A4FE1C
:101D3000832784FE63820716832784FE03A7070395
:101D4000835664FDB70700409387F7FFB387F6001B
:101D500093972700B307F7002322F4FE832744FE5E
:101D600093F7C7FF2322F4FE832744FE93F737003F
:101D700063860700737004306F000000835764FDB2
:101D800013870700832604FC0326C4FC832584FDF7
:101D9000032584FEEF00406F032604FD8325C4FD68
:101DA000032544FEEFF01F8C13070500832784FEF4
:101DB00023A0E700832784FC63880700832784FC33
:101DC000032784FE23A0E700EFF04FE683A7C1932B
:101DD0001387170023AEE19283A7C1926390070295
:101DE000032784FE23A6E19203A7C1939307100063
:101DF0006316F702EF00C07C6F00400283A7819456
:101E0000639E070083A7C19283A7C7020327C4FC70
:101E10006366F700032784FE23A6E19283A78195DA
:101E20001387170023ACE19403A78195832784FED1
:101E300023A4E704832784FE03A7C70283A7419452
:101E400063F8E700832784FE03A7C70223A2E19477
:101E5000832784FE03A7C7029307070093972700F1
:101E6000B387E7009397270037D70180130707A0B0
:101E70003387E700832784FE938747009385070015
:101E800013050700EFF05FB1930710002326F4FE5F
:101E9000EFF00FDD6F00C0009307F0FF2326F4FE84
:101EA0000327C4FE930710006310F70283A78194F1
:101EB000638C070083A7C19283A7C7020327C4FCD2
:101EC00063F4E700EFF01FA28327C4FE1385070029
:101ED0008320C103032481031301010467800000F0
:101EE000130101FD2326110223248102130401039F
:101EF000232EA4FC232604FE8327C4FD6384070449
:101F000083A7019663860700737004306F0000009A
:101F1000EF00400E83A701940327C4FDB307F70029
:101F20002324F4FE83A7C1929387470013850700FB
:101F3000EFF05FBC032584FEEF00807EEF00000E13
:101F40002326A4FE8327C4FE63940700EFF09F9925
:101F5000130000008320C102032481021301010346
:101F600067800000130101FE232E1100232C810045
:101F700013040102930800001308000093070000F7
:101F8000130700009306000013060040B7350080D9
:101F90009385056C3725008013054545EFF09FD2EA
:101FA0002326A4FE0327C4FE930710006312F70242
:101FB000737004301307F0FF23AEE1941307100091
:101FC00023A4E19423A00194EFF0CFFF6F00400120
:101FD0008327C4FE63960700737004306F0000000F
:101FE000130000008320C1010324810113010102B9
:101FF00067800000130101FF232681001304010103
:1020000083A701961387170023A0E1961300000011
:102010000324C1001301010167800000130101FEC8
:10202000232E1100232C810013040102232604FE19
:1020300083A7019663960700737004306F00000059
:10204000EFF0CFBE83A701961387F7FF23A0E19699
:1020500083A701966396071083A7C1936382071035
:102060006F00800AB7D701809387C7A883A7C700EE
:1020700083A7C7002324F4FE832784FE9387870168
:1020800013850700EFF01FA7832784FE938747007F
:1020900013850700EFF01FA6832784FE03A7C7025E
:1020A00083A7419463F8E700832784FE03A7C70250
:1020B00023A2E194832784FE03A7C70293070700A6
:1020C00093972700B387E7009397270037D70180BE
:1020D000130707A03387E700832784FE9387470011
:1020E0009385070013050700EFF01F8B832784FEFD
:1020F00003A7C70283A7C19283A7C7026366F7003D
:102100001307100023A8E194B7D7018083A7C7A8BD
:10211000E39A07F483A7C194638807026F00400223
:10212000EF00C00593070500638607001307100042
:1021300023A8E19483A7C1941387F7FF23A6E19412
:1021400083A7C194E39E07FC03A7019593071000A2
:102150006318F700930710002326F4FEEFF08FF8C2
:10216000EFF00FB08327C4FE138507008320C10161
:10217000032481011301010267800000130101FDA6
:10218000232611022324810213040103232604FEC3
:1021900083A701966390071A83A7019413871700FA
:1021A00023A0E19483A701942324F4FE832784FED3
:1021B0006390070483A7019383A707006386070042
:1021C000737004306F00000083A701932322F4FE94
:1021D00003A7419323A8E192032744FE23AAE19297
:1021E00083A741951387170023AAE194EF00C06BE2
:1021F00083A7C195032784FE6360F71083A701932B
:1022000083A7070063960700930710006F00800004
:1022100093070000638807001307F0FF23AEE194E3
:102220006F00800D83A7019383A7C70083A7C70012
:102230002320F4FE832704FE83A74700232EF4FC0B
:10224000032784FE8327C4FD6378F7000327C4FDBA
:1022500023AEE1946F00400A832704FE9387470072
:1022600013850700EFF01F89832704FE83A78702E9
:10227000638A0700832704FE93878701138507007D
:10228000EFF05F87832704FE03A7C70283A741946B
:1022900063F8E700832704FE03A7C70223A2E194A3
:1022A000832704FE03A7C70293070700939727001D
:1022B000B387E7009397270037D70180130707A05C
:1022C0003387E700832704FE938747009385070041
:1022D00013050700EFF04FEC832704FE03A7C702A6
:1022E00083A7C19283A7C702E36AF7F093071000A0
:1022F0002326F4FE6FF09FF083A7C19203A7C702C5
:10230000B7D601809307070093972700B387E700AC
:1023100093972700138706A0B387E70003A707005A
:102320009307100063FEE700930710002326F4FED6
:102330006F00000183A7C1941387170023A6E194BF
:1023400083A7019563860700930710002326F4FEF8
:102350008327C4FE138507008320C1020324810262
:102360001301010367800000130101FE232E810089
:102370001304010283A70196638807001307100066
:1023800023A8E1946F00000C23A801946F000002C1
:1023900083A7419463960700737004306F000000B8
:1023A00083A741941387F7FF23A2E19403A74194E5
:1023B000B7D601809307070093972700B387E700FC
:1023C00093972700138706A0B387E70083A707002A
:1023D000E38007FC03A74194930707009397270026
:1023E000B387E7009397270037D70180130707A02B
:1023F000B387E7002326F4FE8327C4FE83A74700A4
:1024000003A747008327C4FE23A2E7008327C4FE57
:1024100003A747008327C4FE93878700631CF70048
:102420008327C4FE83A7470003A747008327C4FE72
:1024300023A2E7008327C4FE83A7470003A7C700A2
:1024400023A6E192130000000324C101130101023D
:1024500067800000130101FE232E1100232C810050
:10246000130401022326A4FEEF008021B7D70180C8
:1024700003A707A09307100063F4E700EFF08FC6EF
:10248000EF1040056FF05FFE130101FC232E1102D7
:10249000232C810213040104232EA4FC232CB4FC5E
:1024A000232AC4FC2328D4FC930707002317F4FC39
:1024B000232604FE6F004004032784FD8327C4FE07
:1024C000B307F700038707008326C4FD8327C4FEF4
:1024D000B387F600238AE702032784FD8327C4FE1F
:1024E000B307F70083870700638007028327C4FED2
:1024F000938717002326F4FE0327C4FE9307F000FA
:10250000E3FCE7FA6F008000130000008327C4FD9E
:10251000A3810704032744FD9307400063F6E70007
:1025200093074000232AF4FC8327C4FD032744FDBE
:1025300023A6E7028327C4FD032744FD23A8E7045D
:102540008327C4FD23AA07048327C4FD938747007C
:1025500013850700EFF0CFC18327C4FD9387870160
:1025600013850700EFF0CFC08327C4FD0327C4FD08
:1025700023A8E70013075000832744FD3307F740E3
:102580008327C4FD23ACE7008327C4FD0327C4FDD4
:1025900023A2E7028327C4FD23A207048327C4FDE7
:1025A00023AC07048327C4FD23AE070413000000F7
:1025B0008320C10303248103130101046780000009
:1025C000130101FE232E1100232C810013040102AC
:1025D000232604FE6F0080030327C4FE9307070031
:1025E00093972700B387E7009397270037D7018099
:1025F000130707A0B387E70013850700EFF00FB1BB
:102600008327C4FE938717002326F4FE0327C4FE06
:1026100093074000E3F2E7FCB7D70180138547A694
:10262000EFF0CFAEB7D70180138587A7EFF00FAEDD
:10263000B7D701801385C7A8EFF04FADB7D701809A
:10264000138507AAEFF08FACB7D70180138547AB8E
:10265000EFF0CFAB37D70180130747A623A8E1924D
:1026600037D70180130787A723AAE1921300000040
:102670008320C1010324810113010102678000004E
:10268000130101FE232E1100232C810013040102EB
:102690006F004007EFF01F96B7D7018083A707AA06
:1026A00093B7170093F7F70F2326F4FEEFF01F9769
:1026B0008327C4FE63980704EFE05FD7B7D7018094
:1026C000938707AA83A7C70083A7C7002324F4FE24
:1026D000832784FE9387470013850700EFF08FC19F
:1026E00083A7C1931387F7FF23AEE19283A781935A
:1026F0001387F7FF23ACE192EFE09FD6032584FE1A
:10270000EF00801683A78193E39607F8130000007B
:102710008320C101032481011301010267800000AD
:10272000130101FE232E1100232C8100130401024A
:102730002326A4FE83A7C1920327C4FE23A2E70099
:1027400083A701940327C4FE6370F70203A7419394
:1027500083A7C1929387470093850700130507005D
:10276000EFF00FAC6F00000303A7019383A7C192A2
:10277000938747009385070013050700EFF04FAAE2
:1027800083A7C1950327C4FE6376F7000327C4FE21
:1027900023AEE194130000008320C10103248101D2
:1027A0001301010267800000130101FD23261102BD
:1027B000232481021304010393070500232CB4FC96
:1027C000231FF4FC832784FD639E07008357E4FDE9
:1027D0009397270013850700EFE0DF8E930705002E
:1027E0006F008000832784FD2324F4FE832784FE6A
:1027F000638A070213050006EFE0DF8C2326A4FEA0
:102800008327C4FE638A07008327C4FE032784FE50
:1028100023A8E7026F004001032584FEEFE05FA8D4
:102820006F008000232604FE8327C4FE6382070214
:102830008327C4FE03A707038357E4FD939727006C
:10284000138607009305500A13050700EFF00FB435
:102850008327C4FE138507008320C102032481025D
:102860001301010367800000130101FE232E1100F4
:10287000232C8100130401022326A4FE8327C4FE17
:1028800083A7070313850700EFE09FA10325C4FE7C
:10289000EFE01FA1130000008320C1010324810188
:1028A0001301010267800000130101FE232E810045
:1028B0001304010283A7019383A70700639607000F
:1028C000930710006F0080009307000063880700E3
:1028D0001307F0FF23AEE1946F00000283A701937A
:1028E00083A7C70083A7C7002326F4FE8327C4FE5F
:1028F00003A7470023AEE194130000000324C101A5
:102900001301010267800000130101FD23268102EB
:1029100013040103232EA4FCF32740F12326F4FE25
:102920008327C4FE2324F4FE370700408327C4FD19
:1029300093D75700832684FE93965600B386F600FD
:10294000B717000093870780B387F6009397270097
:10295000B307F70083A707002322F4FE8327C4FDF3
:1029600093F7F70113071000B317F700032744FE8E
:10297000B367F7002322F4FE370700408327C4FD26
:1029800093D75700832684FE93965600B386F600AD
:10299000B717000093870780B387F6009397270047
:1029A000B307F700032744FE23A0E700130000004D
:1029B0000324C1021301010367800000130101FE1B
:1029C000232E8100130401022326A4FE2324B4FE37
:1029D000370700408327C4FE93972700B307F7000B
:1029E000032784FE23A0E700130000000324C10195
:1029F0001301010267800000130101FF232611006B
:102A00002324810013040101B70700901385C7FF39
:102A1000EFE08FB693070500938507003705005058
:102A2000EFE00FB537050050EFE00FB513070500D5
:102A3000B7D7018023A8E7FCB7D7018083A707FD9C
:102A400013850700EF00001D93070500938507001D
:102A5000B707005013850702EFE08FB1B7D70180A9
:102A600083A707FD13850700EF00801D930705006E
:102A700093850700B707005013850702EFE04FAFBB
:102A8000B777000013857777EF00001EB7D7018076
:102A9000938787AC93850700B707005013854700DD
:102AA000EFE00FAD1305A000EF000055130000008C
:102AB0008320C1000324810013010101678000000D
:102AC000130101FD232611022324810213040103B3
:102AD000232EA4FC232604FE8327C4FE0327C4FD63
:102AE000B307F7008387070093850700B7070050F7
:102AF00013850702EFE0CFA78327C4FE9387170053
:102B00002326F4FE8327C4FE9387F7FF0327C4FD23
:102B1000B307F70083870700E39007FC130000006A
:102B20008320C10203248102130101036780000096
:102B3000130101FE232E1100232C81001304010236
:102B40002326A4FE8327C4FE93850700B707005001
:102B500013854702EFE0CFA1130000008320C101DD
:102B6000032481011301010267800000130101FEAB
:102B7000232E1100232C8100130401022326A4FE1E
:102B80002324B4FE0325C4FEEFF09FF3032584FE47
:102B9000EFF01FFAB73700801385876CEFF05FF214
:102BA000130000008320C1010324810113010102ED
:102BB00067800000130101FE232E1100232C8100E9
:102BC000130401022326A4FE2324B4FE2322C4FE00
:102BD0002320D4FE0325C4FEEFF09FEE032584FEE0
:102BE000EFF01FF5032544FEEFF09FED032504FEF3
:102BF000EFF01FF4B73700801385876CEFF05FECC0
:102C0000130000008320C10103248101130101028C
:102C100067800000130101FE232E810013040102CE
:102C20002326A4FE8327C4FE93D7870093F7F70FCC
:102C3000138507000324C10113010102678000000E
:102C4000130101FE232E8100130401022326A4FE9A
:102C50008327C4FE93F7F70F138507000324C101F0
:102C60001301010267800000130101FE232E1100F1
:102C7000232C8100130401022326A4FE0327C4FE93
:102C8000B727000093872722630AF7000327C4FEB3
:102C9000B777000093877777631CF7001305100060
:102CA000EFF09FC69305100013051000EFF01FD141
:102CB0000327C4FEB737000093873733630AF70052
:102CC0000327C4FEB777000093877777631EF7006A
:102CD00013052000EFF05FC39305100013052000DB
:102CE000EFF0DFCD13000000130000008320C101CE
:102CF000032481011301010267800000130101FF19
:102D0000232611002324810013040101B73700801A
:102D10001385076EEFF0DFDAB7570000938557553C
:102D2000B707005013858700EFE08F8493070000FA
:102D3000138507008320C1000324810013010101D2
:102D400067800000130101FF232611002324810066
:102D500013040101B73700801385476FEFF05FD68A
:102D6000B757000093855755B70700501385C70024
:102D7000EFE00F8093070000138507008320C10058
:102D8000032481001301010167800000130101FD8C
:102D90002326810213040103232EA4FC232CB4FC5C
:102DA0008327C4FD83C70700A307F4FE832784FDA0
:102DB000038707008327C4FD2380E700832784FD62
:102DC0000347F4FE2380E700130000000324C10240
:102DD0001301010367800000130101FE232E11007F
:102DE000232C8100130401022326A4FE2324B4FE15
:102DF0002322C4FE6F000004832784FE138717007C
:102E00002324E4FE138707008327C4FEB386E7006C
:102E1000832744FE1387F7FF2322E4FE138707006E
:102E20008327C4FEB387E700938507001385060058
:102E3000EFF0DFF5032784FE832744FEE34EF7FA25
:102E40008327C4FE138507008320C1010324810169
:102E50001301010267800000130101FD2326110206
:102E60002324810213040103232EA4FC232CB4FC8D
:102E7000232AC4FC032744FD9307100063D8E7000E
:102E8000032744FD9307000263D6E700832784FDF0
:102E90006F0040158327C4FD63DA07008327C4FD54
:102EA000B307F0402326F4FE6F00C0008327C4FD63
:102EB0002326F4FE232404FE6F00C0090327C4FE6A
:102EC000832744FDB367F7022322F4FE032744FE61
:102ED0009307900063DEE702832744FE93F7F70F22
:102EE0009387770393F6F70F832784FE13871700E2
:102EF0002324E4FE13870700832784FDB387E700BC
:102F000013978601135787412380E7006F008003E2
:102F1000832744FE93F7F70F9387070393F6F70F82
:102F2000832784FE138717002324E4FE13870700FA
:102F3000832784FDB387E7001397860113578741E2
:102F40002380E7000327C4FE832744FDB347F7022D
:102F50002326F4FE8327C4FEE39207F6832784FE2C
:102F600063920702832784FE138717002324E4FE5D
:102F700013870700832784FDB387E7001307000347
:102F80002380E7008327C4FD63D80702032744FD9D
:102F90009307A0006312F702832784FE13871700AC
:102FA0002324E4FE13870700832784FDB387E7000B
:102FB0001307D0022380E700832784FE032784FDC4
:102FC000B307F70023800700832784FE9387F7FF6A
:102FD0001386070093050000032584FDEFF0DFDF73
:102FE00093070500138507008320C1020324810293
:102FF0001301010367800000130101FE232E8100ED
:1030000013040102232604FE6F00400CB7D6018092
:103010000327C4FE9307070093972700B387E700B1
:1030200093972700138786F0B387E70023A0070054
:10303000B7D701800327C4FE938687F09307070064
:1030400093972700B387E70093972700B387F6008D
:1030500023A20700B7D701800327C4FE938687F019
:103060009307070093972700B387E70093972700FC
:10307000B387F60023A40700B7D601800327C4FE58
:103080009307070093972700B387E70093972700DC
:10309000138786F0B387E70023A80700B7D701801E
:1030A0000327C4FE938687F09307070093972700B2
:1030B000B387E70093972700B387F60023A607009E
:1030C0008327C4FE938717002326F4FE0327C4FE3C
:1030D00093079000E3FCE7F2130000000324C10112
:1030E0001301010267800000130101FE232E11006D
:1030F000232C8100130401022326A4FEEF00804745
:10310000130705008327C4FEB307F0402320F70010
:103110009307F0FF138507008320C1010324810179
:103120001301010267800000130101FD23268102C3
:10313000130401032326A4FE2324B4FE2322C4FE89
:103140002320D4FE232EE4FC232CF4FC232A04FDAC
:10315000032584FE832544FE032604FE8326C4FD46
:10316000032784FD832744FD8328C4FE73000000E9
:1031700093070500138507000324C102130101030F
:1031800067800000130101FC232E1102232C810211
:1031900013040104232EA4FC232CB4FC232AC4FC16
:1031A0002328D4FC2326E4FC2324F4FC232204FD5E
:1031B000032844FC832784FC0327C4FC832604FDE6
:1031C000032644FD832584FD0325C4FDEFF0DFF5D0
:1031D0002326A4FE8327C4FE63DA07000325C4FE6A
:1031E000EFF09FF0930705006F0080008327C4FE77
:1031F000138507008320C103032481031301010405
:1032000067800000130101FD23261102232481029F
:10321000130401032326A4FE2324B4FE2322C4FEA8
:103220002320D4FE232EE4FC232CF4FC8325C4FEAF
:10323000032684FE832644FE032704FE8327C4FD61
:10324000032584FD1308050013052004EFF09FF308
:1032500093070500138507008320C1020324810220
:103260001301010367800000130101FE232E1100EA
:10327000232C8100130401022326A4FEEFE00F9B00
:10328000B737008013850778EFF09F83EFE04F9DFD
:10329000130000008320C1010324810113010102F6
:1032A00067800000130101FE232E81001304010238
:1032B000F32740F12324F4FE832784FE2322F4FE27
:1032C000232604FE6F00C00337070040832744FE17
:1032D000939657008327C4FEB386F600B717000005
:1032E00093870780B387F60093972700B307F7000B
:1032F00023A007008327C4FE938717002326F4FE2C
:103300008327C4FEE38207FC232604FE6F004002ED
:10331000370700408327C4FE93972700B307F700C1
:1033200023A007008327C4FE938717002326F4FEFB
:103330000327C4FE9307E001E3FCE7FC37070040E6
:10334000832744FE938707209397C700B307F700AE
:1033500023A00700B717000093870780F3A7473023
:103360002320F4FE130000000324C1011301010215
:1033700067800000130101FD23261102232481022E
:1033800013040103EFF01FF2930610001306C002AE
:10339000B7150070B7D70180138507F0EFD0DFAA0B
:1033A000B73700809385C77BB7D70180138507F0B7
:1033B000EFD05FC6EFF04FE4B73700809385477ECC
:1033C000B7D70180138507F0EFD0DFC4B7D70180EE
:1033D00083A707FD138707009307C4FD13060001A9
:1033E0009385070013050700EFF01FA79307C4FD9F
:1033F00093850700B7D70180138507F0EFD09FC1F1
:10340000B747008093850781B7D70180138507F000
:10341000EFD05FC0B7D7018083A707FD639E070089
:10342000B747008093854781B7D70180138507F0A0
:10343000EFD05FBE6F008001B7470080938507849F
:10344000B7D70180138507F0EFD0DFBC93080000E9
:1034500013080000930700001307200093060000E4
:103460001306803EB745008093850586373500807A
:103470001305054FEFE01F859308000013080000B7
:103480009307000013072000930600001306803EF8
:10349000B745008093858586373500801305055430
:1034A000EFE05F82EFE01FAC930700001385070099
:1034B0008320C102032481021301010367800000FD
:1034C000130101FF232681001304010173700430EE
:1034D0006F000000130101FF232681001304010186
:1034E000130000000324C1001301010167800000E4
:1034F000130101BD232611422324814213040143F9
:10350000232EA4BC9307E0251307901F93064019B0
:103510001306F0129305A00C13055006EFF09FCE92
:10352000B747008093850787B7D70180138507F0D9
:10353000EFD05FAE13052000EFE09F9A6FF05FFEC3
:10354000130101FE232E1100232C8100130401021C
:103550002326A4FEB74700809385C787B7D701808D
:10356000138507F0EFD01FAB13055000EFE05F9716
:103570006FF05FFE970700009387C73203A507002F
:1035800067800000970700009387C7319306060005
:10359000138605009305050003A507006F00400092
:1035A000130101FF23248100130405001385050086
:1035B000930506001386060097A7010023A207942F
:1035C00023261100EFD04FEC9307F0FF631CF500AA
:1035D00097A701009387C79283A70700638407001A
:1035E0002320F4008320C100032481001301010182
:1035F00067800000000000000000000000000000E4
:1036000068656C6C6F000000617267302D0000000F
:10361000617267312D000000617267322D00000079
:10362000617267332D000000617267342D00000065
:10363000617267352D000000617267372D00000050
:10364000456E7472656920656D2068616E646C6595
:103650005F747261700A00006570632000000000F2
:103660006D636175736520006964656E7469666970
:103670007175656920756D61206368616D61646154
:103680002064652073697374656D610A0000000031
:10369000747261700A000000307800000A50726F86
:1036A00067616D206861732065786974656420774F
:1036B00069746820636F64653A0000000D000000C3
:1036C00049444C45000000000A0000004D656E733F
:1036D0006167656D20656E76696164612100000037
:1036E000494E54455252555054494F4E2054580A51
:1036F00000000000494E54455252555054494F4E17
:103700002052580A0000000066726F6D3A200000D7
:103710006D736720706F696E7465723A20000000E7
:103720004D696E6861207461736B2049443A2000D2
:10373000312074657374616E646F207265636569AE
:103740007665210A000000005359535F52454356E5
:103750005F4D534720000000616464722000000048
:1037600066726F6D20000000322074657374616EA4
:10377000646F2072656365697665210A0000000048
:10378000436865677565692061717569212121212B
:10379000212121207375636573736F6F6F203A4425
:1037A0000A0000000D0A4672656552544F532045C9
:1037B00078616D706C650D0A000000000A20436896
:1037C000726F6E6F7320706C6174666F726D2069BA
:1037D0006E697469616C697A696E672E2E2E200A93
:1037E000000000000A2054686973207465726D69D6
:1037F0006E616C2062656C6F6E677320746F2074ED
:10380000686520616464726573733A20000000008B
:103810000A0000000A20546869732070726F6365A3
:1038200073736F722069732074686520476C6F62D0
:10383000616C204D61737465723A200A00000000CB
:103840000A20546869732070726F636573736F72B6
:10385000206973206120536C6176653A200A00006C
:1038600055417274310000005541727432000000FD
:103870005461736B202D20310D0A00005461736B6D
:10388000202D20320D0A0000000000000000000082
:10389000FC8F0100AAAAAAAAF8BF00440040004475
:1038A000303900800000000000000000000000002F
:1038B00010070080FC2C0080442D00803007008021
:1038C000500700807007008090070080B0070080DC
:1038D000D0070080F00700801008008030080080CA
:1038E000500800807008008090080080B0080080B8
:1038F000D0080080F00800801009008030090080A6
:10390000500900807009008090090080B009008093
:10391000D0090080F0090080100A0080300A008081
:10392000500A0080700A0080900A0080B00A00806F
:103930000000000000000000000000000000000087
:103940000000000000000000000000000000000077
:103950000000000000000000000000000000000067
:103960000000000000000000000000000000000057
:103970000000000000000000000000000000000047
:103980000000000000000000000000000000000037
:040000058000000077
:00000001FF
