:0200000480007A
:100000006F00C0006F0000006F00800297020000C8
:1000100093824202739052307350003073504030DC
:1000200093810100171104001301C1CE6F00401825
:10003000130101F823201100232221002324310081
:100040002326410023285100232A6100232C71001C
:10005000232E8100232091022322A1022324B10216
:100060002326C1022328D102232AE102232CF102F4
:10007000232E0103232011052322210523243105EA
:100080002326410523285105232A6105232C7105C8
:10009000232E8105232091072322A1072324B107C2
:1000A0002326C1072328D107232AE107232CF107A0
:1000B000F3221034232E510673252034F3251034F7
:1000C00013060100EF00C06C73101534B722000056
:1000D0009382028073A0023083200100032141003B
:1000E000832181000322C1008322010103234101F6
:1000F000832381010324C1018324010203254102DA
:10010000832581020326C1028326010303274103BD
:10011000832781030328C1038328010403294104A1
:1001200083298104032AC104832A0105032B410585
:10013000832B8105032CC105832C0106032D410669
:10014000832D8106032EC106832E0107032F41074D
:10015000832F810713010108730020300000000085
:10016000130101FD2326810213040103232EA4FCA5
:10017000232CB4FC8327C4FD2326F4FE6F008001EA
:100180008327C4FE23A007008327C4FE938747006C
:100190002326F4FE0327C4FE832784FDE3F2E7FE53
:1001A000130000000324C102130101036780000053
:1001B000130101FE232E1100232C810013040102E0
:1001C000B7670080938707142326F4FE8327C4FEB5
:1001D0002320F4FE232204FE232404FE93850197AA
:1001E00013850190EFF0DFF7B7170280938507D1F1
:1001F00013850197EFF0DFF6930704FE9385070060
:1002000013051000EF50D042130000008320C101FD
:10021000032481011301010267800000130101FF23
:100220002326810013040101130000000324C100F0
:100230001301010167800000130101FD23268102E3
:1002400013040103232EA4FCF32740F12326F4FE1C
:100250008327C4FE2324F4FE370700408327C4FD10
:1002600093D75700832684FE93965600B386F600F4
:10027000B717000093870780B387F600939727008E
:10028000B307F70083A707002322F4FE8327C4FDEA
:1002900093F7F70113071000B317F70093C7F7FFA1
:1002A000032744FEB377F7002322F4FE370700400C
:1002B0008327C4FD93D75700832684FE9396560068
:1002C000B386F600B717000093870780B387F60060
:1002D00093972700B307F700032744FE23A0E70006
:1002E000130000000324C102130101036780000012
:1002F000130101FE232E810013040102F32740F1B4
:100300002326F4FE8327C4FE2324F4FE370700408F
:10031000832784FE938707209397C700B307F700CE
:1003200083A74700138507000324C10113010102BD
:1003300067800000130101FD2326810213040103DD
:10034000232EA4FCF32740F12326F4FE8327C4FECA
:100350002324F4FE37070040832784FE9387072079
:100360009397C700B307F7000327C4FD23A2E70054
:10037000130000000324C102130101036780000081
:10038000130101FE232E810013040102F3670430E0
:100390002326F4FE130000000324C101130101020F
:1003A00067800000130101FE232E1100232C810021
:1003B0001304010293070008F3B747302326F4FE25
:1003C000EF10804C37070044B7C70000B307F700B1
:1003D00003A8C7FF83A787FF83A5019003A64190C9
:1003E00037050044732740F12324E4FE832884FE6C
:1003F000B386B700138306003333F3003307C80016
:10040000B307E3001387070093870600130807006C
:1004100037170000130707803387E80013173700EA
:100420003307E5002320F700232207019307000884
:10043000F3A747302322F4FE130000008320C101FC
:10044000032481011301010267800000130101FEF2
:10045000232E1100232C810013040102EFF05FE929
:100460002326A4FEA30504FEB76700800327C4FE6D
:100470001317270093870774B307F70083A70700B4
:10048000E780070093070500A305F4FE0325C4FEDB
:10049000EFF05FEA0347B4FE930710006316F7001E
:1004A0000325C4FEEFF05FD9130000008320C101D3
:1004B000032481011301010267800000130101FF81
:1004C000232611002324810013040101EF10C04CE6
:1004D000B707004423A00700130000008320C100D9
:1004E000032481001301010167800000130101FD55
:1004F0002326110223248102232221031304010352
:1005000013090000130901009307090093874707A7
:100510002326F4FE8327C4FE83A707002324F4FECA
:1005200093070900938787072326F4FE8327C4FED9
:1005300083A707002322F4FE930709009387C707C8
:100540002326F4FE8327C4FE83A707002320F4FE9E
:1005500093070900938707082326F4FE8327C4FE28
:1005600083A70700232EF4FC93070900938747080D
:100570002326F4FE8327C4FE83A70700232CF4FC64
:1005800093070900938787082326F4FE8327C4FE78
:1005900083A70700232CF4FC93070900938707091E
:1005A0002326F4FE8327C4FE83A70700232AF4FC36
:1005B000832744FD938767FF130780036368F7125F
:1005C00013972700B76700809387871CB307F7004E
:1005D00083A7070067800700B7670080138587142B
:1005E000EF20C07B832784FE93850700B7670080D8
:1005F00013850717EF205005832744FE93850700D6
:10060000B767008013858717EF201004832704FE47
:1006100093850700B767008013850718EF20D00285
:100620008327C4FD93850700B7670080138587186B
:10063000EF209001832784FD93850700B767008032
:1006400013850719EF205000832744FD9385070089
:10065000B767008013858719EF20007F6F00801136
:10066000832784FE13850700EF204073832784FED1
:1006700093850700B71702801385C7CFEF0090322C
:100680006F00400F832784FE13850700EF2000785A
:10069000032784FE1306A000B7070280938587AA6C
:1006A00013050700EF205072B7070280938587AAD1
:1006B000B71702801385C7CFEF00D02E6F00800BD5
:1006C000832544FE032584FEEF30C0486F00800A76
:1006D000832544FE032584FEEF3040736F008009BC
:1006E000032584FEEF50001F6F00C008B76700802D
:1006F0001385071AEF20806A832784FE93850700FD
:10070000B767008013850717EF200074832744FE26
:1007100093850700B767008013858717EF20C072A5
:10072000832704FE93850700B767008013850718A9
:10073000EF2080718327C4FD93850700B767008091
:1007400013858718EF204070832784FD9385070069
:10075000B767008013850719EF20006F832744FDDA
:1007600093850700B767008013858719EF20C06D58
:100770001300000093077005138507008320C10252
:100780000324810203294102130101036780000051
:10079000130101FE232E1100232C810013040102FA
:1007A0002326A4FE2324B4FE0327C4FE9307B0002F
:1007B0006304F7020327C4FE9307A000630EF7004B
:1007C0000327C4FE930790006308F7000327C4FEC5
:1007D00093078000631CF700EFF05FD1832784FE4E
:1007E000938747002324F4FE6F00000A8327C4FE8A
:1007F00063D207020327C4FEB707008093C7F7FF41
:100800003377F7009307B0006316F700EFF01FC4CB
:100810006F0080078327C4FE63D207020327C4FE4C
:10082000B707008093C7F7FF3377F700930770008F
:100830006316F700EFF01FB76F0000058327C4FEB3
:1008400063D207020327C4FEB707008093C7F7FFF0
:100850003377F700930730006316F700EFF01FC6F9
:100860006F00800213065000B76700809385071C55
:1008700013051000EF50D0058327C4FE938717009F
:1008800013850700EF00404C832784FE1385070083
:100890008320C1010324810113010102678000004C
:1008A000130101FF232681001304010193070000B7
:1008B000138507000324C1001301010167800000B4
:1008C000130101FF23268100130401019307000097
:1008D000138507000324C100130101016780000094
:1008E000130101FF23268100130401019307000077
:1008F000138507000324C100130101016780000074
:10090000130101FF23268100130401019307000056
:10091000138507000324C100130101016780000053
:10092000130101FF23268100130401019307000036
:10093000138507000324C100130101016780000033
:10094000130101FF23268100130401019307000016
:10095000138507000324C100130101016780000013
:10096000130101FF232681001304010193070000F6
:10097000138507000324C1001301010167800000F3
:10098000130101FF232681001304010193070000D6
:10099000138507000324C1001301010167800000D3
:1009A000130101FF232681001304010193070000B6
:1009B000138507000324C1001301010167800000B3
:1009C000130101FF23268100130401019307000096
:1009D000138507000324C100130101016780000093
:1009E000130101FF23268100130401019307000076
:1009F000138507000324C100130101016780000073
:100A0000130101FF23268100130401019307000055
:100A1000138507000324C100130101016780000052
:100A2000130101FF23268100130401019307000035
:100A3000138507000324C100130101016780000032
:100A4000130101FF23268100130401019307000015
:100A5000138507000324C100130101016780000012
:100A6000130101FF232681001304010193070000F5
:100A7000138507000324C1001301010167800000F2
:100A8000130101FF232681001304010193070000D5
:100A9000138507000324C1001301010167800000D2
:100AA000130101FF232681001304010193070000B5
:100AB000138507000324C1001301010167800000B2
:100AC000130101FF23268100130401019307000095
:100AD000138507000324C100130101016780000092
:100AE000130101FF23268100130401019307000075
:100AF000138507000324C100130101016780000072
:100B0000130101FF23268100130401019307000054
:100B1000138507000324C100130101016780000051
:100B2000130101FF23268100130401019307000034
:100B3000138507000324C100130101016780000031
:100B4000130101FF23268100130401019307000014
:100B5000138507000324C100130101016780000011
:100B6000130101FF232681001304010193070000F4
:100B7000138507000324C1001301010167800000F1
:100B8000130101FF232681001304010193070000D4
:100B9000138507000324C1001301010167800000D1
:100BA000130101FF232681001304010193070000B4
:100BB000138507000324C1001301010167800000B1
:100BC000130101FF23268100130401019307000094
:100BD000138507000324C100130101016780000091
:100BE000130101FF23268100130401019307000074
:100BF000138507000324C100130101016780000071
:100C0000130101FF23268100130401019307000053
:100C1000138507000324C100130101016780000050
:100C2000130101FF23268100130401019307000033
:100C3000138507000324C100130101016780000030
:100C4000130101FF23268100130401019307000013
:100C5000138507000324C100130101016780000010
:100C6000130101FD23261102232481021304010331
:100C7000232EA4FC232CB4FC13062000B7670080AD
:100C80009385C72A0325C4FDEF5080449307800055
:100C9000A307F4FE6F0080098347F4FE9387F7FFF4
:100CA0002307F4FE8347E4FE939727001307F00021
:100CB000B317F70013870700832784FD3377F70006
:100CC0008347E4FE93972700B357F700A306F4FE8B
:100CD0000347D4FE9307900063EEE7008347D4FEFA
:100CE0009387070393F7F70F9397870193D787416C
:100CF0006F0080018347D4FE9387770393F7F70F44
:100D00009397870193D787412306F4FE9307C4FE88
:100D100013061000938507000325C4FDEF50403BE8
:100D20008347F4FE9387F7FFA307F4FE8347F4FE9F
:100D3000E39407F6130000008320C102032481021C
:100D40001301010367800000130101FD2326110236
:100D50002324810213040103232EA4FCB76700801F
:100D60009387072B2326F4FE0325C4FEEF1080098A
:100D700093070500138607008325C4FE1305200092
:100D8000EF5000358327C4FD93850700130520002D
:100D9000EFF01FED6F000000130101FE232E810014
:100DA000130401022326A4FE0327C4FE93071000A8
:100DB0006308F7000327C4FE930720006316F700BB
:100DC000930710006F004001B707028013079000DF
:100DD00023A8E73C93070000138507000324C10103
:100DE0001301010267800000130101FE232E810020
:100DF000130401022326A4FEB70702800327C4FEC2
:100E000023A8E73C9307F0FF138507000324C101E3
:100E10001301010267800000130101FD2326110266
:100E20002324810213040103232EA4FC232CB4FCED
:100E3000232AC4FC832784FD2324F4FE0325C4FD58
:100E4000EFF09FF593070500638C070883A70191D6
:100E500063900702930610001306C002B7150070D6
:100E600013858190EF0040171307100023A8E1902D
:100E7000232604FE6F008005032784FE8327C4FE1B
:100E8000B307F700130610009385070013858190C0
:100E9000EF000026032784FE8327C4FEB307F70074
:100EA00003C707009307A000631CF7001306100098
:100EB000B76700809385072D13858190EF0040234D
:100EC0008327C4FE938717002326F4FE0327C4FE5E
:100ED000832744FDE362F7FA832744FD6F00000196
:100EE00013059000EFF05FF09307050013850700EE
:100EF0008320C102032481021301010367800000E3
:100F00002320B500678000000325050067800000EE
:100F1000138E0600331EBE00337ECE000323050071
:100F20009303060093C3F3FF337373003363C3016A
:100F30002320650067800000032505003375C50088
:100F40003355B500678000002310B50067800000AE
:100F50000315050067800000138E0600331EBE00D7
:100F6000337ECE00031305009303060093C3F3FF03
:100F7000337373003363C30123106500678000007F
:100F8000031505003375C5003355B50067800000B3
:100F90002300B5006780000003050500678000009E
:100FA000138E0600331EBE00337ECE000303050001
:100FB0009303060093C3F3FF337373003363C301DA
:100FC0002300650067800000030505003375C50038
:100FD0003355B50067800000130101FD232611027F
:100FE0002324810213040103232EA4FC232CB4FC2C
:100FF0009307060013870600231BF4FC93070700E2
:10100000A30AF4FC8327C4FD638A070C034754FD3D
:101010009307700063E4E70C035764FDB7270000F3
:10102000637EF70A832784FD13878700835764FD57
:1010300093F7F70F9385070013050700EFF05FF5AF
:10104000832784FD9386C700034754FD835764FDBF
:1010500093D7574093F7877FB367F70093850700CF
:1010600013850600EFF0DFF28327C4FD032784FD1C
:1010700023A0E7008327C4FD83A707009387070108
:1010800013850700EFF05FF19307050093F7270042
:10109000A307F4FE6F0080038327C4FD83A7070026
:1010A0009387470013850700EFF01FEF8327C4FDE8
:1010B00083A707009387070113850700EFF0DFED93
:1010C0009307050093F72700A307F4FE8347F4FE78
:1010D000E39407FC8327C4FD23820700130000006C
:1010E0008320C102032481021301010367800000F1
:1010F000130101FD2326110223248102130401039D
:10110000232EA4FC232CB4FC232AC4FC8327C4FD77
:1011100063800708832784FD638C0706832744FDCB
:1011200063880706232604FE6F00C0058327C4FDDD
:1011300083A707009387070113850700EFF0DFE51A
:101140009307050093F71700A305F4FE8347B4FE49
:10115000E38E07FC8327C4FD83A60700032784FDD5
:101160008327C4FEB307F70083C7070093850700F2
:1011700013850600EFF0DFE18327C4FE9387170095
:101180002326F4FE0327C4FE832744FDE360F7FA19
:10119000130000008320C102032481021301010314
:1011A00067800000130101FD232611022324810220
:1011B00013040103232EA4FC232CB4FC8327C4FDB9
:1011C00063800708832784FD638C0706232604FEBB
:1011D0006F00C0058327C4FD83A70700938707011D
:1011E00013850700EFF05FDB9307050093F7170007
:1011F000A305F4FE8347B4FEE38E07FC8327C4FDFA
:1012000083A60700032784FD8327C4FEB307F700E6
:1012100083C707009385070013850600EFF05FD7AB
:101220008327C4FE938717002326F4FE032784FD3B
:101230008327C4FEB307F70083C70700E39C07F8C2
:10124000130000008320C102032481021301010363
:1012500067800000130101FC232E1102232C810260
:10126000130401042326A4FC232204FEEF00507F74
:1012700083A7419263980700EF00402813071000EE
:1012800023A2E1928327C4FC638A070293078000AC
:10129000138707008327C4FCB387E7002326F4FCE9
:1012A0008327C4FC93F73700638A07008327C4FCB5
:1012B00093F7C7FF938747002326F4FC8327C4FCDA
:1012C000638407140327C4FCB79701009387B7FF13
:1012D00063ECE712938741912324F4FE83A74191A5
:1012E0002326F4FE6F0080018327C4FE2324F4FE2E
:1012F0008327C4FE83A707002326F4FE8327C4FEAA
:1013000083A747000327C4FC63F8E7008327C4FED4
:1013100083A70700E39A07FC0327C4FE9387C191C4
:101320006304F70E832784FE83A70700130780005A
:10133000B387E7002322F4FE8327C4FE03A7070038
:10134000832784FE23A0E7008327C4FE03A747006A
:101350008327C4FCB307F740130780001317170057
:101360006376F7080327C4FE8327C4FCB307F7009E
:10137000232EF4FC8327C4FE03A747008327C4FC65
:101380003307F7408327C4FD23A2E7008327C4FE69
:101390000327C4FC23A2E7008327C4FD83A74700DB
:1013A000232CF4FC938741912320F4FE6F0000016D
:1013B000832704FE83A707002320F4FE832704FE6F
:1013C00083A7070083A74700032784FDE3E2E7FE26
:1013D000832704FE03A707008327C4FD23A0E7009B
:1013E000832704FE0327C4FD23A0E700B76700801E
:1013F00003A707728327C4FE83A747003307F7407C
:10140000B767008023A0E772EF001068832744FECF
:1014100063940700EF409036832744FE138507004E
:101420008320C103032481031301010467800000AA
:10143000130101FD23261102232481021304010359
:10144000232EA4FC8327C4FD2324F4FE8327C4FD9C
:10145000638C070893078000B307F040032784FEDE
:10146000B307F7002324F4FE832784FE2322F4FE2F
:10147000EF00105F832744FE83A747002320F4FE7C
:10148000938741912326F4FE6F0000018327C4FE59
:1014900083A707002326F4FE8327C4FE83A7070043
:1014A00083A74700032704FEE3E2E7FE8327C4FE89
:1014B00003A70700832744FE23A0E7008327C4FE79
:1014C000032744FE23A0E700832744FE03A7470029
:1014D000B767008083A707723307F700B7670080FC
:1014E00023A0E772EF00505A130000008320C102CE
:1014F000032481021301010367800000130101FE30
:10150000232E810013040102B77700809387478957
:1015100093F7C7FF2326F4FE0327C4FE23AAE19016
:101520009387419123A207009387C19137970100C8
:101530001307C7FF23A2E70023AE01908327C4FE51
:101540002324F4FE832784FE379701001307C7FF87
:1015500023A2E700832784FE1387C19123A0E7001D
:10156000130000000324C101130101026780000081
:10157000130101FE232E810013040102F32740F121
:101580002326F4FE8327C4FE2324F4FEF3674430AD
:101590002322F4FE37070044832784FE9397270015
:1015A000B307F7001307100023A0E70013000000A3
:1015B0000324C1011301010267800000130101FF30
:1015C000232681001304010173700430B767008083
:1015D00083A7477213871700B767008023A2E772BB
:1015E000130000000324C100130101016780000003
:1015F000130101FF2326810013040101B767008056
:1016000083A747721387F7FFB767008023A2E772AB
:10161000B767008083A74772639407007360043044
:10162000130000000324C1001301010167800000C2
:10163000130101FE232E810013040102376600808E
:1016400003268672032606002324C4FE232604FEF6
:10165000376600800326867203264600930606003E
:10166000130700001398060093070000032784FE69
:101670003367F7002324E4FE0327C4FEB3670701A2
:101680002326F4FE832684FE0327C4FEB74501000B
:101690009385854313060000B387B60013850700C2
:1016A0003335D5003308C700330705011308070099
:1016B0002324F4FE232604FFB767008083A7C772A4
:1016C000032784FE23A0E7008327C4FE13D307006B
:1016D00093030000B767008083A7C7721307030056
:1016E00023A2E7009307000873A04730130000000F
:1016F0000324C1011301010267800000130101FEF0
:10170000232E8100130401023766008003268672AF
:10171000032606002324C4FE232604FE3766008029
:101720000326867203264600930606001307000070
:101730001398060093070000032784FE3367F70021
:101740002324E4FE0327C4FEB36707012326F4FE27
:10175000832684FE0327C4FEB74501009385854395
:1017600013060000B387B600138507003335D50094
:101770003308C70033070501130807002324F4FECC
:10178000232604FFB767008083A7C772032784FE60
:1017900023A0E7008327C4FE13D3070093030000B0
:1017A000B767008083A7C7721307030023A2E7006F
:1017B0009307000873A04730130000000324C10101
:1017C0001301010267800000130101FF232681003D
:1017D00013040101B767008003A747729307F0FF66
:1017E0006306F700737004306F00000073700430FC
:1017F0006F000000130101FE232E8100130401027B
:101800002326A4FE2324B4FE2322C4FE8327C4FE81
:101810009387C7FF2326F4FE032784FE8327C4FE95
:1018200023A0E7008327C4FE938787FA2326F4FECC
:10183000032744FE8327C4FE23A0E7008327C4FEBA
:10184000938787FE2326F4FE938701001387070002
:101850008327C4FE23A0E7008327C4FE938747FFA6
:101860002326F4FEB71700801387877C8327C4FEE6
:1018700023A0E7008327C4FE138507000324C101CA
:101880001301010267800000130101FF23261100EC
:10189000232481001304010183A2C19223A0C2006A
:1018A000EFF01FD9EF00D0379307050063840700DE
:1018B000EF00D05503A1C192032101008322C1078B
:1018C00073901234832001000322C100832201019E
:1018D00003234101832381010324C10183240102E5
:1018E00003254102832581020326C10283260103C9
:1018F00003274103832781030328C10383280104AD
:101900000329410483298104032AC104832A010590
:10191000032B4105832B8105032CC105832C010674
:10192000032D4106832D8106032EC106832E010758
:10193000032F4107832F8107130101087300203013
:10194000130000008320C100032481001301010162
:1019500067800000130101FF23261100232481006A
:1019600013040101EFF09FD9B767008023A207722B
:101970001307100023A4E192EFE09FA0EFF05FBFF8
:1019800093070000138507008320C1000324810012
:101990001301010167800000130101FF23261100DC
:1019A000232481001304010103A7819293071000EF
:1019B0006318F7001307200023A4E1926F000001D1
:1019C00083A2C19223A0C200EF005044B707004495
:1019D00023A0070003A1C192032101008322C107B4
:1019E00073901234832001000322C100832201017D
:1019F00003234101832381010324C10183240102C4
:101A000003254102832581020326C10283260103A7
:101A100003274103832781030328C103832801048B
:101A20000329410483298104032AC104832A01056F
:101A3000032B4105832B8105032CC105832C010653
:101A4000032D4106832D8106032EC106832E010737
:101A5000032F4107832F81071301010873002030F2
:101A6000130000008320C100032481001301010141
:101A700067800000130101FF232611002324810049
:101A800013040101EFF0DFAE130000008320C1005A
:101A9000032481001301010167800000130101FE8E
:101AA000232E8100130401022326A4FE8327C4FEF3
:101AB000138787008327C4FE23A2E7008327C4FE81
:101AC0001307F0FF23A4E7008327C4FE13878700D2
:101AD0008327C4FE23A6E7008327C4FE138787005D
:101AE0008327C4FE23A8E7008327C4FE23A00700A2
:101AF000130000000324C1011301010267800000EC
:101B0000130101FE232E8100130401022326A4FEEB
:101B10008327C4FE23A80700130000000324C1018B
:101B20001301010267800000130101FD23268102D9
:101B300013040103232EA4FC232CB4FC8327C4FD2F
:101B400083A747002326F4FE832784FD0327C4FED2
:101B500023A2E7008327C4FE03A78700832784FD11
:101B600023A4E7008327C4FE83A78700032784FDFF
:101B700023A2E7008327C4FE032784FD23A4E700F4
:101B8000832784FD0327C4FD23A8E7008327C4FD22
:101B900083A70700138717008327C4FD23A0E7004E
:101BA000130000000324C102130101036780000039
:101BB000130101FD2326810213040103232EA4FC3B
:101BC000232CB4FC832784FD83A707002324F4FE81
:101BD000032784FE9307F0FF631AF7008327C4FDF1
:101BE00083A707012326F4FE6F0040038327C4FD6B
:101BF000938787002326F4FE6F0000018327C4FE2D
:101C000083A747002326F4FE8327C4FE83A747004B
:101C100083A70700032784FEE372F7FE8327C4FE31
:101C200003A74700832784FD23A2E700832784FDC1
:101C300083A74700032784FD23A4E700832784FDAF
:101C40000327C4FE23A4E7008327C4FE032784FDE3
:101C500023A2E700832784FD0327C4FD23A8E70010
:101C60008327C4FD83A70700138717008327C4FDBC
:101C700023A0E700130000000324C10213010103A5
:101C800067800000130101FD232681021304010374
:101C9000232EA4FC8327C4FD83A707012326F4FE7B
:101CA0008327C4FD83A747000327C4FD03278700BC
:101CB00023A4E7008327C4FD83A787000327C4FD6F
:101CC0000327470023A2E7008327C4FE83A747001A
:101CD0000327C4FD631AF7008327C4FD03A7870009
:101CE0008327C4FE23A2E7008327C4FD23A807009F
:101CF0008327C4FE83A707001387F7FF8327C4FE4B
:101D000023A0E7008327C4FE83A7070013850700ED
:101D10000324C1021301010367800000130101FDC8
:101D20002326810213040103232EA4FC232CB4FCDC
:101D3000232AC4FC0327C4FD832744FDB367F700AF
:101D400093F7370063980706832784FD93F7F70F0F
:101D50002322F4FE832744FE93978700032744FE43
:101D6000B367F7002322F4FE832744FE939707010D
:101D7000032744FEB367F7002322F4FE8327C4FD44
:101D80002326F4FE6F0080018327C4FE13874700DB
:101D90002326E4FE032744FE23A0E7000327C4FD17
:101DA000832744FDB307F7000327C4FEE36EF7FC67
:101DB0006F0000048327C4FD2324F4FE6F0000029B
:101DC000832784FE138717002324E4FE032784FD62
:101DD00013178701135787412380E7000327C4FDAA
:101DE000832744FDB307F700032784FEE36AF7FC6B
:101DF0008327C4FD138507000324C10213010103D7
:101E000067800000130101FD2326810213040103F2
:101E1000232EA4FC8327C4FD2326F4FE6F000001BB
:101E20008327C4FE938717002326F4FE8327C4FE6E
:101E300083870700E39607FE0327C4FE8327C4FDBC
:101E4000B307F740138507000324C1021301010300
:101E500067800000130101FC232E1102232C810254
:101E600013040104232EA4FC232CB4FC2328D4FC4B
:101E70002326E4FC2324F4FC232204FD232014FD68
:101E800093070600231BF4FC8327C4FD6396070019
:101E9000737004306F0000000327C4FC93074000F8
:101EA00063F6E700737004306F000000835764FD31
:101EB000832544FC13850700EF0050392324A4FE3A
:101EC000832784FE63820716832784FE03A7070304
:101ED000835664FDB70700409387F7FFB387F6008A
:101EE00093972700B307F7002322F4FE832744FECD
:101EF00093F7C7FF2322F4FE832744FE93F73700AE
:101F000063860700737004306F000000835764FD20
:101F100013870700832604FC0326C4FC832584FD65
:101F2000032584FEEF009000032604FD8325C4FDF5
:101F3000032544FEEFF01F8C13070500832784FE62
:101F400023A0E700832784FC63880700832784FCA1
:101F5000032784FE23A0E700EFF04FE683A7C19399
:101F60001387170023AEE19283A7C1926390070203
:101F7000032784FE23A6E19203A7C19393071000D1
:101F80006316F702EF00100E6F00400283A78194E2
:101F9000639E070083A7C19283A7C7020327C4FCDF
:101FA0006366F700032784FE23A6E19283A7819549
:101FB0001387170023ACE19403A78195832784FE40
:101FC00023A4E704832784FE03A7C70283A74194C1
:101FD00063F8E700832784FE03A7C70223A2E194E6
:101FE000832784FE03A7C702930707009397270060
:101FF000B387E70093972700370702801307078905
:102000003387E700832784FE938747009385070083
:1020100013050700EFF05FB1930710002326F4FECD
:10202000EFF00FDD6F00C0009307F0FF2326F4FEF2
:102030000327C4FE930710006310F70283A781945F
:10204000638C070083A7C19283A7C7020327C4FC40
:1020500063F4E700EFF01FA28327C4FE1385070097
:102060008320C1030324810313010104678000005E
:10207000130101FD2326110223248102130401030D
:10208000232EA4FCEFF08FD38327C4FD63960700B3
:1020900083A7C1926F0080008327C4FD2326F4FE2E
:1020A0008327C4FE9387470013850700EFF09FBD89
:1020B0008327C4FE83A78702638A07008327C4FEA1
:1020C0009387870113850700EFF0DFBB8327C4FEEA
:1020D0009387470093850700B7070280138507930E
:1020E000EFF09FA483A781931387170023ACE1929D
:1020F00083A781951387170023ACE194EFF04FCFAE
:1021000083A78194638A070283A7C1920327C4FE31
:10211000631EF70083A7019663860700737004307F
:102120006F000000EFF01F956F000001EFF00FC986
:10213000EF00D021EFF0CFCB130000008320C102CD
:10214000032481021301010367800000130101FDD4
:10215000232611022324810213040103232EA4FC4D
:10216000232604FE8327C4FD6384070483A7019606
:1021700063860700737004306F000000EF00400EAC
:1021800083A701940327C4FDB307F7002324F4FEBB
:1021900083A7C1929387470013850700EFF09FAE96
:1021A000032584FEEF001002EF00000E2326A4FE9C
:1021B0008327C4FE63940700EFF0DF8B1300000059
:1021C0008320C10203248102130101036780000000
:1021D000130101FE232E1100232C810013040102A0
:1021E0009308000013080000930700001307000085
:1021F0009306000013060040B76500809385452DC7
:10220000372500801305856FEFF0DFC42326A4FE79
:102210000327C4FE930710006312F70273700430A3
:102220001307F0FF23AEE1941307100023A4E194F9
:1022300023A00194EFF00FF26F0040018327C4FE4A
:1022400063960700737004306F00000013000000F5
:102250008320C10103248101130101026780000072
:10226000130101FF232681001304010183A70196B6
:102270001387170023A0E196130000000324C10078
:102280001301010167800000130101FE232E1100DC
:10229000232C810013040102232604FE83A7019648
:1022A00063960700737004306F000000EFF00FB109
:1022B00083A701961387F7FF23A0E19683A70196D2
:1022C0006396071083A7C193638207106F00800A8B
:1022D000B70702809387C79183A7C70083A7C7006A
:1022E0002324F4FE832784FE938787011385070048
:1022F000EFF05F99832784FE9387470013850700DB
:10230000EFF05F98832784FE03A7C70283A7419459
:1023100063F8E700832784FE03A7C70223A2E194A2
:10232000832784FE03A7C70293070700939727001C
:10233000B387E700939727003707028013070789C1
:102340003387E700832784FE938747009385070040
:1023500013050700EFF04FFD832784FE03A7C70294
:1023600083A7C19283A7C7026366F7001307100013
:1023700023A8E194B707028083A7C791E39A07F4E3
:1023800083A7C194638807026F004002EF004009F1
:1023900093070500638607001307100023A8E19444
:1023A00083A7C1941387F7FF23A6E19483A7C19461
:1023B000E39E07FC03A70195930710006318F7003D
:1023C000930710002326F4FEEFF0CFEAEFF04FA2C0
:1023D0008327C4FE138507008320C10103248101E4
:1023E0001301010267800000130101FE232E11007A
:1023F000232C810013040102EFF04F9C83A701946A
:102400002326F4FEEFF0CF9E8327C4FE138507003A
:102410008320C101032481011301010267800000B0
:10242000130101FD23261102232481021304010359
:10243000232604FE83A701966390071A83A70194BD
:102440001387170023A0E19483A701942324F4FEAB
:10245000832784FE6390070483A7019383A7070063
:1024600063860700737004306F00000083A7019338
:102470002322F4FE03A7419323A8E192032744FEFD
:1024800023AAE19283A741951387170023AAE19419
:10249000EF00C06B83A7C195032784FE6360F7102C
:1024A00083A7019383A70700639607009307100093
:1024B0006F00800093070000638807001307F0FF98
:1024C00023AEE1946F00800D83A7019383A7C7001B
:1024D00083A7C7002320F4FE832704FE83A74700B9
:1024E000232EF4FC032784FE8327C4FD6378F700C2
:1024F0000327C4FD23AEE1946F00400A832704FE46
:102500009387470013850700EFF0CFF7832704FE7A
:1025100083A78702638A0700832704FE93878701C6
:1025200013850700EFF00FF6832704FE03A7C70209
:1025300083A7419463F8E700832704FE03A7C7023B
:1025400023A2E194832704FE03A7C7029307070091
:1025500093972700B387E7009397270037070280F8
:10256000130707893387E700832704FE9387470013
:102570009385070013050700EFF00FDB832704FEA8
:1025800003A7C70283A7C19283A7C702E36AF7F034
:10259000930710002326F4FE6FF09FF083A7C192EB
:1025A00003A7C702B7060280930707009397270087
:1025B000B387E7009397270013870689B387E7005F
:1025C00003A707009307100063FEE70093071000BE
:1025D0002326F4FE6F00000183A7C1941387170020
:1025E00023A6E19483A70195638607009307100053
:1025F0002326F4FE8327C4FE138507008320C1022F
:10260000032481021301010367800000130101FE0E
:10261000232E81001304010283A70196638807001B
:102620001307100023A8E1946F00000C23A8019465
:102630006F00000283A74194639607007370043013
:102640006F00000083A741941387F7FF23A2E19452
:1026500003A74194B70602809307070093972700CA
:10266000B387E7009397270013870689B387E700AE
:1026700083A70700E38007FC03A7419493070700A3
:1026800093972700B387E7009397270037070280C7
:1026900013070789B387E7002326F4FE8327C4FEC8
:1026A00083A7470003A747008327C4FE23A2E700B0
:1026B0008327C4FE03A747008327C4FE93878700B0
:1026C000631CF7008327C4FE83A7470003A74700C6
:1026D0008327C4FE23A2E7008327C4FE83A7470005
:1026E00003A7C70023A6E192130000000324C10141
:1026F0001301010267800000130101FE232E110067
:10270000232C8100130401022326A4FEEF00802164
:10271000B707028003A707899307100063F4E70057
:10272000EFF04FB5EF30D0066FF05FFE130101FC04
:10273000232E1102232C810213040104232EA4FC56
:10274000232CB4FC232AC4FC2328D4FC93070700C1
:102750002317F4FC232604FE6F004004032784FDA6
:102760008327C4FEB307F700038707008326C4FD51
:102770008327C4FEB387F600238AE702032784FD7C
:102780008327C4FEB307F70083870700638007022F
:102790008327C4FE938717002326F4FE0327C4FE75
:1027A0009307F000E3FCE7FA6F00800013000000DD
:1027B0008327C4FDA3810704032744FD930740003A
:1027C00063F6E70093074000232AF4FC8327C4FD47
:1027D000032744FD23A6E7028327C4FD032744FD06
:1027E00023A8E7048327C4FD23AA07048327C4FD85
:1027F0009387470013850700EFF08FB08327C4FD50
:102800009387870113850700EFF08FAF8327C4FDFF
:102810000327C4FD23A8E70013075000832744FDC6
:102820003307F7408327C4FD23ACE7008327C4FDAB
:102830000327C4FD23A2E7028327C4FD23A20704C4
:102840008327C4FD23AC07048327C4FD23AE0704FC
:10285000130000008320C10303248103130101043A
:1028600067800000130101FE232E1100232C81003C
:1028700013040102232604FE6F0080030327C4FE15
:102880009307070093972700B387E70093972700E4
:102890003707028013070789B387E700138507000E
:1028A000EFF0CF9F8327C4FE938717002326F4FE03
:1028B0000327C4FE93074000E3F2E7FCB70702805A
:1028C0001385478FEFF08F9DB707028013858790A0
:1028D000EFF0CF9CB70702801385C791EFF00F9CF4
:1028E000B707028013850793EFF04F9BB70702806D
:1028F00013854794EFF08F9A370702801307478FAD
:1029000023A8E192370702801307879023AAE19258
:10291000130000008320C10103248101130101027F
:1029200067800000130101FE232E1100232C81007B
:10293000130401026F004007EFF09F92B707028077
:1029400083A7079393B7170093F7F70F2326F4FE97
:10295000EFF09F938327C4FE63980704EFE01FC640
:10296000B70702809387079383A7C70083A7C70091
:102970002324F4FE832784FE9387470013850700F2
:10298000EFF04FB083A7C1931387F7FF23AEE19217
:1029900083A781931387F7FF23ACE192EFE05FC534
:1029A000032584FEEF00801683A78193E39607F842
:1029B000130000008320C1010324810113010102DF
:1029C00067800000130101FE232E1100232C8100DB
:1029D000130401022326A4FE83A7C1920327C4FE89
:1029E00023A2E70083A701940327C4FE6370F702C4
:1029F00003A7419383A7C19293874700938507005C
:102A000013050700EFF0CF9A6F00000303A70193AF
:102A100083A7C1929387470093850700130507009A
:102A2000EFF00F9983A7C1950327C4FE6376F700E3
:102A30000327C4FE23AEE194130000008320C101EC
:102A4000032481011301010267800000130101FDCD
:102A50002326110223248102130401039307050096
:102A6000232CB4FC231FF4FC832784FD639E070002
:102A70008357E4FD9397270013850700EFE08FFD50
:102A8000930705006F008000832784FD2324F4FE54
:102A9000832784FE638A070213050006EFE08FFB9D
:102AA0002326A4FE8327C4FE638A07008327C4FE6F
:102AB000032784FE23A8E7026F004001032584FE5C
:102AC000EFE01F976F008000232604FE8327C4FEDB
:102AD000638207028327C4FE03A707038357E4FD2D
:102AE00093972700138607009305500A13050700E4
:102AF000EFF0CFA28327C4FE138507008320C10215
:102B0000032481021301010367800000130101FE09
:102B1000232E1100232C8100130401022326A4FE7E
:102B20008327C4FE83A7070313850700EFE05F90A8
:102B30000325C4FEEFE0DF8F130000008320C101F6
:102B4000032481011301010267800000130101FECB
:102B5000232E81001304010283A7019383A707009A
:102B600063960700930710006F0080009307000032
:102B7000638807001307F0FF23AEE1946F000002A3
:102B800083A7019383A7C70083A7C7002326F4FE6A
:102B90008327C4FE03A7470023AEE194130000007F
:102BA0000324C1011301010267800000130101FE2B
:102BB000232E81001304010283A7C1922326F4FE71
:102BC0008327C4FE138507000324C10113010102FA
:102BD00067800000130101FD232681021304010315
:102BE000232EA4FCF32740F12326F4FE8327C4FE02
:102BF0002324F4FE370700408327C4FD93D75700F2
:102C0000832684FE93965600B386F600B71700001D
:102C100093870780B387F60093972700B307F700E1
:102C200083A707002322F4FE8327C4FD93F7F7014F
:102C300013071000B317F700032744FEB367F7002C
:102C40002322F4FE370700408327C4FD93D75700A3
:102C5000832684FE93965600B386F600B7170000CD
:102C600093870780B387F60093972700B307F70091
:102C7000032744FE23A0E700130000000324C10241
:102C80001301010367800000130101FE232E810060
:102C9000130401022326A4FE2324B4FE37070040B8
:102CA0008327C4FE93972700B307F700032784FE0A
:102CB00023A0E700130000000324C1011301010257
:102CC00067800000130101FF2326110023248100E7
:102CD00013040101B70700901385C7FFEFE0CFA2EF
:102CE000930705009385070037050050EFE04FA1DB
:102CF00037050050EFE04FA113070500B71702801A
:102D000023A2E7D0B717028083A747D01385070017
:102D1000EF00001E9307050093850700B7070050DA
:102D200013850702EFE0CF9DB717028083A747D036
:102D300013850700EF00801E9307050093850700A9
:102D4000B707005013850702EFE08F9BB7770000AD
:102D500013857777EF00C023B7070280938707A515
:102D600093850700B707005013854700EFE04F99A0
:102D7000EF20C066EF209042B707028023AE07AA7B
:102D8000B707028023A207AA130000008320C10016
:102D9000032481001301010167800000130101FD7C
:102DA000232611022324810213040103232EA4FCF1
:102DB000232604FE8327C4FE0327C4FDB307F700C0
:102DC0008387070093850700B70700501385070224
:102DD000EFE00F938327C4FE938717002326F4FEAA
:102DE0008327C4FE9387F7FF0327C4FDB307F700CB
:102DF00083870700E39007FC130000008320C102D3
:102E0000032481021301010367800000130101FE06
:102E1000232E1100232C8100130401022326A4FE7B
:102E20008327C4FE93850700B70700501385470228
:102E3000EFE00F8D130000008320C1010324810106
:102E40001301010267800000130101FE232E11000F
:102E5000232C8100130401022326A4FE2324B4FEA4
:102E60000325C4FEEFF09FF3032584FEEFF01FFA65
:102E7000B76700801385C72DEFF05FF213000000E5
:102E80008320C10103248101130101026780000036
:102E9000130101FE232E1100232C810013040102D3
:102EA0002326A4FE2324B4FE2322C4FE2320D4FE22
:102EB0000325C4FEEFF09FEE032584FEEFF01FF51F
:102EC000032544FEEFF09FED032504FEEFF01FF411
:102ED000B76700801385C72DEFF05FEC130000008B
:102EE0008320C101032481011301010267800000D6
:102EF000130101FE232E8100130401022326A4FEE8
:102F00008327C4FE93D7870093F7F70F1385070035
:102F10000324C1011301010267800000130101FEB7
:102F2000232E8100130401022326A4FE8327C4FE5E
:102F300093F7F70F138507000324C1011301010262
:102F400067800000130101FE232E1100232C810055
:102F5000130401022326A4FE8325C4FEB7070050F4
:102F600013854700EFD0DFF9B727000093852722AC
:102F7000B707005013858700EFD09FF813000000BB
:102F80008320C10103248101130101026780000035
:102F9000130101FE232E1100232C810013040102D2
:102FA0002326A4FE0327C4FEB72700009387272209
:102FB000630AF7000327C4FEB7770000938777778B
:102FC000631CF70013051000EFF0DFC0930510003D
:102FD00013051000EFF05FCB0327C4FEB7370000E6
:102FE00093873733630AF7000327C4FEB7770000DF
:102FF00093877777631EF70013052000EFF09FBDDE
:103000009305100013052000EFF01FC81300000007
:10301000130000008320C101032481011301010278
:1030200067800000130101FF232611002324810083
:1030300013040101B76700801385072EEFF01FD638
:10304000B707028083A7879513850700EF20503EBE
:10305000B757000093855755B70700501385870071
:10306000EFD01FEAEF0090059307000013850700DB
:103070008320C10003248100130101016780000047
:10308000130101FE232E1100232C810013040102E1
:10309000B7070280938707A583A78700130730032C
:1030A000638AE71413073003636AF7021307000209
:1030B0006384E732130700026368F7001307000117
:1030C000638CE7266F00C03E130710026384E73865
:1030D000130700036382E7086F00803D1307002099
:1030E0006386E702130700206368F70013075003A5
:1030F000638CE7126F00C03B130700406380E71644
:1031000013071040638CE71C6F00803AB76700809C
:103110001385472FEFF09FC8B7070280938707A555
:1031200003A7C700B7070280938707A583A50701F8
:10313000B7070280938707A503A64701B707028058
:10314000938707A583A787019386070013050700C8
:10315000EF10801D6F00C037B76700801385C73040
:10316000EFF0DFC3B7070280938707A503A5C70069
:10317000B7070280938707A583A50701B7070280D9
:10318000938707A503A64701B7070280938707A582
:1031900083A68701B7070280938707A583A7C70186
:1031A00013870700EF20403E2326A4FEB7170280B6
:1031B0000327C4FE938687B79307070093974700BA
:1031C000B387E74093973700B387F60083A7C7011B
:1031D00093850700B707005013854700EFD05FD2F3
:1031E000B7070280938707A51307300323A4E700DE
:1031F0006F00002EB767008013854732EFF01FBACB
:10320000B7070280938707A503A7C700B707028007
:10321000938707A583A7C7019385070013050700B8
:10322000EF00C07C6F00C02AB767008013850734A9
:10323000EFF0DFB6B7070280938707A503A7C700A3
:10324000B7070280938707A583A7C7019385070067
:1032500013050700EF1090526F008027B7670080BA
:103260001385C735EFF09FB3B7070280938707A593
:1032700003A7C700B7070280938707A583A7C701E5
:103280009385070013050700EF20004C2326A4FEBA
:103290000327C4FE9307070093974700B387E740CF
:1032A0009397370013870704B7170280938787B770
:1032B000B307F7009387C70093850700B70700504F
:1032C00013854700EFD0DFC3B7070280938707A5B8
:1032D0001307104023A4E7006F00801FB76700802A
:1032E00013854737EFF09FABB7070280938707A599
:1032F00003A7C700B7070280938707A583A7C70165
:103300009385070013050700EF2000442326A4FE41
:10331000B7070280938707A583A7C7009385070097
:10332000B76700801385C738EFF01FB20325C4FECE
:10333000EF20804E6F00C019B76700801385C73932
:10334000EFF0DFA5B7070280938707A503A7C700A3
:10335000B7070280938707A583A7C7019385070056
:1033600013050700EF0050562326A4FE0327C4FED2
:103370009307F0FF6314F704B76700801385C73B1A
:10338000EFF0DFA1B7070280938707A503A7C70067
:10339000B7070280938707A583A6C701B7070280F6
:1033A000938707A583A74701138607009385060027
:1033B00013050700EF00505E6F008011B7670080B3
:1033C0001385473FEFF09F9D8325C4FE37052020DE
:1033D000EF00803D6F00C00FB76700801385C740C6
:1033E000EFF0DF9BB7070280938707A503A747018C
:1033F000B7070280938707A583A7C70093850700B7
:1034000013050700EF2040342326A4FEB7070280EF
:10341000938707A51307100223A4E700B7170280BC
:103420000327C4FE938687B7930707009397470047
:10343000B387E74093973700B387F60083A7470128
:1034400093850700B707005013854700EFD05FABA7
:103450006F000008B76700801385C742EFF01F9424
:10346000B7070280938707A503A74701B707028024
:10347000938707A583A7C700938507001305070057
:10348000EF20802C2326A4FEB71602800327C4FE5B
:103490009307070093974700B387E7409397370058
:1034A000138786B7B387E70023A807006F004002A1
:1034B000B7070280938707A583A787009385070036
:1034C000B767008013850745EFF01F9813000000D1
:1034D000B757000093855755B70700501385C700AD
:1034E000EFD01FA293070000138507008320C101BE
:1034F000032481011301010267800000130101FD13
:103500002326810213040103232EA4FC232CB4FCE4
:103510008327C4FD83C70700A307F4FE832784FD28
:10352000038707008327C4FD2380E700832784FDEA
:103530000347F4FE2380E700130000000324C102C8
:103540001301010367800000130101FE232E110007
:10355000232C8100130401022326A4FE2324B4FE9D
:103560002322C4FE6F000004832784FE1387170004
:103570002324E4FE138707008327C4FEB386E700F5
:10358000832744FE1387F7FF2322E4FE13870700F7
:103590008327C4FEB387E7009385070013850600E1
:1035A000EFF0DFF5032784FE832744FEE34EF7FAAE
:1035B0008327C4FE138507008320C10103248101F2
:1035C0001301010267800000130101FD232611028F
:1035D0002324810213040103232EA4FC232CB4FC16
:1035E000232AC4FC032744FD9307100063D8E70097
:1035F000032744FD9307000263D6E700832784FD79
:103600006F0040158327C4FD63DA07008327C4FDDC
:10361000B307F0402326F4FE6F00C0008327C4FDEB
:103620002326F4FE232404FE6F00C0090327C4FEF2
:10363000832744FDB367F7022322F4FE032744FEE9
:103640009307900063DEE702832744FE93F7F70FAA
:103650009387770393F6F70F832784FE138717006A
:103660002324E4FE13870700832784FDB387E70044
:1036700013978601135787412380E7006F0080036B
:10368000832744FE93F7F70F9387070393F6F70F0B
:10369000832784FE138717002324E4FE1387070083
:1036A000832784FDB387E70013978601135787416B
:1036B0002380E7000327C4FE832744FDB347F702B6
:1036C0002326F4FE8327C4FEE39207F6832784FEB5
:1036D00063920702832784FE138717002324E4FEE6
:1036E00013870700832784FDB387E70013070003D0
:1036F0002380E7008327C4FD63D80702032744FD26
:103700009307A0006312F702832784FE1387170034
:103710002324E4FE13870700832784FDB387E70093
:103720001307D0022380E700832784FE032784FD4C
:10373000B307F70023800700832784FE9387F7FFF2
:103740001386070093050000032584FDEFF0DFDFFB
:1037500093070500138507008320C102032481021B
:103760001301010367800000130101FD232681027C
:1037700013040103232EA4FC232CB4FC232604FEF3
:103780008327C4FD139787008327C4FE3367F700A0
:10379000832784FDB367F700138507000324C10264
:1037A0001301010367800000130101FE232E1100A5
:1037B000232C8100130401022326A4FE2324B4FE3B
:1037C000B707028083A6C7AB0327C4FE832784FE06
:1037D0003367F700B707028093962600938747A8C0
:1037E000B387F60023A0E700B707028003A7C7ABA3
:1037F000930770006318F700B707028023AE07AA8B
:103800006F008001B707028083A7C7AB138717003B
:10381000B707028023AEE7AAEF00400A13000000BA
:103820008320C1010324810113010102678000008C
:10383000130101FE232E810013040102B707028049
:1038400003A7C7ABB707028083A747AA6316F70091
:10385000B70730306F008005B707028003A747AA7B
:10386000B707028013172700938747A8B307F7000D
:1038700083A707002326F4FEB707028003A747AA01
:10388000930770006318F700B707028023A207AA06
:103890006F008001B707028083A747AA138717002C
:1038A000B707028023A2E7AA8327C4FE1385070077
:1038B0000324C1011301010267800000130101FE0E
:1038C000232E1100232C810013040102B76700800E
:1038D0001385474AEFF08FCCB70700501385870058
:1038E000EFD08FE2130705009307F00F631EF70C6C
:1038F000B76700801385474BEFF04FCAEFF05FF3D7
:103900002326A4FE8327C4FE93850700B7670080A3
:103910001385074CEFF04FD30327C4FEB7073030B1
:10392000630CF70AB70702800327C4FE23ACE794B1
:103930000327C4FEB707FFFF3377F700B707101060
:103940006310F7040327C4FEB70701009387F7FF4E
:103950003377F7009307070093974700B387E74053
:1039600093972700370702801307C795B387E700AF
:103970009387870013850700EFF0CFDC6F00C00549
:103980000327C4FEB707FFFF3377F700B7072020F0
:103990006314F7040327C4FEB70701009387F7FFFA
:1039A0003377F700930740243307F702B707028005
:1039B000938707ACB307F7009387C7001385070009
:1039C000EFF04FD86F004001B76700801385874C38
:1039D000EFF0CFBC13000000130000008320C101F2
:1039E000032481011301010267800000130101FD1E
:1039F000232611022324810213040103232EA4FC95
:103A0000232CB4FCEF20C0182326A4FE0327C4FEF9
:103A1000B707FEFD9387D7DF6316F7001305100085
:103A2000EFE0CFF20327C4FEB707FEFD9387D7DF91
:103A3000E30AF7FCB70702800327C4FE9386C79505
:103A40009307070093974700B387E74093972700B2
:103A5000B387F6003707FFFE1307E7EF23A2E7005F
:103A60009305000013050000EFF01FD013060500BA
:103A7000B70702800327C4FE9386C7959307070004
:103A800093974700B387E74093972700B387F600E3
:103A900023A4C700B70702800327C4FE9386C795F7
:103AA0009307070093974700B387E7409397270052
:103AB000B387F6001307B00023A6E700B70702801C
:103AC0000327C4FE9386C795930707009397470083
:103AD000B387E74093972700B387F6001307500397
:103AE00023A8E700B70702800327C4FE9386C79583
:103AF0009307070093974700B387E7409397270002
:103B0000B387F6000327C4FD23AAE700B7070280A6
:103B10000327C4FE9386C795930707009397470032
:103B2000B387E74093972700B387F600032784FD08
:103B300023A2E7028325C4FE37051010EFF0DFC68D
:103B4000130000008320C10203248102130101033A
:103B500067800000130101FD232611022324810246
:103B600013040103232EA4FC232CB4FCEF10906D4E
:103B70002324A4FE032784FEB707FEFD9387D7DF27
:103B80006316F70013051000EFE04FDC032784FEF7
:103B9000B707FEFD9387D7DFE30AF7FC8327C4FD51
:103BA0002322F4FEEF10D00E2320A4FE832784FEF0
:103BB00093850700B76700801385874DEFF0CFA886
:103BC000B7070280832684FE138707AC930740243F
:103BD000B387F602B307F700032704FE23A2E7002A
:103BE000B7160280032704FE930707009397470048
:103BF000B387E74093971700032784FDB387E70057
:103C00009387470113972700938786B7B307F70079
:103C100003A70700B7070280032684FE938607AC3C
:103C200093074024B307F602B387F60023A6E70004
:103C3000832744FE83A707001387C700B7070280C6
:103C4000032684FE938607AC93074024B307F6024D
:103C5000B387F60023A8E700B7070280832684FE17
:103C6000138707AC93074024B387F602B307F70026
:103C70001307000223AAE700B7170280032704FEF8
:103C8000938687B79307070093974700B387E7406A
:103C900093973700B387F60003A78700B707028022
:103CA000032684FE938607AC93074024B307F602ED
:103CB000B387F60023ACE700B7170280032704FEA2
:103CC000938687B79307070093974700B387E7402A
:103CD00093973700B387F60003A74700B707028022
:103CE000032684FE938607AC93074024B307F602AD
:103CF000B387F60023AEE700B7070280832684FE71
:103D0000138707AC93074024B387F602B307F70085
:103D1000032784FD23A0E702832744FE03A70700AF
:103D2000B7070280032684FE93064024B306D6021A
:103D3000938707ACB387F60023A0E704232604FE8D
:103D40006F00C005032744FE8327C4FE9397270016
:103D5000B307F70083A6470037060280032784FED7
:103D60009307070093973700B387E70093974700BF
:103D7000B387E7000327C4FEB387E70093870701F3
:103D8000130706AC93972700B307F70023A2D700C9
:103D90008327C4FE938717002326F4FE832744FE5F
:103DA00083A707000327C4FEE36EF7F8B716028067
:103DB000032704FE9307070093974700B387E74064
:103DC00093971700032784FDB387E7009387870045
:103DD000138786B793972700B307F70003A7470019
:103DE00093071000631AF700832584FE370520200F
:103DF000EFF09F9B13000000130000008320C1021E
:103E0000032481021301010367800000130101FDF7
:103E1000232611022324810213040103232EA4FC70
:103E2000232CB4FCEF10C0662326A4FEB716028034
:103E30000327C4FE9307070093974700B387E74023
:103E400093973700138786B7B387E70013071000EF
:103E500023A8E700B71702800327C4FE938687B71D
:103E60009307070093974700B387E740939737007E
:103E7000B387F6000327C4FD23AAE700EF105051D3
:103E80002324A4FE032784FEB707FEFD9387D7DF14
:103E90006316F70013051000EFE04FAB032784FE15
:103EA000B707FEFD9387D7DFE30AF7FCB707028069
:103EB000032784FE9386C7959307070093974700CF
:103EC000B387E74093972700B387F6003707FFFED5
:103ED0001307E7EF23A2E700B71602800327C4FE0B
:103EE0009307070093974700B387E740939717001E
:103EF000032784FDB387E7009387470113972700C3
:103F0000938786B7B307F70083A60700B707028039
:103F1000032784FE1386C7959307070093974700EE
:103F2000B387E74093972700B307F60023A4D70091
:103F3000B7070280032784FE9386C795930707007F
:103F400093974700B387E74093972700B387F6001E
:103F50001307B00023A6E700B7070280032784FEFB
:103F60009386C7959307070093974700B387E74069
:103F700093972700B387F6001307000123A8E700F3
:103F8000B71702800327C4FE938687B793070700FD
:103F900093974700B387E74093973700B387F600BE
:103FA00083A64700B7070280032784FE1386C795C0
:103FB0009307070093974700B387E740939727003D
:103FC000B307F60023AAD700B71702800327C4FE61
:103FD000938687B79307070093974700B387E74017
:103FE00093973700B387F60083A68700B707028050
:103FF000032784FE1386C79593070700939747000E
:10400000B387E74093972700B307F60023A2D702B0
:10401000B7070280032784FE9386C795930707009E
:1040200093974700B387E74093972700B387F6003D
:10403000032784FD23AEE700832584FE3705101097
:10404000EFF08FF6B76700801385874FEFE01FD53D
:104050006F00C0020327C4FE93060000B76700800C
:104060001386075193050700B767008013858752B1
:10407000EFE01FE213051000EFE04F8DB71602804E
:104080000327C4FE9307070093974700B387E740D1
:1040900093973700138786B7B387E70003A7070115
:1040A00093071000E308F7FAB767008013854753BA
:1040B000EFE0DFCE130000008320C1020324810261
:1040C0001301010367800000130101FD2326810213
:1040D00013040103232EA4FC232CB4FC9307F0FF4C
:1040E0002324F4FEB70700109387F7FF2322F4FE82
:1040F000232604FE6F004008B70702808326C4FE13
:10410000130740243387E602938707ACB307F70011
:1041100003A7070093071000631AF704B70702808C
:104120008326C4FE138707AC93074024B387F602A7
:10413000B307F70083A78701032784FD6318F702FD
:10414000B70702808326C4FE138707AC9307402479
:10415000B387F602B307F70083A707020327C4FD5E
:104160006316F7008327C4FE2324F4FE8327C4FECE
:10417000938717002326F4FE0327C4FE930730001D
:10418000E3FCE7F6832784FE138507000324C102BE
:104190001301010367800000130101FD23261102B2
:1041A0002324810213040103232EA4FC232CB4FC3A
:1041B000232AC4FC832584FD032544FDEF10C05849
:1041C0002326A4FEB71602800327C4FE9307070028
:1041D00093974700B387E740939717000327C4FDE1
:1041E000B387E70093878700138786B793972700E5
:1041F000B307F7001307100023A2E7001300000025
:104200008320C1020324810213010103678000009F
:10421000130101FE232E1100232C8100130401023F
:10422000EF1010172326A4FE0327C4FEB707FEFDD8
:104230009387D7DF6316F70013051000EFD01FF147
:104240000327C4FEB707FEFD9387D7DFE30AF7FC19
:10425000B70702800327C4FE9386C795930707001C
:1042600093974700B387E74093972700B387F600FB
:104270003707FFFE1307E7EF23A2E70093050000CF
:1042800013050000EFF04FCE13070500B707040039
:10429000B366F700B70702800327C4FE1386C795ED
:1042A0009307070093974700B387E740939727004A
:1042B000B307F60023A4D700B70702800327C4FE84
:1042C0009386C7959307070093974700B387E74006
:1042D00093972700B387F6001307B00023A6E700E3
:1042E000B70702800327C4FE9386C795930707008C
:1042F00093974700B387E74093972700B387F6006B
:104300001307001023A8E7008325C4FE370510100B
:10431000EFF08FC9130000008320C1010324810145
:104320001301010267800000130101FD2326110221
:104330002324810213040103232EA4FC232CB4FCA8
:10434000232AC4FC2328D4FCEF00401C930705005B
:104350002326F4FEB70602800327C4FE9307070056
:1043600093972700B387E700939757001387863FFB
:10437000B387E7001307100023A0E700B707028008
:104380000327C4FE9386873F930707009397270070
:10439000B387E70093975700B387F6000327C4FD60
:1043A00023A2E700B70702800327C4FE9386873F56
:1043B0009307070093972700B387E7009397570069
:1043C000B387F600032784FD23A4E700B707028024
:1043D0000327C4FE9386873F930707009397270020
:1043E000B387E70093975700B387F600032744FD90
:1043F00023A6E700B70602800327C4FE9307070041
:1044000093972700B387E700939757001387863F5A
:10441000B387E700032704FD23A8E700EFD0DFFC04
:1044200013070500832784FDB306F700B707028052
:104430000327C4FE1386873F93070700939727003F
:10444000B387E70093975700B307F60023A6D70872
:10445000B70602800327C4FE93070700939727003F
:10446000B387E700939757001387863FB387E7002A
:1044700023A80708B70702800327C4FE9386873F57
:104480009307070093972700B387E7009397570098
:10449000B387F6001307F0FF23AAE708B7070280E7
:1044A0000327C4FE9386873F93070700939727004F
:1044B000B387E70093975700B387F60023AC07084C
:1044C000B70702800327C4FE9386873F9307070040
:1044D00093972700B387E70093975700B387F600B9
:1044E00023AE07088327C4FD93850700B7670080C4
:1044F00013858754EFE05F95130000008320C1020D
:10450000032481021301010367800000130101FEEF
:10451000232E810013040102232604FE6F000004F1
:10452000B70602800327C4FE93070700939727006E
:10453000B387E700939757001387863FB387E70059
:1045400083A70700639607008327C4FE6F0000025D
:104550008327C4FE938717002326F4FE0327C4FE97
:104560009307B000E3DEE7FA9307F0FF1385070037
:104570000324C1011301010267800000130101FE41
:10458000232E810013040102232604FE6F00400342
:10459000B70602800327C4FE9307070093972700FE
:1045A000B387E700939757001387863FB387E700E9
:1045B00023A007008327C4FE938717002326F4FE59
:1045C0000327C4FE9307B000E3D4E7FC1300000008
:1045D0000324C1011301010267800000130101FEE1
:1045E000232E810013040102232404FE6F00C00E59
:1045F000232204FE6F00C00CB7160280032784FE3E
:104600009307070093971700B387E700032744FE3B
:10461000B387E700139747009387C6C6B307F70031
:104620001307101123A0E700B7160280032784FEAA
:104630009307070093971700B387E700032744FE0B
:10464000B387E7001387C6C693974700B307F70001
:104650001307803E23A2E700232604FE6F00C00458
:10466000B7160280032784FE93070700939717006D
:10467000B387E700032744FEB387E70013972700BB
:104680008327C4FEB307F7001387C6C69397270096
:10469000B307F7001307F0FF23A4E7008327C4FE46
:1046A000938717002326F4FE0327C4FE9307100008
:1046B000E3D8E7FA832744FE938717002322F4FE0A
:1046C000032744FE93072000E3D8E7F2832784FE04
:1046D000938717002324F4FE032784FE930720000A
:1046E000E3D8E7F0130000000324C1011301010225
:1046F00067800000130101FE232E810013040102D4
:10470000232404FEB717028023A407C6232604FE31
:104710006F000007032784FE93073000B347F702BA
:1047200013978700832684FE93073000B3E7F602D1
:10473000B367F70093860700B70702800327C4FE1C
:10474000131727009387473DB307F70023A0D7002F
:10475000032784FE9307600063CAE700832784FE73
:10476000938727002324F4FE6F00C00093071000F6
:104770002324F4FE8327C4FE938717002326F4FE28
:104780000327C4FE93078000E3D6E7F81300000078
:104790000324C1011301010267800000130101FD20
:1047A00023261102232481022322910213040103F0
:1047B000232EA4FC232604FE6F008029B706028066
:1047C0000327C4FE9307070093972700B387E700EA
:1047D000939757001387863FB387E70003A7070027
:1047E000930710006310F726B70702800327C4FE63
:1047F0009386873F9307070093972700B387E700C7
:1048000093975700B387F60083A7C7080327C4FD13
:10481000636AF722B70702800327C4FE9386873FA7
:104820009307070093972700B387E70093975700F4
:10483000B387F60083A6C708B70702800327C4FE24
:104840001386873F9307070093972700B387E700F6
:1048500093975700B307F60083A747096384F61EB2
:10486000B70602800327C4FE93070700939727002B
:10487000B387E700939757001387863FB387E70016
:1048800083A40701EF0000459307050063EC971A26
:10489000232404FE6F00C013EF00C01D9307050022
:1048A0002322F4FE832744FE0327C4FE832684FECE
:1048B000138606009305070013850700EF004030BC
:1048C000930705002320F4FE032704FE9307F0FF5F
:1048D0006314F7006FF05FFC1300000037070280DD
:1048E000832784FE8326C4FE1306873F13870700B1
:1048F000131717003307F7009317270013870700D4
:104900009387060093972700B387D70093975700A4
:10491000B307F700B307F6001307300023AAE70038
:10492000032644FE37070280832784FE8326C4FEC5
:104930009305873F13870700131717003307F70006
:104940009317270013870700938706009397270084
:10495000B387D70093975700B307F700B387F500E5
:1049600023ACC700032604FE37070280832784FE9A
:104970008326C4FE9305873F13870700131717008C
:104980003307F70093172700138707009387060064
:1049900093972700B387D70093975700B307F70083
:1049A000B387F50023AEC7008327C4FE032784FE28
:1049B000832644FE1386060093050700138507002F
:1049C000EF000042832784FE938717002324F4FE20
:1049D000B70602800327C4FE9307070093972700BA
:1049E000B387E700939757001387863FB387E700A5
:1049F00003A70701832784FEE3E0E7EAB707028005
:104A00000327C4FE9386873F9307070093972700E9
:104A1000B387E70093975700B387F60083A6C708CC
:104A2000B70702800327C4FE1386873F930707005A
:104A300093972700B387E70093975700B307F600D3
:104A400023AAD7088327C4FE938717002326F4FEE2
:104A50000327C4FE9307B000E3D2E7D6130000009B
:104A60008320C10203248102832441021301010334
:104A700067800000130101FE232E1100232C81000A
:104A8000232A91001304010293050000130500007E
:104A9000EFE09FCD2324A4FEB717028003A787C6AB
:104AA000B7070280131727009387473DB307F70026
:104AB00083A407009305000013050000EFE0DFCAA0
:104AC00093070500638AF408232604FE6F0000089C
:104AD000032584FEEFE0CFC193040500032584FE87
:104AE000EFE0CFC3930605003717028093870400D9
:104AF00093971700B3879700B387D7009396270043
:104B00008327C4FEB387F6001307C7C69397270011
:104B1000B307F70003A787009307F0FF6312F702BC
:104B2000B717028003A787C6B707028013172700AD
:104B30009387473DB307F70083A707002324F4FEBC
:104B40008327C4FE938717002326F4FE0327C4FEA1
:104B500093071000E3DEE7F6B717028083A787C646
:104B600013871700B717028023A4E7C6B717028080
:104B700003A787C6930790006316F700B717028054
:104B800023A407C69305000013050000EFE0DFBD76
:104B900013070500832784FE6394E7006FF0DFEFBF
:104BA00013000000832784FE138507008320C101C2
:104BB0000324810183244101130101026780000065
:104BC000130101FD232611022324810223229102D5
:104BD0002320210313040103232EA4FC232CB4FC63
:104BE000232AC4FC232604FE6F00000C0325C4FD09
:104BF000EFE00FB0930405000325C4FDEFE00FB212
:104C000093060500371702809387040093971700D7
:104C1000B3879700B387D700939627008327C4FEF6
:104C2000B387F6001307C7C693972700B307F700AB
:104C300003A787009307F0FF6312F706832784FD1D
:104C4000939407010325C4FDEFE08FAA1309050023
:104C50000325C4FDEFE08FAC13060500832744FD58
:104C600033E7F400B7160280930709009397170003
:104C7000B3872701B387C700139627008327C4FE95
:104C8000B307F6009386C6C693972700B387F6004E
:104C900023A4E7008327C4FE6F0000028327C4FE1D
:104CA000938717002326F4FE0327C4FE9307100002
:104CB000E3DEE7F29307F0FF138507008320C102CC
:104CC0000324810283244102032901021301010309
:104CD00067800000130101FE232E1100232C8100A8
:104CE000232A910013040102232004FE232604FE3C
:104CF0006F00800C232404FE6F00800A8327C4FE0B
:104D0000032784FE9305070013850700EFE0DFA566
:104D1000930405009305000013050000EFE0DFA4F5
:104D2000930705006388F406232204FE6F00C00584
:104D3000B71602800327C4FE930707009397170056
:104D4000B387E700032784FEB387E70013972700A4
:104D5000832744FEB307F7001387C6C6939727003F
:104D6000B307F70003A787009307F0FF6318F70066
:104D7000832704FE938717002320F4FE832744FE35
:104D8000938717002322F4FE032744FE93071000A5
:104D9000E3D0E7FA832784FE938717002324F4FEE9
:104DA000032784FE93072000E3DAE7F48327C4FE99
:104DB000938717002326F4FE0327C4FE93072000E1
:104DC000E3DAE7F2832704FE138507008320C1019D
:104DD0000324810183244101130101026780000043
:104DE000130101FD23261102232481021304010370
:104DF000232EA4FC232CB4FC232AC4FCEF0050591E
:104E00002326A4FE0327C4FEB707FEFD9387D7DF42
:104E10006316F70013051000EFD04FB30327C4FE4D
:104E2000B707FEFD9387D7DFE30AF7FCB7070280D9
:104E30000327C4FE9386C7959307070093974700FF
:104E4000B387E74093972700B387F6003707FFFE45
:104E50001307E7EF23A2E700930500001305000006
:104E6000EFE09F9013070500B7070400B366F70053
:104E7000B70702800327C4FE1386C7959307070070
:104E800093974700B387E74093972700B307F6004F
:104E900023A4D700B70702800327C4FE9386C795D3
:104EA0009307070093974700B387E740939727003E
:104EB000B387F6001307B00023A6E700B707028008
:104EC0000327C4FE9386C79593070700939747006F
:104ED000B387E74093972700B387F60013070003D3
:104EE00023A8E700B70702800327C4FE9386C7956F
:104EF0009307070093974700B387E74093972700EE
:104F0000B387F600032784FD23AAE700B7070280D2
:104F10000327C4FE9386C79593070700939747001E
:104F2000B387E74093972700B387F6000327C4FDB4
:104F300023A2E702B70702800327C4FE9386C79522
:104F40009307070093974700B387E740939727009D
:104F5000B387F600032744FD23ACE7028325C4FE94
:104F600037051010EFE05F84130000008320C102BA
:104F7000032481021301010367800000130101FD76
:104F8000232611022324810213040103232EA4FCEF
:104F9000232CB4FC370702808327C4FD832684FDBD
:104FA0001306873F13870700131717003307F7000F
:104FB000931727001387070093870600939727000E
:104FC000B387D70093975700B307F700B307F600EE
:104FD0001307400023AAE700232604FE6F00800584
:104FE000370702808327C4FE832684FD1306873F8C
:104FF00013870700131717003307F70093172700CD
:10500000138707009387060093972700B387D7007D
:1050100093975700B307F700B307F60003A74701BC
:1050200093074000631CF7068327C4FE938717008D
:105030002326F4FEB7060280032784FD93070700AA
:1050400093972700B387E700939757001387863F0E
:10505000B387E70083A707010327C4FEE362F7F8DD
:10506000032784FD93061000B76700801386C75698
:1050700093050700B76700801385C757EFD05FE13E
:10508000032584FDEF00C002B76700801385C75871
:10509000EFD0DFD0130000006F008000130000008D
:1050A0008320C102032481021301010367800000F1
:1050B000130101FD2326110223248102130401039D
:1050C000232EA4FC232604FE6F00802CEF009017F3
:1050D0002322A4FE032744FEB707FEFD9387D7DFF4
:1050E000631CF70013051000EFD04F86B7670080F0
:1050F0001385075BEFD09FCA032744FEB707FEFD69
:105100009387D7DFE304F7FCB7070280832644FECA
:10511000138707AC93074024B387F602B307F70061
:105120003707FFFE1307E7EF23A2E70037070280E8
:105130008327C4FE8326C4FD1306873F1387070019
:10514000131717003307F70093172700138707007B
:105150009387060093972700B387D700939757004C
:10516000B307F700B307F60003A78701B70702806C
:10517000032644FE938607AC93074024B307F60248
:10518000B387F60023A6E700B70602800327C4FD15
:105190009307070093972700B387E700939757007B
:1051A0001387863FB387E70083A707011387C700EC
:1051B000B7070280032644FE938607AC930740247A
:1051C000B307F602B387F60023A8E700B70702800B
:1051D000832644FE138707AC93074024B387F60267
:1051E000B307F7001307004023AAE700B7070280C0
:1051F000832644FE138707AC93074024B387F60247
:10520000B307F7000327C4FE23ACE700B70702800B
:10521000832644FE138707AC93074024B387F60226
:10522000B307F7000327C4FD23A4E702B7060280F3
:105230000327C4FD9307070093972700B387E70070
:10524000939757001387863FB387E70003A70701AB
:10525000B7070280032644FE93064024B306D60215
:10526000938707ACB387F60023A0E704232404FE4A
:105270006F00C00D37070280832784FE8326C4FD9C
:105280001306873F13870700131717003307F7002C
:10529000931727001387070093870600939727002B
:1052A000B387D70093975700B307F700B307F6000B
:1052B00083A6870137060280032744FE9307070071
:1052C00093973700B387E70093974700B387E700CA
:1052D000032784FEB387E70093870701130706AC13
:1052E00093972700B307F70023A2D700832584FEF6
:1052F000B7060280032744FE930707009397370001
:10530000B387E70093974700B387E700032784FE3E
:10531000B387E70093870701138706AC93972700AD
:10532000B307F70083A7470093860700B76700809D
:105330001386475CB76700801385C75CEFD05FB505
:10534000832784FE938717002324F4FEB706028088
:105350000327C4FD9307070093972700B387E7004F
:10536000939757001387863FB387E70083A707010A
:10537000032784FEE360F7F0832544FE37052020F1
:10538000EFE08FC28327C4FE938717002326F4FE25
:10539000B70602800327C4FD9307070093972700F1
:1053A000B387E700939757001387863FB387E700DB
:1053B00083A707010327C4FEE36AF7D0B76700801D
:1053C0001385475DEFD09F9D130000008320C1022D
:1053D000032481021301010367800000130101FE11
:1053E000232E810013040102232604FE6F0080088F
:1053F000B71602800327C4FE930707009397470060
:10540000B387E74093973700138786B7B387E700E2
:1054100023A00700232404FE6F004004B716028077
:105420000327C4FE9307070093974700B387E7401D
:1054300093971700032784FEB387E70093878700BD
:10544000138786B793972700B307F70023A20700B7
:10545000832784FE938717002324F4FE032784FE0A
:1054600093079000E3FCE7FA8327C4FE93871700B5
:105470002326F4FE0327C4FE93071000E3FAE7F6A1
:10548000130000000324C101130101026780000022
:10549000130101FE232E1100232C810013040102AD
:1054A000EFD0CFF02324A4FE232604FE232604FEFF
:1054B0006F004004B71702800327C4FE938687B7A6
:1054C0009307070093974700B387E7409397370008
:1054D000B387F60083A7C700032784FE6316F7008F
:1054E0008327C4FE6F0000028327C4FE9387170042
:1054F0002326F4FE0327C4FE93071000E3FCE7FA1B
:105500009307F0FF138507008320C1010324810165
:105510001301010267800000130101FE232E8100A8
:1055200013040102232604FE6F000004B716028054
:105530000327C4FE9307070093974700B387E7400C
:1055400093973700138786B7B387E70083A70700D1
:10555000639607008327C4FE6F0000028327C4FE02
:10556000938717002326F4FE0327C4FE9307100039
:10557000E3FEE7FA9307F0FF138507000324C10158
:105580001301010267800000130101FC232E1102A8
:10559000232C810213040104232EA4FC232CB4FC2D
:1055A000232AC4FC2328D4FC2326E4FCEFF0DFF6F6
:1055B0002326A4FEB71602800327C4FE9307070024
:1055C00093974700B387E74093973700138786B7D1
:1055D000B387E7001307200023A0E700B716028077
:1055E0000327C4FE9307070093974700B387E7405C
:1055F00093973700138786B7B387E70023A8070080
:10560000B71702800327C4FE938687B79307070066
:1056100093974700B387E74093973700B387F60027
:105620000327C4FD23A2E700B71702800327C4FEA7
:10563000938687B79307070093974700B387E740A0
:1056400093973700B387F6000327C4FC23A4E70031
:10565000032784FD832744FDB307F70093962700B3
:10566000B71702800327C4FE138687B79307070086
:1056700093974700B387E74093973700B307F60047
:1056800023ACD700B71702800327C4FE938687B7E1
:105690009307070093974700B387E7409397370036
:1056A000B387F60083A7870113850700EFB09FBA81
:1056B0009307050013860700B71702800327C4FE6F
:1056C000938687B79307070093974700B387E74010
:1056D00093973700B387F60023AEC700B717028051
:1056E0000327C4FE938687B7930707009397470065
:1056F000B387E74093973700B387F60003A7C70146
:10570000832704FD93972700B306F700371602801E
:105710000327C4FE9307070093974700B387E7402A
:1057200093973700130786B7B387E70023A0D70204
:105730008327C4FE138507008320C103032481034C
:105740001301010467800000130101FD232681027B
:1057500013040103232EA4FC232CB4FC232604FEF3
:105760006F008009B71702800327C4FE938687B7AE
:105770009307070093974700B387E7409397370055
:10578000B387F60083A747000327C4FD6310F7061D
:10579000B71702800327C4FE938687B793070700D5
:1057A00093974700B387E74093973700B387F60096
:1057B00083A78700032784FD631AF702B7160280C8
:1057C0000327C4FE9307070093974700B387E7407A
:1057D00093973700138786B7B387E70083A707003F
:1057E000638607008327C4FE6F0000028327C4FE80
:1057F000938717002326F4FE0327C4FE9307900027
:10580000E3F2E7F69307F0FF138507000324C102D4
:105810001301010367800000130101FE232E110014
:10582000232C8100130401022326A4FEB716028054
:105830000327C4FE9307070093974700B387E74009
:1058400093973700138786B7B387E70013071000D5
:1058500023A0E700B71602800327C4FE93070700C2
:1058600093974700B387E74093973700138786B72E
:10587000B387E70083A70702138507000327C4FE49
:105880009307070093974700B387E7409397370044
:1058900037170280130787B7B387E7009387C700DE
:1058A000930800001308000013071000930600007F
:1058B00013060040B76500809385455FEFC08FD920
:1058C000130000008320C1010324810113010102A0
:1058D00067800000130101FD2326110223248102A9
:1058E00013040103232EA4FCEFF09FBA2326A4FE89
:1058F000930710002324F4FE8327C4FD2322F4FE23
:105900000325C4FEEF00803C130705009307100039
:10591000631AF700832744FE1307D02223A0E70071
:105920006F00C006832744FE1307500723A0E7003B
:10593000B71702800327C4FE938687B79307070033
:1059400093974700B387E74093973700B387F600F4
:1059500083A7C70013850700EFC08FF1B717028038
:105960000327C4FE938687B79307070093974700E2
:10597000B387E74093973700B387F60083A7C70143
:1059800013850700EFB0DFAA130000008320C102D7
:10599000032481021301010367800000130101FE4B
:1059A000232E810013040102B707028023A607A457
:1059B000232604FE6F004007B70702808326C4FE3B
:1059C000130740243387E602938707ACB307F70039
:1059D0001307F0FF23A0E700B70702808326C4FE69
:1059E000138707AC93074024B387F602B307F70089
:1059F00023A40700B70602800327C4FE930707000D
:105A000093974700B387E740939727001387C6957E
:105A1000B387E7001307F0FF23A0E7008327C4FE46
:105A2000938717002326F4FE0327C4FE9307300054
:105A3000E3D4E7F8130000000324C10113010102BD
:105A400067800000130101FE232E81001304010270
:105A5000B707FEFD9387D7DF2324F4FE232604FE39
:105A60006F008009B70702808326C4FE1307402415
:105A70003387E602938707ACB307F70003A7070055
:105A80009307F0FF6314F706B70702808326C4FE6E
:105A9000130740243387E602938707ACB307F70068
:105AA0001307100023A0E700B707028003A7C7A4CD
:105AB000B70702800326C4FE938607AC93074024F1
:105AC000B307F602B387F60023A4E700B707028006
:105AD00083A7C7A413871700B707028023A6E7A4EC
