:0200000480007A
:100000006F00C0006F0000006F00800297020000C8
:1000100093824202739052307350003073504030DC
:1000200093810100171104001301C1826F00401871
:10003000130101F823201100232221002324310081
:100040002326410023285100232A6100232C71001C
:10005000232E8100232091022322A1022324B10216
:100060002326C1022328D102232AE102232CF102F4
:10007000232E0103232011052322210523243105EA
:100080002326410523285105232A6105232C7105C8
:10009000232E8105232091072322A1072324B107C2
:1000A0002326C1072328D107232AE107232CF107A0
:1000B000F3221034232E510673252034F3251034F7
:1000C00013060100EF00406C73101534B7220000D6
:1000D0009382028073A0023083200100032141003B
:1000E000832181000322C1008322010103234101F6
:1000F000832381010324C1018324010203254102DA
:10010000832581020326C1028326010303274103BD
:10011000832781030328C1038328010403294104A1
:1001200083298104032AC104832A0105032B410585
:10013000832B8105032CC105832C0106032D410669
:10014000832D8106032EC106832E0107032F41074D
:10015000832F810713010108730020300000000085
:10016000130101FD2326810213040103232EA4FCA5
:10017000232CB4FC8327C4FD2326F4FE6F008001EA
:100180008327C4FE23A007008327C4FE938747006C
:100190002326F4FE0327C4FE832784FDE3F2E7FE53
:1001A000130000000324C102130101036780000053
:1001B000130101FE232E1100232C810013040102E0
:1001C000B7670080938707DC2326F4FE8327C4FEED
:1001D0002320F4FE232204FE232404FE93850197AA
:1001E00013850190EFF0DFF7B7170280938507853D
:1001F00013850197EFF0DFF6930704FE9385070060
:1002000013051000EF50900C130000008320C10173
:10021000032481011301010267800000130101FF23
:100220002326810013040101130000000324C100F0
:100230001301010167800000130101FD23268102E3
:1002400013040103232EA4FCF32740F12326F4FE1C
:100250008327C4FE2324F4FE370700408327C4FD10
:1002600093D75700832684FE93965600B386F600F4
:10027000B717000093870780B387F600939727008E
:10028000B307F70083A707002322F4FE8327C4FDEA
:1002900093F7F70113071000B317F70093C7F7FFA1
:1002A000032744FEB377F7002322F4FE370700400C
:1002B0008327C4FD93D75700832684FE9396560068
:1002C000B386F600B717000093870780B387F60060
:1002D00093972700B307F700032744FE23A0E70006
:1002E000130000000324C102130101036780000012
:1002F000130101FE232E810013040102F32740F1B4
:100300002326F4FE8327C4FE2324F4FE370700408F
:10031000832784FE938707209397C700B307F700CE
:1003200083A74700138507000324C10113010102BD
:1003300067800000130101FD2326810213040103DD
:10034000232EA4FCF32740F12326F4FE8327C4FECA
:100350002324F4FE37070040832784FE9387072079
:100360009397C700B307F7000327C4FD23A2E70054
:10037000130000000324C102130101036780000081
:10038000130101FE232E810013040102F3670430E0
:100390002326F4FE130000000324C101130101020F
:1003A00067800000130101FE232E1100232C810021
:1003B0001304010293070008F3B747302326F4FE25
:1003C000EF10004C37070044B7C70000B307F70031
:1003D00003A8C7FF83A787FF83A5019003A64190C9
:1003E00037050044732740F12324E4FE832884FE6C
:1003F000B386B700138306003333F3003307C80016
:10040000B307E3001387070093870600130807006C
:1004100037170000130707803387E80013173700EA
:100420003307E5002320F700232207019307000884
:10043000F3A747302322F4FE130000008320C101FC
:10044000032481011301010267800000130101FEF2
:10045000232E1100232C810013040102EFF05FE929
:100460002326A4FEA30504FEB76700800327C4FE6D
:100470001317270093870729B307F70083A70700FF
:10048000E780070093070500A305F4FE0325C4FEDB
:10049000EFF05FEA0347B4FE930710006316F7001E
:1004A0000325C4FEEFF05FD9130000008320C101D3
:1004B000032481011301010267800000130101FF81
:1004C000232611002324810013040101EF10404C66
:1004D000B707004423A00700130000008320C100D9
:1004E000032481001301010167800000130101FD55
:1004F0002326110223248102232221031304010352
:1005000013090000130901009307090093874707A7
:100510002326F4FE8327C4FE83A707002324F4FECA
:1005200093070900938787072326F4FE8327C4FED9
:1005300083A707002322F4FE930709009387C707C8
:100540002326F4FE8327C4FE83A707002320F4FE9E
:1005500093070900938707082326F4FE8327C4FE28
:1005600083A70700232EF4FC93070900938747080D
:100570002326F4FE8327C4FE83A70700232CF4FC64
:1005800093070900938787082326F4FE8327C4FE78
:1005900083A70700232CF4FC93070900938707091E
:1005A0002326F4FE8327C4FE83A70700232AF4FC36
:1005B000832744FD938767FF130780036362F71265
:1005C00013972700B7670080938787E4B307F70086
:1005D00083A7070067800700B7670080138587DC63
:1005E000EF20806D832784FE93850700B767008026
:1005F000138507DFEF200077832744FE93850700EC
:10060000B7670080138587DFEF20C075832704FE5E
:1006100093850700B7670080138507E0EF2080749B
:100620008327C4FD93850700B7670080138587E0A3
:10063000EF204073832784FD93850700B767008010
:10064000138507E1EF200072832744FD938507009F
:10065000B7670080138587E1EF20C0706F0000113D
:10066000832784FE13850700EF200065832784FE1F
:1006700093850700B717028013858783EF00103238
:100680006F00C00E832784FE13850700EF20C0692A
:10069000032784FE1306A000B7F701809385475F08
:1006A00013050700EF20905FB7F701809385475F40
:1006B000B717028013858783EF00502E6F00000B61
:1006C000832544FE032584FEEF3000336F00000ACB
:1006D000832544FE032584FEEF3080606F0000090F
:1006E000B7670080138507E2EF20005D832784FE53
:1006F00093850700B7670080138507DFEF208066CA
:10070000832744FE93850700B7670080138587DF42
:10071000EF204065832704FE93850700B7670080BC
:10072000138507E0EF2000648327C4FD938507004D
:10073000B7670080138587E0EF20C062832784FDC0
:1007400093850700B7670080138507E1EF2080617C
:10075000832744FD93850700B7670080138587E1F1
:10076000EF2040606F0080001300000093077005C9
:10077000138507008320C10203248102032941025B
:100780001301010367800000130101FE232E1100F5
:10079000232C8100130401022326A4FE2324B4FE8B
:1007A0000327C4FE9307B0006304F7020327C4FEC7
:1007B0009307A000630EF7000327C4FE9307900081
:1007C0006308F7000327C4FE93078000631CF7004B
:1007D000EFF0DFD1832784FE938747002324F4FEC4
:1007E0006F00000A8327C4FE63D207020327C4FEFA
:1007F000B707008093C7F7FF3377F7009307B00080
:100800006316F700EFF09FC46F0080078327C4FED4
:1008100063D207020327C4FEB707008093C7F7FF20
:100820003377F700930770006316F700EFF09FB778
:100830006F0000058327C4FE63D207020327C4FEAE
:10084000B707008093C7F7FF3377F70093073000AF
:100850006316F700EFF09FC66F008002130650008A
:10086000B7670080938507E413051000EF50C04D73
:100870008327C4FE9387170013850700EF00404CC1
:10088000832784FE138507008320C101032481018F
:100890001301010267800000130101FF232681007C
:1008A0001304010193070000138507000324C1000E
:1008B0001301010167800000130101FF232681005D
:1008C0001304010193070000138507000324C100EE
:1008D0001301010167800000130101FF232681003D
:1008E0001304010193070000138507000324C100CE
:1008F0001301010167800000130101FF232681001D
:100900001304010193070000138507000324C100AD
:100910001301010167800000130101FF23268100FC
:100920001304010193070000138507000324C1008D
:100930001301010167800000130101FF23268100DC
:100940001304010193070000138507000324C1006D
:100950001301010167800000130101FF23268100BC
:100960001304010193070000138507000324C1004D
:100970001301010167800000130101FF232681009C
:100980001304010193070000138507000324C1002D
:100990001301010167800000130101FF232681007C
:1009A0001304010193070000138507000324C1000D
:1009B0001301010167800000130101FF232681005C
:1009C0001304010193070000138507000324C100ED
:1009D0001301010167800000130101FF232681003C
:1009E0001304010193070000138507000324C100CD
:1009F0001301010167800000130101FF232681001C
:100A00001304010193070000138507000324C100AC
:100A10001301010167800000130101FF23268100FB
:100A20001304010193070000138507000324C1008C
:100A30001301010167800000130101FF23268100DB
:100A40001304010193070000138507000324C1006C
:100A50001301010167800000130101FF23268100BB
:100A60001304010193070000138507000324C1004C
:100A70001301010167800000130101FF232681009B
:100A80001304010193070000138507000324C1002C
:100A90001301010167800000130101FF232681007B
:100AA0001304010193070000138507000324C1000C
:100AB0001301010167800000130101FF232681005B
:100AC0001304010193070000138507000324C100EC
:100AD0001301010167800000130101FF232681003B
:100AE0001304010193070000138507000324C100CC
:100AF0001301010167800000130101FF232681001B
:100B00001304010193070000138507000324C100AB
:100B10001301010167800000130101FF23268100FA
:100B20001304010193070000138507000324C1008B
:100B30001301010167800000130101FF23268100DA
:100B40001304010193070000138507000324C1006B
:100B50001301010167800000130101FF23268100BA
:100B60001304010193070000138507000324C1004B
:100B70001301010167800000130101FF232681009A
:100B80001304010193070000138507000324C1002B
:100B90001301010167800000130101FF232681007A
:100BA0001304010193070000138507000324C1000B
:100BB0001301010167800000130101FF232681005A
:100BC0001304010193070000138507000324C100EB
:100BD0001301010167800000130101FF232681003A
:100BE0001304010193070000138507000324C100CB
:100BF0001301010167800000130101FF232681001A
:100C00001304010193070000138507000324C100AA
:100C10001301010167800000130101FF23268100F9
:100C20001304010193070000138507000324C1008A
:100C30001301010167800000130101FF23268100D9
:100C40001304010193070000138507000324C1006A
:100C50001301010167800000130101FD2326110229
:100C60002324810213040103232EA4FC232CB4FCAF
:100C700013062000B76700809385C7F20325C4FDE3
:100C8000EF50800C93078000A307F4FE6F008009EB
:100C90008347F4FE9387F7FF2307F4FE8347E4FEC0
:100CA000939727001307F000B317F7001387070087
:100CB000832784FD3377F7008347E4FE939727006B
:100CC000B357F700A306F4FE0347D4FE9307900042
:100CD00063EEE7008347D4FE9387070393F7F70F8C
:100CE0009397870193D787416F0080018347D4FE94
:100CF0009387770393F7F70F9397870193D78741EC
:100D00002306F4FE9307C4FE130610009385070024
:100D10000325C4FDEF5040038347F4FE9387F7FF9C
:100D2000A307F4FE8347F4FEE39407F613000000E4
:100D30008320C102032481021301010367800000A4
:100D4000130101FD23261102232481021304010350
:100D5000232EA4FCB7670080938707F32326F4FEB5
:100D60000325C4FEEF1080099307050013860700D2
:100D70008325C4FE13052000EF40107D8327C4FDAA
:100D80009385070013052000EFF01FED6F000000B2
:100D9000130101FE232E8100130401022326A4FE69
:100DA0000327C4FE930710006308F7000327C4FE5F
:100DB000930720006316F700930710006F004001AF
:100DC000B70702801307900023A6E7F093070000FF
:100DD000138507000324C10113010102678000008D
:100DE000130101FE232E8100130401022326A4FE19
:100DF000B70702800327C4FE23A6E7F09307F0FF9E
:100E0000138507000324C10113010102678000005C
:100E1000130101FD2326110223248102130401037F
:100E2000232EA4FC232CB4FC232AC4FC832784FD9A
:100E30002324F4FE0325C4FDEFF09FF5930705007E
:100E4000638C070883A70191639007029306100043
:100E50001306C002B715007013858190EF0040178C
:100E60001307100023A8E190232604FE6F008005DD
:100E7000032784FE8327C4FEB307F7001306100080
:100E80009385070013858190EF000026032784FED9
:100E90008327C4FEB307F70003C707009307A0002A
:100EA000631CF70013061000B7670080938507F5F1
:100EB00013858190EF0040238327C4FE938717009A
:100EC0002326F4FE0327C4FE832744FDE362F7FADA
:100ED000832744FD6F00000113059000EFF05FF0E1
:100EE00093070500138507008320C10203248102B4
:100EF00013010103678000002320B5006780000014
:100F00000325050067800000138E0600331EBE0017
:100F1000337ECE00032305009303060093C3F3FF43
:100F2000337373003363C3012320650067800000BF
:100F3000032505003375C5003355B50067800000F3
:100F40002310B500678000000315050067800000CE
:100F5000138E0600331EBE00337ECE000313050041
:100F60009303060093C3F3FF337373003363C3012A
:100F70002310650067800000031505003375C50068
:100F80003355B500678000002300B500678000007E
:100F90000305050067800000138E0600331EBE00A7
:100FA000337ECE00030305009303060093C3F3FFD3
:100FB000337373003363C30123006500678000004F
:100FC000030505003375C5003355B5006780000083
:100FD000130101FD232611022324810213040103BE
:100FE000232EA4FC232CB4FC9307060013870600D1
:100FF000231BF4FC93070700A30AF4FC8327C4FD1A
:10100000638A070C034754FD9307700063E4E70C01
:10101000035764FDB7270000637EF70A832784FD2A
:1010200013878700835764FD93F7F70F93850700B5
:1010300013050700EFF05FF5832784FD9386C70053
:10104000034754FD835764FD93D7574093F7877F39
:10105000B367F7009385070013850600EFF0DFF212
:101060008327C4FD032784FD23A0E7008327C4FD55
:1010700083A707009387070113850700EFF05FF14F
:101080009307050093F72700A307F4FE6F00800382
:101090008327C4FD83A707009387470013850700B4
:1010A000EFF01FEF8327C4FD83A707009387070195
:1010B00013850700EFF0DFED9307050093F7270096
:1010C000A307F4FE8347F4FEE39407FC8327C4FDE3
:1010D00023820700130000008320C1020324810241
:1010E0001301010367800000130101FD2326110293
:1010F0002324810213040103232EA4FC232CB4FC1B
:10110000232AC4FC8327C4FD63800708832784FD4A
:10111000638C0706832744FD63880706232604FEA5
:101120006F00C0058327C4FD83A7070093870701CD
:1011300013850700EFF0DFE59307050093F717002D
:10114000A305F4FE8347B4FEE38E07FC8327C4FDAA
:1011500083A60700032784FD8327C4FEB307F70097
:1011600083C707009385070013850600EFF0DFE1D2
:101170008327C4FE938717002326F4FE0327C4FEAB
:10118000832744FDE360F7FA130000008320C102C7
:10119000032481021301010367800000130101FD94
:1011A000232611022324810213040103232EA4FC0D
:1011B000232CB4FC8327C4FD63800708832784FDA8
:1011C000638C0706232604FE6F00C0058327C4FD39
:1011D00083A707009387070113850700EFF05FDB04
:1011E0009307050093F71700A305F4FE8347B4FEA9
:1011F000E38E07FC8327C4FD83A60700032784FD35
:101200008327C4FEB307F70083C707009385070051
:1012100013850600EFF05FD78327C4FE938717007E
:101220002326F4FE032784FD8327C4FEB307F700BB
:1012300083C70700E39C07F8130000008320C10266
:10124000032481021301010367800000130101FCE4
:10125000232E1102232C8102130401042326A4FC53
:10126000232204FEEF00907183A741926398070048
:10127000EF0040281307100023A2E1928327C4FC4B
:10128000638A070293078000138707008327C4FC43
:10129000B387E7002326F4FC8327C4FC93F73700C9
:1012A000638A07008327C4FC93F7C7FF938747002F
:1012B0002326F4FC8327C4FC638407140327C4FC9F
:1012C000B79701009387B7FF63ECE71293874191CB
:1012D0002324F4FE83A741912326F4FE6F008001AE
:1012E0008327C4FE2324F4FE8327C4FE83A70700BC
:1012F0002326F4FE8327C4FE83A747000327C4FCEC
:1013000063F8E7008327C4FE83A70700E39A07FC7E
:101310000327C4FE9387C1916304F70E832784FEDD
:1013200083A7070013078000B387E7002322F4FE9A
:101330008327C4FE03A70700832784FE23A0E700BA
:101340008327C4FE03A747008327C4FCB307F740E5
:1013500013078000131717006376F7080327C4FEEE
:101360008327C4FCB307F700232EF4FC8327C4FEB5
:1013700003A747008327C4FC3307F7408327C4FD36
:1013800023A2E7008327C4FE0327C4FC23A2E700AF
:101390008327C4FD83A74700232CF4FC9387419146
:1013A0002320F4FE6F000001832704FE83A70700BB
:1013B0002320F4FE832704FE83A7070083A74700AA
:1013C000032784FDE3E2E7FE832704FE03A707006B
:1013D0008327C4FD23A0E700832704FE0327C4FD61
:1013E00023A0E700B767008003A707278327C4FE71
:1013F00083A747003307F740B767008023A8E72695
:10140000EF00505A832744FE63940700EF40900397
:10141000832744FE138507008320C103032481032F
:101420001301010467800000130101FD232611024E
:101430002324810213040103232EA4FC8327C4FD6B
:101440002324F4FE8327C4FD638C070893078000E0
:10145000B307F040032784FEB307F7002324F4FE0C
:10146000832784FE2322F4FEEF005051832744FE9D
:1014700083A747002320F4FE938741912326F4FE9F
:101480006F0000018327C4FE83A707002326F4FE14
:101490008327C4FE83A7070083A74700032704FE12
:1014A000E3E2E7FE8327C4FE03A70700832744FE89
:1014B00023A0E7008327C4FE032744FE23A0E70000
:1014C000832744FE03A74700B767008083A7072749
:1014D0003307F700B767008023A8E726EF00904C9A
:1014E000130000008320C1020324810213010103C1
:1014F00067800000130101FE232E81001304010206
:10150000B76700809387473E93F7C7FF2326F4FE13
:101510000327C4FE23AAE1909387419123A20700E9
:101520009387C191379701001307C7FF23A2E700F4
:1015300023AE01908327C4FE2324F4FE832784FE78
:10154000379701001307C7FF23A2E700832784FE14
:101550001387C19123A0E700130000000324C101F9
:101560001301010267800000130101FE232E810098
:1015700013040102F32740F12326F4FE8327C4FE5F
:101580002324F4FEF36744302322F4FE370700449B
:10159000832784FE93972700B307F70013071000F3
:1015A00023A0E700130000000324C101130101027E
:1015B00067800000130101FF23268100130401014D
:1015C00073700430B767008083A74727138717001D
:1015D000B767008023AAE726130000000324C10098
:1015E0001301010167800000130101FF2326810020
:1015F00013040101B767008083A747271387F7FF0C
:10160000B767008023AAE726B767008083A747272C
:101610006394070073600430130000000324C100CA
:101620001301010167800000130101FE232E8100D8
:10163000130401023766008003268627032606006E
:101640002324C4FE232604FE376600800326862753
:1016500003264600930606001307000013980600B1
:1016600093070000032784FE3367F7002324E4FE7A
:101670000327C4FEB36707012326F4FE832684FEF6
:101680000327C4FEB7450100938585431306000078
:10169000B387B600138507003335D5003308C7007C
:1016A00033070501130807002324F4FE232604FF53
:1016B000B767008083A7C727032784FE23A0E7001E
:1016C0008327C4FE13D3070093030000B76700808D
:1016D00083A7C7271307030023A2E7009307000887
:1016E00073A04730130000000324C101130101025D
:1016F00067800000130101FE232E81001304010204
:101700003766008003268627032606002324C4FEAE
:10171000232604FE3766008003268627032646001C
:1017200093060600130700001398060093070000B5
:10173000032784FE3367F7002324E4FE0327C4FE57
:10174000B36707012326F4FE832684FE0327C4FE25
:10175000B74501009385854313060000B387B600A3
:10176000138507003335D5003308C700330705015B
:10177000130807002324F4FE232604FFB767008024
:1017800083A7C727032784FE23A0E7008327C4FE7F
:1017900013D3070093030000B767008083A7C72710
:1017A0001307030023A2E7009307000873A0473044
:1017B000130000000324C10113010102678000002F
:1017C000130101FF2326810013040101B767008084
:1017D00003A747279307F0FF6306F70073700430F1
:1017E0006F000000737004306F000000130101FEF1
:1017F000232E8100130401022326A4FE2324B4FE19
:101800002322C4FE8327C4FE9387C7FF2326F4FE4A
:10181000032784FE8327C4FE23A0E7008327C4FE9A
:10182000938787FA2326F4FE032744FE8327C4FE0A
:1018300023A0E7008327C4FE938787FE2326F4FEB8
:1018400093870100138707008327C4FE23A0E700C6
:101850008327C4FE938747FF2326F4FEB717008033
:101860001387077C8327C4FE23A0E7008327C4FED9
:10187000138507000324C1011301010267800000E2
:10188000130101FF23261100232481001304010109
:1018900083A2C19223A0C200EFF01FD9EF00102A4B
:1018A0009307050063840700EF00104803A1C1926D
:1018B000032101008322C1077390123483200100A9
:1018C0000322C100832201010323410183238101FB
:1018D0000324C101832401020325410283258102DF
:1018E0000326C102832601030327410383278103C3
:1018F0000328C103832801040329410483298104A7
:10190000032AC104832A0105032B4105832B81058A
:10191000032CC105832C0106032D4106832D81066E
:10192000032EC106832E0107032F4107832F810752
:101930001301010873002030130000008320C10050
:10194000032481001301010167800000130101FFDE
:10195000232611002324810013040101EFF09FD9F5
:10196000B767008023AA07261307100023A4E1927B
:10197000EFE01FA1EFF05FBF9307000013850700A2
:101980008320C1000324810013010101678000004E
:10199000130101FF232611002324810013040101F8
:1019A00003A78192930710006318F7001307200024
:1019B00023A4E1926F00000183A2C19223A0C20080
:1019C000EF009036B707004423A0070003A1C1929F
:1019D000032101008322C107739012348320010088
:1019E0000322C100832201010323410183238101DA
:1019F0000324C101832401020325410283258102BE
:101A00000326C102832601030327410383278103A1
:101A10000328C10383280104032941048329810485
:101A2000032AC104832A0105032B4105832B810569
:101A3000032CC105832C0106032D4106832D81064D
:101A4000032EC106832E0107032F4107832F810731
:101A50001301010873002030130000008320C1002F
:101A6000032481001301010167800000130101FFBD
:101A7000232611002324810013040101EFF0DFAEBF
:101A8000130000008320C100032481001301010121
:101A900067800000130101FE232E81001304010260
:101AA0002326A4FE8327C4FE138787008327C4FE52
:101AB00023A2E7008327C4FE1307F0FF23A4E70057
:101AC0008327C4FE138787008327C4FE23A6E7006D
:101AD0008327C4FE138787008327C4FE23A8E7005B
:101AE0008327C4FE23A00700130000000324C101C4
:101AF0001301010267800000130101FE232E810003
:101B0000130401022326A4FE8327C4FE23A8070092
:101B1000130000000324C1011301010267800000CB
:101B2000130101FD2326810213040103232EA4FCCB
:101B3000232CB4FC8327C4FD83A747002326F4FE8F
:101B4000832784FD0327C4FE23A2E7008327C4FE66
:101B500003A78700832784FD23A4E7008327C4FE0F
:101B600083A78700032784FD23A2E7008327C4FE01
:101B7000032784FD23A4E700832784FD0327C4FDF6
:101B800023A8E7008327C4FD83A707001387170056
:101B90008327C4FD23A0E700130000000324C10233
:101BA0001301010367800000130101FD2326810258
:101BB00013040103232EA4FC232CB4FC832784FDEF
:101BC00083A707002324F4FE032784FE9307F0FF76
:101BD000631AF7008327C4FD83A707012326F4FEB9
:101BE0006F0040038327C4FD938787002326F4FEFC
:101BF0006F0000018327C4FE83A747002326F4FE5D
:101C00008327C4FE83A7470083A70700032784FE1A
:101C1000E372F7FE8327C4FE03A74700832784FDF2
:101C200023A2E700832784FD83A74700032784FDC1
:101C300023A4E700832784FD0327C4FE23A4E70031
:101C40008327C4FE032784FD23A2E700832784FDA6
:101C50000327C4FD23A8E7008327C4FD83A707004B
:101C6000138717008327C4FD23A0E700130000009B
:101C70000324C1021301010367800000130101FD69
:101C80002326810213040103232EA4FC8327C4FD11
:101C900083A707012326F4FE8327C4FD83A74700FB
:101CA0000327C4FD0327870023A4E7008327C4FD7F
:101CB00083A787000327C4FD0327470023A2E7006B
:101CC0008327C4FE83A747000327C4FD631AF700D8
:101CD0008327C4FD03A787008327C4FE23A2E70050
:101CE0008327C4FD23A807008327C4FE83A707001A
:101CF0001387F7FF8327C4FE23A0E7008327C4FED2
:101D000083A70700138507000324C1021301010301
:101D100067800000130101FD2326810213040103E3
:101D2000232EA4FC232CB4FC232AC4FC0327C4FDCB
:101D3000832744FDB367F70093F7370063980706DE
:101D4000832784FD93F7F70F2322F4FE832744FEB5
:101D500093978700032744FEB367F7002322F4FE1E
:101D6000832744FE93970701032744FEB367F700D8
:101D70002322F4FE8327C4FD2326F4FE6F00800196
:101D80008327C4FE138747002326E4FE032744FE6F
:101D900023A0E7000327C4FD832744FDB307F70012
:101DA0000327C4FEE36EF7FC6F0000048327C4FD25
:101DB0002324F4FE6F000002832784FE138717009C
:101DC0002324E4FE032784FD13178701135787415B
:101DD0002380E7000327C4FD832744FDB307F700F2
:101DE000032784FEE36AF7FC8327C4FD13850700FD
:101DF0000324C1021301010367800000130101FDE8
:101E00002326810213040103232EA4FC8327C4FD8F
:101E10002326F4FE6F0000018327C4FE938717007A
:101E20002326F4FE8327C4FE83870700E39607FE7C
:101E30000327C4FE8327C4FDB307F74013850700BB
:101E40000324C1021301010367800000130101FC98
:101E5000232E1102232C810213040104232EA4FC3F
:101E6000232CB4FC2328D4FC2326E4FC2324F4FCF8
:101E7000232204FD232014FD93070600231BF4FCFA
:101E80008327C4FD63960700737004306F00000061
:101E90000327C4FC9307400063F6E7007370043027
:101EA0006F000000835764FD832544FC1385070001
:101EB000EF00902B2324A4FE832784FE6382071661
:101EC000832784FE03A70703835664FDB7070040FA
:101ED0009387F7FFB387F60093972700B307F700C0
:101EE0002322F4FE832744FE93F7C7FF2322F4FE48
:101EF000832744FE93F7370063860700737004302E
:101F00006F000000835764FD13870700832604FCDD
:101F10000326C4FC832584FD032584FEEF00C072E4
:101F2000032604FD8325C4FD032544FEEFF01F8C2A
:101F300013070500832784FE23A0E700832784FC82
:101F400063880700832784FC032784FE23A0E7001F
:101F5000EFF04FE683A7C1931387170023AEE192FA
:101F600083A7C19263900702032784FE23A6E19210
:101F700003A7C193930710006316F702EF00500008
:101F80006F00400283A78194639E070083A7C192DC
:101F900083A7C7020327C4FC6366F700032784FEF8
:101FA00023A6E19283A781951387170023ACE194C0
:101FB00003A78195832784FE23A4E704832784FE57
:101FC00003A7C70283A7419463F8E700832784FE31
:101FD00003A7C70223A2E194832784FE03A7C702B5
:101FE0009307070093972700B387E700939727008D
:101FF00037F701801307073E3387E700832784FE06
:10200000938747009385070013050700EFF05FB142
:10201000930710002326F4FEEFF00FDD6F00C000E1
:102020009307F0FF2326F4FE0327C4FE9307100056
:102030006310F70283A78194638C070083A7C19282
:1020400083A7C7020327C4FC63F4E700EFF01FA2D5
:102050008327C4FE138507008320C1030324810363
:102060001301010467800000130101FD2326110202
:102070002324810213040103232EA4FC232604FE3F
:102080008327C4FD6384070483A701966386070042
:10209000737004306F000000EF00400E83A70194BE
:1020A0000327C4FDB307F7002324F4FE83A7C192DE
:1020B0009387470013850700EFF05FBC032584FE7C
:1020C000EF001002EF00000E2326A4FE8327C4FEBB
:1020D00063940700EFF09F99130000008320C10272
:1020E000032481021301010367800000130101FE34
:1020F000232E1100232C81001304010293080000F9
:102100001308000093070000130700009306000067
:1021100013060040B7650080938545F5372500809C
:1021200013054561EFF09FD22326A4FE0327C4FECA
:10213000930710006312F702737004301307F0FF67
:1021400023AEE1941307100023A4E19423A001948B
:10215000EFF0CFFF6F0040018327C4FE63960700B6
:10216000737004306F000000130000008320C10171
:10217000032481011301010267800000130101FFA4
:10218000232681001304010183A7019613871700FA
:1021900023A0E196130000000324C10013010101F4
:1021A00067800000130101FE232E1100232C810003
:1021B00013040102232604FE83A7019663960700F9
:1021C000737004306F000000EFF0CFBE83A701965C
:1021D0001387F7FF23A0E19683A701966396071064
:1021E00083A7C193638207106F00800AB7F701804D
:1021F0009387C74683A7C70083A7C7002324F4FE9D
:10220000832784FE9387870113850700EFF01FA7BC
:10221000832784FE9387470013850700EFF01FA6EE
:10222000832784FE03A7C70283A7419463F8E700CE
:10223000832784FE03A7C70223A2E194832784FE99
:1022400003A7C7029307070093972700B387E70008
:102250009397270037F701801307073E3387E7007E
:10226000832784FE938747009385070013050700A3
:10227000EFF01F8B832784FE03A7C70283A7C192B9
:1022800083A7C7026366F7001307100023A8E19431
:10229000B7F7018083A7C746E39A07F483A7C194E1
:1022A000638807026F004002EF00400993070500B2
:1022B000638607001307100023A8E19483A7C19445
:1022C0001387F7FF23A6E19483A7C194E39E07FC3D
:1022D00003A70195930710006318F70093071000F8
:1022E0002326F4FEEFF08FF8EFF00FB08327C4FE43
:1022F000138507008320C10103248101130101021A
:1023000067800000130101FE232E1100232C8100A1
:1023100013040102EFF00FAA83A701942326F4FE11
:10232000EFF08FAC8327C4FE138507008320C10123
:10233000032481011301010267800000130101FDE4
:10234000232611022324810213040103232604FE01
:1023500083A701966390071A83A701941387170038
:1023600023A0E19483A701942324F4FE832784FE11
:102370006390070483A7019383A707006386070080
:10238000737004306F00000083A701932322F4FED2
:1023900003A7419323A8E192032744FE23AAE192D5
:1023A00083A741951387170023AAE194EF00C06B20
:1023B00083A7C195032784FE6360F71083A7019369
:1023C00083A7070063960700930710006F00800043
:1023D00093070000638807001307F0FF23AEE19422
:1023E0006F00800D83A7019383A7C70083A7C70051
:1023F0002320F4FE832704FE83A74700232EF4FC4A
:10240000032784FE8327C4FD6378F7000327C4FDF8
:1024100023AEE1946F00400A832704FE93874700B0
:1024200013850700EFF09F85832704FE83A78702AB
:10243000638A0700832704FE9387870113850700BB
:10244000EFF0DF83832704FE03A7C70283A741942D
:1024500063F8E700832704FE03A7C70223A2E194E1
:10246000832704FE03A7C70293070700939727005B
:10247000B387E7009397270037F701801307073EDC
:102480003387E700832704FE93874700938507007F
:1024900013050700EFF0CFE8832704FE03A7C70268
:1024A00083A7C19283A7C702E36AF7F093071000DE
:1024B0002326F4FE6FF09FF083A7C19203A7C70203
:1024C000B7F601809307070093972700B387E700CB
:1024D000939727001387063EB387E70003A70700FB
:1024E0009307100063FEE700930710002326F4FE15
:1024F0006F00000183A7C1941387170023A6E194FE
:1025000083A7019563860700930710002326F4FE36
:102510008327C4FE138507008320C10203248102A0
:102520001301010367800000130101FE232E8100C7
:102530001304010283A701966388070013071000A4
:1025400023A8E1946F00000C23A801946F000002FF
:1025500083A7419463960700737004306F000000F6
:1025600083A741941387F7FF23A2E19403A7419423
:10257000B7F601809307070093972700B387E7001A
:10258000939727001387063EB387E70083A70700CA
:10259000E38007FC03A74194930707009397270064
:1025A000B387E7009397270037F701801307073EAB
:1025B000B387E7002326F4FE8327C4FE83A74700E2
:1025C00003A747008327C4FE23A2E7008327C4FE96
:1025D00003A747008327C4FE93878700631CF70087
:1025E0008327C4FE83A7470003A747008327C4FEB1
:1025F00023A2E7008327C4FE83A7470003A7C700E1
:1026000023A6E192130000000324C101130101027B
:1026100067800000130101FE232E1100232C81008E
:10262000130401022326A4FEEF008021B7F70180E6
:1026300003A7073E9307100063F4E700EFF00FC312
:10264000EF3080616FF05FFE130101FC232E110259
:10265000232C810213040104232EA4FC232CB4FC9C
:10266000232AC4FC2328D4FC930707002317F4FC77
:10267000232604FE6F004004032784FD8327C4FE45
:10268000B307F700038707008326C4FD8327C4FE32
:10269000B387F600238AE702032784FD8327C4FE5D
:1026A000B307F70083870700638007028327C4FE10
:1026B000938717002326F4FE0327C4FE9307F00038
:1026C000E3FCE7FA6F008000130000008327C4FDDD
:1026D000A3810704032744FD9307400063F6E70046
:1026E00093074000232AF4FC8327C4FD032744FDFD
:1026F00023A6E7028327C4FD032744FD23A8E7049C
:102700008327C4FD23AA07048327C4FD93874700BA
:1027100013850700EFF04FBE8327C4FD9387870121
:1027200013850700EFF04FBD8327C4FD0327C4FDC9
:1027300023A8E70013075000832744FD3307F74021
:102740008327C4FD23ACE7008327C4FD0327C4FD12
:1027500023A2E7028327C4FD23A207048327C4FD25
:1027600023AC07048327C4FD23AE07041300000035
:102770008320C10303248103130101046780000047
:10278000130101FE232E1100232C810013040102EA
:10279000232604FE6F0080030327C4FE930707006F
:1027A00093972700B387E7009397270037F70180B7
:1027B0001307073EB387E70013850700EFF08FADDF
:1027C0008327C4FE938717002326F4FE0327C4FE45
:1027D00093074000E3F2E7FCB7F701801385474415
:1027E000EFF04FABB7F7018013858745EFF08FAA65
:1027F000B7F701801385C746EFF0CFA9B7F701807F
:1028000013850748EFF00FA9B7F7018013854749F3
:10281000EFF04FA837F701801307474423A8E19250
:1028200037F701801307874523AAE19213000000C0
:102830008320C1010324810113010102678000008C
:10284000130101FE232E1100232C81001304010229
:102850006F004007EFF09F92B7F7018083A707480A
:1028600093B7170093F7F70F2326F4FEEFF09F932B
:102870008327C4FE63980704EFE0DFD3B7F7018036
:102880009387074883A7C70083A7C7002324F4FEC4
:10289000832784FE9387470013850700EFF00FBE60
:1028A00083A7C1931387F7FF23AEE19283A7819398
:1028B0001387F7FF23ACE192EFE01FD3032584FEDB
:1028C000EF00801683A78193E39607F813000000BA
:1028D0008320C101032481011301010267800000EC
:1028E000130101FE232E1100232C81001304010289
:1028F0002326A4FE83A7C1920327C4FE23A2E700D8
:1029000083A701940327C4FE6370F70203A74193D2
:1029100083A7C1929387470093850700130507009B
:10292000EFF08FA86F00000303A7019383A7C19264
:10293000938747009385070013050700EFF0CFA6A4
:1029400083A7C1950327C4FE6376F7000327C4FE5F
:1029500023AEE194130000008320C1010324810110
:102960001301010267800000130101FD23261102FB
:10297000232481021304010393070500232CB4FCD4
:10298000231FF4FC832784FD639E07008357E4FD27
:102990009397270013850700EFE05F8B93070500EF
:1029A0006F008000832784FD2324F4FE832784FEA8
:1029B000638A070213050006EFE05F892326A4FE61
:1029C0008327C4FE638A07008327C4FE032784FE8F
:1029D00023A8E7026F004001032584FEEFE0DFA497
:1029E0006F008000232604FE8327C4FE6382070253
:1029F0008327C4FE03A707038357E4FD93972700AB
:102A0000138607009305500A13050700EFF08FB0F7
:102A10008327C4FE138507008320C102032481029B
:102A20001301010367800000130101FE232E110032
:102A3000232C8100130401022326A4FE8327C4FE55
:102A400083A7070313850700EFE01F9E0325C4FE3D
:102A5000EFE09F9D130000008320C101032481014A
:102A60001301010267800000130101FE232E810083
:102A70001304010283A7019383A70700639607004D
:102A8000930710006F008000930700006388070021
:102A90001307F0FF23AEE1946F00000283A70193B8
:102AA00083A7C70083A7C7002326F4FE8327C4FE9D
:102AB00003A7470023AEE194130000000324C101E3
:102AC0001301010267800000130101FE232E810023
:102AD0001304010283A7C1922326F4FE8327C4FEB8
:102AE000138507000324C101130101026780000060
:102AF000130101FD2326810213040103232EA4FCEC
:102B0000F32740F12326F4FE8327C4FE2324F4FE9A
:102B1000370700408327C4FD93D75700832684FEE0
:102B200093965600B386F600B71700009387078088
:102B3000B387F60093972700B307F70083A7070032
:102B40002322F4FE8327C4FD93F7F7011307100037
:102B5000B317F700032744FEB367F7002322F4FE00
:102B6000370700408327C4FD93D75700832684FE90
:102B700093965600B386F600B71700009387078038
:102B8000B387F60093972700B307F700032744FEA7
:102B900023A0E700130000000324C1021301010376
:102BA00067800000130101FE232E8100130401023F
:102BB0002326A4FE2324B4FE370700408327C4FE47
:102BC00093972700B307F700032784FE23A0E700AD
:102BD000130000000324C1011301010267800000FB
:102BE000130101FF23261100232481001304010196
:102BF000B70700901385C7FFEFE08FB0930705007C
:102C00009385070037050050EFE00FAF3705005000
:102C1000EFE00FAF13070500B717028023A0E7848A
:102C2000B717028083A7078413850700EF00001EF3
:102C30009307050093850700B70700501385070227
:102C4000EFE08FABB717028083A7078413850700D7
:102C5000EF00801E9307050093850700B70700501B
:102C600013850702EFE04FA9B77700001385777748
:102C7000EF00C023B7F701809387C75993850700FA
:102C8000B707005013854700EFE00FA7EF208060E3
:102C9000EF20D02FB7F7018023A40760B7F701809A
:102CA00023A8075E130000008320C10003248100D5
:102CB0001301010167800000130101FD23261102A9
:102CC0002324810213040103232EA4FC232604FEE3
:102CD0008327C4FE0327C4FDB307F70083870700DB
:102CE00093850700B707005013850702EFE0CFA0D8
:102CF0008327C4FE938717002326F4FE8327C4FE90
:102D00009387F7FF0327C4FDB307F7008387070006
:102D1000E39007FC130000008320C102032481021A
:102D20001301010367800000130101FE232E11002F
:102D3000232C8100130401022326A4FE8327C4FE52
:102D400093850700B707005013854702EFE0CF9A3D
:102D5000130000008320C10103248101130101023B
:102D600067800000130101FE232E1100232C810037
:102D7000130401022326A4FE2324B4FE0325C4FE6B
:102D8000EFF09FF3032584FEEFF01FFAB767008092
:102D90001385C7F5EFF05FF2130000008320C10137
:102DA000032481011301010267800000130101FE69
:102DB000232E1100232C8100130401022326A4FEDC
:102DC0002324B4FE2322C4FE2320D4FE0325C4FE04
:102DD000EFF09FEE032584FEEFF01FF5032544FE80
:102DE000EFF09FED032504FEEFF01FF4B7670080BE
:102DF0001385C7F5EFF05FEC130000008320C101DD
:102E0000032481011301010267800000130101FE08
:102E1000232E8100130401022326A4FE8327C4FE6F
:102E200093D7870093F7F70F138507000324C10199
:102E30001301010267800000130101FE232E8100AF
:102E4000130401022326A4FE8327C4FE93F7F70F81
:102E5000138507000324C1011301010267800000EC
:102E6000130101FE232E1100232C81001304010203
:102E70002326A4FE8325C4FEB70700501385470010
:102E8000EFE08F87B727000093852722B707005010
:102E900013858700EFE04F86130000008320C101F7
:102EA000032481011301010267800000130101FE68
:102EB000232E1100232C8100130401022326A4FEDB
:102EC0000327C4FEB727000093872722630AF70071
:102ED0000327C4FEB777000093877777631CF7005A
:102EE00013051000EFF0DFC093051000130510006C
:102EF000EFF05FCB0327C4FEB7370000938737336B
:102F0000630AF7000327C4FEB7770000938777773B
:102F1000631EF70013052000EFF09FBD930510001E
:102F200013052000EFF01FC813000000130000007D
:102F30008320C10103248101130101026780000085
:102F4000130101FF23261100232481001304010132
:102F5000B7670080138507F6EFF01FD6B7F701803B
:102F600083A7874A13850700EF20101FEF00500248
:102F7000B757000093855755B70700501385870052
:102F8000EFD09FF793070000138507008320C1004F
:102F9000032481001301010167800000130101FE79
:102FA000232E1100232C810013040102B7F70180A6
:102FB0009387C75983A7870013073003638EE712EF
:102FC00013073003636AF702130700026384E72CD8
:102FD000130700026368F700130700016388E72204
:102FE0006F00403A130710026386E73213070003AD
:102FF000638CE7066F000039130700206386E70241
:10300000130700206368F70013075003638AE71073
:103010006F004037130700406388E7121307104022
:10302000638EE7186F000036B7F701809387C759A2
:1030300003A7C700B7F701809387C75983A5070186
:10304000B7F701809387C75903A64701B7F70180F7
:103050009387C75983A78701938607001305070045
:10306000EF1040156F000034B7F701809387C75900
:1030700003A5C700B7F701809387C75983A5070148
:10308000B7F701809387C75903A64701B7F70180B7
:103090009387C75983A68701B7F701809387C759DC
:1030A00083A7C70113870700EF2080392326A4FEDA
:1030B000B70702800327C4FE9386476B9307070078
:1030C00093974700B387E74093973700B387F6009D
:1030D00083A7C70193850700B707005013854700F2
:1030E000EFD09FE1B7F701809387C75913073003EB
:1030F00023A4E7006F00002BB7F701809387C7591F
:1031000003A7C700B7F701809387C75983A7C701F3
:103110009385070013050700EF0080776F00802874
:10312000B7F701809387C75903A7C700B7F7018096
:103130009387C75983A7C701938507001305070025
:10314000EF10D04D6F000026B7F701809387C75965
:1031500003A7C700B7F701809387C75983A7C701A3
:103160009385070013050700EF2080492326A4FE5E
:103170000327C4FE9307070093974700B387E740F0
:103180009397370013870704B70702809387476B2D
:10319000B307F7009387C70093850700B707005070
:1031A00013854700EFD05FD5B7F701809387C759E4
:1031B0001307104023A4E7006F00C01EB7F701807B
:1031C0009387C75903A7C700B7F701809387C759EB
:1031D00083A7C7019385070013050700EF2040422E
:1031E0002326A4FE0325C4FEEF20804EB7F70180FE
:1031F0009387C75983A7C70093850700B7670080E7
:10320000138547F7EFF01FB66F00C019B76700804E
:10321000138547F8EFF05FAAB7F701809387C75986
:1032200003A7C700B7F701809387C75983A7C701D2
:103230009385070013050700EF0050562326A4FED0
:103240000327C4FE9307F0FF631EF702B7F7018060
:103250009387C75903A7C700B7F701809387C7595A
:1032600083A6C701B7F701809387C75983A7470192
:10327000138607009385060013050700EF00905A98
:103280006F0040128325C4FE37052020EF00003F69
:103290006F004011B7670080138547FAEFF0DFA198
:1032A000B7F701809387C75903A7C700B7F7018015
:1032B0009387C75983A74701938507001305070024
:1032C000EF2000342326A4FEB7F701809387C75967
:1032D0001307100223A4E7000327C4FE9307070087
:1032E00093974700B387E740939737001387070109
:1032F000B70702809387476BB307F70093874700B0
:1033000093850700B707005013854700EFD0DFBE55
:103310006F004009B7670080138547FCEFF0DF9925
:10332000B7F701809387C75903A74701B7F7018013
:103330009387C75983A7C700938507001305070024
:10334000EF20002C2326A4FE8327C4FE93850700CC
:10335000B7670080138587FEEFF0DFA0B706028015
:103360000327C4FE9307070093974700B387E740FE
:10337000939737001387466BB387E70023A80700AE
:103380006F004002B7F701809387C75983A7870072
:1033900093850700B7670080138587FFEFF09F9C38
:1033A00013000000B757000093855755B70700502A
:1033B0001385C700EFD05FB49307000013850700A3
:1033C0008320C101032481011301010267800000F1
:1033D000130101FD2326810213040103232EA4FC03
:1033E000232CB4FC8327C4FD83C70700A307F4FE86
:1033F000832784FD038707008327C4FD2380E7001C
:10340000832784FD0347F4FE2380E70013000000B8
:103410000324C1021301010367800000130101FEB0
:10342000232E1100232C8100130401022326A4FE65
:103430002324B4FE2322C4FE6F000004832784FEED
:10344000138717002324E4FE138707008327C4FE95
:10345000B386E700832744FE1387F7FF2322E4FEA9
:10346000138707008327C4FEB387E700938507000F
:1034700013850600EFF0DFF5032784FE832744FE63
:10348000E34EF7FA8327C4FE138507008320C101AA
:10349000032481011301010267800000130101FD73
:1034A000232611022324810213040103232EA4FCEA
:1034B000232CB4FC232AC4FC032744FD93071000EB
:1034C00063D8E700032744FD9307000263D6E700B3
:1034D000832784FD6F0040158327C4FD63DA07004E
:1034E0008327C4FDB307F0402326F4FE6F00C0001D
:1034F0008327C4FD2326F4FE232404FE6F00C009A5
:103500000327C4FE832744FDB367F7022322F4FE9A
:10351000032744FE9307900063DEE702832744FEFF
:1035200093F7F70F9387770393F6F70F832784FEBC
:10353000138717002324E4FE13870700832784FDE5
:10354000B387E70013978601135787412380E7006D
:103550006F008003832744FE93F7F70F93870703D9
:1035600093F6F70F832784FE138717002324E4FEC6
:1035700013870700832784FDB387E700139786012D
:10358000135787412380E7000327C4FE832744FDA8
:10359000B347F7022326F4FE8327C4FEE39207F61F
:1035A000832784FE63920702832784FE1387170014
:1035B0002324E4FE13870700832784FDB387E700F5
:1035C000130700032380E7008327C4FD63D80702A5
:1035D000032744FD9307A0006312F702832784FEAC
:1035E000138717002324E4FE13870700832784FD35
:1035F000B387E7001307D0022380E700832784FE08
:10360000032784FDB307F70023800700832784FE88
:103610009387F7FF1386070093050000032584FDB9
:10362000EFF0DFDF93070500138507008320C10259
:10363000032481021301010367800000130101FDCF
:103640002326810213040103232EA4FC232CB4FCA3
:10365000232604FE8327C4FD139787008327C4FE17
:103660003367F700832784FDB367F70013850700EE
:103670000324C1021301010367800000130101FE4E
:10368000232E1100232C8100130401022326A4FE03
:103690002324B4FEB7F7018083A687600327C4FE06
:1036A000832784FE3367F700B7F7018093962600DF
:1036B0009387075DB387F60023A0E700B7F7018083
:1036C00003A78760930770006318F700B7F70180BE
:1036D00023A407606F008001B7F7018083A787608C
:1036E00013871700B7F7018023A4E760EF00400AB3
:1036F000130000008320C101032481011301010292
:1037000067800000130101FE232E810013040102D3
:10371000B7F7018003A78760B7F7018083A7075F2A
:103720006316F700B70730306F008005B7F70180E8
:1037300003A7075FB7F70180131727009387075D7B
:10374000B307F70083A707002326F4FEB7F701802D
:1037500003A7075F930770006318F700B7F70180AE
:1037600023A8075E6F008001B7F7018083A7075F7A
:1037700013871700B7F7018023A8E75E8327C4FEED
:10378000138507000324C1011301010267800000B3
:10379000130101FE232E1100232C810013040102CA
:1037A000EFD05FE1B707005013858700EFD04FF5EA
:1037B000130705009307F00F6310F70CEFF09FF469
:1037C0002326A4FE0327C4FEB70730306306F70A9A
:1037D0000327C4FEB707FFFF3377F700B7071010C2
:1037E0006310F7040327C4FEB70701009387F7FFB0
:1037F0003377F7009307070093974700B387E740B5
:103800009397270037F701801307C74AB387E7006C
:103810009387870013850700EFF08FE46F000005A2
:103820000327C4FEB707FFFF3377F700B707202051
:10383000631EF7020327C4FEB70701009387F7FF53
:103840003377F7009307070093973700B387E700B4
:103850009397670037F701801307C760B387E700C6
:103860009387870013850700EFF08FDFB7F701809C
:103870000327C4FE23A4E74AEFD01FD7130000009C
:103880008320C1010324810113010102678000002C
:10389000130101FD232611022324810213040103D5
:1038A000232EA4FC232CB4FCEF2000012326A4FE2D
:1038B0000327C4FEB707FEFD9387D7DF6316F70023
:1038C00013051000EFE04FFA0327C4FEB707FEFD13
:1038D0009387D7DFE30AF7FCB7F701800327C4FE1D
:1038E0009386C74A9307070093974700B387E7403B
:1038F00093972700B387F6003707FFFE1307E7EF1C
:1039000023A2E7009305000013050000EFF01FD38A
:1039100013060500B7F701800327C4FE9386C74A44
:103920009307070093974700B387E74093972700D3
:10393000B387F60023A4C700B7F701800327C4FEAE
:103940009386C74A9307070093974700B387E740DA
:1039500093972700B387F6001307B00023A6E7006C
:10396000B7F701800327C4FE9386C74A9307070071
:1039700093974700B387E74093972700B387F600F4
:103980001307500323A8E700B7F701800327C4FEFD
:103990009386C74A9307070093974700B387E7408A
:1039A00093972700B387F6000327C4FD23AAE700F7
:1039B000B7F701800327C4FE9386C74A9307070021
:1039C00093974700B387E74093972700B387F600A4
:1039D000032784FD23A2E7028325C4FE37051010C8
:1039E000EFF0DFC9130000008320C102032481022D
:1039F0001301010367800000130101FD232611025A
:103A00002324810213040103232EA4FC232CB4FCE1
:103A1000EF1090602324A4FE032784FEB707FEFD69
:103A20009387D7DF6316F70013051000EFE0CFE3AD
:103A3000032784FEB707FEFD9387D7DFE30AF7FC71
:103A40008327C4FD2322F4FEEF1010102320A4FED0
:103A5000B7F70180032784FE9386C76093070700AA
:103A600093973700B387E70093976700B387F60013
:103A7000032704FE23A2E700B7060280032704FE03
:103A80009307070093974700B387E7409397170082
:103A9000032784FDB387E700938747011397270027
:103AA0009387466BB307F70083A60700B7F701803B
:103AB000032784FE1386C760930707009397370098
:103AC000B387E70093976700B307F60023A4D700F6
:103AD000832744FE83A707009386C700B7F70180BA
:103AE000032784FE1386C760930707009397370068
:103AF000B387E70093976700B307F60023A6D700C4
:103B0000B7F70180032784FE9386C76093070700F9
:103B100093973700B387E70093976700B387F60062
:103B20001307000223A8E700B7070280032704FE5B
:103B30009386476B9307070093974700B387E74047
:103B400093973700B387F60083A68700B7F7018005
:103B5000032784FE1386C7609307070093973700F7
:103B6000B387E70093976700B307F60023AAD7004F
:103B7000B7070280032704FE9386476B930707006D
:103B800093974700B387E74093973700B387F600D2
:103B900083A64700B7F70180032784FE1386C7601A
:103BA0009307070093973700B387E7009397670061
:103BB000B307F60023ACD700B7F70180032784FED4
:103BC0009386C7609307070093973700B387E70092
:103BD00093976700B387F600032784FD23AEE700C1
:103BE000832744FE83A60700B7F70180032784FEDE
:103BF0001386C7609307070093973700B387E700E2
:103C000093976700B307F60023AED7029307C0006F
:103C10002326F4FE6F00C0058327C4FE938707FFA9
:103C2000032744FE93972700B307F70083A64700B6
:103C300037F60180032784FE930707009397370028
:103C4000B387E700939747000327C4FEB387E700D5
:103C50009387C7001307C66093972700B307F70041
:103C600023A8D7008327C4FE938717002326F4FEDA
:103C7000832744FE83A707000327C4FEE36EF7F8FB
:103C8000B7060280032704FE9307070093974700B7
:103C9000B387E74093971700032784FDB387E700B6
:103CA000938787001387466B93972700B307F70026
:103CB00003A7470093071000631AF700832584FECB
:103CC00037052020EFF09F9B130000001300000039
:103CD0008320C102032481021301010367800000D5
:103CE000130101FD23261102232481021304010381
:103CF000232EA4FC232CB4FCEF1000652326A4FE85
:103D0000B70602800327C4FE930707009397470076
:103D1000B387E740939737001387466BB387E70075
:103D20001307100023A8E7008326C4FDB70702800D
:103D30000327C4FE1386476B93070700939747003A
:103D4000B387E74093973700B307F60023AAD7005D
:103D5000EF1090362324A4FE032784FEB707FEFD50
:103D60009387D7DF6316F70013051000EFE0CFAF9E
:103D7000032784FEB707FEFD9387D7DFE30AF7FC2E
:103D8000B7F70180032784FE9386C74A930707008D
:103D900093974700B387E74093972700B387F600D0
:103DA0003707FFFE1307E7EF23A2E700B7060280FD
:103DB0000327C4FE9307070093974700B387E740A4
:103DC00093971700032784FDB387E7009387470184
:103DD000139727009387466BB307F70083A6070066
:103DE000B7F70180032784FE1386C74A93070700AD
:103DF00093974700B387E74093972700B307F600F0
:103E000023A4D700B7F70180032784FE9386C74A0F
:103E10009307070093974700B387E74093972700DE
:103E2000B387F6001307B00023A6E700B7F70180B9
:103E3000032784FE9386C74A93070700939747009A
:103E4000B387E74093972700B387F6001307000175
:103E500023A8E700B70702800327C4FE9386476BB9
:103E60009307070093974700B387E740939737007E
:103E7000B387F60083A64700B7F70180032784FEC7
:103E80001386C74A9307070093974700B387E74015
:103E900093972700B307F60023AAD700B70702803D
:103EA0000327C4FE9386476B930707009397470049
:103EB000B387E74093973700B387F60083A6870060
:103EC000B7F70180032784FE1386C74A93070700CC
:103ED00093974700B387E74093972700B307F6000F
:103EE00023A2D702B7F70180032784FE9386C74A2F
:103EF0009307070093974700B387E74093972700FE
:103F0000B387F600032784FD23AEE700832584FEF4
:103F100037051010EFF08FF6B76700801385C704E0
:103F2000EFE09FD96F00C0020327C4FE9306000094
:103F3000B76700801386C70693050700B767008040
:103F400013854708EFE09FE613051000EFE0CF91DF
:103F5000B70602800327C4FE930707009397470024
:103F6000B387E740939737001387466BB387E70023
:103F700003A7070193071000E308F7FAB76700806B
:103F800013850709EFE05FD3130000008320C1020F
:103F9000032481021301010367800000130101FD66
:103FA0002326810213040103232EA4FC232CB4FC3A
:103FB000232604FE6F000005B7F7018003A7C76042
:103FC00093071000631AF702B7F701809387C76061
:103FD00083A74701032784FD6310F702B7F7018029
:103FE0009387C76083A7C7010327C4FD6316F70043
:103FF0008327C4FE6F0000028327C4FE9387170047
:104000002326F4FE0327C4FE93073000E3F6E7FA05
:104010009307F0FF138507000324C1021301010376
:1040200067800000130101FD232611022324810271
:1040300013040103232EA4FC232CB4FC232AC4FC68
:10404000832584FD032544FDEF10805B2326A4FE19
:10405000B70602800327C4FE930707009397470023
:10406000B387E740939717000327C4FDB387E700A2
:10407000938787001387466B93972700B307F70052
:104080001307100023A2E700130000008320C102E1
:10409000032481021301010367800000130101FE64
:1040A000232E1100232C810013040102EF10D000F5
:1040B0002326A4FE0327C4FEB707FEFD9387D7DFA0
:1040C0006316F70013051000EFD01FFA0327C4FE94
:1040D000B707FEFD9387D7DFE30AF7FCB7F7018048
:1040E0000327C4FE9386C74A9307070093974700A8
:1040F000B387E74093972700B387F6003707FFFEA3
:104100001307E7EF23A2E700930500001305000063
:10411000EFF0CFD213070500B7070400B366F7002E
:10412000B7F701800327C4FE1386C74A9307070029
:1041300093974700B387E74093972700B307F600AC
:1041400023A4D700B7F701800327C4FE9386C74A8C
:104150009307070093974700B387E740939727009B
:10416000B387F6001307B00023A6E700B7F7018076
:104170000327C4FE9386C74A930707009397470017
:10418000B387E74093972700B387F6001307001023
:1041900023A8E7008325C4FE37051010EFF00FCEEB
:1041A000130000008320C1010324810113010102D7
:1041B00067800000130101FD2326110223248102E0
:1041C00013040103232EA4FC232CB4FC232AC4FCD7
:1041D0002328D4FCEF00401C930705002326F4FE9F
:1041E000B70602800327C4FE9307070093972700B2
:1041F000B387E70093975700138746F3B387E70029
:104200001307100023A0E700B70702800327C4FEAE
:10421000938647F39307070093972700B387E70038
:1042200093975700B387F6000327C4FD23A2E70046
:10423000B70702800327C4FE938647F3930707005E
:1042400093972700B387E70093975700B387F6004B
:10425000032784FD23A4E700B70702800327C4FED9
:10426000938647F39307070093972700B387E700E8
:1042700093975700B387F600032744FD23A6E70072
:10428000B70602800327C4FE930707009397270011
:10429000B387E70093975700138746F3B387E70088
:1042A000032704FD23A8E700EFE0CF8513070500EF
:1042B000832784FDB306F700B70702800327C4FEF7
:1042C000138647F39307070093972700B387E70008
:1042D00093975700B307F60023A6D708B7060280C6
:1042E0000327C4FE9307070093972700B387E700CF
:1042F00093975700138746F3B387E70023A807086F
:10430000B70702800327C4FE938647F3930707008D
:1043100093972700B387E70093975700B387F6007A
:104320001307F0FF23AAE708B70702800327C4FE9C
:10433000938647F39307070093972700B387E70017
:1043400093975700B387F60023AC0708B70702809E
:104350000327C4FE938647F393070700939727002C
:10436000B387E70093975700B387F60023AE07089B
:104370008327C4FD93850700B76700801385470A2C
:10438000EFE05F9E130000008320C102032481023E
:104390001301010367800000130101FE232E810039
:1043A00013040102232604FE6F000004B7060280F6
:1043B0000327C4FE9307070093972700B387E700FE
:1043C00093975700138746F3B387E70083A7070047
:1043D000639607008327C4FE6F0000028327C4FE94
:1043E000938717002326F4FE0327C4FE9307B0002B
:1043F000E3DEE7FA9307F0FF138507000324C1010A
:104400001301010267800000130101FE232E8100C9
:1044100013040102232604FE6F004003B706028046
:104420000327C4FE9307070093972700B387E7008D
:1044300093975700138746F3B387E70023A007003D
:104440008327C4FE938717002326F4FE0327C4FEA8
:104450009307B000E3D4E7FC130000000324C1017C
:104460001301010267800000130101FE232E810069
:1044700013040102232404FE6F00C00E232204FE55
:104480006F00C00CB7060280032784FE9307070065
:1044900093971700B387E700032744FEB387E7002D
:1044A000139747009387867AB307F7001307101115
:1044B00023A0E700B7060280032784FE93070700C6
:1044C00093971700B387E700032744FEB387E700FD
:1044D0001387867A93974700B307F7001307803E48
:1044E00023A2E700232604FE6F00C004B706028063
:1044F000032784FE9307070093971700B387E7000D
:10450000032744FEB387E700139727008327C4FEE1
:10451000B307F7001387867A93972700B307F7004E
:104520001307F0FF23A4E7008327C4FE9387170037
:104530002326F4FE0327C4FE93071000E3D8E7FA0E
:10454000832744FE938717002322F4FE032744FEAB
:1045500093072000E3D8E7F2832784FE93871700B0
:104560002324F4FE032784FE93072000E3D8E7F01A
:10457000130000000324C101130101026780000041
:10458000130101FE232E810013040102232404FEE3
:10459000B707028023A2077A232604FE6F000007D4
:1045A000032784FE93073000B347F7021397870071
:1045B000832684FE93073000B3E7F602B367F70063
:1045C00093860700B70702800327C4FE131727004E
:1045D000938707F1B307F70023A0D700032784FED2
:1045E0009307600063CAE700832784FE9387270050
:1045F0002324F4FE6F00C000930710002324F4FE70
:104600008327C4FE938717002326F4FE0327C4FEE6
:1046100093078000E3D6E7F8130000000324C101EC
:104620001301010267800000130101FD232611021E
:10463000232481022322910213040103232EA4FCCC
:10464000232604FE6F008029B70602800327C4FEDC
:104650009307070093972700B387E70093975700C6
:10466000138746F3B387E70003A7070093071000FB
:104670006310F726B70702800327C4FE938647F32B
:104680009307070093972700B387E7009397570096
:10469000B387F60083A7C7080327C4FD636AF72220
:1046A000B70702800327C4FE938647F393070700EA
:1046B00093972700B387E70093975700B387F600D7
:1046C00083A6C708B70702800327C4FE138647F3F3
:1046D0009307070093972700B387E7009397570046
:1046E000B307F60083A747096384F61EB706028066
:1046F0000327C4FE9307070093972700B387E700BB
:1047000093975700138746F3B387E70083A4070105
:10471000EF0000459307050063EC971A232404FE7D
:104720006F00C013EF00C01D930705002322F4FEA5
:10473000832744FE0327C4FE832684FE13860600D7
:104740009305070013850700EF004030930705002D
:104750002320F4FE032704FE9307F0FF6314F70001
:104760006FF05FFC1300000037070280832784FE90
:104770008326C4FE130647F3138707001317170099
:104780003307F70093172700138707009387060066
:1047900093972700B387D70093975700B307F70085
:1047A000B307F6001307300023AAE700032644FEF0
:1047B00037070280832784FE8326C4FE930547F3D0
:1047C00013870700131717003307F7009317270005
:1047D000138707009387060093972700B387D700B6
:1047E00093975700B307F700B387F50023ACC700D2
:1047F000032604FE37070280832784FE8326C4FE37
:10480000930547F313870700131717003307F700C3
:1048100093172700138707009387060093972700B5
:10482000B387D70093975700B307F700B387F50016
:1048300023AEC7008327C4FE032784FE832644FEDD
:10484000138606009305070013850700EF0000425A
:10485000832784FE938717002324F4FEB706028083
:104860000327C4FE9307070093972700B387E70049
:1048700093975700138746F3B387E70003A7070111
:10488000832784FEE3E0E7EAB70702800327C4FE3C
:10489000938647F39307070093972700B387E700B2
:1048A00093975700B387F60083A6C708B70702801F
:1048B0000327C4FE138647F3930707009397270047
:1048C000B387E70093975700B307F60023AAD708EA
:1048D0008327C4FE938717002326F4FE0327C4FE14
:1048E0009307B000E3D2E7D6130000008320C10293
:1048F0000324810283244102130101036780000025
:10490000130101FE232E1100232C8100232A910084
:10491000130401029305000013050000EFE01FD20D
:104920002324A4FEB707028003A7477AB7070280B3
:1049300013172700938707F1B307F70083A4070035
:104940009305000013050000EFE05FCF930705001B
:10495000638AF408232604FE6F000008032584FE02
:10496000EFE0CFCA93040500032584FEEFE0CFCC2F
:10497000930605003707028093870400939717007A
:10498000B3879700B387D700939627008327C4FE89
:10499000B387F6001307877A93972700B307F700CA
:1049A00003A787009307F0FF6312F702B70702809F
:1049B00003A7477AB707028013172700938707F1E9
:1049C000B307F70083A707002324F4FE8327C4FE60
:1049D000938717002326F4FE0327C4FE93071000D5
:1049E000E3DEE7F6B707028083A7477A138717004D
:1049F000B707028023A2E77AB707028003A7477AA6
:104A0000930790006316F700B707028023A2077A86
:104A10009305000013050000EFE05FC213070500D7
:104A2000832784FE6394E7006FF0DFEF130000003C
:104A3000832784FE138507008320C101032481019D
:104A4000832441011301010267800000130101FD6D
:104A500023261102232481022322910223202103F1
:104A600013040103232EA4FC232CB4FC232AC4FC2E
:104A7000232604FE6F00000C0325C4FDEFE00FB9F0
:104A8000930405000325C4FDEFE00FBB930605006A
:104A9000370702809387040093971700B387970026
:104AA000B387D700939627008327C4FEB387F60009
:104AB0001307877A93972700B307F70003A78700A8
:104AC0009307F0FF6312F706832784FD9394070191
:104AD0000325C4FDEFE08FB3130905000325C4FDD2
:104AE000EFE08FB513060500832744FD33E7F4009C
:104AF000B70602809307090093971700B387270131
:104B0000B387C700139627008327C4FEB307F600B8
:104B10009386867A93972700B387F60023A4E7004D
:104B20008327C4FE6F0000028327C4FE938717000B
:104B30002326F4FE0327C4FE93071000E3DEE7F20A
:104B40009307F0FF138507008320C102032481022D
:104B5000832441020329010213010103678000003D
:104B6000130101FE232E1100232C8100232A910022
:104B700013040102232004FE232604FE6F00800C90
:104B8000232404FE6F00800A8327C4FE032784FECB
:104B90009305070013850700EFE05FAA9304050063
:104BA0009305000013050000EFE05FA993070500DF
:104BB0006388F406232204FE6F00C005B706028056
:104BC0000327C4FE9307070093971700B387E700F6
:104BD000032784FEB387E70013972700832744FE4B
:104BE000B307F7001387867A93972700B307F70078
:104BF00003A787009307F0FF6318F700832704FEDD
:104C0000938717002320F4FE832744FE9387170021
:104C10002322F4FE032744FE93071000E3D0E7FAB3
:104C2000832784FE938717002324F4FE032784FE42
:104C300093072000E3DAE7F48327C4FE9387170085
:104C40002326F4FE0327C4FE93072000E3DAE7F2ED
:104C5000832704FE138507008320C10103248101FB
:104C6000832441011301010267800000130101FD4B
:104C7000232611022324810213040103232EA4FC02
:104C8000232CB4FC232AC4FCEF0010432326A4FEEB
:104C90000327C4FEB707FEFD9387D7DF6316F7002F
:104CA00013051000EFD04FBC0327C4FEB707FEFD6D
:104CB0009387D7DFE30AF7FC8327C4FE93850700B9
:104CC000B76700801385870CEFE0CF89B7F70180C5
:104CD0000327C4FE9386C74A9307070093974700AC
:104CE000B387E74093972700B387F6003707FFFEA7
:104CF0001307E7EF23A2E700930500001305000068
:104D0000EFE0DF9313070500B7070400B366F70071
:104D1000B7F701800327C4FE1386C74A930707002D
:104D200093974700B387E74093972700B307F600B0
:104D300023A4D700B7F701800327C4FE9386C74A90
:104D40009307070093974700B387E740939727009F
:104D5000B387F6001307B00023A6E700B7F701807A
:104D60000327C4FE9386C74A93070700939747001B
:104D7000B387E74093972700B387F6001307000334
:104D800023A8E700B7F701800327C4FE9386C74A2C
:104D90009307070093974700B387E740939727004F
:104DA000B387F600032784FD23AAE700B7F7018045
:104DB0000327C4FE9386C74A9307070093974700CB
:104DC000B387E74093972700B387F6000327C4FD16
:104DD00023A2E702B7F701800327C4FE9386C74AE0
:104DE0009307070093974700B387E74093972700FF
:104DF000B387F600032744FD23ACE7028325C4FEF6
:104E000037051010EFE09F87130000008320C102D8
:104E1000032481021301010367800000130101FDD7
:104E2000232611022324810213040103232EA4FC50
:104E3000232CB4FC370702808327C4FD832684FD1E
:104E4000130647F313870700131717003307F700FC
:104E5000931727001387070093870600939727006F
:104E6000B387D70093975700B307F700B307F6004F
:104E70001307400023AAE700232604FE6F008005E5
:104E8000370702808327C4FE832684FD130647F379
:104E900013870700131717003307F700931727002E
:104EA000138707009387060093972700B387D700DF
:104EB00093975700B307F700B307F60003A747011E
:104EC00093074000631CF7068327C4FE93871700EF
:104ED0002326F4FEB7060280032784FD930707000C
:104EE00093972700B387E70093975700138746F3FC
:104EF000B387E70083A707010327C4FEE362F7F83F
:104F0000032784FD93061000B76700801386870E81
:104F100093050700B76700801385870FEFD01FE95F
:104F2000032584FDEF00C002B7670080138587105A
:104F3000EFD09FD8130000006F0080001300000026
:104F40008320C10203248102130101036780000052
:104F5000130101FD232611022324810213040103FE
:104F6000232EA4FC232604FE6F00C02EEF00D00ADF
:104F70002322A4FE032744FEB707FEFD9387D7DF55
:104F80006316F70013051000EFD00F8E032744FEC1
:104F9000B707FEFD9387D7DFE30AF7FCB7F7018079
:104FA000032744FE9386C760930707009397370053
:104FB000B387E70093976700B387F6003707FFFED4
:104FC0001307E7EF23A2E700370702808327C4FE19
:104FD0008326C4FD130647F3138707001317170032
:104FE0003307F700931727001387070093870600FE
:104FF00093972700B387D70093975700B307F7001D
:10500000B307F60083A68701B7F70180032744FEA4
:105010001386C7609307070093973700B387E700AD
:1050200093976700B307F60023A4D700B706028062
:105030000327C4FD9307070093972700B387E70072
:1050400093975700138746F3B387E70083A70701B9
:105050009386C700B7F70180032744FE1386C76015
:105060009307070093973700B387E700939767008C
:10507000B307F60023A6D700B7F70180032744FE45
:105080009386C7609307070093973700B387E700BD
:1050900093976700B387F6001307004023A8E70043
:1050A000B7F70180032744FE9386C7609307070084
:1050B00093973700B387E70093976700B387F600AD
:1050C0000327C4FE23AAE700B7F70180032744FEA5
:1050D0009386C7609307070093973700B387E7006D
:1050E00093976700B387F6000327C4FD23A2E70266
:1050F000B70602800327C4FD930707009397270094
:10510000B387E70093975700138746F3B387E70009
:1051100083A60701B7F70180032744FE1386C76003
:105120009307070093973700B387E70093976700CB
:10513000B307F60023AED702232404FE6F00400D10
:1051400037070280832784FE8326C4FD130647F3B6
:1051500013870700131717003307F700931727006B
:10516000138707009387060093972700B387D7001C
:1051700093975700B307F700B307F60083A687019C
:1051800037F60180032744FE930707009397370003
:10519000B387E70093974700032784FEB387E700B0
:1051A0009387C7001307C66093972700B307F700DC
:1051B00023A8D700832584FEB7F60180032744FE89
:1051C0009307070093973700B387E700939747004B
:1051D000032784FEB387E7009387C7001387C66061
:1051E00093972700B307F70083A70701938607006B
:1051F000B76700801386C712B7670080138547130F
:10520000EFD0DFBA832784FE938717002324F4FEB0
:10521000B70602800327C4FD930707009397270072
:10522000B387E70093975700138746F3B387E700E8
:1052300083A70701032784FEE364F7F0832544FE78
:1052400037052020EFE08FC38327C4FE9387170024
:105250002326F4FEB70602800327C4FD9307070048
:1052600093972700B387E70093975700138746F378
:10527000B387E70083A707010327C4FEE368F7CEDF
:10528000130000008320C1020324810213010103E3
:1052900067800000130101FE232E81001304010228
:1052A000232604FE6F008008B70602800327C4FE91
:1052B0009307070093974700B387E740939737001A
:1052C0001387466BB387E70023A00700232404FE5F
:1052D0006F004004B70602800327C4FE930707004F
:1052E00093974700B387E74093971700032784FEFF
:1052F000B387E700938787001387466B9397270050
:10530000B307F70023A20700832784FE93871700C3
:105310002324F4FE032784FE93079000E3FCE7FABE
:105320008327C4FE938717002326F4FE0327C4FEB9
:1053300093071000E3FAE7F6130000000324C1010D
:105340001301010267800000130101FE232E1100EA
:10535000232C810013040102EFD00FF72324A4FEB5
:10536000232604FE232604FE6F004004B7070280B4
:105370000327C4FE9386476B930707009397470064
:10538000B387E74093973700B387F60083A7C7003A
:10539000032784FE6316F7008327C4FE6F00000214
:1053A0008327C4FE938717002326F4FE0327C4FE39
:1053B00093071000E3FCE7FA9307F0FF138507005B
:1053C0008320C101032481011301010267800000D1
:1053D000130101FE232E810013040102232604FE83
:1053E0006F000004B70602800327C4FE930707007E
:1053F00093974700B387E740939737001387466B2F
:10540000B387E70083A70700639607008327C4FEDE
:105410006F0000028327C4FE938717002326F4FE43
:105420000327C4FE93071000E3FEE7FA9307F0FF9B
:10543000138507000324C1011301010267800000E6
:10544000130101FC232E1102232C810213040104F9
:10545000232EA4FC232CB4FC232AC4FC2328D4FC34
:105460002326E4FCEFF0DFF62326A4FEB706028035
:105470000327C4FE9307070093974700B387E740CD
:10548000939737001387466BB387E7001307200015
:1054900023A0E700B70602800327C4FE9307070096
:1054A00093974700B387E740939737001387466B7E
:1054B000B387E70023A80700B70702800327C4FECD
:1054C0009386476B9307070093974700B387E7409E
:1054D00093973700B387F6000327C4FD23A2E700A4
:1054E000B70702800327C4FE9386476B9307070024
:1054F00093974700B387E74093973700B387F60049
:105500000327C4FC23A4E700032784FD832744FD6D
:10551000B307F70093962700B70702800327C4FE5E
:105520001386476B9307070093974700B387E740BD
:1055300093973700B307F60023ACD700B707028074
:105540000327C4FE9386476B930707009397470092
:10555000B387E74093973700B387F60083A78701A7
:1055600013850700EFB09FCE930705001386070051
:10557000B70702800327C4FE9386476B9307070093
:1055800093974700B387E74093973700B387F600B8
:1055900023AEC700B70702800327C4FE9386476B7C
:1055A0009307070093974700B387E7409397370027
:1055B000B387F60003A7C701832704FD939727004D
:1055C000B306F700370602800327C4FE93070700DF
:1055D00093974700B387E740939737001307466BCD
:1055E000B387E70023A0D7028327C4FE13850700F3
:1055F0008320C10303248103130101046780000099
:10560000130101FD2326810213040103232EA4FCB0
:10561000232CB4FC232604FE6F008009B707028008
:105620000327C4FE9386476B9307070093974700B1
:10563000B387E74093973700B387F60083A7470007
:105640000327C4FD6310F706B70702800327C4FED3
:105650009386476B9307070093974700B387E7400C
:1056600093973700B387F60083A78700032784FD4D
:10567000631AF702B70602800327C4FE93070700E8
:1056800093974700B387E740939737001387466B9C
:10569000B387E70083A70700638607008327C4FE5C
:1056A0006F0000028327C4FE938717002326F4FEB1
:1056B0000327C4FE93079000E3F2E7F69307F0FF99
:1056C000138507000324C102130101036780000052
:1056D000130101FE232E1100232C8100130401026B
:1056E0002326A4FEB70602800327C4FE9307070003
:1056F00093974700B387E740939737001387466B2C
:10570000B387E7001307100023A0E700B706028065
:105710000327C4FE9307070093974700B387E7402A
:10572000939737001387466BB387E70083A7070279
:10573000138507000327C4FE9307070093974700CC
:10574000B387E74093973700370702801307476B0B
:10575000B387E7009387C700930800001308000091
:10576000130710009306000013060040B765008081
:105770009385C513EFC08FED130000008320C10196
:10578000032481011301010267800000130101FE5F
:10579000232E810013040102232604FE6F0000065D
:1057A000B7F601800327C4FE9307070093973700DD
:1057B000B387E700939767001387C660B387E70056
:1057C0001307F0FF23A0E700B7F601800327C4FE0C
:1057D0009307070093974700B387E7409397270005
:1057E0001387C64AB387E7001307F0FF23A0E7003B
:1057F0008327C4FE938717002326F4FE0327C4FEE5
:1058000093073000E3DEE7F8130000000324C10132
:105810001301010267800000130101FE232E8100A5
:1058200013040102232604FE6F00C006B7F60180B0
:105830000327C4FE9307070093973700B387E70059
:10584000939767001387C660B387E70003A7070035
:105850009307F0FF631AF702B7F601800327C4FE2F
:105860009307070093973700B387E7009397670084
:105870001387C660B387E7001307100023A0E70073
:105880008327C4FE6F0040028327C4FE938717005E
:105890002326F4FE0327C4FE93073000E3D8E7F87D
:1058A000B707FEFD9387D7DF138507000324C101E7
:1058B0001301010267800000130101FE232E810005
:1058C00013040102232604FE6F00C006B7F6018010
:1058D0000327C4FE9307070093974700B387E74069
:1058E000939727001387C64AB387E70003A70700EB
:1058F0009307F0FF631AF702B7F601800327C4FE8F
:105900009307070093974700B387E74093972700D3
:105910001387C64AB387E7001307100023A0E700E8
:105920008327C4FE6F0040028327C4FE93871700BD
:105930002326F4FE0327C4FE93073000E3D8E7F8DC
:10594000B707FEFD9387D7DF138507000324C10146
:105950001301010267800000130101FD232681026B
:1059600013040103232EA4FC0327C4FDB707FFFF84
:10597000B377F7002326F4FE0327C4FDB707010021
:105980009387F7FFB377F7002324F4FE0327C4FEC1
:10599000B70710106318F702B7F60180032784FEDB
:1059A0009307070093974700B387E7409397270033
:1059B0001387C64AB387E7001307F0FF23A0E70069
:1059C0006F000003B7F60180032784FE93070700EA
:1059D00093973700B387E700939767001387C660F4
:1059E000B387E7001307F0FF23A0E70013000000D0
:1059F0000324C1021301010367800000130101FEAB
:105A0000232E810013040102F32740F12324F4FE26
:105A1000832784FE2322F4FE232604FE6F00C003A6
:105A200037070040832744FE939657008327C4FE20
:105A3000B386F600B717000093870780B387F60098
:105A400093972700B307F70023A007008327C4FE1E
:105A5000938717002326F4FE8327C4FEE38207FC06
:105A6000232604FE6F004002370700408327C4FE50
:105A700093972700B307F70023A007008327C4FEEE
:105A8000938717002326F4FE0327C4FE9307E00143
:105A9000E3FCE7FC37070040832744FE9387072099
:105AA0009397C700B307F70023A00700B7170000BC
:105AB00093870780F3A747302320F4FE13000000EC
:105AC0000324C1011301010267800000130101FDDD
:105AD000232611022324810213040103EFF01FF295
