:0200000480007A
:100000006F00C0006F0000006F00800297020000C8
:1000100093824202739052307350003073504030DC
:1000200093810100171104001301C1606F00401893
:10003000130101F823201100232221002324310081
:100040002326410023285100232A6100232C71001C
:10005000232E8100232091022322A1022324B10216
:100060002326C1022328D102232AE102232CF102F4
:10007000232E0103232011052322210523243105EA
:100080002326410523285105232A6105232C7105C8
:10009000232E8105232091072322A1072324B107C2
:1000A0002326C1072328D107232AE107232CF107A0
:1000B000F3221034232E510673252034F3251034F7
:1000C00013060100EF00806C73101534B722000096
:1000D0009382028073A0023083200100032141003B
:1000E000832181000322C1008322010103234101F6
:1000F000832381010324C1018324010203254102DA
:10010000832581020326C1028326010303274103BD
:10011000832781030328C1038328010403294104A1
:1001200083298104032AC104832A0105032B410585
:10013000832B8105032CC105832C0106032D410669
:10014000832D8106032EC106832E0107032F41074D
:10015000832F810713010108730020300000000085
:10016000130101FD2326810213040103232EA4FCA5
:10017000232CB4FC8327C4FD2326F4FE6F008001EA
:100180008327C4FE23A007008327C4FE938747006C
:100190002326F4FE0327C4FE832784FDE3F2E7FE53
:1001A000130000000324C102130101036780000053
:1001B000130101FE232E1100232C810013040102E0
:1001C000B7770080938707822326F4FE8327C4FE37
:1001D0002320F4FE232204FE232404FE93850197AA
:1001E00013850190EFF0DFF7B7170280938507635F
:1001F00013850197EFF0DFF6930704FE9385070060
:1002000013051000EF60802D130000008320C10152
:10021000032481011301010267800000130101FF23
:100220002326810013040101130000000324C100F0
:100230001301010167800000130101FD23268102E3
:1002400013040103232EA4FCF32740F12326F4FE1C
:100250008327C4FE2324F4FE370700408327C4FD10
:1002600093D75700832684FE93965600B386F600F4
:10027000B717000093870780B387F600939727008E
:10028000B307F70083A707002322F4FE8327C4FDEA
:1002900093F7F70113071000B317F70093C7F7FFA1
:1002A000032744FEB377F7002322F4FE370700400C
:1002B0008327C4FD93D75700832684FE9396560068
:1002C000B386F600B717000093870780B387F60060
:1002D00093972700B307F700032744FE23A0E70006
:1002E000130000000324C102130101036780000012
:1002F000130101FE232E810013040102F32740F1B4
:100300002326F4FE8327C4FE2324F4FE370700408F
:10031000832784FE938707209397C700B307F700CE
:1003200083A74700138507000324C10113010102BD
:1003300067800000130101FD2326810213040103DD
:10034000232EA4FCF32740F12326F4FE8327C4FECA
:100350002324F4FE37070040832784FE9387072079
:100360009397C700B307F7000327C4FD23A2E70054
:10037000130000000324C102130101036780000081
:10038000130101FE232E810013040102F3670430E0
:100390002326F4FE130000000324C101130101020F
:1003A00067800000130101FE232E1100232C810021
:1003B0001304010293070008F3B747302326F4FE25
:1003C000EF10004C37070044B7C70000B307F70031
:1003D00003A8C7FF83A787FF83A5019003A64190C9
:1003E00037050044732740F12324E4FE832884FE6C
:1003F000B386B700138306003333F3003307C80016
:10040000B307E3001387070093870600130807006C
:1004100037170000130707803387E80013173700EA
:100420003307E5002320F700232207019307000884
:10043000F3A747302322F4FE130000008320C101FC
:10044000032481011301010267800000130101FEF2
:10045000232E1100232C810013040102EFF05FE929
:100460002326A4FEA30504FEB77700800327C4FE5D
:1004700013172700938707EAB307F70083A707003E
:10048000E780070093070500A305F4FE0325C4FEDB
:10049000EFF05FEA0347B4FE930710006316F7001E
:1004A0000325C4FEEFF05FD9130000008320C101D3
:1004B000032481011301010267800000130101FF81
:1004C000232611002324810013040101EF10404C66
:1004D000B707004423A00700130000008320C100D9
:1004E000032481001301010167800000130101FD55
:1004F0002326110223248102232221031304010352
:1005000013090000130901009307090093874707A7
:100510002326F4FE8327C4FE83A707002324F4FECA
:1005200093070900938787072326F4FE8327C4FED9
:1005300083A707002322F4FE930709009387C707C8
:100540002326F4FE8327C4FE83A707002320F4FE9E
:1005500093070900938707082326F4FE8327C4FE28
:1005600083A70700232EF4FC93070900938747080D
:100570002326F4FE8327C4FE83A70700232CF4FC64
:1005800093070900938787082326F4FE8327C4FE78
:1005900083A70700232CF4FC93070900938707091E
:1005A0002326F4FE8327C4FE83A70700232AF4FC36
:1005B000832744FD938767FF130780036366F71261
:1005C00013972700B77700809387878AB307F700D0
:1005D00083A7070067800700B777008013858782AD
:1005E000EF20407B832784FE93850700B777008048
:1005F00013850785EF20D004832744FE93850700E9
:10060000B777008013858785EF209003832704FE4A
:1006100093850700B777008013850786EF20500287
:100620008327C4FD93850700B777008013858786ED
:10063000EF201001832784FD93850700B7770080A2
:1006400013850787EF20C07F832744FD938507002C
:10065000B777008013858787EF20807E6F00401179
:10066000832784FE13850700EF20C072832784FE52
:1006700093850700B717028013858761EF0010325A
:100680006F00000F832784FE13850700EF2080771B
:10069000032784FE1306A000B707028093858720F6
:1006A00013050700EF304000B707028093858720CD
:1006B000B717028013858761EF00502E6F00400B43
:1006C000832544FE032584FEEF30C0546F00400AAA
:1006D000832544FE032584FEEF30D01D6F004009C2
:1006E000EF50807E6F00C008B777008013850788C1
:1006F000EF20406A832784FE93850700B777008048
:1007000013850785EF20C073832744FE9385070078
:10071000B777008013858785EF208072832704FEDA
:1007200093850700B777008013850786EF20407117
:100730008327C4FD93850700B777008013858786DC
:10074000EF200070832784FD93850700B777008032
:1007500013850787EF20C06E832744FD938507002C
:10076000B777008013858787EF20806D1300000026
:100770009307A002138507008320C102032481028E
:10078000032941021301010367800000130101FEE8
:10079000232E1100232C8100130401022326A4FE22
:1007A0002324B4FE0327C4FE9307B0006304F702BA
:1007B0000327C4FE9307A000630EF7000327C4FEBF
:1007C000930790006308F7000327C4FE9307800097
:1007D000631CF700EFF09FD1832784FE93874700C7
:1007E0002324F4FE6F00C0098327C4FE63D20702EE
:1007F0000327C4FEB707008093C7F7FF3377F700DE
:100800009307B0006316F700EFF05FC46F00400776
:100810008327C4FE63D207020327C4FEB707008004
:1008200093C7F7FF3377F700930770006316F7005D
:10083000EFF05FB76F00C0048327C4FE63D20702E6
:100840000327C4FEB707008093C7F7FF3377F7008D
:10085000930730006316F700EFF05FC66F004002A9
:1008600013065000B77700809385078A13051000A0
:10087000EF5050738327C4FE13850700EF00404CF0
:10088000832784FE138507008320C101032481018F
:100890001301010267800000130101FF232681007C
:1008A0001304010193070000138507000324C1000E
:1008B0001301010167800000130101FF232681005D
:1008C0001304010193070000138507000324C100EE
:1008D0001301010167800000130101FF232681003D
:1008E0001304010193070000138507000324C100CE
:1008F0001301010167800000130101FF232681001D
:100900001304010193070000138507000324C100AD
:100910001301010167800000130101FF23268100FC
:100920001304010193070000138507000324C1008D
:100930001301010167800000130101FF23268100DC
:100940001304010193070000138507000324C1006D
:100950001301010167800000130101FF23268100BC
:100960001304010193070000138507000324C1004D
:100970001301010167800000130101FF232681009C
:100980001304010193070000138507000324C1002D
:100990001301010167800000130101FF232681007C
:1009A0001304010193070000138507000324C1000D
:1009B0001301010167800000130101FF232681005C
:1009C0001304010193070000138507000324C100ED
:1009D0001301010167800000130101FF232681003C
:1009E0001304010193070000138507000324C100CD
:1009F0001301010167800000130101FF232681001C
:100A00001304010193070000138507000324C100AC
:100A10001301010167800000130101FF23268100FB
:100A20001304010193070000138507000324C1008C
:100A30001301010167800000130101FF23268100DB
:100A40001304010193070000138507000324C1006C
:100A50001301010167800000130101FF23268100BB
:100A60001304010193070000138507000324C1004C
:100A70001301010167800000130101FF232681009B
:100A80001304010193070000138507000324C1002C
:100A90001301010167800000130101FF232681007B
:100AA0001304010193070000138507000324C1000C
:100AB0001301010167800000130101FF232681005B
:100AC0001304010193070000138507000324C100EC
:100AD0001301010167800000130101FF232681003B
:100AE0001304010193070000138507000324C100CC
:100AF0001301010167800000130101FF232681001B
:100B00001304010193070000138507000324C100AB
:100B10001301010167800000130101FF23268100FA
:100B20001304010193070000138507000324C1008B
:100B30001301010167800000130101FF23268100DA
:100B40001304010193070000138507000324C1006B
:100B50001301010167800000130101FF23268100BA
:100B60001304010193070000138507000324C1004B
:100B70001301010167800000130101FF232681009A
:100B80001304010193070000138507000324C1002B
:100B90001301010167800000130101FF232681007A
:100BA0001304010193070000138507000324C1000B
:100BB0001301010167800000130101FF232681005A
:100BC0001304010193070000138507000324C100EB
:100BD0001301010167800000130101FF232681003A
:100BE0001304010193070000138507000324C100CB
:100BF0001301010167800000130101FF232681001A
:100C00001304010193070000138507000324C100AA
:100C10001301010167800000130101FF23268100F9
:100C20001304010193070000138507000324C1008A
:100C30001301010167800000130101FF23268100D9
:100C40001304010193070000138507000324C1006A
:100C50001301010167800000130101FD2326110229
:100C60002324810213040103232EA4FC232CB4FCAF
:100C700013062000B77700809385C7980325C4FD2D
:100C8000EF50503293078000A307F4FE6F008009F5
:100C90008347F4FE9387F7FF2307F4FE8347E4FEC0
:100CA000939727001307F000B317F7001387070087
:100CB000832784FD3377F7008347E4FE939727006B
:100CC000B357F700A306F4FE0347D4FE9307900042
:100CD00063EEE7008347D4FE9387070393F7F70F8C
:100CE0009397870193D787416F0080018347D4FE94
:100CF0009387770393F7F70F9397870193D78741EC
:100D00002306F4FE9307C4FE130610009385070024
:100D10000325C4FDEF5010298347F4FE9387F7FFA6
:100D2000A307F4FE8347F4FEE39407F613000000E4
:100D30008320C102032481021301010367800000A4
:100D4000130101FD23261102232481021304010350
:100D5000232EA4FCB7770080938707992326F4FEFF
:100D60000325C4FEEF1080099307050013860700D2
:100D70008325C4FE13052000EF50D0228327C4FD35
:100D80009385070013052000EFF01FED6F000000B2
:100D9000130101FE232E8100130401022326A4FE69
:100DA0000327C4FE930710006308F7000327C4FE5F
:100DB000930720006316F700930710006F004001AF
:100DC000B71702801307900023A8E7B2930700002B
:100DD000138507000324C10113010102678000008D
:100DE000130101FE232E8100130401022326A4FE19
:100DF000B71702800327C4FE23A8E7B29307F0FFCA
:100E0000138507000324C10113010102678000005C
:100E1000130101FD2326110223248102130401037F
:100E2000232EA4FC232CB4FC232AC4FC832784FD9A
:100E30002324F4FE0325C4FDEFF09FF5930705007E
:100E4000638C070883A70191639007029306100043
:100E50001306C002B715007013858190EF0040178C
:100E60001307100023A8E190232604FE6F008005DD
:100E7000032784FE8327C4FEB307F7001306100080
:100E80009385070013858190EF000026032784FED9
:100E90008327C4FEB307F70003C707009307A0002A
:100EA000631CF70013061000B77700809385079B3B
:100EB00013858190EF0040238327C4FE938717009A
:100EC0002326F4FE0327C4FE832744FDE362F7FADA
:100ED000832744FD6F00000113059000EFF05FF0E1
:100EE00093070500138507008320C10203248102B4
:100EF00013010103678000002320B5006780000014
:100F00000325050067800000138E0600331EBE0017
:100F1000337ECE00032305009303060093C3F3FF43
:100F2000337373003363C3012320650067800000BF
:100F3000032505003375C5003355B50067800000F3
:100F40002310B500678000000315050067800000CE
:100F5000138E0600331EBE00337ECE000313050041
:100F60009303060093C3F3FF337373003363C3012A
:100F70002310650067800000031505003375C50068
:100F80003355B500678000002300B500678000007E
:100F90000305050067800000138E0600331EBE00A7
:100FA000337ECE00030305009303060093C3F3FFD3
:100FB000337373003363C30123006500678000004F
:100FC000030505003375C5003355B5006780000083
:100FD000130101FD232611022324810213040103BE
:100FE000232EA4FC232CB4FC9307060013870600D1
:100FF000231BF4FC93070700A30AF4FC8327C4FD1A
:10100000638A070C034754FD9307700063E4E70C01
:10101000035764FDB7270000637EF70A832784FD2A
:1010200013878700835764FD93F7F70F93850700B5
:1010300013050700EFF05FF5832784FD9386C70053
:10104000034754FD835764FD93D7574093F7877F39
:10105000B367F7009385070013850600EFF0DFF212
:101060008327C4FD032784FD23A0E7008327C4FD55
:1010700083A707009387070113850700EFF05FF14F
:101080009307050093F72700A307F4FE6F00800382
:101090008327C4FD83A707009387470013850700B4
:1010A000EFF01FEF8327C4FD83A707009387070195
:1010B00013850700EFF0DFED9307050093F7270096
:1010C000A307F4FE8347F4FEE39407FC8327C4FDE3
:1010D00023820700130000008320C1020324810241
:1010E0001301010367800000130101FD2326110293
:1010F0002324810213040103232EA4FC232CB4FC1B
:10110000232AC4FC8327C4FD63800708832784FD4A
:10111000638C0706832744FD63880706232604FEA5
:101120006F00C0058327C4FD83A7070093870701CD
:1011300013850700EFF0DFE59307050093F717002D
:10114000A305F4FE8347B4FEE38E07FC8327C4FDAA
:1011500083A60700032784FD8327C4FEB307F70097
:1011600083C707009385070013850600EFF0DFE1D2
:101170008327C4FE938717002326F4FE0327C4FEAB
:10118000832744FDE360F7FA130000008320C102C7
:10119000032481021301010367800000130101FD94
:1011A000232611022324810213040103232EA4FC0D
:1011B000232CB4FC8327C4FD63800708832784FDA8
:1011C000638C0706232604FE6F00C0058327C4FD39
:1011D00083A707009387070113850700EFF05FDB04
:1011E0009307050093F71700A305F4FE8347B4FEA9
:1011F000E38E07FC8327C4FD83A60700032784FD35
:101200008327C4FEB307F70083C707009385070051
:1012100013850600EFF05FD78327C4FE938717007E
:101220002326F4FE032784FD8327C4FEB307F700BB
:1012300083C70700E39C07F8130000008320C10266
:10124000032481021301010367800000130101FCE4
:10125000232E1102232C8102130401042326A4FC53
:10126000232204FEEF00507F83A74192639807007A
:10127000EF0040281307100023A2E1928327C4FC4B
:10128000638A070293078000138707008327C4FC43
:10129000B387E7002326F4FC8327C4FC93F73700C9
:1012A000638A07008327C4FC93F7C7FF938747002F
:1012B0002326F4FC8327C4FC638407140327C4FC9F
:1012C000B79701009387B7FF63ECE71293874191CB
:1012D0002324F4FE83A741912326F4FE6F008001AE
:1012E0008327C4FE2324F4FE8327C4FE83A70700BC
:1012F0002326F4FE8327C4FE83A747000327C4FCEC
:1013000063F8E7008327C4FE83A70700E39A07FC7E
:101310000327C4FE9387C1916304F70E832784FEDD
:1013200083A7070013078000B387E7002322F4FE9A
:101330008327C4FE03A70700832784FE23A0E700BA
:101340008327C4FE03A747008327C4FCB307F740E5
:1013500013078000131717006376F7080327C4FEEE
:101360008327C4FCB307F700232EF4FC8327C4FEB5
:1013700003A747008327C4FC3307F7408327C4FD36
:1013800023A2E7008327C4FE0327C4FC23A2E700AF
:101390008327C4FD83A74700232CF4FC9387419146
:1013A0002320F4FE6F000001832704FE83A70700BB
:1013B0002320F4FE832704FE83A7070083A74700AA
:1013C000032784FDE3E2E7FE832704FE03A707006B
:1013D0008327C4FD23A0E700832704FE0327C4FD61
:1013E00023A0E700B777008003A707E88327C4FEA0
:1013F00083A747003307F740B777008023A0E7E8CB
:10140000EF001068832744FE63940700EF50C0216B
:10141000832744FE138507008320C103032481032F
:101420001301010467800000130101FD232611024E
:101430002324810213040103232EA4FC8327C4FD6B
:101440002324F4FE8327C4FD638C070893078000E0
:10145000B307F040032784FEB307F7002324F4FE0C
:10146000832784FE2322F4FEEF00105F832744FECF
:1014700083A747002320F4FE938741912326F4FE9F
:101480006F0000018327C4FE83A707002326F4FE14
:101490008327C4FE83A7070083A74700032704FE12
:1014A000E3E2E7FE8327C4FE03A70700832744FE89
:1014B00023A0E7008327C4FE032744FE23A0E70000
:1014C000832744FE03A74700B777008083A707E878
:1014D0003307F700B777008023A0E7E8EF00505A02
:1014E000130000008320C1020324810213010103C1
:1014F00067800000130101FE232E81001304010206
:10150000B7770080938747FF93F7C7FF2326F4FE42
:101510000327C4FE23AAE1909387419123A20700E9
:101520009387C191379701001307C7FF23A2E700F4
:1015300023AE01908327C4FE2324F4FE832784FE78
:10154000379701001307C7FF23A2E700832784FE14
:101550001387C19123A0E700130000000324C101F9
:101560001301010267800000130101FE232E810098
:1015700013040102F32740F12326F4FE8327C4FE5F
:101580002324F4FEF36744302322F4FE370700449B
:10159000832784FE93972700B307F70013071000F3
:1015A00023A0E700130000000324C101130101027E
:1015B00067800000130101FF23268100130401014D
:1015C00073700430B777008083A747E8138717004C
:1015D000B777008023A2E7E8130000000324C100CE
:1015E0001301010167800000130101FF2326810020
:1015F00013040101B777008083A747E81387F7FF3B
:10160000B777008023A2E7E8B777008083A747E891
:101610006394070073600430130000000324C100CA
:101620001301010167800000130101FE232E8100D8
:101630001304010237760080032686E8032606009D
:101640002324C4FE232604FE37760080032686E882
:1016500003264600930606001307000013980600B1
:1016600093070000032784FE3367F7002324E4FE7A
:101670000327C4FEB36707012326F4FE832684FEF6
:101680000327C4FEB7450100938585431306000078
:10169000B387B600138507003335D5003308C7007C
:1016A00033070501130807002324F4FE232604FF53
:1016B000B777008083A7C7E8032784FE23A0E7004D
:1016C0008327C4FE13D3070093030000B77700807D
:1016D00083A7C7E81307030023A2E70093070008C6
:1016E00073A04730130000000324C101130101025D
:1016F00067800000130101FE232E81001304010204
:1017000037760080032686E8032606002324C4FEDD
:10171000232604FE37760080032686E8032646004B
:1017200093060600130700001398060093070000B5
:10173000032784FE3367F7002324E4FE0327C4FE57
:10174000B36707012326F4FE832684FE0327C4FE25
:10175000B74501009385854313060000B387B600A3
:10176000138507003335D5003308C700330705015B
:10177000130807002324F4FE232604FFB777008014
:1017800083A7C7E8032784FE23A0E7008327C4FEBE
:1017900013D3070093030000B777008083A7C7E83F
:1017A0001307030023A2E7009307000873A0473044
:1017B000130000000324C10113010102678000002F
:1017C000130101FF2326810013040101B777008074
:1017D00003A747E89307F0FF6306F7007370043030
:1017E0006F000000737004306F000000130101FEF1
:1017F000232E8100130401022326A4FE2324B4FE19
:101800002322C4FE8327C4FE9387C7FF2326F4FE4A
:10181000032784FE8327C4FE23A0E7008327C4FE9A
:10182000938787FA2326F4FE032744FE8327C4FE0A
:1018300023A0E7008327C4FE938787FE2326F4FEB8
:1018400093870100138707008327C4FE23A0E700C6
:101850008327C4FE938747FF2326F4FEB717008033
:101860001387077C8327C4FE23A0E7008327C4FED9
:10187000138507000324C1011301010267800000E2
:10188000130101FF23261100232481001304010109
:1018900083A2C19223A0C200EFF01FD9EF00D0377E
:1018A0009307050063840700EF00D05503A1C192A0
:1018B000032101008322C1077390123483200100A9
:1018C0000322C100832201010323410183238101FB
:1018D0000324C101832401020325410283258102DF
:1018E0000326C102832601030327410383278103C3
:1018F0000328C103832801040329410483298104A7
:10190000032AC104832A0105032B4105832B81058A
:10191000032CC105832C0106032D4106832D81066E
:10192000032EC106832E0107032F4107832F810752
:101930001301010873002030130000008320C10050
:10194000032481001301010167800000130101FFDE
:10195000232611002324810013040101EFF09FD9F5
:10196000B777008023A207E81307100023A4E192B1
:10197000EFE01FA1EFF05FBF9307000013850700A2
:101980008320C1000324810013010101678000004E
:10199000130101FF232611002324810013040101F8
:1019A00003A78192930710006318F7001307200024
:1019B00023A4E1926F00000183A2C19223A0C20080
:1019C000EF005044B707004423A0070003A1C192D1
:1019D000032101008322C107739012348320010088
:1019E0000322C100832201010323410183238101DA
:1019F0000324C101832401020325410283258102BE
:101A00000326C102832601030327410383278103A1
:101A10000328C10383280104032941048329810485
:101A2000032AC104832A0105032B4105832B810569
:101A3000032CC105832C0106032D4106832D81064D
:101A4000032EC106832E0107032F4107832F810731
:101A50001301010873002030130000008320C1002F
:101A6000032481001301010167800000130101FFBD
:101A7000232611002324810013040101EFF0DFAEBF
:101A8000130000008320C100032481001301010121
:101A900067800000130101FE232E81001304010260
:101AA0002326A4FE8327C4FE138787008327C4FE52
:101AB00023A2E7008327C4FE1307F0FF23A4E70057
:101AC0008327C4FE138787008327C4FE23A6E7006D
:101AD0008327C4FE138787008327C4FE23A8E7005B
:101AE0008327C4FE23A00700130000000324C101C4
:101AF0001301010267800000130101FE232E810003
:101B0000130401022326A4FE8327C4FE23A8070092
:101B1000130000000324C1011301010267800000CB
:101B2000130101FD2326810213040103232EA4FCCB
:101B3000232CB4FC8327C4FD83A747002326F4FE8F
:101B4000832784FD0327C4FE23A2E7008327C4FE66
:101B500003A78700832784FD23A4E7008327C4FE0F
:101B600083A78700032784FD23A2E7008327C4FE01
:101B7000032784FD23A4E700832784FD0327C4FDF6
:101B800023A8E7008327C4FD83A707001387170056
:101B90008327C4FD23A0E700130000000324C10233
:101BA0001301010367800000130101FD2326810258
:101BB00013040103232EA4FC232CB4FC832784FDEF
:101BC00083A707002324F4FE032784FE9307F0FF76
:101BD000631AF7008327C4FD83A707012326F4FEB9
:101BE0006F0040038327C4FD938787002326F4FEFC
:101BF0006F0000018327C4FE83A747002326F4FE5D
:101C00008327C4FE83A7470083A70700032784FE1A
:101C1000E372F7FE8327C4FE03A74700832784FDF2
:101C200023A2E700832784FD83A74700032784FDC1
:101C300023A4E700832784FD0327C4FE23A4E70031
:101C40008327C4FE032784FD23A2E700832784FDA6
:101C50000327C4FD23A8E7008327C4FD83A707004B
:101C6000138717008327C4FD23A0E700130000009B
:101C70000324C1021301010367800000130101FD69
:101C80002326810213040103232EA4FC8327C4FD11
:101C900083A707012326F4FE8327C4FD83A74700FB
:101CA0000327C4FD0327870023A4E7008327C4FD7F
:101CB00083A787000327C4FD0327470023A2E7006B
:101CC0008327C4FE83A747000327C4FD631AF700D8
:101CD0008327C4FD03A787008327C4FE23A2E70050
:101CE0008327C4FD23A807008327C4FE83A707001A
:101CF0001387F7FF8327C4FE23A0E7008327C4FED2
:101D000083A70700138507000324C1021301010301
:101D100067800000130101FD2326810213040103E3
:101D2000232EA4FC232CB4FC232AC4FC0327C4FDCB
:101D3000832744FDB367F70093F7370063980706DE
:101D4000832784FD93F7F70F2322F4FE832744FEB5
:101D500093978700032744FEB367F7002322F4FE1E
:101D6000832744FE93970701032744FEB367F700D8
:101D70002322F4FE8327C4FD2326F4FE6F00800196
:101D80008327C4FE138747002326E4FE032744FE6F
:101D900023A0E7000327C4FD832744FDB307F70012
:101DA0000327C4FEE36EF7FC6F0000048327C4FD25
:101DB0002324F4FE6F000002832784FE138717009C
:101DC0002324E4FE032784FD13178701135787415B
:101DD0002380E7000327C4FD832744FDB307F700F2
:101DE000032784FEE36AF7FC8327C4FD13850700FD
:101DF0000324C1021301010367800000130101FDE8
:101E00002326810213040103232EA4FC8327C4FD8F
:101E10002326F4FE6F0000018327C4FE938717007A
:101E20002326F4FE8327C4FE83870700E39607FE7C
:101E30000327C4FE8327C4FDB307F74013850700BB
:101E40000324C1021301010367800000130101FC98
:101E5000232E1102232C810213040104232EA4FC3F
:101E6000232CB4FC2328D4FC2326E4FC2324F4FCF8
:101E7000232204FD232014FD93070600231BF4FCFA
:101E80008327C4FD63960700737004306F00000061
:101E90000327C4FC9307400063F6E7007370043027
:101EA0006F000000835764FD832544FC1385070001
:101EB000EF0050392324A4FE832784FE6382071693
:101EC000832784FE03A70703835664FDB7070040FA
:101ED0009387F7FFB387F60093972700B307F700C0
:101EE0002322F4FE832744FE93F7C7FF2322F4FE48
:101EF000832744FE93F7370063860700737004302E
:101F00006F000000835764FD13870700832604FCDD
:101F10000326C4FC832584FD032584FEEF00900086
:101F2000032604FD8325C4FD032544FEEFF01F8C2A
:101F300013070500832784FE23A0E700832784FC82
:101F400063880700832784FC032784FE23A0E7001F
:101F5000EFF04FE683A7C1931387170023AEE192FA
:101F600083A7C19263900702032784FE23A6E19210
:101F700003A7C193930710006316F702EF00100E3A
:101F80006F00400283A78194639E070083A7C192DC
:101F900083A7C7020327C4FC6366F700032784FEF8
:101FA00023A6E19283A781951387170023ACE194C0
:101FB00003A78195832784FE23A4E704832784FE57
:101FC00003A7C70283A7419463F8E700832784FE31
:101FD00003A7C70223A2E194832784FE03A7C702B5
:101FE0009307070093972700B387E700939727008D
:101FF00037070280130707FF3387E700832784FE34
:10200000938747009385070013050700EFF05FB142
:10201000930710002326F4FEEFF00FDD6F00C000E1
:102020009307F0FF2326F4FE0327C4FE9307100056
:102030006310F70283A78194638C070083A7C19282
:1020400083A7C7020327C4FC63F4E700EFF01FA2D5
:102050008327C4FE138507008320C1030324810363
:102060001301010467800000130101FD2326110202
:102070002324810213040103232EA4FCEFF08FD349
:102080008327C4FD6396070083A7C1926F00800079
:102090008327C4FD2326F4FE8327C4FE93874700CD
:1020A00013850700EFF09FBD8327C4FE83A7870237
:1020B000638A07008327C4FE93878701138507007F
:1020C000EFF0DFBB8327C4FE9387470093850700AB
:1020D000B707028013850709EFF09FA483A78193B8
:1020E0001387170023ACE19283A78195138717000C
:1020F00023ACE194EFF04FCF83A78194638A07026A
:1021000083A7C1920327C4FE631EF70083A701962D
:1021100063860700737004306F000000EFF01F95B6
:102120006F000001EFF00FC9EF00D021EFF0CFCB2F
:10213000130000008320C102032481021301010364
:1021400067800000130101FD232611022324810270
:1021500013040103232EA4FC232604FE8327C4FDBD
:102160006384070483A701966386070073700430B5
:102170006F000000EF00400E83A701940327C4FD09
:10218000B307F7002324F4FE83A7C1929387470087
:1021900013850700EFF09FAE032584FEEF001002C9
:1021A000EF00000E2326A4FE8327C4FE63940700DD
:1021B000EFF0DF8B130000008320C10203248102B3
:1021C0001301010367800000130101FE232E11009B
:1021D000232C81001304010293080000130800005F
:1021E0009307000013070000930600001306004049
:1021F000B77500809385459B372500801305056FD3
:10220000EFF0DFC42326A4FE0327C4FE93071000CB
:102210006312F702737004301307F0FF23AEE194EA
:102220001307100023A4E19423A00194EFF00FF210
:102230006F0040018327C4FE63960700737004306B
:102240006F000000130000008320C10103248101FE
:102250001301010267800000130101FF23268100A2
:102260001304010183A701961387170023A0E196A9
:10227000130000000324C100130101016780000066
:10228000130101FE232E1100232C810013040102EF
:10229000232604FE83A7019663960700737004301B
:1022A0006F000000EFF00FB183A701961387F7FFCF
:1022B00023A0E19683A701966396071083A7C19395
:1022C000638207106F00800AB70702809387C707F1
:1022D00083A7C70083A7C7002324F4FE832784FEB7
:1022E0009387870113850700EFF05F99832784FEAA
:1022F0009387470013850700EFF05F98832784FEDC
:1023000003A7C70283A7419463F8E700832784FEED
:1023100003A7C70223A2E194832784FE03A7C70271
:102320009307070093972700B387E7009397270049
:1023300037070280130707FF3387E700832784FEF0
:10234000938747009385070013050700EFF04FFDC3
:10235000832784FE03A7C70283A7C19283A7C7026E
:102360006366F7001307100023A8E194B707028003
:1023700083A7C707E39A07F483A7C194638807027A
:102380006F004002EF0040099307050063860700D5
:102390001307100023A8E19483A7C1941387F7FFC4
:1023A00023A6E19483A7C194E39E07FC03A70195AC
:1023B000930710006318F700930710002326F4FE1C
:1023C000EFF0CFEAEFF04FA28327C4FE138507009A
:1023D0008320C101032481011301010267800000F1
:1023E000130101FE232E1100232C8100130401028E
:1023F000EFF04F9C83A701942326F4FEEFF0CF9ECD
:102400008327C4FE138507008320C10103248101B3
:102410001301010267800000130101FD2326110250
:102420002324810213040103232604FE83A70196BB
:102430006390071A83A701941387170023A0E194E0
:1024400083A701942324F4FE832784FE639007046A
:1024500083A7019383A70700638607007370043086
:102460006F00000083A701932322F4FE03A741938A
:1024700023A8E192032744FE23AAE19283A7419572
:102480001387170023AAE194EF00C06B83A7C195BF
:10249000032784FE6360F71083A7019383A70700D7
:1024A00063960700930710006F00800093070000F9
:1024B000638807001307F0FF23AEE1946F00800DDF
:1024C00083A7019383A7C70083A7C7002320F4FE37
:1024D000832704FE83A74700232EF4FC032784FEF2
:1024E0008327C4FD6378F7000327C4FD23AEE1947E
:1024F0006F00400A832704FE938747001385070077
:10250000EFF0CFF7832704FE83A78702638A0700D3
:10251000832704FE9387870113850700EFF00FF6EA
:10252000832704FE03A7C70283A7419463F8E7004B
:10253000832704FE03A7C70223A2E194832704FE96
:1025400003A7C7029307070093972700B387E70005
:102550009397270037070280130707FF3387E700A9
:10256000832704FE93874700938507001305070020
:10257000EFF00FDB832704FE03A7C70283A7C192F6
:1025800083A7C702E36AF7F0930710002326F4FE3F
:102590006FF09FF083A7C19203A7C702B70602801E
:1025A0009307070093972700B387E70093972700C7
:1025B000138706FFB387E70003A707009307100000
:1025C00063FEE700930710002326F4FE6F0000016E
:1025D00083A7C1941387170023A6E19483A70195CD
:1025E00063860700930710002326F4FE8327C4FEAA
:1025F000138507008320C102032481021301010314
:1026000067800000130101FE232E810013040102E4
:1026100083A70196638807001307100023A8E1949D
:102620006F00000C23A801946F00000283A741945F
:1026300063960700737004306F00000083A7419415
:102640001387F7FF23A2E19403A74194B706028002
:102650009307070093972700B387E7009397270016
:10266000138706FFB387E70083A70700E38007FC13
:1026700003A741949307070093972700B387E700C8
:102680009397270037070280130707FFB387E700F8
:102690002326F4FE8327C4FE83A7470003A7470031
:1026A0008327C4FE23A2E7008327C4FE03A74700B5
:1026B0008327C4FE93878700631CF7008327C4FE2B
:1026C00083A7470003A747008327C4FE23A2E70090
:1026D0008327C4FE83A7470003A7C70023A6E19270
:1026E000130000000324C1011301010267800000F0
:1026F000130101FE232E1100232C8100130401027B
:102700002326A4FEEF008021B707028003A707FF5E
:102710009307100063F4E700EFF04FB5EF3010724D
:102720006FF05FFE130101FC232E1102232C8102A6
:1027300013040104232EA4FC232CB4FC232AC4FC80
:102740002328D4FC930707002317F4FC232604FE58
:102750006F004004032784FD8327C4FEB307F700FE
:10276000038707008326C4FD8327C4FEB387F600D2
:10277000238AE702032784FD8327C4FEB307F700FB
:1027800083870700638007028327C4FE93871700AF
:102790002326F4FE0327C4FE9307F000E3FCE7FAC8
:1027A0006F008000130000008327C4FDA38107048D
:1027B000032744FD9307400063F6E70093074000BA
:1027C000232AF4FC8327C4FD032744FD23A6E70244
:1027D0008327C4FD032744FD23A8E7048327C4FD02
:1027E00023AA07048327C4FD9387470013850700A6
:1027F000EFF08FB08327C4FD93878701138507000F
:10280000EFF08FAF8327C4FD0327C4FD23A8E700A3
:1028100013075000832744FD3307F7408327C4FD87
:1028200023ACE7008327C4FD0327C4FD23A2E702EE
:102830008327C4FD23A207048327C4FD23AC070418
:102840008327C4FD23AE0704130000008320C103C7
:10285000032481031301010467800000130101FEBA
:10286000232E1100232C810013040102232604FED1
:102870006F0080030327C4FE930707009397270088
:10288000B387E7009397270037070280130707FFF6
:10289000B387E70013850700EFF0CF9F8327C4FEBF
:1028A000938717002326F4FE0327C4FE93074000F6
:1028B000E3F2E7FCB707028013854705EFF08F9D31
:1028C000B707028013858706EFF0CF9CB707028019
:1028D0001385C707EFF00F9CB70702801385070920
:1028E000EFF04F9BB70702801385470AEFF08F9AEE
:1028F000370702801307470523A8E19237070280B4
:102900001307870623AAE192130000008320C10168
:10291000032481011301010267800000130101FEFD
:10292000232E1100232C8100130401026F004007A5
:10293000EFF09F92B707028083A7070993B71700AC
:1029400093F7F70F2326F4FEEFF09F938327C4FE3F
:1029500063980704EFE01FC6B70702809387070953
:1029600083A7C70083A7C7002324F4FE832784FE20
:102970009387470013850700EFF04FB083A7C193FB
:102980001387F7FF23AEE19283A781931387F7FFA5
:1029900023ACE192EFE05FC5032584FEEF008016D3
:1029A00083A78193E39607F8130000008320C101F9
:1029B000032481011301010267800000130101FE5D
:1029C000232E1100232C8100130401022326A4FED0
:1029D00083A7C1920327C4FE23A2E70083A7019423
:1029E0000327C4FE6370F70203A7419383A7C19234
:1029F000938747009385070013050700EFF0CF9AF0
:102A00006F00000303A7019383A7C1929387470038
:102A10009385070013050700EFF00F9983A7C19571
:102A20000327C4FE6376F7000327C4FE23AEE194B8
:102A3000130000008320C10103248101130101025E
:102A400067800000130101FD232611022324810267
:102A50001304010393070500232CB4FC231FF4FC8B
:102A6000832784FD639E07008357E4FD9397270027
:102A700013850700EFE08FFD930705006F008000CE
:102A8000832784FD2324F4FE832784FE638A0702C0
:102A900013050006EFE08FFB2326A4FE8327C4FE68
:102AA000638A07008327C4FE032784FE23A8E70266
:102AB0006F004001032584FEEFE01F976F00800048
:102AC000232604FE8327C4FE638207028327C4FEF5
:102AD00003A707038357E4FD939727001386070096
:102AE0009305500A13050700EFF0CFA28327C4FE19
:102AF000138507008320C10203248102130101030F
:102B000067800000130101FE232E1100232C810099
:102B1000130401022326A4FE8327C4FE83A7070310
:102B200013850700EFE05F900325C4FEEFE0DF8F21
:102B3000130000008320C10103248101130101025D
:102B400067800000130101FE232E8100130401029F
:102B500083A7019383A707006396070093071000DC
:102B60006F00800093070000638807001307F0FFE1
:102B700023AEE1946F00000283A7019383A7C700EF
:102B800083A7C7002326F4FE8327C4FE03A74700BC
:102B900023AEE194130000000324C10113010102DC
:102BA00067800000130101FE232E8100130401023F
:102BB00083A7C1922326F4FE8327C4FE1385070052
:102BC0000324C1011301010267800000130101FD0C
:102BD0002326810213040103232EA4FCF32740F1D2
:102BE0002326F4FE8327C4FE2324F4FE3707004087
:102BF0008327C4FD93D75700832684FE93965600FF
:102C0000B386F600B717000093870780B387F600F6
:102C100093972700B307F70083A707002322F4FE4A
:102C20008327C4FD93F7F70113071000B317F700CC
:102C3000032744FEB367F7002322F4FE3707004062
:102C40008327C4FD93D75700832684FE93965600AE
:102C5000B386F600B717000093870780B387F600A6
:102C600093972700B307F700032744FE23A0E7004C
:102C7000130000000324C102130101036780000058
:102C8000130101FE232E8100130401022326A4FE5A
:102C90002324B4FE370700408327C4FE9397270000
:102CA000B307F700032784FE23A0E700130000000A
:102CB0000324C1011301010267800000130101FF19
:102CC000232611002324810013040101B70700907B
:102CD0001385C7FFEFE0CFA2930705009385070098
:102CE00037050050EFE04FA137050050EFE04FA14E
:102CF00013070500B717028023A0E762B717028009
:102D000083A7076213850700EF00001E93070500E5
:102D100093850700B707005013850702EFE0CF9DAA
:102D2000B717028083A7076213850700EF00801E94
:102D30009307050093850700B70700501385070226
:102D4000EFE08F9BB777000013857777EF00C02304
:102D5000B70702809387071B93850700B7070050CA
:102D600013854700EFE04F99EF209046EF30C02DDC
:102D7000B707028023AE0720B707028023A20720EF
:102D8000130000008320C10003248100130101010E
:102D900067800000130101FD232611022324810214
:102DA00013040103232EA4FC232604FE8327C4FE60
:102DB0000327C4FDB307F700838707009385070047
:102DC000B707005013850702EFE00F938327C4FE77
:102DD000938717002326F4FE8327C4FE9387F7FF0B
:102DE0000327C4FDB307F70083870700E39007FCC0
:102DF000130000008320C102032481021301010398
:102E000067800000130101FE232E1100232C810096
:102E1000130401022326A4FE8327C4FE9385070022
:102E2000B707005013854702EFE00F8D1300000035
:102E30008320C10103248101130101026780000086
:102E4000130101FE232E1100232C81001304010223
:102E50002326A4FE2324B4FE0325C4FEEFF09FF333
:102E6000032584FEEFF01FFAB77700801385C79B18
:102E7000EFF05FF2130000008320C1010324810101
:102E80001301010267800000130101FE232E1100CF
:102E9000232C8100130401022326A4FE2324B4FE64
:102EA0002322C4FE2320D4FE0325C4FEEFF09FEEB0
:102EB000032584FEEFF01FF5032544FEEFF09FEDA0
:102EC000032504FEEFF01FF4B77700801385C79B3E
:102ED000EFF05FEC130000008320C10103248101A7
:102EE0001301010267800000130101FE232E8100FF
:102EF000130401022326A4FE8327C4FE93D7870070
:102F000093F7F70F138507000324C1011301010292
:102F100067800000130101FE232E810013040102CB
:102F20002326A4FE8327C4FE93F7F70F138507001B
:102F30000324C1011301010267800000130101FE97
:102F4000232E1100232C8100130401022326A4FE4A
:102F50008325C4FEB707005013854700EFD0DFF983
:102F6000B727000093852722B707005013858700F5
:102F7000EFD09FF8130000008320C10103248101DA
:102F80001301010267800000130101FE232E1100CE
:102F9000232C8100130401022326A4FE0327C4FE70
:102FA000B727000093872722630AF7000327C4FE90
:102FB000B777000093877777631CF700130510003D
:102FC000EFF0DFC09305100013051000EFF05FCBAA
:102FD0000327C4FEB737000093873733630AF7002F
:102FE0000327C4FEB777000093877777631EF70047
:102FF00013052000EFF09FBD93051000130520007E
:10300000EFF01FC813000000130000008320C1016F
:10301000032481011301010267800000130101FFF5
:10302000232611002324810013040101B707028025
:1030300083A7870B13850700EF30402AB75700009E
:1030400093855755B707005013858700EFD0DFEA07
:10305000EF00501693070000138507008320C1007E
:10306000032481001301010167800000130101FEA8
:10307000232E1100232C810013040102B7070280C4
:103080009387071B83A7870013073003638CE71C14
:1030900013073003636AF702130700026384E73EF5
:1030A000130700026368F700130700016386E73027
:1030B0006F00004E130710026384E74813070003F4
:1030C0006380E7086F00C04C13070040638AE71E67
:1030D00013070040636CF700130750036388E71A77
:1030E00013070020638EE7006F00804A130710402B
:1030F0006388E72413070050638CE70C6F00404996
:10310000B70702809387071B03A7C700B707028092
:103110009387071B83A50701B70702809387071BC7
:1031200003A64701B70702809387071B83A7870180
:103130009386070013050700EF1040506F004047CB
:10314000B70702809387071B03A5C700B707028054
:103150009387071B83A50701B70702809387071B87
:1031600003A64701B70702809387071B83A6870141
:10317000B70702809387071B83A7C7011387070040
:10318000EF20D01F2326A4FEB71702800327C4FE1A
:103190009386872D9307070093974700B387E740EF
:1031A00093973700B387F60083A7C701938507007D
:1031B000B707005013854700EFD01FD4B707028030
:1031C0009387071B1307300323A4E7006F00403EDB
:1031D000B70702809387071B83A7C70013870700E1
:1031E000B70702809387071B83A7C7019386070051
:1031F000B77700801386079C93050700B777008098
:103200001385479DEFF05FC8B70702809387071BC0
:1032100003A70703B70702809387071B83A6C7018D
:10322000B70702809387071B83A7C7001386070091
:103230009385060013050700EF10507DB707028045
:103240009387071B03A7C700B70702809387071B55
:1032500083A7C7019385070013050700EF10D0333C
:103260006F000035B70702809387071B03A7C700CD
:10327000B70702809387071B83A7C70193850700C1
:1032800013050700EF0090026F008032B7770080CF
:103290001385479EEFF01FB0B70702809387071B87
:1032A00003A7C700B70702809387071B83A7C7013F
:1032B0009385070013050700EF2040326F00402F71
:1032C000B7770080138507A0EFF0DFACB707028067
:1032D0009387071B03A7C700B70702809387071BC5
:1032E00083A7C7019385070013050700EF2010256A
:1032F0002326A4FE0327C4FE9307070093974700E5
:10330000B387E7409397370013870704B717028006
:103310009387872DB307F7009387C700938507002E
:10332000B707005013854700EFD01FBDB7070280D5
:103330009387071B1307104023A4E7006F00402763
:10334000B7770080138587A1EFF0DFA4B70702806D
:103350009387071B03A7C700B70702809387071B44
:1033600083A7C7019385070013050700EF20101DF1
:103370002326A4FEB70702809387071B83A7C700F5
:1033800013870700B70702809387071B83A7C7012E
:1033900093860700B7770080138607A3930507007D
:1033A000B77700801385C7A3EFF01FAE0325C4FED7
:1033B000EF20D0256F00C01FB70702809387071B3F
:1033C00083A7C70113870700B70702809387071BEE
:1033D00083A7C70093860700B77700801386C7A42A
:1033E00093050700B7770080138547A5EFF0DFA9A5
:1033F000B70702809387071B03A7C700B7070280A0
:103400009387071B83A7C701938507001305070050
:10341000EF0010762326A4FE0327C4FE9307F0FFD7
:103420006314F704B7770080138587A7EFF09F96A2
:10343000B70702809387071B03A7C700B70702805F
:103440009387071B83A6C701B70702809387071BD3
:1034500083A747011386070093850600130507001D
:10346000EF10C0046F00C014B7770080138507AB5E
:10347000EFF05F928325C4FE37052020EF00C040A7
:103480006F000013B7770080138507ADEFF09F90B2
:10349000B70702809387071B03A74701B70702807E
:1034A0009387071B83A7C7009385070013050700B1
:1034B000EF20D0082326A4FEB70702809387071BBE
:1034C0001307100223A4E700B71702800327C4FEE6
:1034D0009386872D9307070093974700B387E740AC
:1034E00093973700B387F60083A7470193850700BA
:1034F000B7770080138507AFEFF09F94B71702806E
:103500000327C4FE9386872D9307070093974700F0
:10351000B387E74093973700B387F60083A7470147
:1035200093850700B707005013854700EFD0DF9C55
:10353000B7770080138587B0EFF0DF856F00400715
:10354000B70702809387071B03A74701B7070280CD
:103550009387071B83A7C700938507001305070000
:10356000EF20C07D2326A4FEB71602800327C4FEE9
:103570009307070093974700B387E7409397370077
:103580001387862DB387E70023A807006F0040024A
:10359000B70702809387071B83A7870093850700DF
:1035A000B77700801385C7B1EFF09F891300000043
:1035B000B757000093855755B70700501385C700CC
:1035C000EFD09F9393070000138507008320C1016C
:1035D000032481011301010267800000130101FD32
:1035E0002326810213040103232EA4FC232CB4FC04
:1035F0008327C4FD83C70700A307F4FE832784FD48
:10360000038707008327C4FD2380E700832784FD09
:103610000347F4FE2380E700130000000324C102E7
:103620001301010367800000130101FE232E110026
:10363000232C8100130401022326A4FE2324B4FEBC
:103640002322C4FE6F000004832784FE1387170023
:103650002324E4FE138707008327C4FEB386E70014
:10366000832744FE1387F7FF2322E4FE1387070016
:103670008327C4FEB387E700938507001385060000
:10368000EFF0DFF5032784FE832744FEE34EF7FACD
:103690008327C4FE138507008320C1010324810111
:1036A0001301010267800000130101FD23261102AE
:1036B0002324810213040103232EA4FC232CB4FC35
:1036C000232AC4FC032744FD9307100063D8E700B6
:1036D000032744FD9307000263D6E700832784FD98
:1036E0006F0040158327C4FD63DA07008327C4FDFC
:1036F000B307F0402326F4FE6F00C0008327C4FD0B
:103700002326F4FE232404FE6F00C0090327C4FE11
:10371000832744FDB367F7022322F4FE032744FE08
:103720009307900063DEE702832744FE93F7F70FC9
:103730009387770393F6F70F832784FE1387170089
:103740002324E4FE13870700832784FDB387E70063
:1037500013978601135787412380E7006F0080038A
:10376000832744FE93F7F70F9387070393F6F70F2A
:10377000832784FE138717002324E4FE13870700A2
:10378000832784FDB387E70013978601135787418A
:103790002380E7000327C4FE832744FDB347F702D5
:1037A0002326F4FE8327C4FEE39207F6832784FED4
:1037B00063920702832784FE138717002324E4FE05
:1037C00013870700832784FDB387E70013070003EF
:1037D0002380E7008327C4FD63D80702032744FD45
:1037E0009307A0006312F702832784FE1387170054
:1037F0002324E4FE13870700832784FDB387E700B3
:103800001307D0022380E700832784FE032784FD6B
:10381000B307F70023800700832784FE9387F7FF11
:103820001386070093050000032584FDEFF0DFDF1A
:1038300093070500138507008320C102032481023A
:103840001301010367800000130101FD232681029B
:1038500013040103232EA4FC232CB4FC232604FE12
:103860008327C4FD139787008327C4FE3367F700BF
:10387000832784FDB367F700138507000324C10283
:103880001301010367800000130101FE232E1100C4
:10389000232C8100130401022326A4FE2324B4FE5A
:1038A000B707028083A6C7210327C4FE832784FEAF
:1038B0003367F700B7070280939626009387471E69
:1038C000B387F60023A0E700B707028083A7C721CC
:1038D00093850700B7770080138547B7EFF04FD681
:1038E000B707028003A7C721930770006318F7008A
:1038F000B707028023AE07206F008001B707028060
:1039000083A7C72113871700B707028023AEE720DC
:10391000EF00400A130000008320C101032481014D
:103920001301010267800000130101FE232E8100B4
:1039300013040102B707028003A7C721B70702805B
:1039400083A747206316F700B70730306F00800564
:10395000B707028003A74720B70702801317270085
:103960009387471EB307F70083A707002326F4FEBB
:10397000B707028003A74720930770006318F7007A
:10398000B707028023A207206F008001B7070280DB
:1039900083A7472013871700B707028023A2E720D9
:1039A0008327C4FE138507000324C101130101020C
:1039B00067800000130101FE232E1100232C8100DB
:1039C00013040102EFD01FBFB70700501385870013
:1039D000EFD00FD3130705009307F00F631CF70A0E
:1039E000EFF09FF42326A4FE0327C4FEB707303070
:1039F0006302F70AB70702800327C4FE23ACE70A75
:103A00000327C4FEB707FFFF3377F700B70710108F
:103A10006310F7040327C4FEB70701009387F7FF7D
:103A20003377F7009307070093974700B387E74082
:103A300093972700370702801307C70BB387E70068
:103A40009387870013850700EFF04FCF6F00800446
:103A50000327C4FEB707FFFF3377F700B70720201F
:103A6000631AF7020327C4FEB70701009387F7FF25
:103A70003377F700930740243307F702B707028034
:103A800093870722B307F7009387C70013850700C2
:103A9000EFF0CFCAEFD05FB5130000008320C10163
:103AA000032481011301010267800000130101FD5D
:103AB000232611022324810213040103232EA4FCD4
:103AC000232CB4FCEF2080772326A4FE0327C4FE1A
:103AD000B707FEFD9387D7DF6316F70013051000C5
:103AE000EFE04FE60327C4FEB707FEFD9387D7DF5D
:103AF000E30AF7FCB70702800327C4FE9386C70BCF
:103B00009307070093974700B387E74093972700F1
:103B1000B387F6003707FFFE1307E7EF23A2E7009E
:103B20009305000013050000EFF01FD213060500F7
:103B3000B70702800327C4FE9386C70B93070700CD
:103B400093974700B387E74093972700B387F60022
:103B500023A4C700B70702800327C4FE9386C70BC0
:103B60009307070093974700B387E7409397270091
:103B7000B387F6001307B00023A6E700B70702805B
:103B80000327C4FE9386C70B93070700939747004C
:103B9000B387E74093972700B387F60013075003D6
:103BA00023A8E700B70702800327C4FE9386C70B4C
:103BB0009307070093974700B387E7409397270041
:103BC000B387F6000327C4FD23AAE700B7070280E6
:103BD0000327C4FE9386C70B9307070093974700FC
:103BE000B387E74093972700B387F600032784FD48
:103BF00023A2E7028325C4FE37051010EFF0DFC8CB
:103C0000130000008320C102032481021301010379
:103C100067800000130101FD232611022324810285
:103C200013040103232EA4FC232CB4FCEFD09F9893
:103C3000EF20004C2324A4FEB77700801385C7B87B
:103C4000EFF04F95032784FEB707FEFD9387D7DF7C
:103C50006318F700EFD05F9913051000EFE08FCEE7
:103C6000032784FEB707FEFD9387D7DFE300F7FC49
:103C70008327C4FD2322F4FEEF10D0602320A4FE8E
:103C8000832784FE93850700B77700801385C7BA22
:103C9000EFF00F9BB7070280832684FE138707226D
:103CA00093074024B387F602B307F700032704FE07
:103CB00023A2E700B7160280032704FE930707003C
:103CC00093974700B387E74093971700032784FD36
:103CD000B387E70093874701139727009387862DC3
:103CE000B307F70003A70700B7070280032684FE87
:103CF0009386072293074024B307F602B387F600A2
:103D000023A6E700832744FE83A707001387C70085
:103D1000B7070280032684FE938607229307402478
:103D2000B307F602B387F60023A8E700B7070280BF
:103D3000832684FE1387072293074024B387F60265
:103D4000B307F7001307000223AAE700B7170280A2
:103D5000032704FE9386872D930707009397470058
:103D6000B387E74093973700B387F60003A7870030
:103D7000B7070280032684FE938607229307402418
:103D8000B307F602B387F60023ACE700B71702804B
:103D9000032704FE9386872D930707009397470018
:103DA000B387E74093973700B387F60003A7470030
:103DB000B7070280032684FE9386072293074024D8
:103DC000B307F602B387F60023AEE700B707028019
:103DD000832684FE1387072293074024B387F602C5
:103DE000B307F700032784FD23A0E702832744FEDF
:103DF00003A70700B7070280032684FE930640242A
:103E0000B306D60293870722B387F60023A0E70400
:103E1000232604FE6F00C005032744FE8327C4FE4B
:103E200093972700B307F70083A647003706028061
:103E3000032784FE9307070093973700B387E700B3
:103E400093974700B387E7000327C4FEB387E700D3
:103E5000938707011307062293972700B307F700FC
:103E600023A2D7008327C4FE938717002326F4FEDE
:103E7000832744FE83A707000327C4FEE36EF7F8F9
:103E8000B7160280032704FE9307070093974700A5
:103E9000B387E74093971700032784FDB387E700B4
:103EA000938787001387862D93972700B307F70022
:103EB00003A74700930710006318F704B777008043
:103EC0001385C7BCEFE01FED832584FE3705202056
:103ED000EFF09F9BB7160280032704FE93070700AD
:103EE00093974700B387E74093971700032784FD14
:103EF000B387E700938787001387862D9397270062
:103F0000B307F70023A20700EFD00FEE1300000065
:103F10008320C10203248102130101036780000092
:103F2000130101FD2326110223248102130401033E
:103F3000232EA4FC232CB4FCEF2040302326A4FE27
:103F40000327C4FEB707FEFD9387D7DF6316F7008C
:103F500013051000EFE00F9F0327C4FEB707FEFD17
:103F60009387D7DFE30AF7FCB70702800327C4FE75
:103F70009386C70B9307070093974700B387E740E3
:103F800093972700B387F6003707FFFE1307E7EF85
:103F900023A2E7009305000013050000EFF0DF8A7D
:103FA00013060500B70702800327C4FE9386C70BDC
:103FB0009307070093974700B387E740939727003D
:103FC000B387F60023A4C700B70702800327C4FE07
:103FD0009386C70B9307070093974700B387E74083
:103FE00093972700B387F6001307B00023A6E700D6
:103FF000B70702800327C4FE9386C70B9307070009
:1040000093974700B387E74093972700B387F6005D
:104010001307005023A8E700B70702800327C4FE58
:104020009386C70B9307070093974700B387E74032
:1040300093972700B387F6000327C4FD23AAE70060
:10404000B70702800327C4FE9386C70B93070700B8
:1040500093974700B387E74093972700B387F6000D
:10406000032784FD23A2E702B717028083A6076215
:10407000B70702800327C4FE1386C70B9307070008
:1040800093974700B387E74093972700B307F6005D
:1040900023ACD7028325C4FE37051010EFF0CFFE06
:1040A000130000008320C1020324810213010103D5
:1040B00067800000130101FD2326110223248102E1
:1040C00013040103232EA4FC232CB4FCEF10901B3B
:1040D0002326A4FEB71602800327C4FE9307070019
:1040E00093974700B387E740939737001387862D50
:1040F000B387E7001307100023A8E700B717028073
:104100000327C4FE9386872D9307070093974700E4
:10411000B387E74093973700B387F6000327C4FDC2
:1041200023AAE700EF2080112324A4FE032784FEA6
:10413000B707FEFD9387D7DF6316F700130510005E
:10414000EFE04F80032784FEB707FEFD9387D7DF9C
:10415000E30AF7FCB7070280032784FE9386C70BA8
:104160009307070093974700B387E740939727008B
:10417000B387F6003707FFFE1307E7EF23A2E70038
:10418000B71602800327C4FE9307070093974700E2
:10419000B387E74093971700032784FDB387E700B1
:1041A00093874701139727009387862DB307F7005E
:1041B00083A60700B7070280032784FE1386C70B78
:1041C0009307070093974700B387E740939727002B
:1041D000B307F60023A4D700B7070280032784FEA5
:1041E0009386C70B9307070093974700B387E74071
:1041F00093972700B387F6001307B00023A6E700C4
:10420000B7070280032784FE9386C70B9307070036
:1042100093974700B387E74093972700B387F6004B
:104220001307000123A8E700B71702800327C4FE85
:104230009386872D9307070093974700B387E7403E
:1042400093973700B387F60083A64700B70702802D
:10425000032784FE1386C70B930707009397470035
:10426000B387E74093972700B307F60023AAD70048
:10427000B71702800327C4FE9386872D9307070094
:1042800093974700B387E74093973700B387F600CB
:1042900083A68700B7070280032784FE1386C70B17
:1042A0009307070093974700B387E740939727004A
:1042B000B307F60023A2D702B7070280032784FEC4
:1042C0009386C70B9307070093974700B387E74090
:1042D00093972700B387F600032784FD23AEE700FA
:1042E000832584FE37051010EFF00FDAB7770080D2
:1042F0001385C7BEEFE01FAA6F00C0020327C4FEEC
:1043000093060000B7770080138647C09305070027
:10431000B77700801385C7C1EFE01FB71305100002
:10432000EFD05FE2B71602800327C4FE93070700B1
:1043300093974700B387E740939737001387862DFD
:10434000B387E70003A7070193071000E308F7FA14
:10435000B7770080138587C2EFE0DFA3130000006A
:104360008320C1020324810213010103678000003E
:10437000130101FD2326810213040103232EA4FC53
:10438000232CB4FC9307F0FF2324F4FEB70700109E
:104390009387F7FF2322F4FE232604FE6F00800C90
:1043A000B70702808326C4FE130740243387E60242
:1043B00093870722B307F70003A7070093071000AE
:1043C000631CF708B70702808326C4FE1387072201
:1043D00093074024B387F602B307F70083A787014A
:1043E000032784FD631AF706B70702808326C4FEFD
:1043F0001387072293074024B387F602B307F70019
:1044000083A707020327C4FD6318F704B7070280D8
:104410008326C4FE1387072293074024B387F6023E
:10442000B307F70083A78700032744FE63F6E7027C
:10443000B70702808326C4FE138707229307402410
:10444000B387F602B307F70083A787002322F4FEA1
:104450008327C4FE2324F4FE8327C4FE938717001A
:104460002326F4FE0327C4FE93073000E3FAE7F2A5
:10447000032784FE9307F0FF6300F702B70702806B
:10448000832684FE130740243387E602938707229E
:10449000B307F70083A70700832784FE138507006F
:1044A0000324C1021301010367800000130101FD11
:1044B000232611022324810213040103232EA4FCCA
:1044C000232CB4FC232AC4FC832584FD032544FD4E
:1044D000EF10D0062326A4FEB71602800327C4FEE1
:1044E0009307070093974700B387E7409397170018
:1044F0000327C4FDB387E700938787001387862DC2
:1045000093972700B307F7001307100023A2E700D3
:10451000130000008320C102032481021301010360
:1045200067800000130101FE232E1100232C81005F
:1045300013040102EF1090502326A4FE0327C4FEAB
:10454000B707FEFD9387D7DF6316F700130510004A
:10455000EFD05FBF0327C4FEB707FEFD9387D7DF09
:10456000E30AF7FCB70702800327C4FE9386C70B54
:104570009307070093974700B387E7409397270077
:10458000B387F6003707FFFE1307E7EF23A2E70024
:104590009305000013050000EFF00FAB13070500B3
:1045A000B7070400B366F700B70702800327C4FE0D
:1045B0001386C70B9307070093974700B387E7401D
:1045C00093972700B307F60023A4D700B70702800C
:1045D0000327C4FE9386C70B9307070093974700F2
:1045E000B387E74093972700B387F6001307B0001F
:1045F00023A6E700B70702800327C4FE9386C70BF4
:104600009307070093974700B387E74093972700E6
:10461000B387F6001307001023A8E7008325C4FE24
:1046200037051010EFF04FA6130000008320C101E2
:10463000032481011301010267800000130101FDC1
:10464000232611022324810213040103232EA4FC38
:10465000232CB4FC232AC4FC2328D4FCEF00401CE8
:10466000930705002326F4FEB71602800327C4FE35
:104670009307070093972700B387E70093975700A6
:10468000138786B5B387E7001307100023A0E70060
:10469000B71702800327C4FE938687B593070700E8
:1046A00093972700B387E70093975700B387F600E7
:1046B0000327C4FD23A2E700B71702800327C4FE27
:1046C000938687B59307070093972700B387E70082
:1046D00093975700B387F600032784FD23A4E700D0
:1046E000B71702800327C4FE938687B59307070098
:1046F00093972700B387E70093975700B387F60097
:10470000032744FD23A6E700B71602800327C4FE53
:104710009307070093972700B387E7009397570005
:10472000138786B5B387E700032704FD23A8E700B6
:10473000EFD01FCB13070500832784FDB306F700D6
:10474000B71702800327C4FE138687B593070700B7
:1047500093972700B387E70093975700B307F600B6
:1047600023A6D708B71602800327C4FE93070700C5
:1047700093972700B387E70093975700138786B571
:10478000B387E70023A80708B71702800327C4FEF2
:10479000938687B59307070093972700B387E700B1
:1047A00093975700B387F6001307F0FF23AAE70893
:1047B000B71702800327C4FE938687B593070700C7
:1047C00093972700B387E70093975700B387F600C6
:1047D00023AC0708B71702800327C4FE938687B56A
:1047E0009307070093972700B387E7009397570035
:1047F000B387F60023AE07088327C4FD938507001F
:10480000B77700801385C7C3EFE08FE31300000084
:104810008320C10203248102130101036780000089
:10482000130101FE232E810013040102232604FE3E
:104830006F000004B71602800327C4FE9307070029
:1048400093972700B387E70093975700138786B5A0
:10485000B387E70083A70700639607008327C4FE9A
:104860006F0000028327C4FE938717002326F4FEFF
:104870000327C4FE9307B000E3DEE7FA9307F0FFD7
:10488000138507000324C1011301010267800000A2
:10489000130101FE232E810013040102232604FECE
:1048A0006F004003B71602800327C4FE930707007A
:1048B00093972700B387E70093975700138786B530
:1048C000B387E70023A007008327C4FE9387170060
:1048D0002326F4FE0327C4FE9307B000E3D4E7FCCD
:1048E000130000000324C1011301010267800000CE
:1048F000130101FE232E810013040102232604FE6E
:104900006F00C00F232404FE6F00C00D3716028015
:10491000832784FE8326C4FE13870700131717001E
:104920003307F700931727001387070093870600C4
:1049300093973700B387D700939727003307F70083
:104940009307C65AB307F7001307101123A0E70017
:1049500037170280832784FE8326C4FE1306C75AB6
:1049600013870700131717003307F7009317270063
:10497000138707009387060093973700B387D70004
:1049800093972700B307F700B307F6001307803E9D
:1049900023A2E70037170280832784FE8326C4FE04
:1049A0001306C75A13870700131717003307F700BA
:1049B0009317270013870700938706009397370004
:1049C000B387D70093972700B307F700B307F60024
:1049D0001307600023A4E700832784FE9387170052
:1049E0002324F4FE032784FE93072000E3D0E7F29C
:1049F0008327C4FE938717002326F4FE0327C4FEF3
:104A000093072000E3D0E7F0130000000324C10166
:104A10001301010267800000130101FE232E8100B3
:104A200013040102232404FEB717028023A4075AAB
:104A3000232604FE6F000007032784FE930730003F
:104A4000B347F70213978700832684FE930730004D
:104A5000B3E7F602B367F70093860700B717028043
:104A60000327C4FE13172700938747B3B307F70044
:104A700023A0D700032784FE9307600063CAE700E2
:104A8000832784FE938727002324F4FE6F00C00051
:104A9000930710002324F4FE8327C4FE9387170096
:104AA0002326F4FE0327C4FE93078000E3D6E7F82D
:104AB000130000000324C1011301010267800000FC
:104AC000130101FD232611022324810223229102D6
:104AD00013040103232EA4FC232604FE6F00802967
:104AE000B71602800327C4FE930707009397270099
:104AF000B387E70093975700138786B5B387E7001E
:104B000003A70700930710006310F726B71702806A
:104B10000327C4FE938687B5930707009397270062
:104B2000B387E70093975700B387F60083A7C708BA
:104B30000327C4FD636AF722B71702800327C4FE68
:104B4000938687B59307070093972700B387E700FD
:104B500093975700B387F60083A6C708B71702805C
:104B60000327C4FE138687B5930707009397270092
:104B7000B387E70093975700B307F60083A7470969
:104B80006384F61EB71602800327C4FE930707004E
:104B900093972700B387E70093975700138786B54D
:104BA000B387E70083A40701EF008079930705002E
:104BB00063EC971A232404FE6F00C013EF00004E2D
:104BC000930705002322F4FE832744FE0327C4FE37
:104BD000832684FE138606009305070013850700CD
:104BE000EF00C04D930705002320F4FE032704FEC9
:104BF0009307F0FF6314F7006FF05FFC13000000F1
:104C000037170280832784FE8326C4FE130687B5E8
:104C100013870700131717003307F70093172700B0
:104C2000138707009387060093972700B387D70061
:104C300093975700B307F700B307F6001307300048
:104C400023AAE700032644FE37170280832784FE49
:104C50008326C4FE930587B5138707001317170033
:104C60003307F70093172700138707009387060081
:104C700093972700B387D70093975700B307F700A0
:104C8000B387F50023ACC700032604FE3717028064
:104C9000832784FE8326C4FE930587B51387070008
:104CA000131717003307F700931727001387070020
:104CB0009387060093972700B387D70093975700F1
:104CC000B307F700B387F50023AEC7008327C4FE00
:104CD000032784FE832644FE1386060093050700FF
:104CE00013850700EF008074832784FE93871700E5
:104CF0002324F4FEB71602800327C4FE930707009F
:104D000093972700B387E70093975700138786B5DB
:104D1000B387E70003A70701832784FEE3E0E7EA00
:104D2000B71702800327C4FE938687B59307070051
:104D300093972700B387E70093975700B387F60050
:104D400083A6C708B71702800327C4FE138687B55A
:104D50009307070093972700B387E70093975700BF
:104D6000B307F60023AAD7088327C4FE938717004A
:104D70002326F4FE0327C4FE9307B000E3D2E7D650
:104D8000130000008320C102032481028324410216
:104D90001301010367800000130101FD23261102A6
:104DA0002324810213040103232EA4FC232CB4FC2E
:104DB000371702808327C4FD832684FD130687B539
:104DC00013870700131717003307F70093172700FF
:104DD000138707009387060093972700B387D700B0
:104DE00093975700B307F700B307F60013072000A7
:104DF00023AAE700930710002324F4FE232604FED1
:104E00006F000006371702808327C4FE832684FDC7
:104E1000130687B513870700131717003307F7002A
:104E2000931727001387070093870600939727009F
:104E3000B387D70093975700B307F700B307F6007F
:104E400003A74701930720006306F700232404FE0D
:104E50006F00C0038327C4FE938717002326F4FE48
:104E6000B7160280032784FD930707009397270056
:104E7000B387E70093975700138786B5B387E7009A
:104E800083A707010327C4FEE36EF7F6832784FE9A
:104E9000638C071EEFD0CFD42322A4FEB716028066
:104EA000032784FD9307070093972700B387E70044
:104EB00093975700138786B5B387E70083A7070941
:104EC0009386170037160280032784FD9307070097
:104ED00093972700B387E70093975700130786B58A
:104EE000B387E70023A8D708832584FDB71702807E
:104EF000032784FD938687B59307070093972700C0
:104F0000B387E70093975700B387F60083A7470955
:104F1000032744FEB307F74093860700B777008066
:104F2000138607C6B7770080138547C7EFD0DFF534
:104F3000B7170280032784FD938687B59307070080
:104F400093972700B387E70093975700B387F6003E
:104F5000032744FE23AEE708B7170280032784FD2A
:104F6000938687B59307070093972700B387E700D9
:104F700093975700B387F60083A6C70037160280C1
:104F8000032784FD9307070093972700B387E70063
:104F900093975700130786B5B387E70083A70709E0
:104FA00063FAD70AB7170280032784FD938687B573
:104FB0009307070093972700B387E700939757005D
:104FC000B387F60083A6C70037160280032784FD47
:104FD0009307070093972700B387E700939757003D
:104FE000130786B5B387E70083A70709B387F640A1
:104FF00093850700B7770080138547C8EFD05FE43B
:10500000B7170280032784FD938687B593070700AF
:1050100093972700B387E70093975700B387F6006D
:1050200003A78700832744FEB306F700B717028063
:10503000032784FD138687B59307070093972700FE
:10504000B387E70093975700B307F60023A6D70866
:105050006F008003B77700801385C7CAEFD09FD356
:10506000B7160280032784FD930707009397270054
:10507000B387E70093975700138786B5B387E70098
:1050800023A0070013000000130000008320C102CA
:10509000032481021301010367800000130101FF53
:1050A00023268100130401019307101013850700C4
:1050B0000324C1001301010167800000130101FEF8
:1050C000232E1100232C8100232A91002328210163
:1050D000130401022326A4FE2324B4FE2322C4FECB
:1050E0000325C4FEEFD05FE0930405000325C4FE52
:1050F000EFD05FE213060500B71702809386C75A08
:105100001307060093171700138707003307C7001C
:10511000931727001387070093870400939737009E
:10512000B387970093972700B307F700B387F6007C
:1051300083A78700638C070A0325C4FEEFD0DFDA5C
:10514000930405000325C4FEEFD0DFDC1306050041
:10515000B71702809386C75A1307060093171700E4
:10516000138707003307C70093172700138707002B
:105170009387040093973700B3879700939727008E
:10518000B307F700B387F60083A487000325C4FEA6
:10519000EFD09FD5130905000325C4FEEFD09FD79C
:1051A000930505009386F4FFB71702801386C75A4C
:1051B0001387050093171700138707003307B700FD
:1051C0009317270013870700930709009397370069
:1051D000B387270193972700B307F700B307F600BB
:1051E00023A4D700930710006F0080009307F0FFFF
:1051F000138507008320C101032481018324410119
:10520000032901011301010267800000130101FE5F
:10521000232E1100232C8100232A91001304010264
:105220002326A4FE2324B4FE2322C4FE0325C4FEA9
:10523000EFD09FCB930405000325C4FEEFD09FCD94
:1052400093060500B71702801386C75A1387060016
:1052500093171700138707003307D700931727000A
:10526000138707009387040093973700B38797004D
:1052700093972700B307F700B307F60083A78700CB
:1052800013861700B71702809385C75A1387060045
:1052900093171700138707003307D70093172700CA
:1052A000138707009387040093973700B38797000D
:1052B00093972700B307F700B387F50023A4C7002F
:1052C0000325C4FEEFD05FC2930405000325C4FE8E
:1052D000EFD05FC413060500B71702809386C75A44
:1052E0001307060093171700138707003307C7003B
:1052F00093172700138707009387040093973700BD
:10530000B387970093972700B307F700B387F6009A
:1053100003A787009307500063F6E7009307F0FFA9
:105320006F00800093071000138507008320C101E0
:1053300003248101832441011301010267800000DD
:10534000130101FE232E1100232C8100232A91003A
:1053500013040102232204FE232604FE6F00800AA8
:10536000232404FE6F0080088327C4FE032784FEE5
:105370009305070013850700EFE00FCD93040500A8
:105380009305000013050000EFE00FCC9307050024
:105390006388F40437170280832784FE8326C4FEC3
:1053A0001306C75A13870700131717003307F700B0
:1053B00093172700138707009387060093973700FA
:1053C000B387D70093972700B307F700B307F6001A
:1053D00003A78700832744FEB307F7002322F4FEC8
:1053E000832784FE938717002324F4FE032784FE7B
:1053F00093072000E3DAE7F68327C4FE93871700BC
:105400002326F4FE0327C4FE93072000E3DAE7F423
:10541000832744FE138507008320C10103248101F3
:10542000832441011301010267800000130101FD83
:10543000232611022324810213040103232EA4FC3A
:10544000232CB4FC232AC4FCEF00505F2326A4FEC7
:105450000327C4FEB707FEFD9387D7DF6316F70067
:1054600013051000EFC01FCE0327C4FEB707FEFDD3
:105470009387D7DFE30AF7FC8327C4FE93850700F1
:10548000B77700801385C7CCEFD09F9BB70702800A
:105490000327C4FE9386C70B930707009397470023
:1054A000B387E74093972700B387F6003707FFFEDF
:1054B0001307E7EF23A2E7009305000013050000A0
:1054C000EFE08FB813070500B7070400B366F700D5
:1054D000B70702800327C4FE1386C70B9307070094
:1054E00093974700B387E74093972700B307F600E9
:1054F00023A4D700B70702800327C4FE9386C70BF7
:105500009307070093974700B387E74093972700D7
:10551000B387F6001307B00023A6E700B7070280A1
:105520000327C4FE9386C70B930707009397470092
:10553000B387E74093972700B387F600130700036C
:1055400023A8E700B70702800327C4FE9386C70B92
:105550009307070093974700B387E7409397270087
:10556000B387F600032784FD23AAE700B70702806C
:105570000327C4FE9386C70B930707009397470042
:10558000B387E74093972700B387F6000327C4FD4E
:1055900023A2E702B70702800327C4FE9386C70B46
:1055A0009307070093974700B387E7409397270037
:1055B000B387F600032744FD23ACE7028325C4FE2E
:1055C00037051010EFE04FAC130000008320C1023C
:1055D000032481021301010367800000130101FD10
:1055E000232611022324810213040103232EA4FC89
:1055F000232CB4FC371702808327C4FD832684FD47
:10560000130687B513870700131717003307F70032
:1056100093172700138707009387060093972700A7
:10562000B387D70093975700B307F700B307F60087
:105630001307400023AAE700232604FE6F0080051D
:10564000371702808327C4FE832684FD130687B59F
:1056500013870700131717003307F7009317270066
:10566000138707009387060093972700B387D70017
:1056700093975700B307F700B307F60003A7470156
:10568000930740006316F7068327C4FE938717002D
:105690002326F4FEB7160280032784FD9307070034
:1056A00093972700B387E70093975700138786B532
:1056B000B387E70083A707010327C4FEE362F7F877
:1056C000832784FD93850700B77700801385C7CEB5
:1056D000EFD00FF7032584FDEF00C002B7770080FD
:1056E000138547D0EFD00FEB130000006F00800050
:1056F000130000008320C10203248102130101036F
:1057000067800000130101FD23261102232481027A
:1057100013040103232EA4FC232604FE6F0040275C
:10572000EFB05FE9EF00D01C2322A4FE032744FE64
:10573000B707FEFD9387D7DF6318F700EFB0DFEA06
:1057400013051000EFC01FA0032744FEB707FEFD9E
:105750009387D7DFE306F7FCB7070280832644FE72
:105760001387072293074024B387F602B307F70095
:105770003707FFFE1307E7EF23A2E7003717028082
:105780008327C4FE8326C4FD130687B5138707004D
:10579000131717003307F700931727001387070025
:1057A0009387060093972700B387D70093975700F6
:1057B000B307F700B307F60003A78701B707028016
:1057C000032644FE9386072293074024B307F6027C
:1057D000B387F60023A6E700B71602800327C4FDAF
:1057E0009307070093972700B387E7009397570025
:1057F000138786B5B387E70083A707011387C70020
:10580000B7070280032644FE9386072293074024AD
:10581000B307F602B387F60023A8E700B7070280B4
:10582000832644FE1387072293074024B387F6029A
:10583000B307F7001307004023AAE700B707028069
:10584000832644FE1387072293074024B387F6027A
:10585000B307F7000327C4FE23ACE700B7070280B5
:10586000832644FE1387072293074024B387F6025A
:10587000B307F7000327C4FD23A4E702B71602808D
:105880000327C4FD9307070093972700B387E7001A
:1058900093975700138786B5B387E70003A70701DF
:1058A000B7070280032644FE93064024B306D602BF
:1058B00093870722B387F60023A0E704232404FE7E
:1058C0006F00800837170280832784FE8326C4FD7B
:1058D000130687B513870700131717003307F70060
:1058E00093172700138707009387060093972700D5
:1058F000B387D70093975700B307F700B307F600B5
:1059000083A6870137060280032744FE930707001A
:1059100093973700B387E70093974700B387E70073
:10592000032784FEB387E700938707011307062246
:1059300093972700B307F70023A2D700832784FE9D
:10594000938717002324F4FEB71602800327C4FDB3
:105950009307070093972700B387E70093975700B3
:10596000138786B5B387E70083A70701032784FE63
:10597000E36AF7F4832544FE37052020EFD0DFF0FB
:10598000EFB09FC68327C4FE938717002326F4FE3B
:10599000B71602800327C4FD9307070093972700DB
:1059A000B387E70093975700138786B5B387E7005F
:1059B00083A707010327C4FEE364F7D613000000A2
:1059C0008320C102032481021301010367800000C8
:1059D000130101FE232E810013040102232604FE7D
:1059E0006F008008B71602800327C4FE93070700E4
:1059F00093974700B387E740939737001387862D27
:105A0000B387E70023A00700232404FE6F004004AF
:105A1000B71602800327C4FE930707009397470039
:105A2000B387E74093971700032784FEB387E70007
:105A3000938787001387862D93972700B307F70076
:105A400023A20700832784FE938717002324F4FEF4
:105A5000032784FE93079000E3FCE7FA8327C4FE44
:105A6000938717002326F4FE0327C4FE93075000F4
:105A7000E3FAE7F6130000000324C1011301010259
:105A800067800000130101FE232E1100232C8100EA
:105A900013040102EFD00F912324A4FE232604FE59
:105AA000232604FE6F004004B71702800327C4FEBC
:105AB0009386872D9307070093974700B387E740A6
:105AC00093973700B387F60083A7C700032784FEA8
:105AD0006316F7008327C4FE6F0000028327C4FE0D
