:0200000480007A
:100000006F00C0006F0000006F00800297020000C8
:1000100093824202739052307350003073504030DC
:100020009381010017C103001301C1576F004018ED
:10003000130101F823201100232221002324310081
:100040002326410023285100232A6100232C71001C
:10005000232E8100232091022322A1022324B10216
:100060002326C1022328D102232AE102232CF102F4
:10007000232E0103232011052322210523243105EA
:100080002326410523285105232A6105232C7105C8
:10009000232E8105232091072322A1072324B107C2
:1000A0002326C1072328D107232AE107232CF107A0
:1000B000F3221034232E510673252034F3251034F7
:1000C00013060100EF00804A73101534B7220000B8
:1000D0009382028073A0023083200100032141003B
:1000E000832181000322C1008322010103234101F6
:1000F000832381010324C1018324010203254102DA
:10010000832581020326C1028326010303274103BD
:10011000832781030328C1038328010403294104A1
:1001200083298104032AC104832A0105032B410585
:10013000832B8105032CC105832C0106032D410669
:10014000832D8106032EC106832E0107032F41074D
:10015000832F810713010108730020300000000085
:10016000130101FD2326810213040103232EA4FCA5
:10017000232CB4FC8327C4FD2326F4FE6F008001EA
:100180008327C4FE23A007008327C4FE938747006C
:100190002326F4FE0327C4FE832784FDE3F2E7FE53
:1001A000130000000324C102130101036780000053
:1001B000130101FE232E1100232C810013040102E0
:1001C000B7370080938707162326F4FE8327C4FEE3
:1001D0002320F4FE232204FE232404FE93850197AA
:1001E00013850190EFF0DFF7B7C701809385075AB9
:1001F00013850197EFF0DFF6930704FE9385070060
:1002000013051000EF20102E130000008320C10101
:10021000032481011301010267800000130101FF23
:100220002326810013040101130000000324C100F0
:100230001301010167800000130101FD23268102E3
:1002400013040103232EA4FCF32740F12326F4FE1C
:100250008327C4FE2324F4FE370700408327C4FD10
:1002600093D75700832684FE93965600B386F600F4
:10027000B717000093870780B387F600939727008E
:10028000B307F70083A707002322F4FE8327C4FDEA
:1002900093F7F70113071000B317F70093C7F7FFA1
:1002A000032744FEB377F7002322F4FE370700400C
:1002B0008327C4FD93D75700832684FE9396560068
:1002C000B386F600B717000093870780B387F60060
:1002D00093972700B307F700032744FE23A0E70006
:1002E000130000000324C102130101036780000012
:1002F000130101FE232E810013040102F32740F1B4
:100300002326F4FE8327C4FE2324F4FE370700408F
:10031000832784FE938707209397C700B307F700CE
:1003200083A74700138507000324C10113010102BD
:1003300067800000130101FD2326810213040103DD
:10034000232EA4FCF32740F12326F4FE8327C4FECA
:100350002324F4FE37070040832784FE9387072079
:100360009397C700B307F7000327C4FD23A2E70054
:10037000130000000324C102130101036780000081
:10038000130101FF2326110023248100130401011E
:10039000B737008013858716EF208077930700001A
:1003A000138507008320C10003248100130101018C
:1003B00067800000130101FF232611002324810020
:1003C00013040101B737008013850717EF2040742D
:1003D00093070000138507008320C10003248100D8
:1003E0001301010167800000130101FE232E81002B
:1003F00013040102F36704302326F4FE1300000007
:100400000324C1011301010267800000130101FEF2
:10041000232E1100232C81001304010293070008EE
:10042000F3B747302326F4FEEF10801F3707004450
:10043000B7C70000B307F70003A8C7FF83A787FF6C
:1004400083A5019003A6419037050044732740F12E
:100450002324E4FE832884FEB386B70013830600BA
:100460003333F3003307C800B307E30013870700F3
:10047000938706001308070037170000130707804B
:100480003387E800131737003307E5002320F70010
:100490002322070193070008F3A747302322F4FE25
:1004A000130000008320C101032481011301010214
:1004B00067800000130101FE232E1100232C810010
:1004C00013040102EFF0DFE22326A4FEA30504FEDD
:1004D000B737008013858717EF208063B737008018
:1004E0000327C4FE1317270093870737B307F700C6
:1004F00083A70700E780070093070500A305F4FE24
:100500000325C4FEEFF01FE30347B4FE930710007A
:100510006316F7000325C4FEEFF01FD2130000009E
:100520008320C101032481011301010267800000BF
:10053000130101FF2326110023248100130401016C
:10054000EF10001FB73700801385C71AEF20405CFB
:10055000B707004423A00700130000008320C10058
:10056000032481001301010167800000130101FED3
:10057000232E1100232C8100130401022326A4FE44
:100580002324B4FE8327C4FE63D207020327C4FEDC
:10059000B707008093C7F7FF3377F7009307B000E2
:1005A0006316F700EFF01FF16F0080078327C4FE8A
:1005B00063D207020327C4FEB707008093C7F7FF83
:1005C0003377F700930770006316F700EFF01FE42E
:1005D0006F0000058327C4FE63D207020327C4FE11
:1005E000B707008093C7F7FF3377F7009307300012
:1005F0006316F700EFF0DFF36F0080021306500080
:10060000B73700809385071E13051000EF20D02117
:100610008327C4FE9387170013850700EF00404C23
:10062000832784FE138507008320C10103248101F1
:100630001301010267800000130101FF23268100DE
:100640001304010193070000138507000324C10070
:100650001301010167800000130101FF23268100BF
:100660001304010193070000138507000324C10050
:100670001301010167800000130101FF232681009F
:100680001304010193070000138507000324C10030
:100690001301010167800000130101FF232681007F
:1006A0001304010193070000138507000324C10010
:1006B0001301010167800000130101FF232681005F
:1006C0001304010193070000138507000324C100F0
:1006D0001301010167800000130101FF232681003F
:1006E0001304010193070000138507000324C100D0
:1006F0001301010167800000130101FF232681001F
:100700001304010193070000138507000324C100AF
:100710001301010167800000130101FF23268100FE
:100720001304010193070000138507000324C1008F
:100730001301010167800000130101FF23268100DE
:100740001304010193070000138507000324C1006F
:100750001301010167800000130101FF23268100BE
:100760001304010193070000138507000324C1004F
:100770001301010167800000130101FF232681009E
:100780001304010193070000138507000324C1002F
:100790001301010167800000130101FF232681007E
:1007A0001304010193070000138507000324C1000F
:1007B0001301010167800000130101FF232681005E
:1007C0001304010193070000138507000324C100EF
:1007D0001301010167800000130101FF232681003E
:1007E0001304010193070000138507000324C100CF
:1007F0001301010167800000130101FF232681001E
:100800001304010193070000138507000324C100AE
:100810001301010167800000130101FF23268100FD
:100820001304010193070000138507000324C1008E
:100830001301010167800000130101FF23268100DD
:100840001304010193070000138507000324C1006E
:100850001301010167800000130101FF23268100BD
:100860001304010193070000138507000324C1004E
:100870001301010167800000130101FF232681009D
:100880001304010193070000138507000324C1002E
:100890001301010167800000130101FF232681007D
:1008A0001304010193070000138507000324C1000E
:1008B0001301010167800000130101FF232681005D
:1008C0001304010193070000138507000324C100EE
:1008D0001301010167800000130101FF232681003D
:1008E0001304010193070000138507000324C100CE
:1008F0001301010167800000130101FF232681001D
:100900001304010193070000138507000324C100AD
:100910001301010167800000130101FF23268100FC
:100920001304010193070000138507000324C1008D
:100930001301010167800000130101FF23268100DC
:100940001304010193070000138507000324C1006D
:100950001301010167800000130101FF23268100BC
:100960001304010193070000138507000324C1004D
:100970001301010167800000130101FF232681009C
:100980001304010193070000138507000324C1002D
:100990001301010167800000130101FF232681007C
:1009A0001304010193070000138507000324C1000D
:1009B0001301010167800000130101FF232681005C
:1009C0001304010193070000138507000324C100ED
:1009D0001301010167800000130101FF232681003C
:1009E0001304010193070000138507000324C100CD
:1009F0001301010167800000130101FD232611028C
:100A00002324810213040103232EA4FC232CB4FC11
:100A100013062000B73700809385871E0325C4FD89
:100A2000EF20806093078000A307F4FE6F00800929
:100A30008347F4FE9387F7FF2307F4FE8347E4FE22
:100A4000939727001307F000B317F70013870700E9
:100A5000832784FD3377F7008347E4FE93972700CD
:100A6000B357F700A306F4FE0347D4FE93079000A4
:100A700063EEE7008347D4FE9387070393F7F70FEE
:100A80009397870193D787416F0080018347D4FEF6
:100A90009387770393F7F70F9397870193D787414E
:100AA0002306F4FE9307C4FE130610009385070087
:100AB0000325C4FDEF2040578347F4FE9387F7FFDB
:100AC000A307F4FE8347F4FEE39407F61300000047
:100AD0008320C10203248102130101036780000007
:100AE000130101FD232611022324810213040103B3
:100AF000232EA4FCB73700809387C71E2326F4FE5D
:100B00000325C4FEEF104016930705001386070067
:100B10008325C4FE13052000EF2000518327C4FD68
:100B20009385070013052000EFF01FED6F00000014
:100B3000130101FE232E8100130401022326A4FECB
:100B40000327C4FE930710006308F7000327C4FEC1
:100B5000930720006316F700930710006F00400111
:100B6000B7C701801307900023A4E758930700003C
:100B7000138507000324C1011301010267800000EF
:100B8000130101FE232E8100130401022326A4FE7B
:100B9000B7C701800327C4FE23A4E7589307F0FFDB
:100BA000138507000324C1011301010267800000BF
:100BB000130101FD232611022324810213040103E2
:100BC000232EA4FC232CB4FC232AC4FC832784FDFD
:100BD0002324F4FE0325C4FDEFF09FF593070500E1
:100BE000638C070883A701916390070293061000A6
:100BF0001306C002B715007013858190EF004017EF
:100C00001307100023A8E190232604FE6F0080053F
:100C1000032784FE8327C4FEB307F70013061000E2
:100C20009385070013858190EF000026032784FE3B
:100C30008327C4FEB307F70003C707009307A0008C
:100C4000631CF70013061000B73700809385C72098
:100C500013858190EF0040238327C4FE93871700FC
:100C60002326F4FE0327C4FE832744FDE362F7FA3C
:100C7000832744FD6F00000113059000EFF05FF043
:100C800093070500138507008320C1020324810216
:100C900013010103678000002320B5006780000076
:100CA0000325050067800000138E0600331EBE007A
:100CB000337ECE00032305009303060093C3F3FFA6
:100CC000337373003363C301232065006780000022
:100CD000032505003375C5003355B5006780000056
:100CE0002310B50067800000031505006780000031
:100CF000138E0600331EBE00337ECE0003130500A4
:100D00009303060093C3F3FF337373003363C3018C
:100D10002310650067800000031505003375C500CA
:100D20003355B500678000002300B50067800000E0
:100D30000305050067800000138E0600331EBE0009
:100D4000337ECE00030305009303060093C3F3FF35
:100D5000337373003363C3012300650067800000B1
:100D6000030505003375C5003355B50067800000E5
:100D7000130101FD23261102232481021304010320
:100D8000232EA4FC232CB4FC930706001387060033
:100D9000231BF4FC93070700A30AF4FC8327C4FD7C
:100DA000638A070C034754FD9307700063E4E70C64
:100DB000035764FDB7270000637EF70A832784FD8D
:100DC00013878700835764FD93F7F70F9385070018
:100DD00013050700EFF05FF5832784FD9386C700B6
:100DE000034754FD835764FD93D7574093F7877F9C
:100DF000B367F7009385070013850600EFF0DFF275
:100E00008327C4FD032784FD23A0E7008327C4FDB7
:100E100083A707009387070113850700EFF05FF1B1
:100E20009307050093F72700A307F4FE6F008003E4
:100E30008327C4FD83A70700938747001385070016
:100E4000EFF01FEF8327C4FD83A7070093870701F7
:100E500013850700EFF0DFED9307050093F72700F8
:100E6000A307F4FE8347F4FEE39407FC8327C4FD45
:100E700023820700130000008320C10203248102A3
:100E80001301010367800000130101FD23261102F5
:100E90002324810213040103232EA4FC232CB4FC7D
:100EA000232AC4FC8327C4FD63800708832784FDAD
:100EB000638C0706832744FD63880706232604FE08
:100EC0006F00C0058327C4FD83A707009387070130
:100ED00013850700EFF0DFE59307050093F7170090
:100EE000A305F4FE8347B4FEE38E07FC8327C4FD0D
:100EF00083A60700032784FD8327C4FEB307F700FA
:100F000083C707009385070013850600EFF0DFE134
:100F10008327C4FE938717002326F4FE0327C4FE0D
:100F2000832744FDE360F7FA130000008320C10229
:100F3000032481021301010367800000130101FDF6
:100F4000232611022324810213040103232EA4FC6F
:100F5000232CB4FC8327C4FD63800708832784FD0A
:100F6000638C0706232604FE6F00C0058327C4FD9B
:100F700083A707009387070113850700EFF05FDB66
:100F80009307050093F71700A305F4FE8347B4FE0B
:100F9000E38E07FC8327C4FD83A60700032784FD97
:100FA0008327C4FEB307F70083C7070093850700B4
:100FB00013850600EFF05FD78327C4FE93871700E1
:100FC0002326F4FE032784FD8327C4FEB307F7001E
:100FD00083C70700E39C07F8130000008320C102C9
:100FE000032481021301010367800000130101FC47
:100FF000232E1102232C8102130401042326A4FCB6
:10100000232204FEEF00507E83A7419263980700DD
:10101000EF0040281307100023A2E1928327C4FCAD
:10102000638A070293078000138707008327C4FCA5
:10103000B387E7002326F4FC8327C4FC93F737002B
:10104000638A07008327C4FC93F7C7FF9387470091
:101050002326F4FC8327C4FC638407140327C4FC01
:10106000B79701009387B7FF63ECE712938741912D
:101070002324F4FE83A741912326F4FE6F00800110
:101080008327C4FE2324F4FE8327C4FE83A707001E
:101090002326F4FE8327C4FE83A747000327C4FC4E
:1010A00063F8E7008327C4FE83A70700E39A07FCE1
:1010B0000327C4FE9387C1916304F70E832784FE40
:1010C00083A7070013078000B387E7002322F4FEFD
:1010D0008327C4FE03A70700832784FE23A0E7001D
:1010E0008327C4FE03A747008327C4FCB307F74048
:1010F00013078000131717006376F7080327C4FE51
:101100008327C4FCB307F700232EF4FC8327C4FE17
:1011100003A747008327C4FC3307F7408327C4FD98
:1011200023A2E7008327C4FE0327C4FC23A2E70011
:101130008327C4FD83A74700232CF4FC93874191A8
:101140002320F4FE6F000001832704FE83A707001D
:101150002320F4FE832704FE83A7070083A747000C
:10116000032784FDE3E2E7FE832704FE03A70700CD
:101170008327C4FD23A0E700832704FE0327C4FDC3
:1011800023A0E700B737008003A707358327C4FEF5
:1011900083A747003307F740B737008023A8E73419
:1011A000EF001067832744FE63940700EF10504060
:1011B000832744FE138507008320C1030324810392
:1011C0001301010467800000130101FD23261102B1
:1011D0002324810213040103232EA4FC8327C4FDCE
:1011E0002324F4FE8327C4FD638C07089307800043
:1011F000B307F040032784FEB307F7002324F4FE6F
:10120000832784FE2322F4FEEF00105E832744FE32
:1012100083A747002320F4FE938741912326F4FE01
:101220006F0000018327C4FE83A707002326F4FE76
:101230008327C4FE83A7070083A74700032704FE74
:10124000E3E2E7FE8327C4FE03A70700832744FEEB
:1012500023A0E7008327C4FE032744FE23A0E70062
:10126000832744FE03A74700B737008083A70735CD
:101270003307F700B737008023A8E734EF00505951
:10128000130000008320C102032481021301010323
:1012900067800000130101FE232E81001304010268
:1012A000B73700809387474C93F7C7FF2326F4FE98
:1012B0000327C4FE23AAE1909387419123A207004C
:1012C0009387C191379701001307C7FF23A2E70057
:1012D00023AE01908327C4FE2324F4FE832784FEDB
:1012E000379701001307C7FF23A2E700832784FE77
:1012F0001387C19123A0E700130000000324C1015C
:101300001301010267800000130101FE232E8100FA
:1013100013040102F32740F12326F4FE8327C4FEC1
:101320002324F4FEF36744302322F4FE37070044FD
:10133000832784FE93972700B307F7001307100055
:1013400023A0E700130000000324C10113010102E0
:1013500067800000130101FF2326810013040101AF
:1013600073700430B737008083A7473513871700A1
:10137000B737008023AAE734130000000324C1001C
:101380001301010167800000130101FF2326810082
:1013900013040101B737008083A747351387F7FF90
:1013A000B737008023AAE734B737008083A74735D3
:1013B0006394070073600430130000000324C1002D
:1013C0001301010167800000130101FE232E81003B
:1013D00013040102373600800326863503260600F3
:1013E0002324C4FE232604FE3736008003268635D8
:1013F0000326460093060600130700001398060014
:1014000093070000032784FE3367F7002324E4FEDC
:101410000327C4FEB36707012326F4FE832684FE58
:101420000327C4FEB74501009385854313060000DA
:10143000B387B600138507003335D5003308C700DE
:1014400033070501130807002324F4FE232604FFB5
:10145000B737008083A7C735032784FE23A0E700A2
:101460008327C4FE13D3070093030000B73700801F
:1014700083A7C7351307030023A2E70093070008DB
:1014800073A04730130000000324C10113010102BF
:1014900067800000130101FE232E81001304010266
:1014A0003736008003268635032606002324C4FE33
:1014B000232604FE373600800326863503264600A1
:1014C0009306060013070000139806009307000018
:1014D000032784FE3367F7002324E4FE0327C4FEBA
:1014E000B36707012326F4FE832684FE0327C4FE88
:1014F000B74501009385854313060000B387B60006
:10150000138507003335D5003308C70033070501BD
:10151000130807002324F4FE232604FFB7370080B6
:1015200083A7C735032784FE23A0E7008327C4FED3
:1015300013D3070093030000B737008083A7C73594
:101540001307030023A2E7009307000873A04730A6
:10155000130000000324C101130101026780000091
:10156000130101FF2326810013040101B737008016
:1015700003A747359307F0FF6306F7007370043045
:101580006F000000737004306F000000130101FE53
:10159000232E8100130401022326A4FE2324B4FE7B
:1015A0002322C4FE8327C4FE9387C7FF2326F4FEAD
:1015B000032784FE8327C4FE23A0E7008327C4FEFD
:1015C000938787FA2326F4FE032744FE8327C4FE6D
:1015D00023A0E7008327C4FE938787FE2326F4FE1B
:1015E00093870100138707008327C4FE23A0E70029
:1015F0008327C4FE938747FF2326F4FEB717008096
:10160000138707568327C4FE23A0E7008327C4FE61
:10161000138507000324C101130101026780000044
:10162000130101FF2326110023248100130401016B
:1016300083A2C19223A0C200EFF01FD9EF00503364
:101640009307050063840700EF00505103A1C19286
:10165000032101008322C10773901234832001000B
:101660000322C1008322010103234101832381015D
:101670000324C10183240102032541028325810241
:101680000326C10283260103032741038327810325
:101690000328C10383280104032941048329810409
:1016A000032AC104832A0105032B4105832B8105ED
:1016B000032CC105832C0106032D4106832D8106D1
:1016C000032EC106832E0107032F4107832F8107B5
:1016D0001301010873002030130000008320C100B3
:1016E000032481001301010167800000130101FF41
:1016F000232611002324810013040101EFF09FD958
:10170000B737008023AA07341307100023A4E192FF
:10171000EFE09FCDEFF05FBF930700001385070058
:101720008320C100032481001301010167800000B0
:10173000130101FF2326110023248100130401015A
:1017400003A78192930710006318F7001307200086
:1017500023A4E1926F00000183A2C19223A0C200E2
:10176000EF00D03FB707004423A0070003A1C192B8
:10177000032101008322C1077390123483200100EA
:101780000322C1008322010103234101832381013C
:101790000324C10183240102032541028325810220
:1017A0000326C10283260103032741038327810304
:1017B0000328C103832801040329410483298104E8
:1017C000032AC104832A0105032B4105832B8105CC
:1017D000032CC105832C0106032D4106832D8106B0
:1017E000032EC106832E0107032F4107832F810794
:1017F0001301010873002030130000008320C10092
:10180000032481001301010167800000130101FF1F
:10181000232611002324810013040101EFF0DFAE21
:10182000130000008320C100032481001301010183
:1018300067800000130101FE232E810013040102C2
:101840002326A4FE8327C4FE138787008327C4FEB4
:1018500023A2E7008327C4FE1307F0FF23A4E700B9
:101860008327C4FE138787008327C4FE23A6E700CF
:101870008327C4FE138787008327C4FE23A8E700BD
:101880008327C4FE23A00700130000000324C10126
:101890001301010267800000130101FE232E810065
:1018A000130401022326A4FE8327C4FE23A80700F5
:1018B000130000000324C10113010102678000002E
:1018C000130101FD2326810213040103232EA4FC2E
:1018D000232CB4FC8327C4FD83A747002326F4FEF2
:1018E000832784FD0327C4FE23A2E7008327C4FEC9
:1018F00003A78700832784FD23A4E7008327C4FE72
:1019000083A78700032784FD23A2E7008327C4FE63
:10191000032784FD23A4E700832784FD0327C4FD58
:1019200023A8E7008327C4FD83A7070013871700B8
:101930008327C4FD23A0E700130000000324C10295
:101940001301010367800000130101FD23268102BA
:1019500013040103232EA4FC232CB4FC832784FD51
:1019600083A707002324F4FE032784FE9307F0FFD8
:10197000631AF7008327C4FD83A707012326F4FE1B
:101980006F0040038327C4FD938787002326F4FE5E
:101990006F0000018327C4FE83A747002326F4FEBF
:1019A0008327C4FE83A7470083A70700032784FE7D
:1019B000E372F7FE8327C4FE03A74700832784FD55
:1019C00023A2E700832784FD83A74700032784FD24
:1019D00023A4E700832784FD0327C4FE23A4E70094
:1019E0008327C4FE032784FD23A2E700832784FD09
:1019F0000327C4FD23A8E7008327C4FD83A70700AE
:101A0000138717008327C4FD23A0E70013000000FD
:101A10000324C1021301010367800000130101FDCB
:101A20002326810213040103232EA4FC8327C4FD73
:101A300083A707012326F4FE8327C4FD83A747005D
:101A40000327C4FD0327870023A4E7008327C4FDE1
:101A500083A787000327C4FD0327470023A2E700CD
:101A60008327C4FE83A747000327C4FD631AF7003A
:101A70008327C4FD03A787008327C4FE23A2E700B2
:101A80008327C4FD23A807008327C4FE83A707007C
:101A90001387F7FF8327C4FE23A0E7008327C4FE34
:101AA00083A70700138507000324C1021301010364
:101AB00067800000130101FD232681021304010346
:101AC000232EA4FC232CB4FC232AC4FC832784FDEE
:101AD0002326F4FE8327C4FD2324F4FE0327C4FD3C
:101AE000832784FDB367F70093F7370063960706F3
:101AF0006F00C0028327C4FE03A70700832784FE6C
:101B000023A0E700832784FE938747002324F4FE65
:101B10008327C4FE938747002326F4FE832744FDD2
:101B20009387D7FF0327C4FDB307F700032784FE7D
:101B3000E362F7FC6F0040020327C4FE930717001F
:101B40002326F4FE832784FE938617002324D4FEE5
:101B5000030707002380E7000327C4FD832744FD14
:101B6000B307F700032784FEE368F7FC8327C4FD6F
:101B7000138507000324C1021301010367800000DD
:101B8000130101FD2326810213040103232EA4FC6B
:101B9000232CB4FC232AC4FC0327C4FD832744FD63
:101BA000B367F70093F7370063980706832784FD30
:101BB00093F7F70F2322F4FE832744FE93978700C1
:101BC000032744FEB367F7002322F4FE832744FE75
:101BD00093970701032744FEB367F7002322F4FE1F
:101BE0008327C4FD2326F4FE6F0080018327C4FEF3
:101BF000138747002326E4FE032744FE23A0E700C3
:101C00000327C4FD832744FDB307F7000327C4FE61
:101C1000E36EF7FC6F0000048327C4FD2324F4FE69
:101C20006F000002832784FE138717002324E4FE3D
:101C3000032784FD13178701135787412380E7008B
:101C40000327C4FD832744FDB307F700032784FE61
:101C5000E36AF7FC8327C4FD138507000324C10250
:101C60001301010367800000130101FD2326810297
:101C700013040103232EA4FC8327C4FD2326F4FEB2
:101C80006F0000018327C4FE938717002326F4FE0C
:101C90008327C4FE83870700E39607FE0327C4FE5D
:101CA0008327C4FDB307F740138507000324C1024F
:101CB0001301010367800000130101FC232E1102B0
:101CC000232C810213040104232EA4FC232CB4FC36
:101CD0002328D4FC2326E4FC2324F4FC232204FD43
:101CE000232014FD93070600231BF4FC8327C4FD67
:101CF00063960700737004306F0000000327C4FC74
:101D00009307400063F6E700737004306F00000033
:101D1000835764FD832544FC13850700EF001028DA
:101D20002324A4FE832784FE63820716832784FE70
:101D300003A70703835664FDB70700409387F7FFA7
:101D4000B387F60093972700B307F7002322F4FE2A
:101D5000832744FE93F7C7FF2322F4FE832744FE24
:101D600093F7370063860700737004306F0000003C
:101D7000835764FD13870700832604FC0326C4FCF5
:101D8000832584FD032584FEEF00406F032604FDB8
:101D90008325C4FD032544FEEFF04FFF1307050024
:101DA000832784FE23A0E700832784FC6388070041
:101DB000832784FC032784FE23A0E700EFF08FD95C
:101DC00083A7C1931387170023AEE19283A7C19223
:101DD00063900702032784FE23A6E19203A7C19321
:101DE000930710006316F702EF00C07C6F004002FB
:101DF00083A78194639E070083A7C19283A7C7022C
:101E00000327C4FC6366F700032784FE23A6E19240
:101E100083A781951387170023ACE19403A78195CD
:101E2000832784FE23A4E704832784FE03A7C70235
:101E300083A7419463F8E700832784FE03A7C702C2
:101E400023A2E194832784FE03A7C7029307070018
:101E500093972700B387E7009397270037C7018040
:101E60001307074C3387E700832784FE93874700D7
:101E70009385070013050700EFF09FA49307100058
:101E80002326F4FEEFF04FD06F00C0009307F0FF61
:101E90002326F4FE0327C4FE930710006310F70205
:101EA00083A78194638C070083A7C19283A7C7028D
:101EB0000327C4FC63F4E700EFF05F958327C4FEBB
:101EC000138507008320C103032481031301010448
:101ED00067800000130101FD2326110223248102E3
:101EE00013040103232EA4FC232604FE8327C4FD30
:101EF0006384070483A70196638607007370043028
:101F00006F000000EF00400E83A701940327C4FD7B
:101F1000B307F7002324F4FE83A7C19293874700F9
:101F200013850700EFF09FAF032584FEEF00807E4E
:101F3000EF00000E2326A4FE8327C4FE639407004F
:101F4000EFF0DF8C130000008320C1020324810224
:101F50001301010367800000130101FE232E11000D
:101F6000232C8100130401029308000013080000D1
:101F700093070000130700009306000013060040BB
:101F8000B7350080938505213725008013058544EA
:101F9000EFF09FD22326A4FE0327C4FE9307100070
:101FA0006312F702737004301307F0FF23AEE1945D
:101FB0001307100023A4E19423A00194EFF00FF382
:101FC0006F0040018327C4FE6396070073700430DE
:101FD0006F000000130000008320C1010324810171
:101FE0001301010267800000130101FF2326810015
:101FF0001304010183A701961387170023A0E1961C
:10200000130000000324C1001301010167800000D8
:10201000130101FE232E1100232C81001304010261
:10202000232604FE83A7019663960700737004308D
:102030006F000000EFF00FB283A701961387F7FF40
:1020400023A0E19683A701966396071083A7C19307
:10205000638207106F00800AB7C701809387C75457
:1020600083A7C70083A7C7002324F4FE832784FE29
:102070009387870113850700EFF05F9A832784FE1B
:102080009387470013850700EFF05F99832784FE4D
:1020900003A7C70283A7419463F8E700832784FE60
:1020A00003A7C70223A2E194832784FE03A7C702E4
:1020B0009307070093972700B387E70093972700BC
:1020C00037C701801307074C3387E700832784FE57
:1020D000938747009385070013050700EFF04FFE35
:1020E000832784FE03A7C70283A7C19283A7C702E1
:1020F0006366F7001307100023A8E194B7C70180B7
:1021000083A7C754E39A07F483A7C194638807029F
:102110006F004002EF00C0059307050063860700CB
:102120001307100023A8E19483A7C1941387F7FF36
:1021300023A6E19483A7C194E39E07FC03A701951E
:10214000930710006318F700930710002326F4FE8E
:10215000EFF0CFEBEFF04FA38327C4FE138507000A
:102160008320C10103248101130101026780000063
:10217000130101FD2326110223248102130401030C
:10218000232604FE83A701966390071A83A7019470
:102190001387170023A0E19483A701942324F4FE5E
:1021A000832784FE6390070483A7019383A7070016
:1021B00063860700737004306F00000083A70193EB
:1021C0002322F4FE03A7419323A8E192032744FEB0
:1021D00023AAE19283A741951387170023AAE194CC
:1021E000EF00C06B83A7C195032784FE6360F710DF
:1021F00083A7019383A70700639607009307100046
:102200006F00800093070000638807001307F0FF4A
:1022100023AEE1946F00800D83A7019383A7C700CD
:1022200083A7C7002320F4FE832704FE83A747006B
:10223000232EF4FC032784FE8327C4FD6378F70074
:102240000327C4FD23AEE1946F00400A832704FEF8
:102250009387470013850700EFF04FFC832704FEA8
:1022600083A78702638A0700832704FE9387870179
:1022700013850700EFF08FFA832704FE03A7C70238
:1022800083A7419463F8E700832704FE03A7C702EE
:1022900023A2E194832704FE03A7C7029307070044
:1022A00093972700B387E7009397270037C70180EC
:1022B0001307074C3387E700832704FE9387470003
:1022C0009385070013050700EFF08FDF832704FED7
:1022D00003A7C70283A7C19283A7C702E36AF7F0E7
:1022E000930710002326F4FE6FF09FF083A7C1929E
:1022F00003A7C702B7C6018093070700939727007B
:10230000B387E700939727001387064CB387E7004E
:1023100003A707009307100063FEE7009307100070
:102320002326F4FE6F00000183A7C19413871700D2
:1023300023A6E19483A70195638607009307100005
:102340002326F4FE8327C4FE138507008320C102E1
:10235000032481021301010367800000130101FEC1
:10236000232E81001304010283A7019663880700CE
:102370001307100023A8E1946F00000C23A8019418
:102380006F00000283A741946396070073700430C6
:102390006F00000083A741941387F7FF23A2E19405
:1023A00003A74194B7C601809307070093972700BE
:1023B000B387E700939727001387064CB387E7009E
:1023C00083A70700E38007FC03A741949307070056
:1023D00093972700B387E7009397270037C70180BB
:1023E0001307074CB387E7002326F4FE8327C4FEB8
:1023F00083A7470003A747008327C4FE23A2E70063
:102400008327C4FE03A747008327C4FE9387870062
:10241000631CF7008327C4FE83A7470003A7470078
:102420008327C4FE23A2E7008327C4FE83A74700B7
:1024300003A7C70023A6E192130000000324C101F3
:102440001301010267800000130101FE232E110019
:10245000232C8100130401022326A4FEEF00802117
:10246000B7C7018003A7074C9307100063F4E70088
:10247000EFF0CFB9EF0010156FF05FFE130101FC14
:10248000232E1102232C810213040104232EA4FC09
:10249000232CB4FC232AC4FC2328D4FC9307070074
:1024A0002317F4FC232604FE6F004004032784FD59
:1024B0008327C4FEB307F700038707008326C4FD04
:1024C0008327C4FEB387F600238AE702032784FD2F
:1024D0008327C4FEB307F7008387070063800702E2
:1024E0008327C4FE938717002326F4FE0327C4FE28
:1024F0009307F000E3FCE7FA6F0080001300000090
:102500008327C4FDA3810704032744FD93074000EC
:1025100063F6E70093074000232AF4FC8327C4FDF9
:10252000032744FD23A6E7028327C4FD032744FDB8
:1025300023A8E7048327C4FD23AA07048327C4FD37
:102540009387470013850700EFF00FB58327C4FD7D
:102550009387870113850700EFF00FB48327C4FD2D
:102560000327C4FD23A8E70013075000832744FD79
:102570003307F7408327C4FD23ACE7008327C4FD5E
:102580000327C4FD23A2E7028327C4FD23A2070477
:102590008327C4FD23AC07048327C4FD23AE0704AF
:1025A000130000008320C1030324810313010104ED
:1025B00067800000130101FE232E1100232C8100EF
:1025C00013040102232604FE6F0080030327C4FEC8
:1025D0009307070093972700B387E7009397270097
:1025E00037C701801307074CB387E700138507003F
:1025F000EFF04FA48327C4FE938717002326F4FE31
:102600000327C4FE93074000E3F2E7FCB7C701804D
:1026100013854752EFF00FA2B7C701801385875388
:10262000EFF04FA1B7C701801385C754EFF08FA01B
:10263000B7C7018013850756EFF0CF9FB7C701805A
:1026400013854757EFF00F9F37C701801307475295
:1026500023A8E19237C701801307875323AAE19289
:10266000130000008320C101032481011301010232
:1026700067800000130101FE232E1100232C81002E
:10268000130401026F004007EFF01F96B7C70180E7
:1026900083A7075693B7170093F7F70F2326F4FE87
:1026A000EFF01F978327C4FE63980704EFE09FCAEB
:1026B000B7C701809387075683A7C70083A7C700C2
:1026C0002324F4FE832784FE9387470013850700A5
:1026D000EFF0CFB483A7C1931387F7FF23AEE19246
:1026E00083A781931387F7FF23ACE192EFE0DFC963
:1026F000032584FEEF00801683A78193E39607F8F5
:10270000130000008320C101032481011301010291
:1027100067800000130101FE232E1100232C81008D
:10272000130401022326A4FE83A7C1920327C4FE3B
:1027300023A2E70083A701940327C4FE6370F70276
:1027400003A7419383A7C19293874700938507000E
:1027500013050700EFF04F9F6F00000303A70193DD
:1027600083A7C1929387470093850700130507004D
:10277000EFF08F9D83A7C1950327C4FE6376F70012
:102780000327C4FE23AEE194130000008320C1019F
:10279000032481011301010267800000130101FD80
:1027A0002326110223248102130401039307050049
:1027B000232CB4FC231FF4FC832784FD639E0700B5
:1027C0008357E4FD9397270013850700EFE01F82EE
:1027D000930705006F008000832784FD2324F4FE07
:1027E000832784FE638A070213050006EFE01F803B
:1027F0002326A4FE8327C4FE638A07008327C4FE22
:10280000032784FE23A8E7026F004001032584FE0E
:10281000EFE09F9B6F008000232604FE8327C4FE09
:10282000638207028327C4FE03A707038357E4FDDF
:1028300093972700138607009305500A1305070096
:10284000EFF00FB48327C4FE138507008320C10275
:10285000032481021301010367800000130101FEBC
:10286000232E1100232C8100130401022326A4FE31
:102870008327C4FE83A7070313850700EFE0DF94D7
:102880000325C4FEEFE05F94130000008320C10124
:10289000032481011301010267800000130101FE7E
:1028A000232E81001304010283A7019383A707004D
:1028B00063960700930710006F00800093070000E5
:1028C000638807001307F0FF23AEE1946F00000256
:1028D00083A7019383A7C70083A7C7002326F4FE1D
:1028E0008327C4FE03A7470023AEE1941300000032
:1028F0000324C1011301010267800000130101FEDE
:10290000232E810013040102F32740F12324F4FE57
:10291000832784FE2322F4FE232604FE6F00C003D7
:1029200037070040832744FE939657008327C4FE51
:10293000B386F600B717000093870780B387F600C9
:1029400093972700B307F70023A007008327C4FE4F
:10295000938717002326F4FE8327C4FEE38207FC37
:10296000232604FE6F004002370700408327C4FE81
:1029700093972700B307F70023A007008327C4FE1F
:10298000938717002326F4FE0327C4FE9307E00174
:10299000E3FCE7FC37070040832744FE93870720CA
:1029A0009397C700B307F70023A00700B7170000ED
:1029B00093870780F3A747302320F4FE130000001D
:1029C0000324C1011301010267800000130101FD0E
:1029D0002326810213040103232EA4FCF32740F1D4
:1029E0002326F4FE8327C4FE2324F4FE3707004089
:1029F0008327C4FD93D75700832684FE9396560001
:102A0000B386F600B717000093870780B387F600F8
:102A100093972700B307F70083A707002322F4FE4C
:102A20008327C4FD93F7F70113071000B317F700CE
:102A3000032744FEB367F7002322F4FE3707004064
:102A40008327C4FD93D75700832684FE93965600B0
:102A5000B386F600B717000093870780B387F600A8
:102A600093972700B307F700032744FE23A0E7004E
:102A7000130000000324C10213010103678000005A
:102A8000130101FE232E1100232C810013040102E7
:102A9000B70700901385C7FFEFE08FA093070500ED
:102AA0009385070037050050EFE00F9F3705005072
:102AB000EFE00F9F2326A4FE0325C4FEEF000010C5
:102AC0009307050093850700B70700501385070299
:102AD000EFE08F9C0325C4FEEF0000119307050073
:102AE00093850700B707005013850702EFE0CF9AE0
:102AF000B747000013854744EF000017130000009C
:102B00008320C101032481011301010267800000B9
:102B1000130101FD23261102232481021304010362
:102B2000232EA4FC232604FE8327C4FE0327C4FD12
:102B3000B307F7008387070093850700B7070050A6
:102B400013850702EFE04F958327C4FE9387170094
:102B50002326F4FE8327C4FE9387F7FF0327C4FDD3
:102B6000B307F70083870700E39007FC130000001A
:102B70008320C10203248102130101036780000046
:102B8000130101FE232E1100232C810013040102E6
:102B90002326A4FE8327C4FE93850700B7070050B1
:102BA00013854702EFE04F8F130000008320C1011F
:102BB000032481011301010267800000130101FE5B
:102BC000232E8100130401022326A4FE8327C4FEC2
:102BD00093D7870093F7F70F138507000324C101EC
:102BE0001301010267800000130101FE232E810002
:102BF000130401022326A4FE8327C4FE93F7F70FD4
:102C0000138507000324C10113010102678000003E
:102C1000130101FE232E1100232C81001304010255
:102C20002326A4FE8325C4FEB70700501385470062
:102C3000EFE08F86B727000093852722B707005063
:102C400013858700EFE04F85B73700801385C721D4
:102C5000EFF01FEC130000008320C1010324810169
:102C60001301010267800000130101FE232E1100F1
:102C7000232C8100130401022326A4FE0327C4FE93
:102C8000B727000093872722630AF7000327C4FEB3
:102C9000B7470000938747446316F70013051000F9
:102CA000EFF0DFD20327C4FEB73700009387373336
:102CB000630AF7000327C4FEB74700009387474421
:102CC0006318F70013052000EFF05FD01300000039
:102CD000130000008320C1010324810113010102BC
:102CE00067800000130101FF2326110023248100C7
:102CF00013040101EFF09FC0930610001306C002F9
:102D0000B7150070B7C701801385C758EFE04F862D
:102D1000EFF01FD7B737008093858724B7C70180AE
:102D20001385C758EFE08FA1B73700809385072937
:102D3000B7C701801385C758EFE04FA09308000084
:102D400013080000930700001307200093060000FB
:102D50001306803EB73500809385C52D373500803A
:102D6000130505DEEFE05FF593080000130800008F
:102D70009307000013072000930600001306803E0F
:102D8000B73500809385452E37350080130545F013
:102D9000EFE09FF2EFF04F9C9307000013850700D0
:102DA0008320C1000324810013010101678000001A
:102DB000130101FF23268100130401017370043005
:102DC0006F000000130101FF23268100130401019D
:102DD000130000000324C1001301010167800000FB
:102DE000130101F12326110E2324810E1304010F78
:102DF000232EA4F0232604FE930710102322F4F2BE
:102E0000930740012324F4F237050050EFD05FE927
:102E1000930705002326F4F2930730002326F4FEDF
:102E20006F0080020327C4FE8327C4FE9397270008
:102E3000930604FFB387F60023AAE7F28327C4FEB4
:102E4000938717002326F4FE0327C4FE930730015F
:102E5000E3DAE7FC232604FE1305A000EFF08F87DA
:102E6000B73700809385C72EB7C701801385C75831
:102E7000EFE0CF8C13052000EFF0CF858327C4FE51
:102E80006392070237050050EFD09FE1130705005A
:102E9000930710106308F700930744F213850700A7
:102EA000EFF01FD78327C4FE938717002326F4FE75
:102EB0000325C4FEEFF0DFCCB737008013858721F0
:102EC000EFF01FC5930784F81306A0009385070051
:102ED0000325C4FEEF000015930784F893850700CF
:102EE000B7C701801385C758EFE04F85B73700801B
:102EF00093858721B7C701801385C758EFE00F84FA
:102F00006FF01FF6130101E4232E111A232C811AEE
:102F10001304011C2326A4E49307C4E5938507004A
:102F2000B707005013854700EFD01FD79307C4E5BC
:102F300093850700B707005013854700EFD0DFD512
:102F4000232604FE6F0040028327C4FE93972700C8
:102F5000130704FFB307F70023A607E68327C4FE81
:102F6000938717002326F4FE0327C4FE9307300639
:102F7000E3DCE7FCB73700809385872FB7C7018074
:102F80001385C758EFD09FFB13055000EFE09FF467
:102F9000832784E7E38007FEB737008093854730B7
:102FA000B7C701801385C758EFD05FF9832744E680
:102FB00013850700EFF0DFBC6FF0DFFB130101FFAB
:102FC00023248100232611001307E6FF9307200224
:102FD0001384050063F0E70223800500130400005A
:102FE000130504008320C1000324810013010101A3
:102FF000678000009307A0006312F6026350050289
:103000009307D0022380F5003305A04093051000FC
:10301000B305B400EF0000036FF09FFC93050000C0
:103020006FF01FFF6FF09FF99707000093878733BA
:1030300093060600138605009305050003A5070007
:103040006F00C00C130101FC232C8102232A910282
:1030500023282103930405001309060013840500A7
:1030600013065002970500009385452C1305810037
:10307000232E1102EFE01FA49306E9FF930720021D
:103080001307000063F8D7022300040013040000B4
:10309000130504008320C103032481038324410317
:1030A00003290103130101046780000013070600D0
:1030B00093840700B3F72403930501031306170055
:1030C000B306C400B387F50083C787FDA38FF6FE60
:1030D000B3D72403E3FC24FD2380060093070000FC
:1030E000B306E4003306F740E3D4C7FA3306F4002E
:1030F00003C5060083450600938717002300A6003A
:103100002380B6009386F6FF6FF0DFFD130101FF09
:103110002324810013040500138505009305060090
:10312000138606009797010023A207462326110065
:10313000EFD01FA89307F0FF631CF50097970100DD
:103140009387C74483A70700638407002320F40004
:103150008320C10003248100130101016780000066
:1031600068656C6C6F000000494E54310A00000025
:10317000494E54320A000000496E746572727570CF
:10318000C3A7C3A36F206465746563746164612021
:1031900068616E646C655F6D5F6578745F696E749D
:1031A000657272757074210A00000000496E7465C2
:1031B00072727570C3A7C3A36F206465746563746E
:1031C0006164612068616E646C655F6D5F736F66DA
:1031D000745F696E74657272757074210A00000004
:1031E000747261700A000000307800000A50726F3B
:1031F00067616D2068617320657869746564207704
:1032000069746820636F64653A0000000D00000077
:1032100049444C45000000000A0000004D656E73F3
:103220006167656D20656E766961646121000000EB
:103230000D0A4672656552544F53204578616D7092
:103240006C650D0A000000000A20202020202020AC
:103250002053616D706C652044656D6F6E73747280
:103260006174696F6E206F66204672656552544FB7
:103270005320706F727420666F72204D692D562036
:1032800070726F636573736F722E0D0A0D0A000002
:10329000202020202020546869732070726F6A6596
:1032A000637420637265617465732074776F207432
:1032B00061736B7320616E642072756E7320746825
:1032C000656D20617420726567756C617220696E2E
:1032D00074657276616C732E0D0A0000554172742C
:1032E0003100000055417274320000005461736B6C
:1032F000202D20310D0A00005461736B202D2032E7
:103300000D0A00003E2D2D5265636562692D616CCA
:10331000676F2D2D2D2D2D2D2D2D2D2D2D2D2D2D61
:103320002D2D2D2D0D0A0000303132333435363736
:1033300038396162636465666768696A6B6C6D6E73
:103340006F707172737475767778797A0000000007
:10335000FC8F0100AAAAAAAAF8BF004400400044BA
:10336000F0330080000000000000000000000000BA
:103370003806008080030080B40300805806008077
:103380007806008098060080B8060080D806008085
:10339000F806008018070080380700805807008072
:1033A0007807008098070080B8070080D807008061
:1033B000F80700801808008038080080580800804E
:1033C0007808008098080080B8080080D80800803D
:1033D000F80800801809008038090080580900802A
:1033E0007809008098090080B8090080D809008019
:1033F00000000000000000000000000000000000CD
:1034000000000000000000000000000000000000BC
:1034100000000000000000000000000000000000AC
:10342000000000000000000000000000000000009C
:10343000000000000000000000000000000000008C
:10344000000000000000000000000000000000007C
:040000058000000077
:00000001FF
