:0200000480007A
:100000006F00C0006F0000006F00800297020000C8
:1000100093824202739052307350003073504030DC
:1000200093810100172104001301C17D6F00401A64
:100030001301C1F7232011002322210023243100C2
:100040002326410023285100232A6100232C71001C
:10005000232E8100232091022322A1022324B10216
:100060002326C1022328D102232AE102232CF102F4
:10007000232E0103232011052322210523243105EA
:100080002326410523285105232A6105232C7105C8
:10009000232E8105232091072322A1072324B107C2
:1000A0002326C1072328D107232AE107232CF107A0
:1000B000F3221034232E510693028000F3B2023053
:1000C0002320510873252034F32510341306010032
:1000D000EF00406D73101534B72200009382028048
:1000E00073A00230832201089392420073A0023071
:1000F0008320010003214100832181000322C100EC
:100100008322010103234101832381010324C101CF
:100110008324010203254102832581020326C102B3
:100120008326010303274103832781030328C10397
:10013000832801040329410483298104032AC1047B
:10014000832A0105032B4105832B8105032CC1055F
:10015000832C0106032D4106832D8106032EC10643
:10016000832E0107032F4107832F810713014108C5
:1001700073002030000000000000000000000000BC
:10018000130101FD2326810213040103232EA4FC85
:10019000232CB4FC8327C4FD2326F4FE6F008001CA
:1001A0008327C4FE23A007008327C4FE938747004C
:1001B0002326F4FE0327C4FE832784FDE3F2E7FE33
:1001C000130000000324C102130101036780000033
:1001D000130101FE232E1100232C810013040102C0
:1001E000B7770080938707672326F4FE8327C4FE32
:1001F0002320F4FE232204FE232404FE938501978A
:1002000013850190EFF0DFF7B73702809385078001
:1002100013850197EFF0DFF6930704FE938507003F
:1002200013051000EF70401F130000008320C10170
:10023000032481011301010267800000130101FF03
:100240002326810013040101130000000324C100D0
:100250001301010167800000130101FD23268102C3
:1002600013040103232EA4FCF32740F12326F4FEFC
:100270008327C4FE2324F4FE370700408327C4FDF0
:1002800093D75700832684FE93965600B386F600D4
:10029000B717000093870780B387F600939727006E
:1002A000B307F70083A707002322F4FE8327C4FDCA
:1002B00093F7F70113071000B317F70093C7F7FF81
:1002C000032744FEB377F7002322F4FE37070040EC
:1002D0008327C4FD93D75700832684FE9396560048
:1002E000B386F600B717000093870780B387F60040
:1002F00093972700B307F700032744FE23A0E700E6
:10030000130000000324C1021301010367800000F1
:10031000130101FE232E810013040102F32740F193
:100320002326F4FE8327C4FE2324F4FE370700406F
:10033000832784FE938707209397C700B307F700AE
:1003400083A74700138507000324C101130101029D
:1003500067800000130101FD2326810213040103BD
:10036000232EA4FCF32740F12326F4FE8327C4FEAA
:100370002324F4FE37070040832784FE9387072059
:100380009397C700B307F7000327C4FD23A2E70034
:10039000130000000324C102130101036780000061
:1003A000130101FE232E810013040102F3670430C0
:1003B0002326F4FE130000000324C10113010102EF
:1003C00067800000130101FE232E1100232C810001
:1003D0001304010293070008F3B747302326F4FE05
:1003E000EF10C05337070044B7C70000B307F7004A
:1003F00003A8C7FF83A787FF83A5019003A64190A9
:1004000037050044732740F12324E4FE832884FE4B
:10041000B386B700138306003333F3003307C800F5
:10042000B307E3001387070093870600130807004C
:1004300037170000130707803387E80013173700CA
:100440003307E5002320F700232207019307000864
:10045000F3A747302322F4FE130000008320C101DC
:10046000032481011301010267800000130101FED2
:10047000232E1100232C810013040102EFF05FE909
:100480002326A4FEA30504FEB78700800327C4FE2D
:100490001317270093870700B307F70083A7070008
:1004A000E780070093070500A305F4FE0325C4FEBB
:1004B000EFF05FEA0347B4FE930710006318F700FC
:1004C0000325C4FEEFF05FD9130000001300000005
:1004D0008320C10103248101130101026780000010
:1004E000130101FF232611002324810013040101BD
:1004F000EF104055B707004423A007001300000089
:100500008320C100032481001301010167800000E2
:10051000130101FD23261102232481021304010388
:10052000930200009302010093870200938747071C
:100530002326F4FE8327C4FE83A707002324F4FEAA
:1005400093870200938787072326F4FE8327C4FE40
:1005500083A707002322F4FE938702009387C7072F
:100560002326F4FE8327C4FE83A707002320F4FE7E
:1005700093870200938707082326F4FE8327C4FE8F
:1005800083A70700232EF4FC938702009387470874
:100590002326F4FE8327C4FE83A70700232CF4FC44
:1005A00093870200938787082326F4FE8327C4FEDF
:1005B00083A70700232CF4FC938702009387070985
:1005C0002326F4FE8327C4FE83A70700232AF4FC16
:1005D000832744FD938767FF130780036366F71241
:1005E00013972700B77700809387C770B307F7008A
:1005F00083A7070067800700B777008013858767A8
:10060000EF50802D832784FE93850700B777008005
:100610001385076AEF500037832744FE9385070050
:10062000B77700801385876AEF50C035832704FEB3
:1006300093850700B77700801385076BEF508034F0
:100640008327C4FD93850700B77700801385876BE8
:10065000EF504033832784FD93850700B7770080F0
:100660001385076CEF500032832744FD9385070004
:10067000B77700801385876CEF50C0306F00401152
:10068000832784FE13850700EF500025832784FE0F
:1006900093850700B72702801385C77EEF00D03906
:1006A0006F00000F832784FE13850700EF50C029D9
:1006B000032784FE1306A000B717028093858736B0
:1006C00013050700EF50C053B71702809385873694
:1006D000B72702801385C77EEF0010366F00400BEE
:1006E000832544FE032584FEEF50D02D6F00400A81
:1006F000832544FE032584FEEF50D0796F00400926
:10070000EF40402E6F00C008B77700801385076D5B
:10071000EF50801C832784FE93850700B777008005
:100720001385076AEF500026832744FE9385070050
:10073000B77700801385876AEF50C024832704FEB3
:1007400093850700B77700801385076BEF508023F0
:100750008327C4FD93850700B77700801385876BD7
:10076000EF504022832784FD93850700B7770080F0
:100770001385076CEF500021832744FD9385070004
:10078000B77700801385876CEF50C01F13000000FF
:10079000130000008320C10203248102130101031E
:1007A00067800000130101FE232E1100232C81001D
:1007B000130401022326A4FE2324B4FE8327C4FECF
:1007C00063CC07060327C4FEB707008093C7F7FF73
:1007D0003377F7009307B0006306F7040327C4FEDE
:1007E000B707008093C7F7FF3377F7009307A000A0
:1007F000630AF7020327C4FEB707008093C7F7FF19
:100800003377F70093079000630EF7000327C4FEC9
:10081000B707008093C7F7FF3377F700930780008F
:10082000631CF700EFF0DFCE832784FE9387470039
:100830002324F4FE6F00400C8327C4FE63D207021A
:100840000327C4FEB707008093C7F7FF3377F7008D
:100850009307B0006316F700EFF05FC16F00C009A7
:100860008327C4FE63D207020327C4FEB7070080B4
:1008700093C7F7FF3377F700930770006316F7000D
:10088000EFF05FB46F0040078327C4FE63D2070216
:100890000327C4FEB707008093C7F7FF3377F7003D
:1008A000930730006316F700EFF09FC36F00C0049A
:1008B00013065000B77700809385076F130510006B
:1008C000EF601054832784FE93850700B77700807C
:1008D0001385876FEF50000B8327C4FE93850700B5
:1008E000B777008013850770EF50C0098327C4FED7
:1008F00013850700EF00804E73700430832784FE59
:10090000138507008320C101032481011301010223
:1009100067800000130101FF2326810013040101F9
:1009200093070000138507000324C1001301010190
:1009300067800000130101FF2326810013040101D9
:1009400093070000138507000324C1001301010170
:1009500067800000130101FF2326810013040101B9
:1009600093070000138507000324C1001301010150
:1009700067800000130101FF232681001304010199
:1009800093070000138507000324C1001301010130
:1009900067800000130101FF232681001304010179
:1009A00093070000138507000324C1001301010110
:1009B00067800000130101FF232681001304010159
:1009C00093070000138507000324C10013010101F0
:1009D00067800000130101FF232681001304010139
:1009E00093070000138507000324C10013010101D0
:1009F00067800000130101FF232681001304010119
:100A000093070000138507000324C10013010101AF
:100A100067800000130101FF2326810013040101F8
:100A200093070000138507000324C100130101018F
:100A300067800000130101FF2326810013040101D8
:100A400093070000138507000324C100130101016F
:100A500067800000130101FF2326810013040101B8
:100A600093070000138507000324C100130101014F
:100A700067800000130101FF232681001304010198
:100A800093070000138507000324C100130101012F
:100A900067800000130101FF232681001304010178
:100AA00093070000138507000324C100130101010F
:100AB00067800000130101FF232681001304010158
:100AC00093070000138507000324C10013010101EF
:100AD00067800000130101FF232681001304010138
:100AE00093070000138507000324C10013010101CF
:100AF00067800000130101FF232681001304010118
:100B000093070000138507000324C10013010101AE
:100B100067800000130101FF2326810013040101F7
:100B200093070000138507000324C100130101018E
:100B300067800000130101FF2326810013040101D7
:100B400093070000138507000324C100130101016E
:100B500067800000130101FF2326810013040101B7
:100B600093070000138507000324C100130101014E
:100B700067800000130101FF232681001304010197
:100B800093070000138507000324C100130101012E
:100B900067800000130101FF232681001304010177
:100BA00093070000138507000324C100130101010E
:100BB00067800000130101FF232681001304010157
:100BC00093070000138507000324C10013010101EE
:100BD00067800000130101FF232681001304010137
:100BE00093070000138507000324C10013010101CE
:100BF00067800000130101FF232681001304010117
:100C000093070000138507000324C10013010101AD
:100C100067800000130101FF2326810013040101F6
:100C200093070000138507000324C100130101018D
:100C300067800000130101FF2326810013040101D6
:100C400093070000138507000324C100130101016D
:100C500067800000130101FF2326810013040101B6
:100C600093070000138507000324C100130101014D
:100C700067800000130101FF232681001304010196
:100C800093070000138507000324C100130101012D
:100C900067800000130101FF232681001304010176
:100CA00093070000138507000324C100130101010D
:100CB00067800000130101FF232681001304010156
:100CC00093070000138507000324C10013010101ED
:100CD00067800000130101FF232681001304010136
:100CE00093070000138507000324C10013010101CD
:100CF00067800000130101FD2326110223248102D5
:100D000013040103232EA4FC232CB4FC130620009F
:100D1000B77700809385077F0325C4FDEF60500EF1
:100D200093078000A307F4FE6F0080098347F4FE59
:100D30009387F7FF2307F4FE8347E4FE939727008A
:100D40001307F000B317F70013870700832784FD0C
:100D50003377F7008347E4FE93972700B357F700F4
:100D6000A306F4FE0347D4FE9307900063EEE7006A
:100D70008347D4FE9387070393F7F70F9397870171
:100D800093D787416F0080018347D4FE9387770311
:100D900093F7F70F9397870193D787412306F4FEC4
:100DA0009307C4FE13061000938507000325C4FDB6
:100DB000EF6010058347F4FE9387F7FFA307F4FE67
:100DC0008347F4FEE39407F6130000008320C1027A
:100DD000032481021301010367800000130101FD58
:100DE000232611022324810213040103232EA4FCD1
:100DF000B77700809387477F2326F4FE0325C4FE40
:100E0000EF10800C93070500138607008325C4FEAE
:100E100013052000EF60C07E8327C4FD9385070083
:100E200013052000EFF01FED6F000000130101FE1D
:100E3000232E8100130401022326A4FE0327C4FEEF
:100E4000930710006308F7000327C4FE93072000F0
:100E50006316F700930710006F004001B727028068
:100E60001307900023A8E7C8930700001385070025
:100E70000324C1011301010267800000130101FE78
:100E8000232E8100130401022326A4FEB72702802B
:100E90000327C4FE23A8E7C89307F0FF13850700C4
:100EA0000324C1011301010267800000130101FD49
:100EB000232611022324810213040103232EA4FC00
:100EC000232CB4FC232AC4FC832784FD2324F4FEB2
:100ED0000325C4FDEFF09FF593070500638C070819
:100EE00083A7019163900702930610001306C002C6
:100EF000B715007013858190EF004017130710009D
:100F000023A8E190232604FE6F008005032784FEBA
:100F10008327C4FEB307F70013061000938507006C
:100F200013858190EF000026032784FE8327C4FEEB
:100F3000B307F70003C707009307A000631CF7007F
:100F400013061000B7870080938547811385819031
:100F5000EF0040238327C4FE938717002326F4FE67
:100F60000327C4FE832744FDE362F7FA832744FD89
:100F70006F00000113059000EFF05FF0930705008C
:100F8000138507008320C10203248102130101039A
:100F9000678000002320B50067800000032505005E
:100FA00067800000138E0600331EBE00337ECE0025
:100FB000032305009303060093C3F3FF3373730009
:100FC0003363C3012320650067800000032505000B
:100FD0003375C5003355B500678000002310B50098
:100FE000678000000315050067800000138E06006F
:100FF000331EBE00337ECE000313050093030600AC
:1010000093C3F3FF337373003363C301231065008D
:1010100067800000031505003375C5003355B50022
:10102000678000002300B50067800000030505000D
:1010300067800000138E0600331EBE00337ECE0094
:10104000030305009303060093C3F3FF3373730098
:101050003363C301230065006780000003050500BA
:101060003375C5003355B50067800000130101FDDD
:10107000232611022324810213040103232EA4FC3E
:10108000232CB4FC9307060013870600231BF4FCF3
:1010900093070700A30AF4FC8327C4FD638A070CA7
:1010A000034754FD9307700063E4E70C035764FDA6
:1010B000B7270000637EF70A832784FD1387870024
:1010C000835764FD93F7F70F938507001305070017
:1010D000EFF05FF5832784FD9386C700034754FD37
:1010E000835764FD93D7574093F7877FB367F70023
:1010F0009385070013850600EFF0DFF28327C4FD18
:10110000032784FD23A0E7008327C4FD83A70700EE
:101110009387070113850700EFF05FF19307050040
:1011200093F72700A307F4FE6F0080038327C4FD15
:1011300083A707009387470013850700EFF01FEF91
:101140008327C4FD83A70700938707011385070042
:10115000EFF0DFED9307050093F72700A307F4FEF8
:101160008347F4FEE39407FC8327C4FD2382070032
:10117000130000008320C102032481021301010334
:1011800067800000130101FD232611022324810240
:1011900013040103232EA4FC232CB4FC232AC4FC37
:1011A0008327C4FD63800708832784FD638C0706BB
:1011B000832744FD63880706232604FE6F00C005CD
:1011C0008327C4FD83A707009387070113850700C2
:1011D000EFF0DFE59307050093F71700A305F4FE92
:1011E0008347B4FEE38E07FC8327C4FD83A6070074
:1011F000032784FD8327C4FEB307F70083C70700D6
:101200009385070013850600EFF0DFE18327C4FE16
:10121000938717002326F4FE0327C4FE832744FD8B
:10122000E360F7FA130000008320C1020324810267
:101230001301010367800000130101FD2326110241
:101240002324810213040103232EA4FC232CB4FCC9
:101250008327C4FD63800708832784FD638C07060A
:10126000232604FE6F00C0058327C4FD83A7070063
:101270009387070113850700EFF05FDB93070500F5
:1012800093F71700A305F4FE8347B4FEE38E07FC33
:101290008327C4FD83A60700032784FD8327C4FE9C
:1012A000B307F70083C7070093850700138506007F
:1012B000EFF05FD78327C4FE938717002326F4FE41
:1012C000032784FD8327C4FEB307F70083C7070005
:1012D000E39C07F8130000008320C102032481026D
:1012E0001301010367800000130101FC232E11028A
:1012F000232C8102130401042326A4FC232204FED0
:10130000EF10400283A7419263980700EF00402846
:101310001307100023A2E1928327C4FC638A07020B
:1013200093078000138707008327C4FCB387E70077
:101330002326F4FC8327C4FC93F73700638A070055
:101340008327C4FC93F7C7FF938747002326F4FC49
:101350008327C4FC638407140327C4FCB7970100E8
:101360009387B7FF63ECE712938741912324F4FE40
:1013700083A741912326F4FE6F0080018327C4FEDA
:101380002324F4FE8327C4FE83A707002326F4FE4C
:101390008327C4FE83A747000327C4FC63F8E70044
:1013A0008327C4FE83A70700E39A07FC0327C4FE34
:1013B0009387C1916304F70E832784FE83A70700F8
:1013C00013078000B387E7002322F4FE8327C4FEBF
:1013D00003A70700832784FE23A0E7008327C4FE1A
:1013E00003A747008327C4FCB307F7401307800017
:1013F000131717006376F7080327C4FE8327C4FC7E
:10140000B307F700232EF4FC8327C4FE03A747008D
:101410008327C4FC3307F7408327C4FD23A2E700DA
:101420008327C4FE0327C4FC23A2E7008327C4FD4F
:1014300083A74700232CF4FC938741912320F4FEDB
:101440006F000001832704FE83A707002320F4FE1A
:10145000832704FE83A7070083A74700032784FD93
:10146000E3E2E7FE832704FE03A707008327C4FD0A
:1014700023A0E700832704FE0327C4FD23A0E70081
:10148000B787008003A707FE8327C4FE83A7470012
:101490003307F740B787008023A0E7FEEF00106B0B
:1014A000832744FE63940700EF604009832744FECE
:1014B000138507008320C103032481031301010462
:1014C00067800000130101FD2326110223248102FD
:1014D00013040103232EA4FC8327C4FD2324F4FE5C
:1014E0008327C4FD638C070893078000B307F0408F
:1014F000032784FEB307F7002324F4FE832784FE2A
:101500002322F4FEEF001062832744FE83A74700E6
:101510002320F4FE938741912326F4FE6F000001FF
:101520008327C4FE83A707002326F4FE8327C4FE77
:1015300083A7070083A74700032704FEE3E2E7FE33
:101540008327C4FE03A70700832744FE23A0E700E8
:101550008327C4FE032744FE23A0E700832744FE1D
:1015600003A74700B787008083A707FE3307F7006C
:10157000B787008023A0E7FEEF00505D1300000056
:101580008320C1020324810213010103678000004C
:10159000130101FE232E810013040102B78700808E
:1015A0009387471593F7C7FF2326F4FE0327C4FE4E
:1015B00023AAE1909387419123A207009387C191C9
:1015C000379701001307C7FF23A2E70023AE01905E
:1015D0008327C4FE2324F4FE832784FE379701006B
:1015E0001307C7FF23A2E700832784FE1387C19157
:1015F00023A0E700130000000324C101130101022E
:1016000067800000130101FE232E810013040102F4
:10161000F32740F12326F4FE8327C4FE2324F4FE9F
:10162000F36744302322F4FE37070044832784FE07
:1016300093972700B307F7001307100023A0E700D4
:10164000130000000324C1011301010267800000A0
:10165000130101FF2326810013040101737004307C
:10166000B787008083A747FE13871700B7870080DE
:1016700023A2E7FE130000000324C10013010101AF
:1016800067800000130101FF23268100130401017C
:10169000B787008083A747FE1387F7FFB7870080CF
:1016A00023A2E7FEB787008083A747FE6394070065
:1016B00073600430130000000324C1001301010112
:1016C00067800000130101FE232E81001304010234
:1016D00037860080032686FE032606002324C4FEE8
:1016E000232604FE37860080032686FE0326460056
:1016F00093060600130700001398060093070000E6
:10170000032784FE3367F7002324E4FE0327C4FE87
:10171000B36707012326F4FE832684FE0327C4FE55
:10172000B7450F009385052413060000B387B60064
:10173000138507003335D5003308C700330705018B
:10174000130807002324F4FE232604FFB787008034
:1017500083A7C7FE032784FE23A0E7008327C4FED8
:1017600013D3070093030000B787008083A7C7FE49
:101770001307030023A2E7009307000873A0473074
:10178000130000000324C10113010102678000005F
:10179000130101FE232E810013040102378600800D
:1017A000032686FE032606002324C4FE232604FE09
:1017B00037860080032686FE032646009306060031
:1017C000130700001398060093070000032784FE08
:1017D0003367F7002324E4FE0327C4FEB367070141
:1017E0002326F4FE832684FE0327C4FEB7450F009C
:1017F0009385052413060000B387B6001385070000
:101800003335D5003308C700330705011308070037
:101810002324F4FE232604FFB787008083A7C7FE96
:10182000032784FE23A0E7008327C4FE13D3070009
:1018300093030000B787008083A7C7FE1307030048
:1018400023A2E7009307000873A0473013000000AD
:101850000324C1011301010267800000130101FF8D
:101860002326810013040101B787008003A747FEE8
:101870009307F0FF6306F700737004306F000000F9
:10188000737004306F000000130101FE232E8100ED
:10189000130401022326A4FE2324B4FE2322C4FE43
:1018A0008327C4FE9387C7FF2326F4FE032784FE05
:1018B0008327C4FE23A0E7008327C4FE938787FA0B
:1018C0002326F4FE032744FE8327C4FE23A0E7005B
:1018D0008327C4FE938787FE2326F4FE93870100A7
:1018E000138707008327C4FE23A0E7008327C4FED5
:1018F000938747FF2326F4FEB72700801387C78509
:101900008327C4FE23A0E7008327C4FE13850700B6
:101910000324C1011301010267800000130101FFCC
:1019200023261100232481001304010183A2C19204
:1019300023A0C200EFF01FD9EF00D03A93070500B3
:1019400063840700EF00D05803A1C1920321010076
:101950008322C10773901234B72200009382028061
:1019600073A00230832201089392420073A00230D8
:10197000832001000322C1008322010103234101CE
:10198000832381010324C101832401020325410231
:10199000832581020326C102832601030327410315
:1019A000832781030328C1038328010403294104F9
:1019B00083298104032AC104832A0105032B4105DD
:1019C000832B8105032CC105832C0106032D4106C1
:1019D000832D8106032EC106832E0107032F4107A5
:1019E000832F81071301410873002030130000008A
:1019F0008320C100032481001301010167800000DE
:101A0000130101FF23261100232481001304010187
:101A1000EFF01FD8B787008023A207FE130710003E
:101A200023A4E192EFE0DF97EFF0DFBD9307000022
:101A3000138507008320C1000324810013010101E5
:101A400067800000130101FF232611002324810079
:101A50001304010103A78192930710006318F70094
:101A60001307200023A4E1926F00000183A2C1921A
:101A700023A0C200EF00D045B707004423A0070011
:101A800003A1C192032101008322C1077390123484
:101A9000B72200009382028073A0023083220108E3
:101AA0009392420073A00230832001000322C10000
:101AB0008322010103234101832381010324C10106
:101AC0008324010203254102832581020326C102EA
:101AD0008326010303274103832781030328C103CE
:101AE000832801040329410483298104032AC104B2
:101AF000832A0105032B4105832B8105032CC10596
:101B0000832C0106032D4106832D8106032EC10679
:101B1000832E0107032F4107832F810713014108FB
:101B200073002030130000008320C10003248100D3
:101B30001301010167800000130101FF232611003A
:101B40002324810013040101EFF0DFAB1300000038
:101B50008320C1000324810013010101678000007C
:101B6000130101FE232E8100130401022326A4FE8B
:101B70008327C4FE138787008327C4FE23A2E700C0
:101B80008327C4FE1307F0FF23A4E7008327C4FEC6
:101B9000138787008327C4FE23A6E7008327C4FE9C
:101BA000138787008327C4FE23A8E7008327C4FE8A
:101BB00023A00700130000000324C1011301010248
:101BC00067800000130101FE232E8100130401022F
:101BD0002326A4FE8327C4FE23A8070013000000C9
:101BE0000324C1011301010267800000130101FDFC
:101BF0002326810213040103232EA4FC232CB4FC0E
:101C00008327C4FD83A747002326F4FE832784FD92
:101C10000327C4FE23A2E7008327C4FE03A787008F
:101C2000832784FD23A4E7008327C4FE83A78700BE
:101C3000032784FD23A2E7008327C4FE032784FD36
:101C400023A4E700832784FD0327C4FD23A8E7001E
:101C50008327C4FD83A70700138717008327C4FDCC
:101C600023A0E700130000000324C10213010103B5
:101C700067800000130101FD232681021304010384
:101C8000232EA4FC232CB4FC832784FD83A7070008
:101C90002324F4FE032784FE9307F0FF631AF70062
:101CA0008327C4FD83A707012326F4FE6F004003AA
:101CB0008327C4FD938787002326F4FE6F0000016D
:101CC0008327C4FE83A747002326F4FE8327C4FE90
:101CD00083A7470083A70700032784FEE372F7FE6C
:101CE0008327C4FE03A74700832784FD23A2E700C0
:101CF000832784FD83A74700032784FD23A4E700EF
:101D0000832784FD0327C4FE23A4E7008327C4FEA2
:101D1000032784FD23A2E700832784FD0327C4FD56
:101D200023A8E7008327C4FD83A7070013871700B4
:101D30008327C4FD23A0E700130000000324C10291
:101D40001301010367800000130101FD23268102B6
:101D500013040103232EA4FC8327C4FD83A70701DA
:101D60002326F4FE8327C4FD83A747000327C4FD71
:101D70000327870023A4E7008327C4FD83A78700E8
:101D80000327C4FD0327470023A2E7008327C4FEDF
:101D900083A747000327C4FD631AF7008327C4FD08
:101DA00003A787008327C4FE23A2E7008327C4FD7F
:101DB00023A807008327C4FE83A707001387F7FF24
:101DC0008327C4FE23A0E7008327C4FE83A7070060
:101DD000138507000324C10213010103678000007B
:101DE000130101FD2326810213040103232EA4FC09
:101DF000232CB4FC232AC4FC0327C4FD832744FD01
:101E0000B367F70093F7370063980706832784FDCD
:101E100093F7F70F2322F4FE832744FE939787005E
:101E2000032744FEB367F7002322F4FE832744FE12
:101E300093970701032744FEB367F7002322F4FEBC
:101E40008327C4FD2326F4FE6F0080018327C4FE90
:101E5000138747002326E4FE032744FE23A0E70060
:101E60000327C4FD832744FDB307F7000327C4FEFF
:101E7000E36EF7FC6F0000048327C4FD2324F4FE07
:101E80006F000002832784FE138717002324E4FEDB
:101E9000032784FD13178701135787412380E70029
:101EA0000327C4FD832744FDB307F700032784FEFF
:101EB000E36AF7FC8327C4FD138507000324C102EE
:101EC0001301010367800000130101FD2326810235
:101ED00013040103232EA4FC8327C4FD2326F4FE50
:101EE0006F0000018327C4FE938717002326F4FEAA
:101EF0008327C4FE83870700E39607FE0327C4FEFB
:101F00008327C4FDB307F740138507000324C102EC
:101F10001301010367800000130101FC232E11024D
:101F2000232C810213040104232EA4FC232CB4FCD3
:101F30002328D4FC2326E4FC2324F4FC232204FDE0
:101F4000232014FD93070600231BF4FC8327C4FD04
:101F500063960700737004306F0000000327C4FC11
:101F60009307400063F6E700737004306F000000D1
:101F7000835764FD832544FC13850700EF00503927
:101F80002324A4FE832784FE63820716832784FE0E
:101F900003A70703835664FDB70700409387F7FF45
:101FA000B387F60093972700B307F7002322F4FEC8
:101FB000832744FE93F7C7FF2322F4FE832744FEC2
:101FC00093F7370063860700737004306F000000DA
:101FD000835764FD13870700832604FC0326C4FC93
:101FE000832584FD032584FEEF009000032604FD75
:101FF0008325C4FD032544FEEFF01F891307050068
:10200000832784FE23A0E700832784FC63880700DE
:10201000832784FC032784FE23A0E700EFF04FE32F
:1020200083A7C1931387170023AEE19283A7C192C0
:1020300063900702032784FE23A6E19203A7C193BE
:10204000930710006316F702EF00100E6F004002B6
:1020500083A78194639E070083A7C19283A7C702C9
:102060000327C4FC6366F700032784FE23A6E192DE
:1020700083A781951387170023ACE19403A781956B
:10208000832784FE23A4E704832784FE03A7C702D3
:1020900083A7419463F8E700832784FE03A7C70260
:1020A00023A2E194832784FE03A7C70293070700B6
:1020B00093972700B387E70093972700371702808D
:1020C000130707153387E700832784FE93874700AC
:1020D0009385070013050700EFF05FB19307100029
:1020E0002326F4FEEFF00FDA6F00C0009307F0FF35
:1020F0002326F4FE0327C4FE930710006310F702A3
:1021000083A78194638C070083A7C19283A7C7022A
:102110000327C4FC63F4E700EFF01FA28327C4FE8B
:10212000138507008320C1030324810313010104E5
:1021300067800000130101FD232611022324810280
:1021400013040103232EA4FCEFF08FD08327C4FDDA
:102150006396070083A7C1926F0080008327C4FDA8
:102160002326F4FE8327C4FE9387470013850700C8
:10217000EFF09FBD8327C4FE83A78702638A070011
:102180008327C4FE9387870113850700EFF0DFBB29
:102190008327C4FE9387470093850700B717028003
:1021A0001385071FEFF09FA483A781931387170060
:1021B00023ACE19283A781951387170023ACE194A8
:1021C000EFF04FCC83A78194638A070283A7C19263
:1021D0000327C4FE631EF70083A7019663860700EA
:1021E000737004306F000000EFF01F956F00000166
:1021F000EFF00FC6EF00D021EFF0CFC813000000C2
:102200008320C102032481021301010367800000BF
:10221000130101FD2326110223248102130401036B
:10222000232EA4FC232604FE8327C4FD6384070415
:1022300083A7019663860700737004306F00000067
:10224000EF00400E83A701940327C4FDB307F700F6
:102250002324F4FE83A7C1929387470013850700C8
:10226000EFF09FAE032584FEEF001002EF00000E9A
:102270002326A4FE8327C4FE63940700EFF0DF8BC0
:10228000130000008320C102032481021301010313
:1022900067800000130101FE232E1100232C810012
:1022A00013040102930800001308000093070000C4
:1022B000130700009306000013060040B785008056
:1022C00093858581372500801305C57BEFF0DFC43A
:1022D0002326A4FE0327C4FE930710006312F7020F
:1022E000737004301307F0FF23AEE194130710005E
:1022F00023A4E19423A00194EFF08FF06F0040013C
:102300008327C4FE63960700737004306F000000DB
:10231000130000008320C101032481011301010285
:1023200067800000130101FF2326810013040101CF
:1023300083A701961387170023A0E19613000000DE
:102340000324C1001301010167800000130101FE95
:10235000232E1100232C810013040102232604FEE6
:1023600083A7019663960700737004306F00000026
:10237000EFF00FAE83A701961387F7FF23A0E19636
:1023800083A701966396071083A7C1936382071002
:102390006F00800AB71702809387C71D83A7C70005
:1023A00083A7C7002324F4FE832784FE9387870135
:1023B00013850700EFF05F99832784FE938747001A
:1023C00013850700EFF05F98832784FE03A7C702F9
:1023D00083A7419463F8E700832784FE03A7C7021D
:1023E00023A2E194832784FE03A7C7029307070073
:1023F00093972700B387E70093972700371702804A
:10240000130707153387E700832784FE9387470068
:102410009385070013050700EFF04FFD832784FE27
:1024200003A7C70283A7C19283A7C7026366F70009
:102430001307100023A8E194B717028083A7C71DD4
:10244000E39A07F483A7C194638807026F004002F0
:10245000EF0040099307050063860700130710008B
:1024600023A8E19483A7C1941387F7FF23A6E194DF
:1024700083A7C194E39E07FC03A70195930710006F
:102480006318F700930710002326F4FEEFF0CFEA5D
:10249000EFF04F9F8327C4FE138507008320C101FF
:1024A000032481011301010267800000130101FE72
:1024B000232E1100232C810013040102EFF04F9909
:1024C00083A701942326F4FEEFF0CF9B8327C4FE5D
:1024D000138507008320C101032481011301010238
:1024E00067800000130101FD2326110223248102CD
:1024F00013040103232604FE83A701966390071AA1
:1025000083A701941387170023A0E19483A7019464
:102510002324F4FE832784FE6390070483A701939A
:1025200083A7070063860700737004306F00000004
:1025300083A701932322F4FE03A7419323A8E192EA
:10254000032744FE23AAE19283A74195138717002E
:1025500023AAE194EF00C06B83A7C195032784FEF3
:102560006360F71083A7019383A7070063960700B2
:10257000930710006F008000930700006388070036
:102580001307F0FF23AEE1946F00800D83A7019342
:1025900083A7C70083A7C7002320F4FE832704FE78
:1025A00083A74700232EF4FC032784FE8327C4FD62
:1025B0006378F7000327C4FD23AEE1946F00400A5F
:1025C000832704FE9387470013850700EFF0CFF7BA
:1025D000832704FE83A78702638A0700832704FEFC
:1025E0009387870113850700EFF00FF6832704FE1A
:1025F00003A7C70283A7419463F8E700832704FE7B
:1026000003A7C70223A2E194832704FE03A7C702FE
:102610009307070093972700B387E7009397270056
:1026200037170280130707153387E700832704FE57
:10263000938747009385070013050700EFF00FDB32
:10264000832704FE03A7C70283A7C19283A7C702FB
:10265000E36AF7F0930710002326F4FE6FF09FF073
:1026600083A7C19203A7C702B7160280930707008A
:1026700093972700B387E7009397270013870615E2
:10268000B387E70003A707009307100063FEE70086
:10269000930710002326F4FE6F00000183A7C19466
:1026A0001387170023A6E19483A70195638607008B
:1026B000930710002326F4FE8327C4FE138507002A
:1026C0008320C102032481021301010367800000FB
:1026D000130101FE232E81001304010283A701963A
:1026E000638807001307100023A8E1946F00000C13
:1026F00023A801946F00000283A74194639607000A
:10270000737004306F00000083A741941387F7FFB4
:1027100023A2E19403A74194B71602809307070010
:1027200093972700B387E700939727001387061531
:10273000B387E70083A70700E38007FC03A7419462
:102740009307070093972700B387E7009397270025
:102750003717028013070715B387E7002326F4FE17
:102760008327C4FE83A7470003A747008327C4FE2F
:1027700023A2E7008327C4FE03A747008327C4FEE4
:1027800093878700631CF7008327C4FE83A7470055
:1027900003A747008327C4FE23A2E7008327C4FEC4
:1027A00083A7470003A7C70023A6E19213000000F8
:1027B0000324C1011301010267800000130101FE1F
:1027C000232E1100232C8100130401022326A4FED2
:1027D000EF008021B717028003A7071593071000A9
:1027E00063F4E700EFF04FB5EF4090566FF05FFEF7
:1027F000130101FC232E1102232C81021304010476
:10280000232EA4FC232CB4FC232AC4FC2328D4FCB0
:10281000930707002317F4FC232604FE6F004004EF
:10282000032784FD8327C4FEB307F700038707004F
:102830008326C4FD8327C4FEB387F600238AE702FC
:10284000032784FD8327C4FEB307F70083870700AF
:10285000638007028327C4FE938717002326F4FEB4
:102860000327C4FE9307F000E3FCE7FA6F00800043
:10287000130000008327C4FDA3810704032744FD40
:102880009307400063F6E70093074000232AF4FC17
:102890008327C4FD032744FD23A6E7028327C4FD45
:1028A000032744FD23A8E7048327C4FD23AA0704C4
:1028B0008327C4FD9387470013850700EFF08FB08F
:1028C0008327C4FD9387870113850700EFF08FAF3F
:1028D0008327C4FD0327C4FD23A8E7001307500086
:1028E000832744FD3307F7408327C4FD23ACE7006B
:1028F0008327C4FD0327C4FD23A2E7028327C4FD69
:1029000023A207048327C4FD23AC07048327C4FD47
:1029100023AE0704130000008320C10303248103B6
:102920001301010467800000130101FE232E110032
:10293000232C810013040102232604FE6F00800370
:102940000327C4FE9307070093972700B387E70088
:10295000939727003717028013070715B387E700FF
:1029600013850700EFF0CF9F8327C4FE93871700DE
:102970002326F4FE0327C4FE93074000E3F2E7FC9E
:10298000B71702801385471BEFF08F9DB7170280A2
:102990001385871CEFF0CF9CB71702801385C71DE6
:1029A000EFF00F9CB71702801385071FEFF04F9BC6
:1029B000B717028013854720EFF08F9A37170280F0
:1029C0001307471B23A8E192371702801307871CC0
:1029D00023AAE192130000008320C1010324810196
:1029E0001301010267800000130101FE232E110074
:1029F000232C8100130401026F004007EFF09F9227
:102A0000B717028083A7071F93B7170093F7F70F35
:102A10002326F4FEEFF09F938327C4FE63980704F8
:102A2000EFE01FC3B71702809387071F83A7C70074
:102A300083A7C7002324F4FE832784FE93874700DF
:102A400013850700EFF04FB083A7C1931387F7FFFB
:102A500023AEE19283A781931387F7FF23ACE19222
:102A6000EFE05FC2032584FEEF00801683A7819309
:102A7000E39607F8130000008320C10103248101BD
:102A80001301010267800000130101FE232E1100D3
:102A9000232C8100130401022326A4FE83A7C192E4
:102AA0000327C4FE23A2E70083A701940327C4FEE3
:102AB0006370F70203A7419383A7C19293874700EE
:102AC0009385070013050700EFF0CF9A6F0000030E
:102AD00003A7019383A7C1929387470093850700BB
:102AE00013050700EFF00F9983A7C1950327C4FED4
:102AF0006376F7000327C4FE23AEE19413000000C1
:102B00008320C101032481011301010267800000B9
:102B1000130101FD23261102232481021304010362
:102B200093070500232CB4FC231FF4FC832784FDAA
:102B3000639E07008357E4FD9397270013850700E2
:102B4000EFE08FFA930705006F008000832784FD74
:102B50002324F4FE832784FE638A070213050006FC
:102B6000EFE08FF82326A4FE8327C4FE638A0700C4
:102B70008327C4FE032784FE23A8E7026F004001D9
:102B8000032584FEEFE01F946F008000232604FEDF
:102B90008327C4FE638207028327C4FE03A70703BB
:102BA0008357E4FD93972700138607009305500A87
:102BB00013050700EFF0CFA28327C4FE138507009B
:102BC0008320C102032481021301010367800000F6
:102BD000130101FE232E1100232C81001304010296
:102BE0002326A4FE8327C4FE83A7070313850700BB
:102BF000EFE05F8D0325C4FEEFE0DF8C13000000E3
:102C00008320C101032481011301010267800000B8
:102C1000130101FE232E81001304010283A70193F7
:102C200083A7070063960700930710006F008000DA
:102C300093070000638807001307F0FF23AEE194B9
:102C40006F00000283A7019383A7C70083A7C70073
:102C50002326F4FE8327C4FE03A7470023AEE19496
:102C6000130000000324C10113010102678000006A
:102C7000130101FE232E81001304010283A7C192D8
:102C80002326F4FE8327C4FE138507000324C10115
:102C90001301010267800000130101FF2326810058
:102CA000130401017370043083A78194638C0700BF
:102CB00083A7C19203A747041307170023A2E704C1
:102CC00083A7C192130000000324C1001301010176
:102CD00067800000130101FF232681001304010116
:102CE00083A781946388070283A7C19283A74704BF
:102CF0006382070283A7C19203A747041307F7FF64
:102D000023A2E70483A7C19283A747046394070023
:102D100073600430130000000324C100130101019B
:102D200067800000130101FE232E1100232C810077
:102D300013040102EF20C0172326A4FE0327C4FEBC
:102D4000B707FEFD9387D7DF6314F700EF30D05A43
:102D50000327C4FEB707FEFD9387D7DFE30CF7FC1C
:102D6000B71702800327C4FE9386C7219307070085
:102D700093974700B387E74093972700B387F60000
:102D80003707FFFE1307E7EF23A2E70093050000D4
:102D900013050000EF30C00013070500B70704005B
:102DA000B366F700B71702800327C4FE1386C72156
:102DB0009307070093974700B387E740939727004F
:102DC000B307F60023A4D700B71702800327C4FE79
:102DD0009386C7219307070093974700B387E7407F
:102DE00093972700B387F6001307B00023A6E700E8
:102DF000B71702800327C4FE9386C72193070700F5
:102E000093974700B387E74093972700B387F6006F
:102E10001307001023A8E7008325C4FE3705101010
:102E2000EF20107C130000008320C10103248101E6
:102E30001301010267800000130101FD2326110226
:102E40002324810213040103232EA4FC232CB4FCAD
:102E5000232AC4FC2328D4FCEF00401C9307050060
:102E60002326F4FEB72602800327C4FE930707003B
:102E700093972700B387E70093975700138786CB74
:102E8000B387E7001307100023A0E700B7270280ED
:102E90000327C4FE938687CB9307070093972700E9
:102EA000B387E70093975700B387F6000327C4FD65
:102EB00023A2E700B72702800327C4FE938687CBAF
:102EC0009307070093972700B387E700939757006E
:102ED000B387F600032784FD23A4E700B727028009
:102EE0000327C4FE938687CB930707009397270099
:102EF000B387E70093975700B387F600032744FD95
:102F000023A6E700B72602800327C4FE9307070025
:102F100093972700B387E70093975700138786CBD3
:102F2000B387E700032704FD23A8E700EFF00FD8DD
:102F300013070500832784FDB306F700B727028037
:102F40000327C4FE138687CB9307070093972700B8
:102F5000B387E70093975700B307F60023A6D70877
:102F6000B72602800327C4FE930707009397270024
:102F7000B387E70093975700138786CBB387E700A3
:102F800023A80708B72702800327C4FE938687CBB0
:102F90009307070093972700B387E700939757009D
:102FA000B387F6001307F0FF23AAE708B7270280CC
:102FB0000327C4FE938687CB9307070093972700C8
:102FC000B387E70093975700B387F60023AC070851
:102FD000B72702800327C4FE938687CB9307070099
:102FE00093972700B387E70093975700B387F600BE
:102FF00023AE07088327C4FD93850700B7870080A9
:1030000013850782EF201018130000008320C102EF
:10301000032481021301010367800000130101FEF4
:10302000232E1100232C810013040102232604FE09
:103030006F000004B72602800327C4FE9307070031
:1030400093972700B387E70093975700138786CBA2
:10305000B387E70083A70700639607008327C4FEB2
:103060006F00C0028327C4FE938717002326F4FE57
:103070000327C4FE9307B000E3DEE7FAB7870080BA
:1030800013858785EF2050059307F0FF1385070010
:103090008320C10103248101130101026780000024
:1030A000130101FE232E810013040102232604FED6
:1030B0006F004003B72602800327C4FE9307070072
:1030C00093972700B387E70093975700138786CB22
:1030D000B387E70023A007008327C4FE9387170068
:1030E0002326F4FE0327C4FE9307B000E3D4E7FCD5
:1030F000130000000324C1011301010267800000D6
:10310000130101FE232E810013040102232604FE75
:103110006F00C00F232404FE6F00C00D372602800D
:10312000832784FE8326C4FE138707001317170026
:103130003307F700931727001387070093870600CC
:1031400093973700B387D700939727003307F7008B
:1031500093074646B307F7001307101123A0E700B3
:1031600037270280832784FE8326C4FE1306474642
:1031700013870700131717003307F700931727006B
:10318000138707009387060093973700B387D7000C
:1031900093972700B307F700B307F6001307803EA5
:1031A00023A2E70037270280832784FE8326C4FEFC
:1031B0001306474613870700131717003307F70056
:1031C000931727001387070093870600939737000C
:1031D000B387D70093972700B307F700B307F6002C
:1031E0001307600023A4E700832784FE938717005A
:1031F0002324F4FE032784FE93072000E3D0E7F2A4
:103200008327C4FE938717002326F4FE0327C4FEFA
:1032100093072000E3D0E7F0130000000324C1016E
:103220001301010267800000130101FE232E8100BB
:1032300013040102232404FEB727028023A00746BB
:10324000232604FE6F000007032784FE9307300047
:10325000B347F70213978700832684FE9307300055
:10326000B3E7F602B367F70093860700B72702803B
:103270000327C4FE13172700938747C9B307F70036
:1032800023A0D700032784FE9307600063CAE700EA
:10329000832784FE938727002324F4FE6F00C00059
:1032A000930710002324F4FE8327C4FE938717009E
:1032B0002326F4FE0327C4FE93078000E3D6E7F835
:1032C000130000000324C101130101026780000004
:1032D000130101FD232611022324810223229102DE
:1032E00013040103232EA4FC232604FE6F0080296F
:1032F000B72602800327C4FE930707009397270091
:10330000B387E70093975700138786CBB387E7000F
:1033100003A70700930710006310F726B727028062
:103320000327C4FE938687CB930707009397270054
:10333000B387E70093975700B387F60083A7C708C2
:103340000327C4FD636AF722B72702800327C4FE60
:10335000938687CB9307070093972700B387E700EF
:1033600093975700B387F60083A6C708B727028054
:103370000327C4FE138687CB930707009397270084
:10338000B387E70093975700B307F60083A7470971
:103390006384F61EB72602800327C4FE9307070046
:1033A00093972700B387E70093975700138786CB3F
:1033B000B387E70083A40701EF001012930705000D
:1033C00063EC971A232404FE6F00C013EF00C05370
:1033D000930705002322F4FE832744FE0327C4FE3F
:1033E000832684FE138606009305070013850700D5
:1033F000EF00C064930705002320F4FE032704FEBA
:103400009307F0FF6314F7006FF05FFC13000000F8
:1034100037270280832784FE8326C4FE130687CBCA
:1034200013870700131717003307F70093172700B8
:10343000138707009387060093972700B387D70069
:1034400093975700B307F700B307F6001307300050
:1034500023AAE700032644FE37270280832784FE41
:103460008326C4FE930587CB138707001317170025
:103470003307F70093172700138707009387060089
:1034800093972700B387D70093975700B307F700A8
:10349000B387F50023ACC700032604FE372702805C
:1034A000832784FE8326C4FE930587CB13870700FA
:1034B000131717003307F700931727001387070028
:1034C0009387060093972700B387D70093975700F9
:1034D000B307F700B387F50023AEC7008327C4FE08
:1034E000032784FE832644FE138606009305070007
:1034F00013850700EF00100D832784FE93871700C4
:103500002324F4FEB72602800327C4FE9307070096
:1035100093972700B387E70093975700138786CBCD
:10352000B387E70003A70701832784FEE3E0E7EA08
:10353000B72702800327C4FE938687CB9307070033
:1035400093972700B387E70093975700B387F60058
:1035500083A6C708B72702800327C4FE138687CB3C
:103560009307070093972700B387E70093975700C7
:10357000B307F60023AAD7088327C4FE9387170052
:103580002326F4FE0327C4FE9307B000E3D2E7D658
:10359000130000008320C10203248102832441021E
:1035A0001301010367800000130101FD23261102AE
:1035B0002324810213040103232EA4FC232CB4FC36
:1035C000372702808327C4FD832684FD130687CB1B
:1035D00013870700131717003307F7009317270007
:1035E000138707009387060093972700B387D700B8
:1035F00093975700B307F700B307F60013072000AF
:1036000023AAE700930710002324F4FE232604FED8
:103610006F000006372702808327C4FE832684FDBF
:10362000130687CB13870700131717003307F7001C
:1036300093172700138707009387060093972700A7
:10364000B387D70093975700B307F700B307F60087
:1036500003A74701930720006306F700232404FE15
:103660006F00C0038327C4FE938717002326F4FE50
:10367000B7260280032784FD93070700939727004E
:10368000B387E70093975700138786CBB387E7008C
:1036900083A707010327C4FEE36EF7F6832784FEA2
:1036A00063860724EFE09FE02322A4FEB726028072
:1036B000032784FD9307070093972700B387E7004C
:1036C00093975700138786CBB387E70083A7070933
:1036D0009386170037260280032784FD930707008F
:1036E00093972700B387E70093975700130786CB7C
:1036F000B387E70023A8D708832584FDB727028076
:10370000032784FD938687CB9307070093972700B1
:10371000B387E70093975700B387F60083A747095D
:10372000032744FEB307F74093860700B78700805E
:103730001386C786B787008013850788EF20002986
:10374000B7270280032784FD938687CB9307070062
:1037500093972700B387E70093975700B387F60046
:10376000032744FE23AEE708B7270280032784FD22
:10377000938687CB9307070093972700B387E700CB
:1037800093975700B387F60083A6C70037260280B9
:10379000032784FD9307070093972700B387E7006B
:1037A00093975700130786CBB387E70083A70709D2
:1037B00063FAD70AB7270280032784FD938687CB55
:1037C0009307070093972700B387E7009397570065
:1037D000B387F60083A6C70037260280032784FD3F
:1037E0009307070093972700B387E7009397570045
:1037F000130786CBB387E70083A70709B387F64093
:1038000093850700B787008013850789EF2080170D
:10381000B7270280032784FD938687CB9307070091
:1038200093972700B387E70093975700B387F60075
:1038300003A78700832744FEB306F700B72702805B
:10384000032784FD138687CB9307070093972700F0
:10385000B387E70093975700B307F60023A6D7086E
:103860006F00C008B78700801385878BEF20C006E4
:10387000B7260280032784FD93070700939727004C
:10388000B387E70093975700138786CBB387E7008A
:1038900023A00700232604FE6F00C003B726028082
:1038A0000327C4FE9307070093972700B387E70019
:1038B00093975700138786CBB387E70003A70700CA
:1038C000930710006308F7028327C4FE938717004D
:1038D0002326F4FE0327C4FE9307B000E3F0E7FCC1
:1038E000B7070100138507E1EFD04FCF13000000A9
:1038F0006F008000130000008320C10203248102B6
:103900001301010367800000130101FE232E110043
:10391000232C8100232A9100130401029305000047
:1039200013050000EF20C0472326A4FEB72702801E
:1039300003A70746B727028013172700938747C9B5
:10394000B307F70083A407009305000013050000E8
:10395000EF20004593070500638EF4060325C4FE9F
:10396000EF20C00C930405000325C4FEEF20C00E19
:1039700013060500B7270280938647461307060003
:1039800093171700138707003307C7009317270003
:10399000138707009387040093973700B387970036
:1039A00093972700B307F700B387F60083A7870034
:1039B00063820702B727028003A70746B727028062
:1039C00013172700938747C9B307F70083A707009A
:1039D0002326F4FEB727028083A707461387170024
:1039E000B727028023A0E746B727028003A7074630
:1039F000930790006316F700B727028023A00746BD
:103A00009305000013050000EF208039130705001F
:103A10008327C4FE6394E7006FF05FF1130000009A
:103A20008327C4FE138507008320C101032481017D
:103A3000832441011301010267800000130101FE8C
:103A4000232E1100232C8100232A910023282101F9
:103A5000130401022326A4FE2324B4FE2322C4FE61
:103A60000325C4FEEF10907C930405000325C4FEDB
:103A7000EF10907E13060500B72702809386474615
:103A80001307060093171700138707003307C700B3
:103A90009317270013870700938704009397370035
:103AA000B387970093972700B307F700B387F60013
:103AB00083A78700638C070A0325C4FEEF101077E5
:103AC000930405000325C4FEEF10107913060500CA
:103AD000B7270280938647461307060093171700FF
:103AE000138707003307C7009317270013870700C2
:103AF0009387040093973700B38797009397270025
:103B0000B307F700B387F60083A487000325C4FE3C
:103B1000EF10D071130905000325C4FEEF10D07318
:103B2000930505009386F4FFB72702801386474666
:103B30001387050093171700138707003307B70093
:103B400093172700138707009307090093973700FF
:103B5000B387270193972700B307F700B307F60051
:103B600023A4D700930710006F004001B78700809F
:103B70001385878DEF1050569307F0FF13850700CC
:103B80008320C10103248101832441010329010110
:103B90001301010267800000130101FE232E1100B2
:103BA000232C8100232A9100130401022326A4FE62
:103BB0002324B4FE2322C4FE0325C4FEEF101067A5
:103BC000930405000325C4FEEF1010699306050059
:103BD000B7270280138647461387060093171700FE
:103BE000138707003307D7009317270013870700B1
:103BF0009387040093973700B38797009397270024
:103C0000B307F700B307F60083A7870013861700F2
:103C1000B72702809385474613870600931717003E
:103C2000138707003307D700931727001387070070
:103C30009387040093973700B387970093972700E3
:103C4000B307F700B387F50023A4C7000325C4FE1C
:103C5000EF10D05D930405000325C4FEEF10D05F84
:103C600013060500B7270280938647461307060010
:103C700093171700138707003307C7009317270010
:103C8000138707009387040093973700B387970043
:103C900093972700B307F700B387F60003A78700C1
:103CA0009307600063FCE700B78700801385C78E29
:103CB000EF1090429307F0FF6F0080009307100011
:103CC000138507008320C10103248101832441015E
:103CD0001301010267800000130101FE232E110071
:103CE000232C8100232A910013040102232204FEC5
:103CF000232604FE6F00800A232404FE6F00800840
:103D00008327C4FE032784FE93050700138507005D
:103D1000EF2000099304050093050000130500003F
:103D2000EF200008930705006388F404372702801A
:103D3000832784FE8326C4FE1306474613870700A5
:103D4000131717003307F70093172700138707008F
:103D50009387060093973700B387D7009397270080
:103D6000B307F700B307F60003A78700832744FED5
:103D7000B307F7002322F4FE832784FE93871700FE
:103D80002324F4FE032784FE93072000E3DAE7F6FA
:103D90008327C4FE938717002326F4FE0327C4FE5F
:103DA00093072000E3DAE7F4832744FE1385070036
:103DB0008320C101032481018324410113010102F5
:103DC00067800000130101FD2326110223248102D4
:103DD00013040103232EA4FC232CB4FC232AC4FCCB
:103DE000EF10000D2326A4FE0327C4FEB707FEFD37
:103DF0009387D7DF6314F700EF2010500327C4FE2A
:103E0000B707FEFD9387D7DFE30CF7FC8327C4FEDB
:103E100093850700B787008013850790EF109036D1
:103E2000B71702800327C4FE9386C72193070700B4
:103E300093974700B387E74093972700B387F6002F
:103E40003707FFFE1307E7EF23A2E7009305000003
:103E500013050000EF10D07413070500B707040026
:103E6000B366F700B71702800327C4FE1386C72185
:103E70009307070093974700B387E740939727007E
:103E8000B307F60023A4D700B71702800327C4FEA8
:103E90009386C7219307070093974700B387E740AE
:103EA00093972700B387F6001307B00023A6E70017
:103EB000B71702800327C4FE9386C7219307070024
:103EC00093974700B387E74093972700B387F6009F
:103ED0001307000323A8E700B71702800327C4FED7
:103EE0009386C7219307070093974700B387E7405E
:103EF00093972700B387F600032784FD23AAE700E2
:103F0000B71702800327C4FE9386C72193070700D3
:103F100093974700B387E74093972700B387F6004E
:103F20000327C4FD23A2E702B71702800327C4FEBC
:103F30009386C7219307070093974700B387E7400D
:103F400093972700B387F600032744FD23ACE702CD
:103F50008325C4FE37051010EF1090681300000091
:103F60008320C10203248102130101036780000042
:103F7000130101FD232611022324810213040103EE
:103F8000232EA4FC232CB4FC372702808327C4FDF6
:103F9000832684FD130687CB1387070013171700AA
:103FA0003307F7009317270013870700938706004E
:103FB00093972700B387D70093975700B307F7006D
:103FC000B307F6001307400023AAE700232604FEE8
:103FD0006F008005372702808327C4FE832684FD77
:103FE000130687CB13870700131717003307F70053
:103FF00093172700138707009387060093972700DE
:10400000B387D70093975700B307F700B307F600BD
:1040100003A74701930740006316F7068327C4FEF2
:10402000938717002326F4FEB7260280032784FD1A
:104030009307070093972700B387E70093975700EC
:10404000138786CBB387E70083A707010327C4FE46
:10405000E362F7F8832784FD93850700B787008024
:1040600013850792EF101012032584FDEF00C002A4
:10407000B787008013858793EF10100613000000A8
:104080006F008000130000008320C102032481021E
:104090001301010367800000130101FD23261102B3
:1040A0002324810213040103232EA4FC232604FEEF
:1040B0006F004026EF00104A2322A4FE032744FE8F
:1040C000B707FEFD9387D7DF6314F700EF20D022F8
:1040D000032744FEB707FEFD9387D7DFE30CF7FC09
:1040E000B7170280832644FE1387073893074024BE
:1040F000B387F602B307F7003707FFFE1307E7EFB2
:1041000023A2E700372702808327C4FE8326C4FD4D
:10411000130687CB13870700131717003307F70021
:1041200093172700138707009387060093972700AC
:10413000B387D70093975700B307F700B307F6008C
:1041400003A78701B7170280032644FE938607382A
:1041500093074024B307F602B387F60023A6E700CF
:10416000B72602800327C4FD930707009397270013
:10417000B387E70093975700138786CBB387E70091
:1041800083A707011387C700B7170280032644FEE1
:104190009386073893074024B307F602B387F600E7
:1041A00023A8E700B7170280832644FE1387073849
:1041B00093074024B387F602B307F70013070040C4
:1041C00023AAE700B7170280832644FE1387073827
:1041D00093074024B387F602B307F7000327C4FE12
:1041E00023ACE700B7170280832644FE1387073805
:1041F00093074024B387F602B307F7000327C4FDF3
:1042000023A4E702B72602800327C4FD9307070013
:1042100093972700B387E70093975700138786CBC0
:10422000B387E70003A70701B7170280032644FE00
:1042300093064024B306D60293870738B387F60067
:1042400023A0E704232404FE6F00800837270280A0
:10425000832784FE8326C4FD130687CB13870700BC
:10426000131717003307F70093172700138707006A
:104270009387060093972700B387D700939757003B
:10428000B307F700B307F60083A68701371602804D
:10429000032744FE9307070093973700B387E7008F
:1042A00093974700B387E700032784FEB387E700AF
:1042B000938707011307063893972700B307F70082
:1042C00023A2D700832784FE938717002324F4FEBC
:1042D000B72602800327C4FD9307070093972700A2
:1042E000B387E70093975700138786CBB387E70020
:1042F00083A70701032784FEE36AF7F4832544FEBE
:1043000037052020EF10D02D8327C4FE9387170098
:104310002326F4FEB72602800327C4FD9307070077
:1043200093972700B387E70093975700138786CBAF
:10433000B387E70083A707010327C4FEE36CF7D622
:10434000130000008320C102032481021301010332
:1043500067800000130101FE232E81001304010277
:10436000232604FE6F004008B72602800327C4FE00
:104370009307070093975700B387E70093972700A9
:104380001387064DB387E70023A00700232404FE0C
:104390006F000004B72602800327C4FE93070700BE
:1043A00093975700B387E700032784FEB387E7009E
:1043B0009387C700139727009387064DB307F7002D
:1043C00023A00700832784FE938717002324F4FE8D
:1043D000032784FE93079000E3FEE7FA8327C4FED9
:1043E000938717002326F4FE0327C4FE930750008B
:1043F000E3FCE7F6130000000324C10113010102EE
:1044000067800000130101FE232E1100232C810080
:1044100013040102EFE0DF852324A4FE232604FE1B
:10442000232604FE6F00C006B72702800327C4FEC0
:104430009386074D9307070093975700B387E700CC
:1044400093972700B387F60083A78701032784FE8D
:10445000631AF702B72602800327C4FE93070700FA
:1044600093975700B387E700939727001387064D6C
:10447000B387E70083A70700638607008327C4FE8E
:104480006F00C0028327C4FE938717002326F4FE23
:104490000327C4FE93075000E3F8E7F8B7870080CE
:1044A0001385C795EF1040439307F0FF138507006E
:1044B0008320C101032481011301010267800000F0
:1044C000130101FE232E1100232C8100130401028D
:1044D000232604FE6F000004B72602800327C4FED3
:1044E0009307070093975700B387E7009397270038
:1044F0001387064DB387E70083A70700639607007D
:104500008327C4FE6F00C0028327C4FE9387170071
:104510002326F4FE0327C4FE93075000E3FEE7FAC8
:10452000B787008013850797EF10003B9307F0FFD4
:10453000138507008320C1010324810113010102B7
:1045400067800000130101FC232E1102232C81023D
:1045500013040104232EA4FC232CB4FC232AC4FC42
:104560002328D4FC2326E4FCEFF09FF52324A4FEAB
:10457000032784FE9307F0FF6318F700B7870080D6
:1045800013854798EF104035832784FE93850700F5
:10459000B78700801385879AEF10C03EB726028048
:1045A000032784FE9307070093975700B387E7001C
:1045B000939727001387064DB387E7001307200062
:1045C00023A0E700B7270280032784FE9386074DC8
:1045D0009307070093975700B387E7009397270047
:1045E000B387F60023AE0700B7260280032784FEB8
:1045F0009307070093975700B387E7009397270027
:104600001387064DB387E7000327C4FD23A8E700FF
:10461000B7270280032784FE9386074D9307070080
:1046200093975700B387E70093972700B387F60067
:104630000327C4FC23AAE700032784FD832744FD46
:10464000B307F70093962700B7270280032784FE5D
:104650001386074D9307070093975700B387E7002A
:1046600093972700B307F60023A2D702B72702804B
:10467000032784FE9386074D9307070093975700FF
:10468000B387E70093972700B387F60083A7470215
:1046900093850700B78700801385479BEF10802E16
:1046A000B7270280032784FE9386074D93070700F0
:1046B00093975700B387E70093972700B387F600D7
:1046C00083A747029387070413850700EFC0DFC164
:1046D0009307050013860700B7270280032784FE8F
:1046E0009386074D9307070093975700B387E7001A
:1046F00093972700B387F60023A4C702B727028049
:10470000032784FE9386074D93070700939757006E
:10471000B387E70093972700B387F60083A7870244
:1047200093850700B78700801385079DEF108025CC
:10473000B7270280032784FE9386074D930707005F
:1047400093975700B387E70093972700B387F60046
:1047500003A78702832704FD93972700B306F7007A
:10476000B7270280032784FE1386074D93070700AF
:1047700093975700B387E70093972700B307F60096
:1047800023A6D702232604FE6F000007B726028067
:10479000032784FE9307070093975700B387E7002A
:1047A0000327C4FEB387E7009387C700139727004A
:1047B0009387064DB307F70023A00700B7260280B2
:1047C000032784FE9307070093975700B387E700FA
:1047D0000327C4FEB387E700938747011387064D7D
:1047E00093972700B307F70023A607008327C4FE8B
:1047F000938717002326F4FE0327C4FE9307900037
:10480000E3D6E7F8832784FE138507008320C103DE
:10481000032481031301010467800000130101FDDB
:10482000232611022324810213040103232EA4FC56
:10483000232CB4FC232604FE6F008009B7260280D7
:104840000327C4FE9307070093975700B387E70039
:10485000939727001387064DB387E70083A70701C7
:104860000327C4FD6310F706B72702800327C4FEA1
:104870009386074D9307070093975700B387E70088
:1048800093972700B387F60083A74701032784FD8A
:10489000631AF702B72602800327C4FE93070700B6
:1048A00093975700B387E700939727001387064D28
:1048B000B387E70083A70700638607008327C4FE4A
:1048C0006F00C0028327C4FE938717002326F4FEDF
:1048D0000327C4FE93079000E3F2E7F6B787008052
:1048E0001385C79DEF00507F9307F0FF13850700E6
:1048F0008320C102032481021301010367800000A9
:10490000130101FD23261102232481021304010354
:10491000232EA4FCB72602800327C4FD93070700BB
:1049200093975700B387E700939727001387064DA7
:10493000B387E7001307100023A0E700B727028022
:104940000327C4FD9386074D9307070093975700ED
:10495000B387E70093972700B387F60083A7C702C2
:10496000138507000327C4FD93070700939757009B
:10497000B387E7009397270013870701B7270280C3
:104980009387074DB307F7009387870093080000CC
:1049900013080000130710009306000037260000DC
:1049A0001306863EB78500809385059FEFD0CFD64E
:1049B0002326A4FE0327C4FE93071000630AF70012
:1049C000B78700801385879FEF00107113000000E8
:1049D000130000008320C10203248102130101039C
:1049E00067800000130101FE232E1100232C81009B
:1049F00013040102EFF01FA12324A4FEB7260280B6
:104A0000032784FE9307070093975700B387E700B7
:104A1000939727001387064DB387E70083A7070105
:104A200093850700B7270280032784FE9386074DEE
:104A30009307070093975700B387E70093972700E2
:104A4000B387F60083A7470193860700B7870080E6
:104A5000138647A1B78700801385C7A1EF001077A1
:104A60006F00C00013051000EFD08FFA032584FEFD
:104A7000EF0080601307050093071000E304F7FEC2
:104A8000B7270280032784FE9386074D930707000C
:104A900093975700B387E70093972700B387F600F3
:104AA00083A7870213850700EFC0DFA1B726028026
:104AB000032784FE9307070093975700B387E70007
:104AC000939727001387064DB387E70083A7070155
:104AD00093850700B7270280032784FE9386074D3E
:104AE0009307070093975700B387E7009397270032
:104AF000B387F60083A7470193860700B787008036
:104B00001386C7A2B7870080138547A5EF00106CF6
:104B1000B7260280032784FE930707009397570068
:104B2000B387E700939727001387064DB387E70005
:104B300023A00700232604FE6F00400CB726028046
:104B40000327C4FE9307070093975700B387E70036
:104B5000939727001387064DB387E70083A70700C5
:104B600093860700B78700801386C7A58325C4FEF8
:104B7000B7870080138587A6EF005065B7260280AF
:104B80000327C4FE9307070093975700B387E700F6
:104B9000939727001387064DB387E70083A7070085
:104BA00063880704B72602800327C4FE9307070023
:104BB00093975700B387E700939727001387064D15
:104BC000B387E70083A7070093860700B7870080B5
:104BD000138647A78325C4FEB7870080138587A85F
:104BE000EF00D05E9307F0FF2326F4FE6F00C001B4
:104BF0008327C4FE938717002326F4FE0327C4FEF1
:104C000093079000E3DCE7F20327C4FE9307F0FF6D
:104C10006304F700EF008057B7260280032784FE65
:104C20009307070093975700B387E70093972700F0
:104C30001387064DB387E70003A60701B727028055
:104C4000032784FE9386074D930707009397570029
:104C5000B387E70093972700B387F60083A7470140
:104C60009385070013050600EF10D009B7270280CF
:104C7000032784FE9386074D9307070093975700F9
:104C8000B387E70093972700B387F60083A78701D0
:104C900013850700EFD00FCA130000008320C10165
:104CA000032481011301010267800000130101FE4A
:104CB000232E810013040102B717028023A60730B8
:104CC000232604FE6F004007B71702808326C4FE28
:104CD000130740243387E60293870738B307F700AA
:104CE0001307F0FF23A0E700B71702808326C4FE56
:104CF0001387073893074024B387F602B307F700FA
:104D000023A40700B71602800327C4FE93070700F9
:104D100093974700B387E740939727001387C621EF
:104D2000B387E7001307F0FF23A0E7008327C4FE43
:104D3000938717002326F4FE0327C4FE9307300051
:104D4000E3D4E7F8130000000324C10113010102BA
:104D500067800000130101FE232E1100232C810027
:104D600013040102B707FEFD9387D7DF2324F4FE67
:104D7000EFD09FF2232604FE6F008009B717028050
:104D80008326C4FE130740243387E602938707383F
:104D9000B307F70003A707009307F0FF6314F706B4
:104DA000B71702808326C4FE130740243387E60228
:104DB00093870738B307F7001307100023A0E70015
:104DC000B717028003A7C730B71702800326C4FEB7
:104DD0009386073893074024B307F602B387F6009B
:104DE00023A4E700B717028083A7C73013871700F3
:104DF000B717028023A6E7308327C4FE2324F4FEDE
:104E00006F00C0018327C4FE938717002326F4FE9A
:104E10000327C4FE93073000E3D2E7F6B7170280FA
:104E200003A7C730B70700016366F706B71702800C
:104E30001307001023A6E730232604FE6F00C004EA
:104E4000B71702808326C4FE1387073893074024D0
:104E5000B387F602B307F70083A7870013F7F70FAE
:104E6000B71702800326C4FE9386073893074024B1
:104E7000B307F602B387F60023A4E7008327C4FE36
:104E8000938717002326F4FE0327C4FE9307300000
:104E9000E3D8E7FAEFD01FE4832784FE13850700E9
:104EA0008320C101032481011301010267800000F6
:104EB000130101FE232E1100232C81001304010293
:104EC000EFD09FDD232604FE6F000007B716028097
:104ED0000327C4FE9307070093974700B387E74073
:104EE000939727001387C621B387E70003A707001E
:104EF0009307F0FF631CF702B71602800327C4FE76
:104F00009307070093974700B387E74093972700DD
:104F10001387C621B387E7001307100023A0E7001B
:104F2000EFD05FDB8327C4FE6F0080028327C4FEBF
:104F3000938717002326F4FE0327C4FE930730004F
:104F4000E3D6E7F8EFD01FD9B707FEFD9387D7DF89
:104F5000138507008320C10103248101130101028D
:104F600067800000130101FD232681021304010361
:104F7000232EA4FC0327C4FDB707FFFFB377F70078
:104F80002326F4FE0327C4FDB70701009387F7FF2C
:104F9000B377F7002324F4FE0327C4FEB7071010ED
:104FA0006314F708B7170280032784FE9386C7218E
:104FB0009307070093974700B387E740939727002D
:104FC000B387F60003A70701930700056314F700F2
:104FD00023A20196B7160280032784FE93070700D9
:104FE00093974700B387E740939727001387C6211D
:104FF000B387E7001307F0FF23A0E700B71702808D
:10500000032784FE9386C7219307070093974700E1
:10501000B387E74093972700B387F6001307F0FFA5
:1050200023A2E7006F008004B7170280832684FE66
:10503000130740243387E60293870738B307F70046
:105040001307F0FF23A0E700B7170280832684FE32
:105050001387073893074024B387F602B307F70096
:105060001307F0FF23A2E700130000000324C1028E
:105070001301010367800000130101FD23261102C3
:105080002324810213040103232EA4FC232604FEFF
:105090006F00800D8327C4FE93850700B7870080CB
:1050A000138507AAEF00100EB71702808326C4FEEF
:1050B000130740243387E60293870738B307F700C6
:1050C00083A7070093850700B7870080138547AA49
:1050D000EF00500BB71702808326C4FE13870738F2
:1050E00093074024B387F602B307F70083A747006E
:1050F00093850700B7870080138507ABEF00900802
:10510000B78700801385C7ABEF00007DB71702801B
:105110008326C4FE130740243387E60293870738AB
:10512000B307F70003A70700930710006318F702FF
:10513000B71702808326C4FE1387073893074024DD
:10514000B387F602B307F70083A747000327C4FD20
:105150006316F700930710006F0000028327C4FE58
:10516000938717002326F4FE0327C4FE930730001D
:10517000E3F2E7F293070000138507008320C102E2
:10518000032481021301010367800000130101FF62
:105190002326810013040101B7270280130740066C
:1051A00023A4E77E130000000324C10013010101C2
:1051B00067800000130101FE232E81001304010209
:1051C0002326A4FEB72702800327C4FE23A4E77E7C
:1051D000130000000324C1011301010267800000D5
:1051E000130101FF23261100232481001304010170
:1051F000B7070090138587FFEFB05FDA93070500CC
:10520000138507008320C1000324810013010101DD
:1052100067800000130101FF232611002324810071
:1052200013040101EFF0DFFB13070500B72702802D
:1052300083A7877E6300F702B727028083A7877E54
:1052400093850700B7070090138587FFEFB09FD4C1
:1052500013000000130000008320C100032481001C
:105260001301010167800000130101FF2326810063
:1052700013040101B727028003A7877E9307400626
:10528000631AF700B72702801307600923A4E77E9B
:105290006F004013B727028003A7877E930760093A
:1052A000631AF700B72702801307A00F23A4E77E35
:1052B0006F004011B727028003A7877E9307A00FD6
:1052C000631AF700B72702801307401F23A4E77E65
:1052D0006F00400FB727028003A7877E9307401F08
:1052E000631AF700B72702801307803E23A4E77EE6
:1052F0006F00400DB727028003A7877E9307803E8B
:10530000631AF700B72702801307803E23A4E77EC5
:105310006F00400BB727028003A7877E9307803E6C
:1053200063FAE700B72702801307803E23A4E77ED5
:105330006F004009B727028003A7877E9307401FAD
:1053400063FAE700B72702801307803E23A4E77EB5
:105350006F004007B727028003A7877E9307A00F3F
:1053600063FAE700B72702801307401F23A4E77EF4
:105370006F004005B727028003A7877E9307600967
:1053800063FAE700B72702801307A00F23A4E77E84
:105390006F004003B727028003A7877E930740066C
:1053A00063FAE700B72702801307600923A4E77EAA
:1053B0006F004001B72702801307400623A4E77E51
:1053C000130000000324C1001301010167800000E5
:1053D000130101FF2326110023248100130401017E
:1053E00093050000B7070090138547FFEFB09FBA01
:1053F00093050000B7070090138507FFEFB09FB932
:1054000093050000B70700901385C7FEEFB09FB863
:10541000130000008320C100032481001301010157
:1054200067800000130101FC232E1102232C81024E
:1054300013040104930730002326F4FE83A741964A
:105440006390072A1307100023A2E196EFF09FDC78
:10545000B7070090138547FFEFB05FB42324A4FE85
:10546000B7070090138507FFEFB05FB32322A4FEB8
:10547000B70700901385C7FEEFB05FB22320A4FEEC
:10548000EFF01FF5032784FE832744FEB307F700E0
:10549000032704FEB307F700232EF4FC8327C4FD83
:1054A00093850700B7870080138547B3EF00804DD1
:1054B000B78700800327C4FE131727009387C7AD63
:1054C000B307F70083A7070013870700832704FEAD
:1054D000B307F70213D76700B78700808326C4FE9F
:1054E00093962600938787AEB387F60083A70700BD
:1054F00013860700832684FE832744FEB387F600C5
:10550000B307F60293D76700B307F700232CF4FC28
:10551000B78700800327C4FE13172700938747AC83
:10552000B307F70083A7070013870700832784FECC
:10553000B307F70213D76700B78700808326C4FE3E
:1055400093962600938707ADB387F60083A70700DD
:1055500093860700832744FEB387F60293D767003C
:10556000B307F700232AF4FC232804FC032744FD97
:10557000832784FDB307F700032704FDB307F70073
:105580002326F4FC8327C4FC93850700B78700809B
:105590001385C7B3EF00003FEFF09F912324A4FCD5
:1055A000032784FCB707FEFD9387D7DF6314F7005A
:1055B000EF108054032784FCB707FEFD9387D7DFE5
:1055C000E30CF7FCB7170280032784FC9386C721FE
:1055D0009307070093974700B387E7409397270007
:1055E000B387F6003707FFFE1307E7EF23A2E700B4
:1055F0009305000013050000EF00807A13070500F3
:10560000B7070200B366F700B7170280032784FCD0
:105610001386C7219307070093974700B387E74096
:1056200093972700B307F60023A4D700B71702808B
:10563000032784FC9386C7219307070093974700AD
:10564000B387E74093972700B387F6001307B000AE
:1056500023A6E700B7170280032784FC9386C7219F
:105660009307070093974700B387E7409397270076
:10567000B387F6001307000523A8E700B7270280C9
:1056800083A6477FB7170280032784FC1386C721B0
:105690009307070093974700B387E7409397270046
:1056A000B307F60023AAD700B7170280032784FCAC
:1056B0009386C7219307070093974700B387E74076
:1056C00093972700B387F6000327C4FC23ACE700B9
:1056D000832584FC37051010EF0080701300000054
:1056E000130000008320C10303248103130101047C
:1056F00067800000130101FD2326810213040103CA
:10570000232EA4FCF32740F12326F4FE8327C4FEB6
:105710002324F4FE370700408327C4FD93D75700A6
:10572000832684FE93965600B386F600B7170000D2
:1057300093870780B387F60093972700B307F70096
:1057400083A707002322F4FE8327C4FD93F7F70104
:1057500013071000B317F700032744FEB367F700E1
:105760002322F4FE370700408327C4FD93D7570058
:10577000832684FE93965600B386F600B717000082
:1057800093870780B387F60093972700B307F70046
:10579000032744FE23A0E700130000000324C102F6
:1057A0001301010367800000130101FE232E810015
:1057B000130401022326A4FE2324B4FE370700406D
:1057C0008327C4FE93972700B307F700032784FEBF
:1057D00023A0E700130000000324C101130101020C
:1057E00067800000130101FF23261100232481009C
:1057F00013040101EFF0DFBDB70700901385C7FF69
:10580000EFB0CFF9930705009385070037050050E7
:10581000EFB04FF837050050EFB04FF81307050011
:10582000B727028023AAE77EB727028083A7477F96
:1058300013850700EF00801F93070500938507007D
:10584000B707005013850702EFB0CFF4B7270280E7
:1058500083A7477F13850700EF000020930705000B
:1058600093850700B707005013850702EFB08FF24A
:10587000EFE05FAEEFF08FC3B717028023AE0736BD
:10588000B717028023A207369305803EB707005062
:1058900013850701EFB00FF0B71702809387073128
:1058A00093850700B707005013854700EFB08FEED0
:1058B000B777000013857777EF004021EFF01F8D59
:1058C000EFF09F9A130000008320C10003248100A1
:1058D0001301010167800000130101FD232611025D
:1058E0002324810213040103232EA4FC232604FE97
:1058F0008327C4FE0327C4FDB307F700838707008F
:1059000093850700B707005013850702EFB08FE8B3
:105910008327C4FE938717002326F4FE8327C4FE43
:105920009387F7FF0327C4FDB307F70083870700BA
:10593000E39007FC130000008320C10203248102CE
:105940001301010367800000130101FE232E1100E3
:10595000232C8100130401022326A4FE8327C4FE06
:1059600093850700B707005013854702EFB08FE219
:10597000130000008320C1010324810113010102EF
:1059800067800000130101FE232E1100232C8100EB
:10599000130401022326A4FE2324B4FE0325C4FE1F
:1059A000EFF09FF3032584FEEFF01FFAB787008026
:1059B0001385C7B4EFF05FF2130000008320C1012C
:1059C000032481011301010267800000130101FE1D
:1059D000232E1100232C8100130401022326A4FE90
:1059E0002324B4FE2322C4FE2320D4FE0325C4FEB8
:1059F000EFF09FEE032584FEEFF01FF5032544FE34
:105A0000EFF09FED032504FEEFF01FF4B787008051
:105A10001385C7B4EFF05FEC130000008320C101D1
:105A2000032481011301010267800000130101FEBC
:105A3000232E8100130401022326A4FE8327C4FE23
:105A400093D7870093F7F70F138507000324C1014D
:105A50001301010267800000130101FE232E810063
:105A6000130401022326A4FE8327C4FE93F7F70F35
:105A7000138507000324C1011301010267800000A0
:105A8000130101FE232E1100232C810013040102B7
:105A90002326A4FE8325C4FEB707005013854700C4
:105AA000EFB04FCFB727000093852722B7070050EC
:105AB00013858700EFB00FCE130000008320C101D3
:105AC000032481011301010267800000130101FE1C
:105AD000232E1100232C8100130401022326A4FE8F
