:0200000480007A
:100000006F00C0006F0000006F00800297020000C8
:1000100093824202739052307350003073504030DC
:1000200093810100170104001301C1E36F00401820
:10003000130101F823201100232221002324310081
:100040002326410023285100232A6100232C71001C
:10005000232E8100232091022322A1022324B10216
:100060002326C1022328D102232AE102232CF102F4
:10007000232E0103232011052322210523243105EA
:100080002326410523285105232A6105232C7105C8
:10009000232E8105232091072322A1072324B107C2
:1000A0002326C1072328D107232AE107232CF107A0
:1000B000F3221034232E510673252034F3251034F7
:1000C00013060100EF00406273101534B7220000E0
:1000D0009382028073A0023083200100032141003B
:1000E000832181000322C1008322010103234101F6
:1000F000832381010324C1018324010203254102DA
:10010000832581020326C1028326010303274103BD
:10011000832781030328C1038328010403294104A1
:1001200083298104032AC104832A0105032B410585
:10013000832B8105032CC105832C0106032D410669
:10014000832D8106032EC106832E0107032F41074D
:10015000832F810713010108730020300000000085
:10016000130101FD2326810213040103232EA4FCA5
:10017000232CB4FC8327C4FD2326F4FE6F008001EA
:100180008327C4FE23A007008327C4FE938747006C
:100190002326F4FE0327C4FE832784FDE3F2E7FE53
:1001A000130000000324C102130101036780000053
:1001B000130101FE232E1100232C810013040102E0
:1001C000B7570080938707512326F4FE8327C4FE88
:1001D0002320F4FE232204FE232404FE93850197AA
:1001E00013850190EFF0DFF7B7070280938507E6EC
:1001F00013850197EFF0DFF6930704FE9385070060
:1002000013051000EF504001130000008320C101CE
:10021000032481011301010267800000130101FF23
:100220002326810013040101130000000324C100F0
:100230001301010167800000130101FD23268102E3
:1002400013040103232EA4FCF32740F12326F4FE1C
:100250008327C4FE2324F4FE370700408327C4FD10
:1002600093D75700832684FE93965600B386F600F4
:10027000B717000093870780B387F600939727008E
:10028000B307F70083A707002322F4FE8327C4FDEA
:1002900093F7F70113071000B317F70093C7F7FFA1
:1002A000032744FEB377F7002322F4FE370700400C
:1002B0008327C4FD93D75700832684FE9396560068
:1002C000B386F600B717000093870780B387F60060
:1002D00093972700B307F700032744FE23A0E70006
:1002E000130000000324C102130101036780000012
:1002F000130101FE232E810013040102F32740F1B4
:100300002326F4FE8327C4FE2324F4FE370700408F
:10031000832784FE938707209397C700B307F700CE
:1003200083A74700138507000324C10113010102BD
:1003300067800000130101FD2326810213040103DD
:10034000232EA4FCF32740F12326F4FE8327C4FECA
:100350002324F4FE37070040832784FE9387072079
:100360009397C700B307F7000327C4FD23A2E70054
:10037000130000000324C102130101036780000081
:10038000130101FE232E810013040102F3670430E0
:100390002326F4FE130000000324C101130101020F
:1003A00067800000130101FE232E1100232C810021
:1003B0001304010293070008F3B747302326F4FE25
:1003C000EF10004237070044B7C70000B307F7003B
:1003D00003A8C7FF83A787FF83A5019003A64190C9
:1003E00037050044732740F12324E4FE832884FE6C
:1003F000B386B700138306003333F3003307C80016
:10040000B307E3001387070093870600130807006C
:1004100037170000130707803387E80013173700EA
:100420003307E5002320F700232207019307000884
:10043000F3A747302322F4FE130000008320C101FC
:10044000032481011301010267800000130101FEF2
:10045000232E1100232C810013040102EFF05FE929
:100460002326A4FEA30504FEB76700800327C4FE6D
:100470001317270093870791B307F70083A7070097
:10048000E780070093070500A305F4FE0325C4FEDB
:10049000EFF05FEA0347B4FE930710006316F7001E
:1004A0000325C4FEEFF05FD9130000008320C101D3
:1004B000032481011301010267800000130101FF81
:1004C000232611002324810013040101EF10404270
:1004D000B707004423A00700130000008320C100D9
:1004E000032481001301010167800000130101FD55
:1004F0002326110223248102232221031304010352
:1005000013090000130901009307090093874707A7
:100510002326F4FE8327C4FE83A707002324F4FECA
:1005200093070900938787072326F4FE8327C4FED9
:1005300083A707002322F4FE930709009387C707C8
:100540002326F4FE8327C4FE83A707002320F4FE9E
:1005500093070900938707082326F4FE8327C4FE28
:1005600083A70700232EF4FC93070900938747080D
:100570002326F4FE8327C4FE83A70700232CF4FC64
:1005800093070900938787082326F4FE8327C4FE78
:1005900083A70700232CF4FC93070900938707091E
:1005A0002326F4FE8327C4FE83A70700232AF4FC36
:1005B000032744FD930720046316F708B75700800C
:1005C00013858751EF20C062832784FE938507003F
:1005D000B757008013850754EF20406C832744FEF3
:1005E00093850700B757008013858754EF20006B71
:1005F000832704FE93850700B757008013850755AE
:10060000EF20C0698327C4FD93850700B75700809A
:1006100013858755EF208068832784FD9385070025
:10062000B757008013850756EF204067832744FDA6
:1006300093850700B757008013858756EF20006623
:100640006F00C008B757008013850757EF20405A46
:10065000832784FE93850700B757008013850754CE
:10066000EF20C063832744FE93850700B7570080BF
:1006700013858754EF208062832704FE938507004B
:10068000B757008013850755EF2040618327C4FDCD
:1006900093850700B757008013858755EF200060CA
:1006A000832784FD93850700B7570080138507567D
:1006B000EF20C05E832744FD93850700B757008075
:1006C00013858756EF20805D1300000093077005A7
:1006D000138507008320C1020324810203294102FC
:1006E0001301010367800000130101FE232E110096
:1006F000232C8100130401022326A4FE2324B4FE2C
:100700000327C4FE9307B0006304F7020327C4FE67
:100710009307A000630EF7000327C4FE9307900021
:100720006308F7000327C4FE93078000631CF700EB
:10073000EFF0DFDB832784FE938747002324F4FE5A
:100740006F00000A8327C4FE63D207020327C4FE9A
:10075000B707008093C7F7FF3377F7009307B00020
:100760006316F700EFF09FCE6F0080078327C4FE6B
:1007700063D207020327C4FEB707008093C7F7FFC1
:100780003377F700930770006316F700EFF09FC10F
:100790006F0000058327C4FE63D207020327C4FE4F
:1007A000B707008093C7F7FF3377F7009307300050
:1007B0006316F700EFF09FD06F0080021306500021
:1007C000B75700809385075913051000EF40904CF0
:1007D0008327C4FE9387170013850700EF00404C62
:1007E000832784FE138507008320C1010324810130
:1007F0001301010267800000130101FF232681001D
:100800001304010193070000138507000324C100AE
:100810001301010167800000130101FF23268100FD
:100820001304010193070000138507000324C1008E
:100830001301010167800000130101FF23268100DD
:100840001304010193070000138507000324C1006E
:100850001301010167800000130101FF23268100BD
:100860001304010193070000138507000324C1004E
:100870001301010167800000130101FF232681009D
:100880001304010193070000138507000324C1002E
:100890001301010167800000130101FF232681007D
:1008A0001304010193070000138507000324C1000E
:1008B0001301010167800000130101FF232681005D
:1008C0001304010193070000138507000324C100EE
:1008D0001301010167800000130101FF232681003D
:1008E0001304010193070000138507000324C100CE
:1008F0001301010167800000130101FF232681001D
:100900001304010193070000138507000324C100AD
:100910001301010167800000130101FF23268100FC
:100920001304010193070000138507000324C1008D
:100930001301010167800000130101FF23268100DC
:100940001304010193070000138507000324C1006D
:100950001301010167800000130101FF23268100BC
:100960001304010193070000138507000324C1004D
:100970001301010167800000130101FF232681009C
:100980001304010193070000138507000324C1002D
:100990001301010167800000130101FF232681007C
:1009A0001304010193070000138507000324C1000D
:1009B0001301010167800000130101FF232681005C
:1009C0001304010193070000138507000324C100ED
:1009D0001301010167800000130101FF232681003C
:1009E0001304010193070000138507000324C100CD
:1009F0001301010167800000130101FF232681001C
:100A00001304010193070000138507000324C100AC
:100A10001301010167800000130101FF23268100FB
:100A20001304010193070000138507000324C1008C
:100A30001301010167800000130101FF23268100DB
:100A40001304010193070000138507000324C1006C
:100A50001301010167800000130101FF23268100BB
:100A60001304010193070000138507000324C1004C
:100A70001301010167800000130101FF232681009B
:100A80001304010193070000138507000324C1002C
:100A90001301010167800000130101FF232681007B
:100AA0001304010193070000138507000324C1000C
:100AB0001301010167800000130101FF232681005B
:100AC0001304010193070000138507000324C100EC
:100AD0001301010167800000130101FF232681003B
:100AE0001304010193070000138507000324C100CC
:100AF0001301010167800000130101FF232681001B
:100B00001304010193070000138507000324C100AB
:100B10001301010167800000130101FF23268100FA
:100B20001304010193070000138507000324C1008B
:100B30001301010167800000130101FF23268100DA
:100B40001304010193070000138507000324C1006B
:100B50001301010167800000130101FF23268100BA
:100B60001304010193070000138507000324C1004B
:100B70001301010167800000130101FF232681009A
:100B80001304010193070000138507000324C1002B
:100B90001301010167800000130101FF232681007A
:100BA0001304010193070000138507000324C1000B
:100BB0001301010167800000130101FD23261102CA
:100BC0002324810213040103232EA4FC232CB4FC50
:100BD00013062000B7570080938587590325C4FD6D
:100BE000EF40500B93078000A307F4FE6F008009CD
:100BF0008347F4FE9387F7FF2307F4FE8347E4FE61
:100C0000939727001307F000B317F7001387070027
:100C1000832784FD3377F7008347E4FE939727000B
:100C2000B357F700A306F4FE0347D4FE93079000E2
:100C300063EEE7008347D4FE9387070393F7F70F2C
:100C40009397870193D787416F0080018347D4FE34
:100C50009387770393F7F70F9397870193D787418C
:100C60002306F4FE9307C4FE1306100093850700C5
:100C70000325C4FDEF4010028347F4FE9387F7FF7E
:100C8000A307F4FE8347F4FEE39407F61300000085
:100C90008320C10203248102130101036780000045
:100CA000130101FD232611022324810213040103F1
:100CB000232EA4FCB75700809387C7592326F4FE40
:100CC0000325C4FEEF108009930705001386070073
:100CD0008325C4FE13052000EF40C07B8327C4FD9D
:100CE0009385070013052000EFF01FED6F00000053
:100CF000130101FE232E8100130401022326A4FE0A
:100D00000327C4FE930710006308F7000327C4FEFF
:100D1000930720006316F700930710006F0040014F
:100D2000B7F701801307900023ACE7569307000044
:100D3000138507000324C10113010102678000002D
:100D4000130101FE232E8100130401022326A4FEB9
:100D5000B7F701800327C4FE23ACE7569307F0FFE3
:100D6000138507000324C1011301010267800000FD
:100D7000130101FD23261102232481021304010320
:100D8000232EA4FC232CB4FC232AC4FC832784FD3B
:100D90002324F4FE0325C4FDEFF09FF5930705001F
:100DA000638C070883A701916390070293061000E4
:100DB0001306C002B715007013858190EF0040172D
:100DC0001307100023A8E190232604FE6F0080057E
:100DD000032784FE8327C4FEB307F7001306100021
:100DE0009385070013858190EF000026032784FE7A
:100DF0008327C4FEB307F70003C707009307A000CB
:100E0000631CF70013061000B75700809385C75B7B
:100E100013858190EF0040238327C4FE938717003A
:100E20002326F4FE0327C4FE832744FDE362F7FA7A
:100E3000832744FD6F00000113059000EFF05FF081
:100E400093070500138507008320C1020324810254
:100E500013010103678000002320B50067800000B4
:100E60000325050067800000138E0600331EBE00B8
:100E7000337ECE00032305009303060093C3F3FFE4
:100E8000337373003363C301232065006780000060
:100E9000032505003375C5003355B5006780000094
:100EA0002310B5006780000003150500678000006F
:100EB000138E0600331EBE00337ECE0003130500E2
:100EC0009303060093C3F3FF337373003363C301CB
:100ED0002310650067800000031505003375C50009
:100EE0003355B500678000002300B500678000001F
:100EF0000305050067800000138E0600331EBE0048
:100F0000337ECE00030305009303060093C3F3FF73
:100F1000337373003363C3012300650067800000EF
:100F2000030505003375C5003355B5006780000023
:100F3000130101FD2326110223248102130401035E
:100F4000232EA4FC232CB4FC930706001387060071
:100F5000231BF4FC93070700A30AF4FC8327C4FDBA
:100F6000638A070C034754FD9307700063E4E70CA2
:100F7000035764FDB7270000637EF70A832784FDCB
:100F800013878700835764FD93F7F70F9385070056
:100F900013050700EFF05FF5832784FD9386C700F4
:100FA000034754FD835764FD93D7574093F7877FDA
:100FB000B367F7009385070013850600EFF0DFF2B3
:100FC0008327C4FD032784FD23A0E7008327C4FDF6
:100FD00083A707009387070113850700EFF05FF1F0
:100FE0009307050093F72700A307F4FE6F00800323
:100FF0008327C4FD83A70700938747001385070055
:10100000EFF01FEF8327C4FD83A707009387070135
:1010100013850700EFF0DFED9307050093F7270036
:10102000A307F4FE8347F4FEE39407FC8327C4FD83
:1010300023820700130000008320C10203248102E1
:101040001301010367800000130101FD2326110233
:101050002324810213040103232EA4FC232CB4FCBB
:10106000232AC4FC8327C4FD63800708832784FDEB
:10107000638C0706832744FD63880706232604FE46
:101080006F00C0058327C4FD83A70700938707016E
:1010900013850700EFF0DFE59307050093F71700CE
:1010A000A305F4FE8347B4FEE38E07FC8327C4FD4B
:1010B00083A60700032784FD8327C4FEB307F70038
:1010C00083C707009385070013850600EFF0DFE173
:1010D0008327C4FE938717002326F4FE0327C4FE4C
:1010E000832744FDE360F7FA130000008320C10268
:1010F000032481021301010367800000130101FD35
:10110000232611022324810213040103232EA4FCAD
:10111000232CB4FC8327C4FD63800708832784FD48
:10112000638C0706232604FE6F00C0058327C4FDD9
:1011300083A707009387070113850700EFF05FDBA4
:101140009307050093F71700A305F4FE8347B4FE49
:10115000E38E07FC8327C4FD83A60700032784FDD5
:101160008327C4FEB307F70083C7070093850700F2
:1011700013850600EFF05FD78327C4FE938717001F
:101180002326F4FE032784FD8327C4FEB307F7005C
:1011900083C70700E39C07F8130000008320C10207
:1011A000032481021301010367800000130101FC85
:1011B000232E1102232C8102130401042326A4FCF4
:1011C000232204FEEF00907183A7419263980700E9
:1011D000EF0040281307100023A2E1928327C4FCEC
:1011E000638A070293078000138707008327C4FCE4
:1011F000B387E7002326F4FC8327C4FC93F737006A
:10120000638A07008327C4FC93F7C7FF93874700CF
:101210002326F4FC8327C4FC638407140327C4FC3F
:10122000B79701009387B7FF63ECE712938741916B
:101230002324F4FE83A741912326F4FE6F0080014E
:101240008327C4FE2324F4FE8327C4FE83A707005C
:101250002326F4FE8327C4FE83A747000327C4FC8C
:1012600063F8E7008327C4FE83A70700E39A07FC1F
:101270000327C4FE9387C1916304F70E832784FE7E
:1012800083A7070013078000B387E7002322F4FE3B
:101290008327C4FE03A70700832784FE23A0E7005B
:1012A0008327C4FE03A747008327C4FCB307F74086
:1012B00013078000131717006376F7080327C4FE8F
:1012C0008327C4FCB307F700232EF4FC8327C4FE56
:1012D00003A747008327C4FC3307F7408327C4FDD7
:1012E00023A2E7008327C4FE0327C4FC23A2E70050
:1012F0008327C4FD83A74700232CF4FC93874191E7
:101300002320F4FE6F000001832704FE83A707005B
:101310002320F4FE832704FE83A7070083A747004A
:10132000032784FDE3E2E7FE832704FE03A707000B
:101330008327C4FD23A0E700832704FE0327C4FD01
:1013400023A0E700B767008003A7078F8327C4FEA9
:1013500083A747003307F740B767008023A8E78ECD
:10136000EF00505A832744FE63940700EF40400289
:10137000832744FE138507008320C10303248103D0
:101380001301010467800000130101FD23261102EF
:101390002324810213040103232EA4FC8327C4FD0C
:1013A0002324F4FE8327C4FD638C07089307800081
:1013B000B307F040032784FEB307F7002324F4FEAD
:1013C000832784FE2322F4FEEF005051832744FE3E
:1013D00083A747002320F4FE938741912326F4FE40
:1013E0006F0000018327C4FE83A707002326F4FEB5
:1013F0008327C4FE83A7070083A74700032704FEB3
:10140000E3E2E7FE8327C4FE03A70700832744FE29
:1014100023A0E7008327C4FE032744FE23A0E700A0
:10142000832744FE03A74700B767008083A7078F81
:101430003307F700B767008023A8E78EEF00904CD2
:10144000130000008320C102032481021301010361
:1014500067800000130101FE232E810013040102A6
:10146000B7670080938747A693F7C7FF2326F4FE4C
:101470000327C4FE23AAE1909387419123A207008A
:101480009387C191379701001307C7FF23A2E70095
:1014900023AE01908327C4FE2324F4FE832784FE19
:1014A000379701001307C7FF23A2E700832784FEB5
:1014B0001387C19123A0E700130000000324C1019A
:1014C0001301010267800000130101FE232E810039
:1014D00013040102F32740F12326F4FE8327C4FE00
:1014E0002324F4FEF36744302322F4FE370700443C
:1014F000832784FE93972700B307F7001307100094
:1015000023A0E700130000000324C101130101021E
:1015100067800000130101FF2326810013040101ED
:1015200073700430B767008083A7478F1387170055
:10153000B767008023AAE78E130000000324C100D0
:101540001301010167800000130101FF23268100C0
:1015500013040101B767008083A7478F1387F7FF44
:10156000B767008023AAE78EB767008083A7478FFD
:101570006394070073600430130000000324C1006B
:101580001301010167800000130101FE232E810079
:1015900013040102376600800326868F03260600A7
:1015A0002324C4FE232604FE376600800326868F8C
:1015B0000326460093060600130700001398060052
:1015C00093070000032784FE3367F7002324E4FE1B
:1015D0000327C4FEB36707012326F4FE832684FE97
:1015E0000327C4FEB7450100938585431306000019
:1015F000B387B600138507003335D5003308C7001D
:1016000033070501130807002324F4FE232604FFF3
:10161000B767008083A7C78F032784FE23A0E70056
:101620008327C4FE13D3070093030000B76700802D
:1016300083A7C78F1307030023A2E70093070008BF
:1016400073A04730130000000324C10113010102FD
:1016500067800000130101FE232E810013040102A4
:10166000376600800326868F032606002324C4FEE7
:10167000232604FE376600800326868F0326460055
:101680009306060013070000139806009307000056
:10169000032784FE3367F7002324E4FE0327C4FEF8
:1016A000B36707012326F4FE832684FE0327C4FEC6
:1016B000B74501009385854313060000B387B60044
:1016C000138507003335D5003308C70033070501FC
:1016D000130807002324F4FE232604FFB7670080C5
:1016E00083A7C78F032784FE23A0E7008327C4FEB8
:1016F00013D3070093030000B767008083A7C78F49
:101700001307030023A2E7009307000873A04730E4
:10171000130000000324C1011301010267800000CF
:10172000130101FF2326810013040101B767008024
:1017300003A7478F9307F0FF6306F7007370043029
:101740006F000000737004306F000000130101FE91
:10175000232E8100130401022326A4FE2324B4FEB9
:101760002322C4FE8327C4FE9387C7FF2326F4FEEB
:10177000032784FE8327C4FE23A0E7008327C4FE3B
:10178000938787FA2326F4FE032744FE8327C4FEAB
:1017900023A0E7008327C4FE938787FE2326F4FE59
:1017A00093870100138707008327C4FE23A0E70067
:1017B0008327C4FE938747FF2326F4FEB7170080D4
:1017C000138707728327C4FE23A0E7008327C4FE84
:1017D000138507000324C101130101026780000083
:1017E000130101FF232611002324810013040101AA
:1017F00083A2C19223A0C200EFF01FD9EF00102AEC
:101800009307050063840700EF00104803A1C1920D
:10181000032101008322C107739012348320010049
:101820000322C1008322010103234101832381019B
:101830000324C1018324010203254102832581027F
:101840000326C10283260103032741038327810363
:101850000328C10383280104032941048329810447
:10186000032AC104832A0105032B4105832B81052B
:10187000032CC105832C0106032D4106832D81060F
:10188000032EC106832E0107032F4107832F8107F3
:101890001301010873002030130000008320C100F1
:1018A000032481001301010167800000130101FF7F
:1018B000232611002324810013040101EFF09FD996
:1018C000B767008023AA078E1307100023A4E192B4
:1018D000EFE01FABEFF05FBF930700001385070039
:1018E0008320C100032481001301010167800000EF
:1018F000130101FF23261100232481001304010199
:1019000003A78192930710006318F70013072000C4
:1019100023A4E1926F00000183A2C19223A0C20020
:10192000EF009036B707004423A0070003A1C1923F
:10193000032101008322C107739012348320010028
:101940000322C1008322010103234101832381017A
:101950000324C1018324010203254102832581025E
:101960000326C10283260103032741038327810342
:101970000328C10383280104032941048329810426
:10198000032AC104832A0105032B4105832B81050A
:10199000032CC105832C0106032D4106832D8106EE
:1019A000032EC106832E0107032F4107832F8107D2
:1019B0001301010873002030130000008320C100D0
:1019C000032481001301010167800000130101FF5E
:1019D000232611002324810013040101EFF0DFAE60
:1019E000130000008320C1000324810013010101C2
:1019F00067800000130101FE232E81001304010201
:101A00002326A4FE8327C4FE138787008327C4FEF2
:101A100023A2E7008327C4FE1307F0FF23A4E700F7
:101A20008327C4FE138787008327C4FE23A6E7000D
:101A30008327C4FE138787008327C4FE23A8E700FB
:101A40008327C4FE23A00700130000000324C10164
:101A50001301010267800000130101FE232E8100A3
:101A6000130401022326A4FE8327C4FE23A8070033
:101A7000130000000324C10113010102678000006C
:101A8000130101FD2326810213040103232EA4FC6C
:101A9000232CB4FC8327C4FD83A747002326F4FE30
:101AA000832784FD0327C4FE23A2E7008327C4FE07
:101AB00003A78700832784FD23A4E7008327C4FEB0
:101AC00083A78700032784FD23A2E7008327C4FEA2
:101AD000032784FD23A4E700832784FD0327C4FD97
:101AE00023A8E7008327C4FD83A7070013871700F7
:101AF0008327C4FD23A0E700130000000324C102D4
:101B00001301010367800000130101FD23268102F8
:101B100013040103232EA4FC232CB4FC832784FD8F
:101B200083A707002324F4FE032784FE9307F0FF16
:101B3000631AF7008327C4FD83A707012326F4FE59
:101B40006F0040038327C4FD938787002326F4FE9C
:101B50006F0000018327C4FE83A747002326F4FEFD
:101B60008327C4FE83A7470083A70700032784FEBB
:101B7000E372F7FE8327C4FE03A74700832784FD93
:101B800023A2E700832784FD83A74700032784FD62
:101B900023A4E700832784FD0327C4FE23A4E700D2
:101BA0008327C4FE032784FD23A2E700832784FD47
:101BB0000327C4FD23A8E7008327C4FD83A70700EC
:101BC000138717008327C4FD23A0E700130000003C
:101BD0000324C1021301010367800000130101FD0A
:101BE0002326810213040103232EA4FC8327C4FDB2
:101BF00083A707012326F4FE8327C4FD83A747009C
:101C00000327C4FD0327870023A4E7008327C4FD1F
:101C100083A787000327C4FD0327470023A2E7000B
:101C20008327C4FE83A747000327C4FD631AF70078
:101C30008327C4FD03A787008327C4FE23A2E700F0
:101C40008327C4FD23A807008327C4FE83A70700BA
:101C50001387F7FF8327C4FE23A0E7008327C4FE72
:101C600083A70700138507000324C10213010103A2
:101C700067800000130101FD232681021304010384
:101C8000232EA4FC232CB4FC232AC4FC0327C4FD6C
:101C9000832744FDB367F70093F73700639807067F
:101CA000832784FD93F7F70F2322F4FE832744FE56
:101CB00093978700032744FEB367F7002322F4FEBF
:101CC000832744FE93970701032744FEB367F70079
:101CD0002322F4FE8327C4FD2326F4FE6F00800137
:101CE0008327C4FE138747002326E4FE032744FE10
:101CF00023A0E7000327C4FD832744FDB307F700B3
:101D00000327C4FEE36EF7FC6F0000048327C4FDC5
:101D10002324F4FE6F000002832784FE138717003C
:101D20002324E4FE032784FD1317870113578741FB
:101D30002380E7000327C4FD832744FDB307F70092
:101D4000032784FEE36AF7FC8327C4FD138507009D
:101D50000324C1021301010367800000130101FD88
:101D60002326810213040103232EA4FC8327C4FD30
:101D70002326F4FE6F0000018327C4FE938717001B
:101D80002326F4FE8327C4FE83870700E39607FE1D
:101D90000327C4FE8327C4FDB307F740138507005C
:101DA0000324C1021301010367800000130101FC39
:101DB000232E1102232C810213040104232EA4FCE0
:101DC000232CB4FC2328D4FC2326E4FC2324F4FC99
:101DD000232204FD232014FD93070600231BF4FC9B
:101DE0008327C4FD63960700737004306F00000002
:101DF0000327C4FC9307400063F6E70073700430C8
:101E00006F000000835764FD832544FC13850700A1
:101E1000EF00902B2324A4FE832784FE6382071601
:101E2000832784FE03A70703835664FDB70700409A
:101E30009387F7FFB387F60093972700B307F70060
:101E40002322F4FE832744FE93F7C7FF2322F4FEE8
:101E5000832744FE93F737006386070073700430CE
:101E60006F000000835764FD13870700832604FC7E
:101E70000326C4FC832584FD032584FEEF00C07285
:101E8000032604FD8325C4FD032544FEEFF01F8CCB
:101E900013070500832784FE23A0E700832784FC23
:101EA00063880700832784FC032784FE23A0E700C0
:101EB000EFF04FE683A7C1931387170023AEE1929B
:101EC00083A7C19263900702032784FE23A6E192B1
:101ED00003A7C193930710006316F702EF005000A9
:101EE0006F00400283A78194639E070083A7C1927D
:101EF00083A7C7020327C4FC6366F700032784FE99
:101F000023A6E19283A781951387170023ACE19460
:101F100003A78195832784FE23A4E704832784FEF7
:101F200003A7C70283A7419463F8E700832784FED1
:101F300003A7C70223A2E194832784FE03A7C70255
:101F40009307070093972700B387E700939727002D
:101F500037F70180130707A63387E700832784FE3E
:101F6000938747009385070013050700EFF05FB1E3
:101F7000930710002326F4FEEFF00FDD6F00C00082
:101F80009307F0FF2326F4FE0327C4FE93071000F7
:101F90006310F70283A78194638C070083A7C19223
:101FA00083A7C7020327C4FC63F4E700EFF01FA276
:101FB0008327C4FE138507008320C1030324810304
:101FC0001301010467800000130101FD23261102A3
:101FD0002324810213040103232EA4FC232604FEE0
:101FE0008327C4FD6384070483A7019663860700E3
:101FF000737004306F000000EF00400E83A701945F
:102000000327C4FDB307F7002324F4FE83A7C1927E
:102010009387470013850700EFF05FBC032584FE1C
:10202000EF001002EF00000E2326A4FE8327C4FE5B
:1020300063940700EFF09F99130000008320C10212
:10204000032481021301010367800000130101FED4
:10205000232E1100232C8100130401029308000099
:102060001308000093070000130700009306000008
:1020700013060040B75500809385055C3725008026
:1020800013054557EFF09FD22326A4FE0327C4FE75
:10209000930710006312F702737004301307F0FF08
:1020A00023AEE1941307100023A4E19423A001942C
:1020B000EFF0CFFF6F0040018327C4FE6396070057
:1020C000737004306F000000130000008320C10112
:1020D000032481011301010267800000130101FF45
:1020E000232681001304010183A70196138717009B
:1020F00023A0E196130000000324C1001301010195
:1021000067800000130101FE232E1100232C8100A3
:1021100013040102232604FE83A701966396070099
:10212000737004306F000000EFF0CFBE83A70196FC
:102130001387F7FF23A0E19683A701966396071004
:1021400083A7C193638207106F00800AB7F70180ED
:102150009387C7AE83A7C70083A7C7002324F4FED5
:10216000832784FE9387870113850700EFF01FA75D
:10217000832784FE9387470013850700EFF01FA68F
:10218000832784FE03A7C70283A7419463F8E7006F
:10219000832784FE03A7C70223A2E194832784FE3A
:1021A00003A7C7029307070093972700B387E700A9
:1021B0009397270037F70180130707A63387E700B7
:1021C000832784FE93874700938507001305070044
:1021D000EFF01F8B832784FE03A7C70283A7C1925A
:1021E00083A7C7026366F7001307100023A8E194D2
:1021F000B7F7018083A7C7AEE39A07F483A7C1941A
:10220000638807026F004002EF0040099307050052
:10221000638607001307100023A8E19483A7C194E5
:102220001387F7FF23A6E19483A7C194E39E07FCDD
:1022300003A70195930710006318F7009307100098
:102240002326F4FEEFF08FF8EFF00FB08327C4FEE3
:10225000138507008320C1010324810113010102BA
:1022600067800000130101FE232E1100232C810042
:1022700013040102EFF00FAA83A701942326F4FEB2
:10228000EFF08FAC8327C4FE138507008320C101C4
:10229000032481011301010267800000130101FD85
:1022A000232611022324810213040103232604FEA2
:1022B00083A701966390071A83A7019413871700D9
:1022C00023A0E19483A701942324F4FE832784FEB2
:1022D0006390070483A7019383A707006386070021
:1022E000737004306F00000083A701932322F4FE73
:1022F00003A7419323A8E192032744FE23AAE19276
:1023000083A741951387170023AAE194EF00C06BC0
:1023100083A7C195032784FE6360F71083A7019309
:1023200083A7070063960700930710006F008000E3
:1023300093070000638807001307F0FF23AEE194C2
:102340006F00800D83A7019383A7C70083A7C700F1
:102350002320F4FE832704FE83A74700232EF4FCEA
:10236000032784FE8327C4FD6378F7000327C4FD99
:1023700023AEE1946F00400A832704FE9387470051
:1023800013850700EFF09F85832704FE83A787024C
:10239000638A0700832704FE93878701138507005C
:1023A000EFF0DF83832704FE03A7C70283A74194CE
:1023B00063F8E700832704FE03A7C70223A2E19482
:1023C000832704FE03A7C7029307070093972700FC
:1023D000B387E7009397270037F70180130707A615
:1023E0003387E700832704FE938747009385070020
:1023F00013050700EFF0CFE8832704FE03A7C70209
:1024000083A7C19283A7C702E36AF7F0930710007E
:102410002326F4FE6FF09FF083A7C19203A7C702A3
:10242000B7F601809307070093972700B387E7006B
:1024300093972700138706A6B387E70003A7070033
:102440009307100063FEE700930710002326F4FEB5
:102450006F00000183A7C1941387170023A6E1949E
:1024600083A7019563860700930710002326F4FED7
:102470008327C4FE138507008320C1020324810241
:102480001301010367800000130101FE232E810068
:102490001304010283A70196638807001307100045
:1024A00023A8E1946F00000C23A801946F000002A0
:1024B00083A7419463960700737004306F00000097
:1024C00083A741941387F7FF23A2E19403A74194C4
:1024D000B7F601809307070093972700B387E700BB
:1024E00093972700138706A6B387E70083A7070003
:1024F000E38007FC03A74194930707009397270005
:10250000B387E7009397270037F70180130707A6E3
:10251000B387E7002326F4FE8327C4FE83A7470082
:1025200003A747008327C4FE23A2E7008327C4FE36
:1025300003A747008327C4FE93878700631CF70027
:102540008327C4FE83A7470003A747008327C4FE51
:1025500023A2E7008327C4FE83A7470003A7C70081
:1025600023A6E192130000000324C101130101021C
:1025700067800000130101FE232E1100232C81002F
:10258000130401022326A4FEEF008021B7F7018087
:1025900003A707A69307100063F4E700EFF00FC34B
:1025A000EF2050606FF05FFE130101FC232E11023B
:1025B000232C810213040104232EA4FC232CB4FC3D
:1025C000232AC4FC2328D4FC930707002317F4FC18
:1025D000232604FE6F004004032784FD8327C4FEE6
:1025E000B307F700038707008326C4FD8327C4FED3
:1025F000B387F600238AE702032784FD8327C4FEFE
:10260000B307F70083870700638007028327C4FEB0
:10261000938717002326F4FE0327C4FE9307F000D8
:10262000E3FCE7FA6F008000130000008327C4FD7D
:10263000A3810704032744FD9307400063F6E700E6
:1026400093074000232AF4FC8327C4FD032744FD9D
:1026500023A6E7028327C4FD032744FD23A8E7043C
:102660008327C4FD23AA07048327C4FD938747005B
:1026700013850700EFF04FBE8327C4FD93878701C2
:1026800013850700EFF04FBD8327C4FD0327C4FD6A
:1026900023A8E70013075000832744FD3307F740C2
:1026A0008327C4FD23ACE7008327C4FD0327C4FDB3
:1026B00023A2E7028327C4FD23A207048327C4FDC6
:1026C00023AC07048327C4FD23AE070413000000D6
:1026D0008320C103032481031301010467800000E8
:1026E000130101FE232E1100232C8100130401028B
:1026F000232604FE6F0080030327C4FE9307070010
:1027000093972700B387E7009397270037F7018057
:10271000130707A6B387E70013850700EFF08FAD17
:102720008327C4FE938717002326F4FE0327C4FEE5
:1027300093074000E3F2E7FCB7F70180138547AC4D
:10274000EFF04FABB7F70180138587ADEFF08FAA9D
:10275000B7F701801385C7AEEFF0CFA9B7F70180B7
:10276000138507B0EFF00FA9B7F70180138547B1C4
:10277000EFF04FA837F70180130747AC23A8E19289
:1027800037F70180130787AD23AAE19213000000F9
:102790008320C1010324810113010102678000002D
:1027A000130101FE232E1100232C810013040102CA
:1027B0006F004007EFF09F92B7F7018083A707B043
:1027C00093B7170093F7F70F2326F4FEEFF09F93CC
:1027D0008327C4FE63980704EFE0DFD3B7F70180D7
:1027E000938707B083A7C70083A7C7002324F4FEFD
:1027F000832784FE9387470013850700EFF00FBE01
:1028000083A7C1931387F7FF23AEE19283A7819338
:102810001387F7FF23ACE192EFE01FD3032584FE7B
:10282000EF00801683A78193E39607F8130000005A
:102830008320C1010324810113010102678000008C
:10284000130101FE232E1100232C81001304010229
:102850002326A4FE83A7C1920327C4FE23A2E70078
:1028600083A701940327C4FE6370F70203A7419373
:1028700083A7C1929387470093850700130507003C
:10288000EFF08FA86F00000303A7019383A7C19205
:10289000938747009385070013050700EFF0CFA645
:1028A00083A7C1950327C4FE6376F7000327C4FE00
:1028B00023AEE194130000008320C10103248101B1
:1028C0001301010267800000130101FD232611029C
:1028D000232481021304010393070500232CB4FC75
:1028E000231FF4FC832784FD639E07008357E4FDC8
:1028F0009397270013850700EFE05F8B9307050090
:102900006F008000832784FD2324F4FE832784FE48
:10291000638A070213050006EFE05F892326A4FE01
:102920008327C4FE638A07008327C4FE032784FE2F
:1029300023A8E7026F004001032584FEEFE0DFA437
:102940006F008000232604FE8327C4FE63820702F3
:102950008327C4FE03A707038357E4FD939727004B
:10296000138607009305500A13050700EFF08FB098
:102970008327C4FE138507008320C102032481023C
:102980001301010367800000130101FE232E1100D3
:10299000232C8100130401022326A4FE8327C4FEF6
:1029A00083A7070313850700EFE01F9E0325C4FEDE
:1029B000EFE09F9D130000008320C10103248101EB
:1029C0001301010267800000130101FE232E810024
:1029D0001304010283A7019383A7070063960700EE
:1029E000930710006F0080009307000063880700C2
:1029F0001307F0FF23AEE1946F00000283A7019359
:102A000083A7C70083A7C7002326F4FE8327C4FE3D
:102A100003A7470023AEE194130000000324C10183
:102A20001301010267800000130101FD23268102CA
:102A300013040103232EA4FCF32740F12326F4FE04
:102A40008327C4FE2324F4FE370700408327C4FDF8
:102A500093D75700832684FE93965600B386F600DC
:102A6000B717000093870780B387F6009397270076
:102A7000B307F70083A707002322F4FE8327C4FDD2
:102A800093F7F70113071000B317F700032744FE6D
:102A9000B367F7002322F4FE370700408327C4FD05
:102AA00093D75700832684FE93965600B386F6008C
:102AB000B717000093870780B387F6009397270026
:102AC000B307F700032744FE23A0E700130000002C
:102AD0000324C1021301010367800000130101FEFA
:102AE000232E8100130401022326A4FE2324B4FE16
:102AF000370700408327C4FE93972700B307F700EA
:102B0000032784FE23A0E700130000000324C10173
:102B10001301010267800000130101FF2326110049
:102B20002324810013040101B70700901385C7FF18
:102B3000EFE00FB3930705009385070037050050BA
:102B4000EFE08FB137050050EFE08FB113070500BC
:102B5000B707028023AEE7E4B707028083A7C7E583
:102B600013850700EF00001E9307050093850700FB
:102B7000B707005013850702EFE00FAEB7070280DA
:102B800083A7C7E513850700EF00801E93070500A4
:102B900093850700B707005013850702EFE0CFAB1E
:102BA000B777000013857777EF000025B7F701802E
:102BB0009387C7C193850700B70700501385470067
:102BC000EFE08FA9EF10906FEF200031B7F7018091
:102BD00023AA07C6B7F7018023A807C61300000081
:102BE0008320C100032481001301010167800000DC
:102BF000130101FD23261102232481021304010382
:102C0000232EA4FC232604FE8327C4FE0327C4FD31
:102C1000B307F7008387070093850700B7070050C5
:102C200013850702EFE04FA38327C4FE93871700A5
:102C30002326F4FE8327C4FE9387F7FF0327C4FDF2
:102C4000B307F70083870700E39007FC1300000039
:102C50008320C10203248102130101036780000065
:102C6000130101FE232E1100232C81001304010205
:102C70002326A4FE8327C4FE93850700B7070050D0
:102C800013854702EFE04F9D130000008320C10130
:102C9000032481011301010267800000130101FE7A
:102CA000232E1100232C8100130401022326A4FEED
:102CB0002324B4FE0325C4FEEFF09FF3032584FE16
:102CC000EFF01FFAB75700801385875CEFF05FF2D3
:102CD000130000008320C1010324810113010102BC
:102CE00067800000130101FE232E1100232C8100B8
:102CF000130401022326A4FE2324B4FE2322C4FECF
:102D00002320D4FE0325C4FEEFF09FEE032584FEAE
:102D1000EFF01FF5032544FEEFF09FED032504FEC1
:102D2000EFF01FF4B75700801385875CEFF05FEC7E
:102D3000130000008320C10103248101130101025B
:102D400067800000130101FE232E8100130401029D
:102D50002326A4FE8327C4FE93D7870093F7F70F9B
:102D6000138507000324C1011301010267800000DD
:102D7000130101FE232E8100130401022326A4FE69
:102D80008327C4FE93F7F70F138507000324C101BF
:102D90001301010267800000130101FE232E1100C0
:102DA000232C8100130401022326A4FEEFE08FF6FA
:102DB0008325C4FEB707005013854700EFE0CF8995
:102DC000B727000093852722B70700501385870097
:102DD000EFE08F88EFE04FF7B75700801385C75CAF
:102DE000EFF01FE1130000008320C10103248101E3
:102DF0001301010267800000130101FE232E110060
:102E0000232C8100130401022326A4FE0327C4FE01
:102E1000B727000093872722630AF7000327C4FE21
:102E2000B777000093877777631CF70013051000CE
:102E3000EFF09FBF9305100013051000EFF01FCABD
:102E40000327C4FEB737000093873733630AF700C0
:102E50000327C4FEB777000093877777631EF700D8
:102E600013052000EFF05FBC930510001305200050
:102E7000EFF0DFC613000000130000008320C10143
:102E8000032481011301010267800000130101FF87
:102E9000232611002324810013040101B757008069
:102EA0001385075EEFF0DFD4B7F7018083A787B201
:102EB00013850700EF20001FEF005000B7570000F8
:102EC00093855755B707005013858700EFD0DFF87B
:102ED00093070000138507008320C10003248100AD
:102EE0001301010167800000130101FE232E110070
:102EF000232C810013040102B75700801385475F1C
:102F0000EFF01FCFB757008013850761EFF05FCE5A
:102F1000B7F7018083A7C7C193850700B757008023
:102F200013854762EFF09FD7B7F701809387C7C13A
:102F300083A7470093850700B75700801385076371
:102F4000EFF0DFD5B7F701809387C7C183A787006C
:102F500093850700B75700801385C763EFF01FD430
:102F6000B7F701809387C7C183A7C7009385070080
:102F7000B757008013858764EFF05FD2B7F7018001
:102F80009387C7C183A7070193850700B7570080C0
:102F900013854765EFF09FD0B7F701809387C7C1CE
:102FA00083A7470193850700B757008013850766FD
:102FB000EFF0DFCEB7F701809387C7C183A7870102
:102FC00093850700B75700801385C766EFF01FCDC4
:102FD000B7F701809387C7C183A7C701938507000F
:102FE000B757008013858767EFF05FCBB7F7018095
:102FF0009387C7C183A7070293850700B75700804F
:1030000013854768EFF09FC9B7F701809387C7C161
:1030100083A7470293850700B75700801385076988
:10302000EFF0DFC7B7F701809387C7C183A7870297
:1030300093850700B75700801385C769EFF01FC657
:10304000B7F701809387C7C183A7C702938507009D
:10305000B75700801385876AEFF05FC4B7F7018028
:103060009387C7C183A7070393850700B7570080DD
:103070001385476BEFF09FC2B7F701809387C7C1F5
:1030800083A78700130750036388E71213075003D1
:10309000636CF700130700036384E706130730032C
:1030A0006388E70E6F00002013070040638AE71271
:1030B000130710406380E71A130700206394E71E8C
:1030C000B7F701809387C7C103A7C700B7F701808F
:1030D0009387C7C183A50701B7F701809387C7C14D
:1030E00003A64701B7F701809387C7C183A787016C
:1030F0009386070013050700EF0050116F00801C36
:10310000B7F701809387C7C103A5C700B7F7018050
:103110009387C7C183A50701B7F701809387C7C10C
:1031200003A64701B7F701809387C7C183A687012C
:10313000B7F701809387C7C183A7C701138707002B
:10314000EF10D0242326A4FEB70702800327C4FE75
:10315000938607D29307070093972700B387E7006A
:1031600093974700B387F60083A7C70193850700AD
:10317000B707005013854700EFD01FCEB7F7018087
:103180009387C7C11307300323A4E7006F008013A0
:10319000B7F701809387C7C103A7C700B7F70180BE
:1031A0009387C7C183A7C70193850700130507004D
:1031B000EF00C0606F000011B7F701809387C7C1AF
:1031C00003A7C700B7F701809387C7C183A7C701CB
:1031D0009385070013050700EF1040486F00800E2D
:1031E000B7F701809387C7C103A7C700B7F701806E
:1031F0009387C7C183A7C7019385070013050700FD
:10320000EF10D0342326A4FE0327C4FE9307070043
:1032100093972700B387E700939747001387070228
:10322000B7070280938707D2B307F7009387470059
:1032300093850700B707005013854700EFD0DFC123
:10324000B7F701809387C7C11307104023A4E70095
:103250006F004007B7F701809387C7C103A7C70076
:10326000B7F701809387C7C183A7C701938507007C
:1032700013050700EF10902D2326A4FE0325C4FE9E
:10328000EF10D039B7F701809387C7C183A7C70074
:1032900093850700B75700801385076CEFF01FA0D8
:1032A0006F004002B7F701809387C7C183A78700EB
:1032B00093850700B75700801385076DEFF01F9EB9
:1032C00013000000B75700801385475FEFF05F924F
:1032D000B757000093855755B70700501385C700AF
:1032E000EFD09FB793070000138507008320C1012B
:1032F000032481011301010267800000130101FD15
:103300002326810213040103232EA4FC232CB4FCE6
:103310008327C4FD83C70700A307F4FE832784FD2A
:10332000038707008327C4FD2380E700832784FDEC
:103330000347F4FE2380E700130000000324C102CA
:103340001301010367800000130101FE232E110009
:10335000232C8100130401022326A4FE2324B4FE9F
:103360002322C4FE6F000004832784FE1387170006
:103370002324E4FE138707008327C4FEB386E700F7
:10338000832744FE1387F7FF2322E4FE13870700F9
:103390008327C4FEB387E7009385070013850600E3
:1033A000EFF0DFF5032784FE832744FEE34EF7FAB0
:1033B0008327C4FE138507008320C10103248101F4
:1033C0001301010267800000130101FD2326110291
:1033D0002324810213040103232EA4FC232CB4FC18
:1033E000232AC4FC032744FD9307100063D8E70099
:1033F000032744FD9307000263D6E700832784FD7B
:103400006F0040158327C4FD63DA07008327C4FDDE
:10341000B307F0402326F4FE6F00C0008327C4FDED
:103420002326F4FE232404FE6F00C0090327C4FEF4
:10343000832744FDB367F7022322F4FE032744FEEB
:103440009307900063DEE702832744FE93F7F70FAC
:103450009387770393F6F70F832784FE138717006C
:103460002324E4FE13870700832784FDB387E70046
:1034700013978601135787412380E7006F0080036D
:10348000832744FE93F7F70F9387070393F6F70F0D
:10349000832784FE138717002324E4FE1387070085
:1034A000832784FDB387E70013978601135787416D
:1034B0002380E7000327C4FE832744FDB347F702B8
:1034C0002326F4FE8327C4FEE39207F6832784FEB7
:1034D00063920702832784FE138717002324E4FEE8
:1034E00013870700832784FDB387E70013070003D2
:1034F0002380E7008327C4FD63D80702032744FD28
:103500009307A0006312F702832784FE1387170036
:103510002324E4FE13870700832784FDB387E70095
:103520001307D0022380E700832784FE032784FD4E
:10353000B307F70023800700832784FE9387F7FFF4
:103540001386070093050000032584FDEFF0DFDFFD
:1035500093070500138507008320C102032481021D
:103560001301010367800000130101FD232681027E
:1035700013040103232EA4FC232CB4FC232604FEF5
:103580008327C4FD139787008327C4FE3367F700A2
:10359000832784FDB367F700138507000324C10266
:1035A0001301010367800000130101FE232E1100A7
:1035B000232C8100130401022326A4FE2324B4FE3D
:1035C000B7F7018083A647C70327C4FE832784FE7D
:1035D0003367F700B7F7018093962600938707C5F6
:1035E000B387F60023A0E700B7F7018003A747C71A
:1035F000930770006318F700B7F7018023AA07C686
:103600006F008001B7F7018083A747C713871700B2
:10361000B7F7018023AAE7C6EF00400A13000000B5
:103620008320C1010324810113010102678000008E
:10363000130101FE232E810013040102B7F701805C
:1036400003A747C7B7F7018083A707C76316F7002B
:10365000B70730306F008005B7F7018003A707C7B1
:10366000B7F7018013172700938707C5B307F70043
:1036700083A707002326F4FEB7F7018003A707C737
:10368000930770006318F700B7F7018023A807C6F7
:103690006F008001B7F7018083A707C71387170062
:1036A000B7F7018023A8E7C68327C4FE1385070068
:1036B0000324C1011301010267800000130101FE10
:1036C000232E1100232C810013040102EFD09FE46C
:1036D000B707005013858700EFD08FF81307050058
:1036E0009307F00F6310F70CEFF09FF42326A4FE6E
:1036F0000327C4FEB70730306306F70A0327C4FE6A
:10370000B707FFFF3377F700B70710106310F70410
:103710000327C4FEB70701009387F7FF3377F7004D
:103720009307070093974700B387E74093972700D5
:1037300037F701801307C7B2B387E7009387870085
:1037400013850700EFF04FE56F0000050327C4FE67
:10375000B707FFFF3377F700B7072020631EF70294
:103760000327C4FEB70701009387F7FF3377F700FD
:103770009307070093973700B387E7009397670095
:1037800037F70180130787C7B387E7009387870060
:1037900013850700EFF04FE0B7F701800327C4FE61
:1037A00023A4E7B2EFD05FDA130000008320C10149
:1037B000032481011301010267800000130101FD50
:1037C000232611022324810213040103232EA4FCC7
:1037D000232CB4FCEF1010032326A4FE0327C4FE01
:1037E000B707FEFD9387D7DFE306F7FEB7F7018043
:1037F0000327C4FE9386C7B2930707009397470039
:10380000B387E74093972700B387F6003707FFFE9B
:103810001307E7EF23A2E70093050000130500005C
:10382000EFF09FD413060500B7F701800327C4FE0D
:103830009386C7B29307070093974700B387E74083
:1038400093972700B387F60023A4C700B7F701803A
:103850000327C4FE9386C7B29307070093974700D8
:10386000B387E74093972700B387F6001307B000AC
:1038700023A6E700B7F701800327C4FE9386C7B2EB
:103880009307070093974700B387E7409397270074
:10389000B387F6001307500323A8E700B7F70180AA
:1038A0000327C4FE9386C7B2930707009397470088
:1038B000B387E74093972700B387F6000327C4FD3B
:1038C00023AAE700B7F701800327C4FE9386C7B297
:1038D0009307070093974700B387E7409397270024
:1038E000B387F600032784FD23A2E7028325C4FEE5
:1038F00037051010EFF05FCB130000008320C102EA
:10390000032481021301010367800000130101FEFB
:10391000232E1100232C810013040102EF10806E6E
:103920002326A4FE0327C4FEB707FEFD9387D7DF37
:10393000E306F7FEB7F701800327C4FE9386C7B2FC
:103940009307070093974700B387E74093972700B3
:10395000B387F6003707FFFE1307E7EF23A2E70060
:103960009305000013050000EFF01FC013070500CA
:10397000B7070400B366F700B7F701800327C4FE5A
:103980001386C7B29307070093974700B387E740B2
:1039900093972700B307F60023A4D700B7F7018059
:1039A0000327C4FE9386C7B2930707009397470087
:1039B000B387E74093972700B387F6001307B0005B
:1039C00023A6E700B7F701800327C4FE9386C7B29A
:1039D0009307070093974700B387E7409397270023
:1039E000B387F6001307001023A8E7008325C4FE61
:1039F00037051010EFF05FBB130000008320C101FA
:103A0000032481011301010267800000130101FDFD
:103A1000232611022324810213040103232EA4FC74
:103A2000232CB4FC232AC4FC2328D4FCEF00401C24
:103A3000930705002326F4FEB7F601800327C4FE92
:103A40009307070093972700B387E70093975700E2
:103A50001387065AB387E7001307100023A0E70077
:103A6000B7F701800327C4FE9386075A9307070020
:103A700093972700B387E70093975700B387F60023
:103A80000327C4FD23A2E700B7F701800327C4FE84
:103A90009386075A9307070093972700B387E70099
:103AA00093975700B387F600032784FD23A4E7000C
:103AB000B7F701800327C4FE9386075A93070700D0
:103AC00093972700B387E70093975700B387F600D3
:103AD000032744FD23A6E700B7F601800327C4FEB1
:103AE0009307070093972700B387E7009397570042
:103AF0001387065AB387E700032704FD23A8E700CE
:103B0000EFE04FF613070500832784FDB306F700A7
:103B1000B7F701800327C4FE1386075A93070700EF
:103B200093972700B387E70093975700B307F600F2
:103B300023A6D708B7F601800327C4FE9307070022
:103B400093972700B387E700939757001387065A88
:103B5000B387E70023A80708B7F701800327C4FE4F
:103B60009386075A9307070093972700B387E700C8
:103B700093975700B387F6001307F0FF23AAE708CF
:103B8000B7F701800327C4FE9386075A93070700FF
:103B900093972700B387E70093975700B387F60002
:103BA00023AC0708B7F701800327C4FE9386075AA2
:103BB0009307070093972700B387E7009397570071
:103BC000B387F60023AE07088327C4FD938507005B
:103BD000B757008013854772EFF04F8C1300000039
:103BE0008320C102032481021301010367800000C6
:103BF000130101FE232E810013040102232604FE7B
:103C00006F000004B7F601800327C4FE9307070086
:103C100093972700B387E700939757001387065AB7
:103C2000B387E70083A70700639607008327C4FED6
:103C30006F0000028327C4FE938717002326F4FE3B
:103C40000327C4FE9307B000E3DEE7FA9307F0FF13
:103C5000138507000324C1011301010267800000DE
:103C6000130101FE232E810013040102232604FE0A
:103C70006F004003B7F601800327C4FE93070700D7
:103C800093972700B387E700939757001387065A47
:103C9000B387E70023A007008327C4FE938717009C
:103CA0002326F4FE0327C4FE9307B000E3D4E7FC09
:103CB000130000000324C10113010102678000000A
:103CC000130101FE232E810013040102232404FEAC
:103CD0006F00C00E232204FE6F00C00CB7060280E6
:103CE000032784FE9307070093971700B387E70025
:103CF000032744FEB387E70013974700938746DC0A
:103D0000B307F7001307101123A0E700B7060280DE
:103D1000032784FE9307070093971700B387E700F4
:103D2000032744FEB387E700138746DC93974700D9
:103D3000B307F7001307803E23A2E700232604FE03
:103D40006F00C004B7060280032784FE93070700B4
:103D500093971700B387E700032744FEB387E70074
:103D6000139727008327C4FEB307F700138746DCA9
:103D700093972700B307F7001307F0FF23A4E7008A
:103D80008327C4FE938717002326F4FE0327C4FE6F
:103D900093071000E3D8E7FA832744FE93871700C0
:103DA0002322F4FE032744FE93072000E3D8E7F222
:103DB000832784FE938717002324F4FE032784FEC1
:103DC00093072000E3D8E7F0130000000324C101AB
:103DD0001301010267800000130101FE232E810000
:103DE00013040102232404FEB707028023A007DC8A
:103DF000232604FE6F000007032784FE930730008C
:103E0000B347F70213978700832684FE9307300099
:103E1000B3E7F602B367F70093860700B7F70180B0
:103E20000327C4FE131727009387C757B307F7006C
:103E300023A0D700032784FE9307600063CAE7002E
:103E4000832784FE938727002324F4FE6F00C0009D
:103E5000930710002324F4FE8327C4FE93871700E2
:103E60002326F4FE0327C4FE93078000E3D6E7F879
:103E7000130000000324C101130101026780000048
:103E8000130101FD23261102232481022322910222
:103E900013040103232EA4FC232604FE6F008029B3
:103EA000B7F601800327C4FE930707009397270006
:103EB000B387E700939757001387065AB387E70045
:103EC00003A70700930710006310F726B7F70180D8
:103ED0000327C4FE9386075A93070700939727008A
:103EE000B387E70093975700B387F60083A7C70807
:103EF0000327C4FD636AF722B7F701800327C4FED6
:103F00009386075A9307070093972700B387E70024
:103F100093975700B387F60083A6C708B7F70180C9
:103F20000327C4FE1386075A9307070093972700B9
:103F3000B387E70093975700B307F60083A74709B5
:103F40006384F61EB7F601800327C4FE93070700BB
:103F500093972700B387E700939757001387065A74
:103F6000B387E70083A40701EF000045930705002E
:103F700063EC971A232404FE6F00C013EF00C01DEA
:103F8000930705002322F4FE832744FE0327C4FE83
:103F9000832684FE13860600930507001385070019
:103FA000EF004030930705002320F4FE032704FEB2
:103FB0009307F0FF6314F7006FF05FFC130000003D
:103FC00037F70180832784FE8326C4FE1306075A31
:103FD00013870700131717003307F70093172700FD
:103FE000138707009387060093972700B387D700AE
:103FF00093975700B307F700B307F6001307300095
:1040000023AAE700032644FE37F70180832784FEB6
:104010008326C4FE9305075A13870700131717005A
:104020003307F700931727001387070093870600CD
:1040300093972700B387D70093975700B307F700EC
:10404000B387F50023ACC700032604FE37F70180D1
:10405000832784FE8326C4FE9305075A138707002F
:10406000131717003307F70093172700138707006C
:104070009387060093972700B387D700939757003D
:10408000B307F700B387F50023AEC7008327C4FE4C
:10409000032784FE832644FE13860600930507004B
:1040A00013850700EF000042832784FE93871700E3
:1040B0002324F4FEB7F601800327C4FE930707000C
:1040C00093972700B387E700939757001387065A03
:1040D000B387E70003A70701832784FEE3E0E7EA4D
:1040E000B7F701800327C4FE9386075A930707009A
:1040F00093972700B387E70093975700B387F6009D
:1041000083A6C708B7F701800327C4FE1386075AA2
:104110009307070093972700B387E700939757000B
:10412000B307F60023AAD7088327C4FE9387170096
:104130002326F4FE0327C4FE9307B000E3D2E7D69C
:10414000130000008320C102032481028324410262
:104150001301010367800000130101FE232E1100EB
:10416000232C8100232A91001304010293050000EF
:1041700013050000EFF04FBF2324A4FEB707028011
:1041800003A707DCB7F70180131727009387C757EA
:10419000B307F70083A40700930500001305000090
:1041A000EFF08FBC93070500638AF408232604FE12
:1041B0006F000008032584FEEFE0DFB893040500DC
:1041C000032584FEEFE0DFBA93060500370702807F
:1041D0009387040093971700B3879700B387D7009E
:1041E000939627008327C4FEB387F600130747DCA6
:1041F00093972700B307F70003A787009307F0FF03
:104200006312F702B707028003A707DCB7F7018044
:10421000131727009387C757B307F70083A7070033
:104220002324F4FE8327C4FE938717002326F4FE7D
:104230000327C4FE93071000E3DEE7F6B70702800A
:1042400083A707DC13871700B707028023A0E7DCEA
:10425000B707028003A707DC930790006316F700F7
:10426000B707028023A007DC9305000013050000B8
:10427000EFF08FAF13070500832784FE6394E700F8
:104280006FF0DFEF13000000832784FE1385070023
:104290008320C10103248101832441011301010210
:1042A00067800000130101FD2326110223248102EF
:1042B000232291022320210313040103232EA4FCB3
:1042C000232CB4FC232AC4FC232604FE6F00000C1C
:1042D0000325C4FDEFE01FA7930405000325C4FDDB
:1042E000EFE01FA9930605003707028093870400BB
:1042F00093971700B3879700B387D700939627004B
:104300008327C4FEB387F600130747DC9397270083
:10431000B307F70003A787009307F0FF6312F706C0
:10432000832784FD939407010325C4FDEFE09FA13B
:10433000130905000325C4FDEFE09FA31306050044
:10434000832744FD33E7F400B70602809307090092
:1043500093971700B3872701B387C70013962700E9
:104360008327C4FEB307F600938646DC93972700A5
:10437000B387F60023A4E7008327C4FE6F00000282
:104380008327C4FE938717002326F4FE0327C4FE69
:1043900093071000E3DEE7F29307F0FF13850700B1
:1043A0008320C102032481028324410203290102E4
:1043B0001301010367800000130101FE232E110089
:1043C000232C8100232A910013040102232004FEE0
:1043D000232604FE6F00800C232404FE6F00800A55
:1043E0008327C4FE032784FE930507001385070077
:1043F000EFF08F979304050093050000130500006C
:10440000EFF08F96930705006388F406232204FEDD
:104410006F00C005B70602800327C4FE930707009C
:1044200093971700B387E700032784FEB387E7005D
:1044300013972700832744FEB307F700138746DC52
:1044400093972700B307F70003A787009307F0FFB0
:104450006318F700832704FE938717002320F4FED8
:10446000832744FE938717002322F4FE032744FE8C
:1044700093071000E3D0E7FA832784FE93871700A1
:104480002324F4FE032784FE93072000E3DAE7F4F5
:104490008327C4FE938717002326F4FE0327C4FE58
:1044A00093072000E3DAE7F2832704FE1385070071
:1044B0008320C101032481018324410113010102EE
:1044C00067800000130101FD2326110223248102CD
:1044D00013040103232EA4FC232CB4FC232AC4FCC4
:1044E000EF0050322326A4FE0327C4FEB707FEFDCB
:1044F0009387D7DFE306F7FE8327C4FE9385070083
:10450000B757008013858774EFE04FF9B7F7018044
:104510000327C4FE9386C7B293070700939747000B
:10452000B387E74093972700B387F6003707FFFE6E
:104530001307E7EF23A2E70093050000130500002F
:10454000EFF08F8213070500B7070400B366F7008A
:10455000B7F701800327C4FE1386C7B2930707008D
:1045600093974700B387E74093972700B307F60078
:1045700023A4D700B7F701800327C4FE9386C7B2F0
:104580009307070093974700B387E7409397270067
:10459000B387F6001307B00023A6E700B7F7018042
:1045A0000327C4FE9386C7B293070700939747007B
:1045B000B387E74093972700B387F60013070003FC
:1045C00023A8E700B7F701800327C4FE9386C7B28C
:1045D0009307070093974700B387E7409397270017
:1045E000B387F600032784FD23AAE700B7F701800D
:1045F0000327C4FE9386C7B293070700939747002B
:10460000B387E74093972700B387F6000327C4FDDD
:1046100023A2E702B7F701800327C4FE9386C7B23F
:104620009307070093974700B387E74093972700C6
:10463000B387F600032744FD23ACE7028325C4FEBD
:1046400037051010EFE05FF6130000008320C10271
:10465000032481021301010367800000130101FD9F
:10466000232611022324810213040103232EA4FC18
:10467000232CB4FC37F701808327C4FD832684FDF7
:104680001306075A13870700131717003307F7009D
:104690009317270013870700938706009397270037
:1046A000B387D70093975700B307F700B307F60017
:1046B0001307400023AAE700232604FE6F008005AD
:1046C00037F701808327C4FE832684FD1306075A2B
:1046D00013870700131717003307F70093172700F6
:1046E000138707009387060093972700B387D700A7
:1046F00093975700B307F700B307F60003A74701E6
:1047000093074000631CF7068327C4FE93871700B6
:104710002326F4FEB7F60180032784FD93070700E4
:1047200093972700B387E700939757001387065A9C
:10473000B387E70083A707010327C4FEE362F7F806
:10474000032784FD93061000B757008013868776F1
:1047500093050700B757008013858777EFE08FD860
:10476000032584FDEF00C002B757008013858778CA
:10477000EFE00FC8130000006F008000130000007E
:104780008320C1020324810213010103678000001A
:10479000130101FD232611022324810213040103C6
:1047A000232EA4FC232604FE6F00402DEF00807B07
:1047B0002322A4FE032744FEB707FEFD9387D7DF1D
:1047C000E306F7FEB7F70180032744FE938687C709
:1047D0009307070093973700B387E7009397670025
:1047E000B387F6003707FFFE1307E7EF23A2E700C2
:1047F00037F701808327C4FE8326C4FD1306075ABA
:1048000013870700131717003307F70093172700C4
:10481000138707009387060093972700B387D70075
:1048200093975700B307F700B307F60083A68701F5
:10483000B7F70180032744FE138687C79307070055
:1048400093973700B387E70093976700B307F600A5
:1048500023A4D700B7F601800327C4FD9307070000
:1048600093972700B387E700939757001387065A5B
:10487000B387E70083A707019386C700B7F70180D6
:10488000032744FE138687C79307070093973700D3
:10489000B387E70093976700B307F60023A6D70016
:1048A000B7F70180032744FE938687C79307070065
:1048B00093973700B387E70093976700B387F600B5
:1048C0001307004023A8E700B7F70180032744FE41
:1048D000938687C79307070093973700B387E7004E
:1048E00093976700B387F6000327C4FE23AAE70067
:1048F000B7F70180032744FE938687C79307070015
:1049000093973700B387E70093976700B387F60064
:104910000327C4FD23A2E702B7F601800327C4FDE5
:104920009307070093972700B387E70093975700F3
:104930001387065AB387E70083A60701B7F70180FC
:10494000032744FE138687C7930707009397370012
:10495000B387E70093976700B307F60023AED7024B
:10496000232404FE6F00400D37F70180832784FE67
:104970008326C4FD1306075A138707001317170071
:104980003307F70093172700138707009387060064
:1049900093972700B387D70093975700B307F70083
:1049A000B307F60083A6870137F60180032744FE8C
:1049B0009307070093973700B387E7009397470063
:1049C000032784FEB387E7009387C700130786C7D2
:1049D00093972700B307F70023A8D700832584FE09
:1049E000B7F60180032744FE93070700939737002B
:1049F000B387E70093974700032784FEB387E70058
:104A00009387C700138786C793972700B307F700DC
:104A100083A7070193860700B75700801386C77ADC
:104A2000B75700801385477BEFE0CFAB832784FE29
:104A3000938717002324F4FEB7F601800327C4FDF3
:104A40009307070093972700B387E70093975700D2
:104A50001387065AB387E70083A70701032784FE5D
:104A6000E364F7F0832544FE37052020EFE0DFB351
:104A70008327C4FE938717002326F4FEB7F6018030
:104A80000327C4FD9307070093972700B387E70028
:104A9000939757001387065AB387E70083A7070148
:104AA0000327C4FEE364F7D0130000008320C10293
:104AB000032481021301010367800000130101FE3A
:104AC000232E810013040102232604FE6F004003FD
:104AD000B70602800327C4FE9307070093972700B9
:104AE000B387E70093974700138706D2B387E700A1
:104AF00023A007008327C4FE938717002326F4FE14
:104B00000327C4FE93071000E3F4E7FC1300000042
:104B10000324C1011301010267800000130101FE9B
:104B2000232E810013040102232604FE6F000004DB
:104B3000B70602800327C4FE930707009397270058
:104B4000B387E70093974700138706D2B387E70040
:104B500083A70700639607008327C4FE6F00000247
:104B60008327C4FE938717002326F4FE0327C4FE81
:104B700093071000E3FEE7FA9307F0FF13850700A1
:104B80000324C1011301010267800000130101FC2D
:104B9000232E1102232C810213040104232EA4FCD2
:104BA000232CB4FC232AC4FC2328D4FC2326E4FCB5
:104BB000EFF0DFF62326A4FEB70602800327C4FE2B
:104BC0009307070093972700B387E7009397470061
:104BD000138706D2B387E7001307200023A0E7005E
:104BE000B70602800327C4FE9307070093972700A8
:104BF000B387E70093974700138706D2B387E70090
:104C000023A80700B70702800327C4FE938607D2B4
:104C10009307070093972700B387E7009397470010
:104C2000B387F6000327C4FD23A2E700B70702807D
:104C30000327C4FE938607D29307070093972700A4
:104C4000B387E70093974700B387F6000327C4FCB8
:104C500023A4E700032784FD832744FDB307F7005F
:104C600093962700B70702800327C4FE138607D256
:104C70009307070093972700B387E70093974700B0
:104C8000B307F60023ACD700B70702800327C4FEA2
:104C9000938607D29307070093972700B387E7000F
:104CA00093974700B387F60083A787011385070012
:104CB000EFC0CFCF9307050013860700B707028028
:104CC0000327C4FE938607D2930707009397270014
:104CD000B387E70093974700B387F60023AEC7007A
:104CE000B70702800327C4FE938607D29307070005
:104CF00093972700B387E70093974700B387F600A1
:104D000003A7C701832704FD93972700B306F70085
:104D1000370602800327C4FE9307070093972700F6
:104D2000B387E70093974700130706D2B387E700DE
:104D300023A0D7028327C4FE138507008320C10365
:104D4000032481031301010467800000130101FDA6
:104D50002326810213040103232EA4FC232CB4FC7C
:104D6000232604FE6F008009B70702800327C4FED4
:104D7000938607D29307070093972700B387E7002E
:104D800093974700B387F60083A747000327C4FD26
:104D90006310F706B70702800327C4FE938607D285
:104DA0009307070093972700B387E700939747007F
:104DB000B387F60083A78700032784FD631AF702F1
:104DC000B70602800327C4FE9307070093972700C6
:104DD000B387E70093974700138706D2B387E700AE
:104DE00083A70700638607008327C4FE6F000002C5
:104DF0008327C4FE938717002326F4FE0327C4FEEF
:104E000093079000E3F2E7F69307F0FF138507009E
:104E10000324C1021301010367800000130101FE96
:104E2000232E1100232C8100130401022326A4FE4B
:104E3000B70602800327C4FE930707009397270055
:104E4000B387E70093974700138706D2B387E7003D
:104E50001307100023A0E700B70602800327C4FE53
:104E60009307070093972700B387E70093974700BE
:104E7000138706D2B387E70083A7070213850700CD
:104E80000327C4FE9307070093972700B387E70023
:104E90009397470037070280130707D2B387E700CD
:104EA0009387C70093080000130800001307100041
:104EB0009306000013060040B75500809385C57B1C
:104EC000EFC0DFEE130000008320C1010324810145
:104ED0001301010267800000130101FE232E8100EF
:104EE00013040102232604FE6F000006B7F60180BA
:104EF0000327C4FE9307070093973700B387E700A3
:104F000093976700138786C7B387E7001307F0FFFF
:104F100023A0E700B7F601800327C4FE930707002C
:104F200093974700B387E740939727001387C6B24C
:104F3000B387E7001307F0FF23A0E7008327C4FE31
:104F4000938717002326F4FE0327C4FE930730003F
:104F5000E3DEE7F8130000000324C101130101029E
:104F600067800000130101FE232E8100130401025B
:104F7000232604FE6F00C006B7F601800327C4FE97
:104F80009307070093973700B387E700939767006D
:104F9000138786C7B387E70003A707009307F0FFCF
:104FA000631AF702B7F601800327C4FE93070700D0
:104FB00093973700B387E70093976700138786C7F7
:104FC000B387E7001307100023A0E7008327C4FE80
:104FD0006F0040028327C4FE938717002326F4FE48
:104FE0000327C4FE93073000E3D8E7F8B707FEFDB8
:104FF0009387D7DF138507000324C1011301010242
:1050000067800000130101FE232E810013040102BA
:10501000232604FE6F00C006B7F601800327C4FEF6
:105020009307070093974700B387E74093972700BC
:105030001387C6B2B387E70003A707009307F0FF03
:10504000631AF702B7F601800327C4FE930707002F
:1050500093974700B387E740939727001387C6B21B
:10506000B387E7001307100023A0E7008327C4FEDF
:105070006F0040028327C4FE938717002326F4FEA7
:105080000327C4FE93073000E3D8E7F8B707FEFD17
:105090009387D7DF138507000324C10113010102A1
:1050A00067800000130101FD232681021304010320
:1050B000232EA4FC0327C4FDB707FFFFB377F70037
:1050C0002326F4FE0327C4FDB70701009387F7FFEB
:1050D000B377F7002324F4FE0327C4FEB7071010AC
:1050E0006318F702B7F60180032784FE93070700D1
:1050F00093974700B387E740939727001387C6B27B
:10510000B387E7001307F0FF23A0E7006F00000359
:10511000B7F60180032784FE9307070093973700B3
:10512000B387E70093976700138786C7B387E700C5
:105130001307F0FF23A0E700130000000324C102BF
:105140001301010367800000130101FE232E81007B
:1051500013040102F32740F12324F4FE832784FE85
:105160002322F4FE232604FE6F00C003370700400D
:10517000832744FE939657008327C4FEB386F60028
:10518000B717000093870780B387F600939727002F
:10519000B307F70023A007008327C4FE93871700F7
:1051A0002326F4FE8327C4FEE38207FC232604FEA5
:1051B0006F004002370700408327C4FE9397270003
:1051C000B307F70023A007008327C4FE93871700C7
:1051D0002326F4FE0327C4FE9307E001E3FCE7FC6B
:1051E00037070040832744FE938707209397C70023
:1051F000B307F70023A00700B717000093870780C5
:10520000F3A747302320F4FE130000000324C1015C
:105210001301010267800000130101FD2326110222
:105220002324810213040103EFF01FF29306100000
:105230001306C002B7150070B7070280138547E553
:10524000EFB01FCFB75700809385C77DB7070280A7
:10525000138547E5EFB09FEAEFD01F8CB76700805A
:1052600093854780B7070280138547E5EFB01FE9B4
:10527000B707028083A7C7E5138707009307C4FD1C
:10528000130600019385070013050700EFE0CF9395
:105290009307C4FD93850700B7070280138547E590
:1052A000EFB0DFE5B767008093850783B70702801B
:1052B000138547E5EFB09FE4B707028083A7C7E5F2
:1052C00063940704B767008093854783B70702801C
:1052D000138547E5EFB09FE2930800001308000034
:1052E0009307000013072000930600001306803E7A
:1052F000B765008093850586375500801305854284
:10530000EFC0DFAA6F000007B767008093850787AB
:10531000B7070280138547E5EFB05FDE9308000012
:1053200013080000930700001307200093060000F5
:105330001306803EB7650080938505893755008048
:105340001305053CEFC09FA693080000130800005A
:105350009307000013072000930600001306803E09
:10536000B765008093858589375500801305453FD3
:10537000EFC0DFA3EFC09FCD9307000013850700A8
:105380008320C1020324810213010103678000000E
:10539000130101FF232681001304010173700430FF
:1053A0006F000000130101FF232681001304010197
:1053B000130000000324C1001301010167800000F5
:1053C000130101FE232E1100232C8100130401027E
:1053D0002326A4FEB76700809385078AB70702805B
:1053E000138547E5EFB09FD113052000EFC0DFBD67
:1053F0006FF05FFE130101FE232E1100232C8100AC
:10540000130401022326A4FEB76700809385C78A90
:10541000B7070280138547E5EFB05FCE1305500054
:10542000EFC09FBA6FF05FFE130101FD232611024A
:105430002324810213040103232EA4FCEFE0DF994F
:10544000EFE01F88EFE0DF81EFE04FCCEFC09FE19E
:10545000930705002326F4FE8325C4FEB76700806A
:105460001385878BEFD09F83B76700809385C78CA8
:10547000B7070280138547E5EFB05FC88327C4FEF6
:1054800013850700EFE0DF9F13051000EFC0DFB3C7
:105490006FF0DFFB970700009387C746930606006F
:1054A000138605009305050003A507006F00400063
:1054B000130101FF23248100130405001385050057
:1054C000930506001386060097A7010023A8070A84
:1054D00023261100EFB0DF899307F0FF631CF5006E
:1054E00097A701009387870983A7070063840700B4
:1054F0002320F4008320C100032481001301010153
:1055000067800000000000000000000000000000B4
:1055100068656C6C6F000000446574656374656950
:1055200020756D61206368616D616461205445532D
:1055300054452064652073697374656D61210A00A8
:105540006172673020000000617267312000000046
:105550006172673220000000617267332000000032
:1055600061726734200000007479706520000000CB
:1055700053797374656D63616C6C206EC3A36F2087
:105580006964656E7469666963616461210A00001B
:10559000747261700A000000307800000A50726F67
:1055A00067616D2068617320657869746564207730
:1055B00069746820636F64653A0000000D000000A4
:1055C00049444C45000000000A0000004D656E7320
:1055D0006167656D20656E7669616461210A00000E
:1055E000494E54455252555054494F4E2054580A32
:1055F000000000003D3D3D3D3D3D3D3D3D3D3D3DCF
:105600003D3D3D3D3D3D3D3D3D3D3D3D3D3D0A003A
:10561000494E54455252555054494F4E2052580A03
:1056200000000000466C69742030203A2000000021
:10563000466C69742031203A20000000466C697481
:105640002032203A20000000466C69742033203A52
:1056500020000000466C69742034203A20000000CD
:10566000466C69742035203A20000000466C69744D
:105670002036203A20000000466C69742037203A1A
:1056800020000000466C69742038203A2000000099
:10569000466C69742039203A20000000466C697419
:1056A0002031303A20000000466C69742031313AD4
:1056B00020000000466C69742031323A200000005E
:1056C0005374617274696E67205461736B3A200081
:1056D0004552524F522045787465726E616C5F324C
:1056E0005F49525148616E646C657220556E6B6EF5
:1056F0006F776E2D536572766963650066726F6DA4
:105700003A2000006D736720706F696E7465723A9D
:10571000200000004D696E6861207461736B204940
:10572000443A20004E6577206170706C6963617443
:10573000696F6E2072656769737465726564202D88
:105740002049443A200000004920676F74206120FE
:1057500066726565207365727669636520736C6F28
:10576000742121202D3E200020697320616C6C6F14
:1057700063617465642100004170706C69636174D9
:10578000696F6E2000000000095374617274206319
:105790006F6D6D616E642073656E7420746F20652B
:1057A00076657279207461736B2E0A0020616464DF
:1057B000722000007461736B200000004C61546122
:1057C000736B00000D0A4672656552544F532045B5
:1057D00078616D706C650D0A000000000A20436856
:1057E000726F6E6F7320706C6174666F726D20697A
:1057F0006E697469616C697A696E672E2E2E200A53
:10580000000000000A2054686973207465726D6995
:105810006E616C2062656C6F6E677320746F2074AC
:10582000686520616464726573733A20000000004B
:105830000A0000000A20546869732070726F636563
:1058400073736F722069732074686520476C6F6290
:10585000616C204D61737465723A200A000000008B
:10586000476C6F62616C4D6173746572000000007B
:105870000A20546869732070726F636573736F7266
:10588000206973206120536C6176653A200A00001C
:1058900055417274310000005541727432000000AD
:1058A0005461736B202D20310D0A00005461736B1D
:1058B000202D20320D0A0000476C6F62616C4D6133
:1058C000737465724163746976650000476C6F623A
:1058D000616C4D6173746572526F7574696E652E7B
:1058E0002E2E0D0A00000000000000000000000045
:1058F000FC8F0100AAAAAAAAF8BF004400400044F5
:10590000905900800000000000000000000000002E
:10591000F80700808C2E0080E82E00801808008098
:1059200038080080580800807808008098080080B7
:10593000B8080080D8080080F808008018090080A6
:105940003809008058090080780900809809008093
:10595000B8090080D8090080F8090080180A008082
:10596000380A0080580A0080780A0080980A00806F
:10597000B80A0080D80A0080F80A0080180B00805E
:10598000380B0080580B0080780B0080980B00804B
:105990000000000000000000000000000000000007
:1059A00000000000000000000000000000000000F7
:1059B00000000000000000000000000000000000E7
:1059C00000000000000000000000000000000000D7
:1059D00000000000000000000000000000000000C7
:1059E00000000000000000000000000000000000B7
:040000058000000077
:00000001FF
